:020000040800F2
:10000000A804002031130008251200082712000858
:10001000291200082B1200082D1200080000000011
:100020000000000000000000000000002F12000887
:1000300031120008000000003312000835120008D9
:100040004113000845130008491300084D13000828
:100050005113000855130008591300085D130008D8
:100060006113000865130008691300086D13000888
:100070007113000875130008791300087D13000838
:100080008113000885130008891300088D130008E8
:1000900039120008911300089513000899130008FD
:1000A0009D130008A1130008A5130008A913000858
:1000B000AD130008B1130008B5130008B913000808
:1000C000BD130008C1130008C5130008C9130008B8
:1000D000CD130008D1130008D5130008D913000868
:1000E000DD130008E1130008E5130008E913000818
:1000F000ED130008F1130008F5130008F9130008C8
:10010000FD130008000000000000000001140008BA
:1001100005140008091400080D1400081114000843
:1001200015140008191400081D14000821140008F3
:100130002514000829140008000000000000000039
:100140002D140008311400083514000800000000C8
:10015000000000000000000000000000000000009F
:10016000391400083D140008411400084514000823
:10017000491400084D1400085114000855140008D3
:10018000591400085D140008000000000000000081
:100190006114000838B5040022D094F8200010B98A
:1001A000204600F029FB00F00CF900F065FB054645
:1001B00020684168880705D500F05EFB401B0B28CE
:1001C000F6D30BE000F003F9054620684168C80744
:1001D00008D400F051FB401B0B28F6D300F0E9F8DF
:1001E000012032BD207E012805D12168086840F039
:1001F0008000086004E02068016821F0800101604F
:10020000607E00F03DF80CBF41F0400121F040015C
:100210000160A07E00F034F80CBF41F0200121F015
:1002200020010160E07E00F02BF80CBF21F01001EE
:1002300041F010010160207F00F022F80CBF41F076
:10024000080121F008010160607F00F019F80CBF7F
:1002500041F0040121F004010160A268E068216915
:10026000024360690A43616802432068491E0A43E9
:10027000C26100216162012084F82000002032BDAB
:100280000128206801687047F0B5026890F82030B6
:10029000012B18BF022B56D1D2F8000240F001000A
:1002A000C2F8000201240B7DD2F81C5203F01F0398
:1002B00004FA03F3DC432540C2F81C52C86968B94C
:1002C000D2F80C022040C2F80C02CE6800F03FF8D1
:1002D0000F684D69C7EA064C40F835C0C869012867
:1002E0000DD1D2F80C021843C2F80C020E6800F0CF
:1002F0002EF8CF684D69C7EA064640F83560886930
:100300000028D2F804020CBF20401843C2F80402AF
:1003100008690028D2F8140207BF0440C2F814424A
:100320001843C2F81402086A012804D1D2F81C024A
:100330000343C2F81C32D2F8000240084000C2F861
:1003400000020020F0BD416A41F48021AFE04F6817
:10035000486902F51075C7EA064645F8306002F5AF
:1003600011708E68704738B5044694F82000012853
:1003700019D1022184F82010206802685208520026
:10038000026000F079FA054620684168C80707D581
:1003900000F072FA401B0B28F6D300F00AF806E0D2
:1003A0000020606232BD606A40F40020606201207B
:1003B00032BD606A40F400306062052184F820108C
:1003C00070472068016821F00201016070472068D1
:1003D000016841F00101016000F04EBAF0B590F8FB
:1003E00020400568AD68012C18BF022C5CD115F0C7
:1003F000E05F55D0C5F30164032C03D3416A41F497
:10040000000154E00125A5401D608B68CD68066899
:10041000240133B90B6806F5C07645EA43553551DA
:1004200006E04F6843EAC7031D4306F5C0731D513C
:1004300003680D6903F5C2763551097D012908D19C
:10044000016801F5C27301F5C2711D5945F480754B
:100450000D519579D37911792D0445EA03655379C6
:1004600045EA0325036823440D43C3F88C51937870
:10047000D17855781B0443EA01631178026843EA96
:10048000052322440B43C2F88831006800F5C0718F
:1004900000F5C0700A5942F0010202510020F0BD7F
:1004A000416A41F4001102E0416A41F48021416255
:1004B0000120F0BD416A41F4802141620120704772
:1004C000F0B590F82040012C18BF022C64D100290F
:1004D000046801D1E56800E0256915F0030F03D138
:1004E000416A41F400115AE00D0104F5D8767459BF
:1004F00014F004049460066806F5D874665907BFC2
:10050000760D1660F6085660046804F5D8767759BB
:10051000C7F34004D46000F043F806F00F061661FC
:1005200000F03EF8C6F30724946100F039F8360C69
:10053000566102682A44D2F8B8411C7006682E44FD
:10054000D6F8B821120A5A7004682C44D4F8B8219D
:10055000120C9A7004682C44D4F8B821120EDA7088
:1005600000F023F81A7100F020F8120A5A7100F016
:100570001CF8120C9A7100F018F8120EDA7100686B
:1005800021B9C16841F02001C16003E0016941F077
:10059000200101610020F0BD416A41F4802186E71D
:1005A00004682C44D4F8B461704704682C44D4F82F
:1005B000BC21704790F82020012A18BF022A03D1DD
:1005C00000684269114300E074E741610020704710
:1005D0002DE9F84F05464FF0000828684669D0F825
:1005E00004B08468D0F80C90D0F810A08769F107A7
:1005F00045D5E20713D501218160A00703D5284620
:1006000000F040F90BE0600748BF4FF4006806D4E3
:1006100020074EBF4FF48058284600F034F9E0051B
:1006200015D52A684FF48071A005916003D528463E
:1006300000F02AF90BE0600548BF48F4005806D4E2
:1006400020054EBF48F48048284600F01EF9E0031C
:1006500015D52A684FF48031A003916003D5284650
:1006600000F014F90BE0600348BF48F4004806D4DA
:1006700020034EBF48F48038284600F008F93007C0
:1006800048BF5FEAC96104D52968102048F40078A2
:10069000C860700748BF5FEA097105D52A6808205D
:1006A000D060284600F0F4F8B00707D52968C8687C
:1006B00010F0030F1CBF284600F0EBF8700648BF8F
:1006C0005FEACA6104D52968102048F4806808618F
:1006D000B00648BF5FEA0A7105D52A680820106194
:1006E000284600F0D7F8F00607D52968086910F009
:1006F000030F1CBF284600F0CEF8B00348BF5FEAE6
:10070000CB6105D52A6810205060284600F0C4F857
:10071000F00348BF5FEA0B7105D52A6808205060D6
:10072000284600F0BAF8300440D55FEA4B713AD55C
:10073000F00503D5F90748BF48F00108B00503D517
:10074000B90748BF48F00208700503D5790748BFCC
:1007500048F00408300526D517F0700F23D007F0B5
:100760007007102F0CD0202F0DD0302F0ED0402F1F
:100770000FD0502F10D0602F08BF48F480780DE0C4
:1007800048F008080AE048F0100807E048F02008A0
:1007900004E048F0400801E048F0800828688169DA
:1007A00021F070018161042029684860B8F1000FD0
:1007B00008D0686A48EA000068622846BDE8F24F3F
:1007C00000F06CB8BDE8F18F274882B0016841F0B5
:1007D00001010160026802F0010200920099426882
:1007E00042F080524260406800F0805000900098D3
:1007F000072002B000F07DB810B586B00446142280
:10080000002101A800F0CAF821681848814229D1C6
:100810001748816841F000718160816801F00071C2
:1008200000910099026842F4802202604FF4407106
:10083000006800F480200090022200980D48019189
:10084000029200210391032209210591049201A93A
:1008500000F0AEF800220021142000F057F8142018
:1008600000F071F806B010BD18100240006400409E
:10087000141002400004004801484068704700BF5F
:10088000740000207047704770477047704770478A
:10089000704770477047704770477047704730B572
:1008A000016884684218416802EB5103C90703D507
:1008B0004C4401E0491C08D19A4218BF12F9011BAF
:1008C00001D10C3030BD12F8015B002904F8015B46
:1008D000F0D4491EF7D5EFE70901020006D5294AF1
:1008E00000F00F00104400F8041C7047264B195408
:1008F0007047264B19684FF6FF020002114000F4C2
:10090000E0600843224908431860704770B51F4BE8
:100910001C68C4F302230124C3F10705052D2EBF73
:100920000F2504FA05F56D1E1E1D072E34BF00238A
:10093000DB1E2940994004FA03F3BDE870405B1EBA
:100940001A401143C8E7012200F01F01114BFFE7D5
:100950008A40400943F82020704710B5401EB0F18E
:10096000807F01D3012010BD0B4C60600F214FF040
:10097000FF30FFF7B1FF0021A160072020600020B9
:1009800010BD000018ED00E000E400E00CED00E018
:100990000000FA0500E100E010E000E010B50446B8
:1009A00010460A460146204600F0EEF8204610BDEB
:1009B0002DE9F84F4FF0000E6A4A6B4BDFF8AC811F
:1009C0004FF00F0982460F4633E0694DAA4514BF28
:1009D000072506258D40254343F82C50C143146854
:1009E00001EA040C7C68E50348BF40EA0C0CC2F83D
:1009F00000C0546801EA040C7C68A50348BF40EAC3
:100A00000C0CC2F804C0946801EA040C7C68E5028E
:100A100048BF40EA0C0CC2F808C0D46801EA040CD4
:100A200079688C0248BF40EA0C0CC2F80CC00EF189
:100A3000010E396831FA0EF000F09280012000FAC0
:100A40000EFC1CEA0100F2D07C68022C18BF122CAC
:100A50004FEA8E0110D14FEADE040AEB840401F064
:100A60001C05266A09FA05FB26EA0B06D7F810B022
:100A70000BFA05F5354325624FEA4E040325DAF8F3
:100A8000006097F804B0A540ED430BF0030B2E4037
:100A90000BFA04FB4BEA0606CAF800607E68012EDA
:100AA00018BF022E03D0112E18BF122E17D1DAF85C
:100AB0000860D7F80CB02E400BFA04FB4BEA060690
:100AC000CAF80860DAF8046026EA0C0C7E68C6F3FF
:100AD000001606FA0EF646EA0C06CAF80460DAF8C2
:100AE0000C603540BE6806FA04F42C43CAF80C408A
:100AF0007C68E4009BD5D8F8004044F00104C8F8B5
:100B000000404FEA9E0CD8F8005005F00105009512
:100B100001F00C01009C53F82C5009FA01F425EA6D
:100B20000404BAF1904F08BF002518D0114DAA4512
:100B300008BF012513D0104DAA4508BF02250ED0CD
:100B40000E4DAA4508BF032509D00D4DAA4508BF83
:100B5000042504D00B4DAA457FF437AF052539E7AE
:100B6000BDE8F18F00040140080001401810024068
:100B7000001800480004004800080048000C004825
:100B8000001000480014004862F30F2262F31F4275
:100B9000401810F0030308D0C91A1FD3DB0748BF61
:100BA00000F8012D28BF20F8022D130030B41446A0
:100BB0001546103928BF20E93C00FAD8490728BF5C
:100BC00020E90C0048BF40F8042D890028BF20F818
:100BD000022D48BF00F8012D30BC7047C91818BF5E
:100BE00000F8012DCB0728BF00F8012D7047000049
:100BF0002DE9F84304001AD02078DFF8DC63C10740
:100C000050D5706800F00C0004280AD0706800F01D
:100C10000C00082802BF706800F4C030B0F5803FB7
:100C200007D1306881033DD5606800283AD10120A2
:100C30003CE16068B0F5803F04D1306840F480301A
:100C4000306014E008B930680AE0B0F5A02F3068D1
:100C500006D140F480203060316841F4803105E0F5
:100C600020F480303060316821F480213160606888
:100C700060B1FFF701FE05463068800312D4FFF72C
:100C8000FBFD401B6528F7D303200FE1FFF7F4FDC0
:100C900005463068800305D5FFF7EEFD401B65284B
:100CA000F7D3F1E72078DFF83C7381071BD5706834
:100CB00010F00C0F0AD0706800F00C00082802BF7A
:100CC000706800F4C030B0F5004F20D13068800764
:100CD00002D5E1680129AAD13068216920F0F80025
:100CE00040EAC1003060207801073BD5606958B305
:100CF0000121C7F88014FFF7BFFD0546706A800721
:100D000030D4FFF7B9FD401B0228F7D9BCE7E068F3
:100D100068B101213960FFF7AFFD054630688007F3
:100D2000DAD4FFF7A9FD401B0228F7D9ACE73860F9
:100D3000FFF7A2FD054630688007D4D5FFF79CFD7C
:100D4000401B0228F7D99FE7C7F88004FFF794FDFE
:100D50000546706A800705D5FFF78EFD401B022807
:100D6000F7D991E72078410761D5F0690025C100E6
:100D700009D4F06940F08050F0610125F06900F07D
:100D8000805000900098DFF86082D8F80000C1051C
:100D900013D4D8F8000040F48070C8F80000FFF7C2
:100DA0006BFD8146D8F80000C10506D4FFF764FD4D
:100DB000A0EB09006528F5D366E7A068012808D0F4
:100DC00008B9306A09E00528306A06D140F004000D
:100DD0003062306A40F0010005E0400840003062B7
:100DE000306A20F00400306241F28938A06860B1B6
:100DF000FFF742FD8146306A800713D4FFF73CFDC0
:100E0000A0EB09004045F6D33EE7FFF735FD8146EC
:100E1000306A800706D5FFF72FFDA0EB090040459B
:100E2000F6D331E71DB1F06920F08050F061A06980
:100E300000283AD0716801F00C0108293FF4F7AEA0
:100E4000022826D100F034F805463068800105D527
:100E5000FFF712FD401B0228F7D915E7F06A616A17
:100E6000000941EA0010F0627068216AE26920F42A
:100E70007610084310437060012000F01AF8044611
:100E80003068800111D4FFF7F7FC001B0228F7D966
:100E9000FAE600F00DF804463068800105D5FFF74A
:100EA000EBFC001B0228F7D9EEE60020BDE8F28338
:100EB00000203866FFF7E0BC2DE9F04104008846C9
:100EC00043D04A4E306800F00700404502D200F09F
:100ED00061F83AD12078404D810705D56A68A0684D
:100EE00022F0F00202436A602178C80725D56068C5
:100EF000012802D12968890303E00228296802D168
:100F0000890102D421E089071FD56A68920840EA66
:100F100082006860FFF7B0FC07466868616800F00F
:100F20000C00B0EB810F08D0FFF7A6FCC01B41F20C
:100F300089318842F1D303202AE0306800F00700AD
:100F4000804504D200F026F801D0012020E020786E
:100F5000410705D56A68E06822F4E06202436A60EE
:100F60002178080706D56968206921F4605141EAB3
:100F7000C001696000F018F869681D4AC1F30311E7
:100F8000515C164AC8401060002000F045F800206F
:100F9000BDE8F0813168C90848EAC10131603068B4
:100FA00000F007004045704710B512490A6802F08A
:100FB0000C0008280ED100BF0FA3094CC2F38340D8
:100FC000185C896A10A301F00F01595CB4FBF1F1C0
:100FD000484310BD024810BD0010024080000020B0
:100FE00000127A00000042420070004000200240DF
:100FF0001412000804100240020304050607080941
:101000000A0B0C0D0E0F1010010203040506070851
:10101000090A0B0C0D0E0F1038B50D4D0D4B2A782B
:1010200004464FF47A711868B1FBF2F2B0FBF2F0AB
:10103000FFF793FC50B9102C08D2002221464FF044
:10104000FF30FFF763FCAC60002032BD012032BDF1
:1010500074000020800000201CB500F093F800F020
:1010600065F82F482F4C016841F480010160026847
:1010700002F480020092009902682B4942F4802217
:101080000260006800F4802000900098A1620220B5
:10109000002121636163E0624FF44021A1634FF4BA
:1010A0008010E0630021216484F8441084F8451026
:1010B00004F12800FFF76EF80820206600210020C8
:1010C000A165E065206120606060A06040F246217B
:1010D00001202165E0612062214604F12800FFF72C
:1010E000D3F804F12800FFF73EF9022104F12800AB
:1010F000FFF760FA00202118221891F86810401CB0
:10110000491C082882F86810F5DB04F1700304F12B
:10111000680204F1500104F12800FFF75FF9E9E7E4
:1011200014100240000000200064004000B58FB0A1
:101130002822002105A8FFF731FC1422002168466F
:10114000FFF72CFC01211022089109920220059042
:101150000B904FF4004200210C920D910E9105A8C6
:10116000FFF746FD022101910F204FF480610090AE
:10117000002203910292049200216846FFF79CFE30
:101180000FB000BD80B50748016841F01001016053
:101190000320FFF7AEFB0020FFF73EFFFFF714FB35
:1011A000002002BD0020024030B5154A154BD2F890
:1011B0008000154940F47000C2F88000186840F0C3
:1011C000010018605C6811480C405C6000241D68D8
:1011D00005401D60196821F480211960586820F4C9
:1011E000FE005860D86A00090001D862196B0848EF
:1011F000014019639C604FF00060106030BD00003A
:1012000008ED00E0001002400CC07FF8FFFFF6FE82
:10121000CCFC00FF000000000000000001020304FD
:10122000060708097047FEE7FEE7FEE7FEE770479E
:101230007047704700F014B810B5064C2046FFF711
:10124000C7F92046BDE81040034B044A0021FFF7D0
:1012500037B9000028000020A000002084000020F2
:101260000248416802788A18426070477400002082
:1012700010B5074979441831064C7C44163404E013
:101280000A68081D114488470146A142F8D110BDE3
:101290002C000000380000004EF68851CEF200010C
:1012A000086840F470000860BFF34F8FBFF36F8F82
:1012B0004FF00070E1EE100A70470000E3F5FFFF09
:1012C000A4010000340000000000002000F00DF830
:1012D000002801D0FFF7CCFFAFF300800020AFF370
:1012E0000080FFF7B9FE00F002F80120704700F01F
:1012F00001B800000746384600F002F8FBE700009E
:1013000080B5AFF30080024A11001820ABBEFBE7A6
:10131000260002000548014603B4684680F30988A8
:10132000AFF30080FFF7B8FFFFF7D0FFA5EDF5FEA4
:101330000148804701480047A9110008151300081B
:10134000FFF7FEBFFFF7FEBFFFF7FEBFFFF7FEBFD1
:10135000FFF7FEBFFFF7FEBFFFF7FEBFFFF7FEBFC1
:10136000FFF7FEBFFFF7FEBFFFF7FEBFFFF7FEBFB1
:10137000FFF7FEBFFFF7FEBFFFF7FEBFFFF7FEBFA1
:10138000FFF7FEBFFFF7FEBFFFF7FEBFFFF7FEBF91
:10139000FFF7FEBFFFF7FEBFFFF7FEBFFFF7FEBF81
:1013A000FFF7FEBFFFF7FEBFFFF7FEBFFFF7FEBF71
:1013B000FFF7FEBFFFF7FEBFFFF7FEBFFFF7FEBF61
:1013C000FFF7FEBFFFF7FEBFFFF7FEBFFFF7FEBF51
:1013D000FFF7FEBFFFF7FEBFFFF7FEBFFFF7FEBF41
:1013E000FFF7FEBFFFF7FEBFFFF7FEBFFFF7FEBF31
:1013F000FFF7FEBFFFF7FEBFFFF7FEBFFFF7FEBF21
:10140000FFF7FEBFFFF7FEBFFFF7FEBFFFF7FEBF10
:10141000FFF7FEBFFFF7FEBFFFF7FEBFFFF7FEBF00
:10142000FFF7FEBFFFF7FEBFFFF7FEBFFFF7FEBFF0
:10143000FFF7FEBFFFF7FEBFFFF7FEBFFFF7FEBFE0
:10144000FFF7FEBFFFF7FEBFFFF7FEBFFFF7FEBFD0
:10145000FFF7FEBFFFF7FEBFFFF7FEBFFFF7FEBFC0
:10146000FFF7FEBF98000753616C626F6C416AFC26
:0E147000000001F9000010FC0001127ADB0000
:0400000508001315C7
:00000001FF
