:020000040800F2
:1000000068050020351500081115000813150008B3
:100010001515000817150008191500080000000044
:100020000000000000000000000000001B15000898
:100030001D150008000000001F150008211500080C
:1000400045150008491500084D1500085115000810
:1000500055150008591500085D15000861150008C0
:1000600065150008691500086D1500087115000870
:1000700075150008791500087D1500088115000820
:1000800085150008891500088D15000891150008D0
:1000900095150008991500089D150008A115000880
:1000A000A5150008A9150008AD150008B115000830
:1000B000B5150008B9150008BD150008C1150008E0
:1000C000C5150008C9150008CD150008D115000890
:1000D000D5150008D9150008DD150008E115000840
:1000E000E5150008E9150008ED150008F1150008F0
:1000F000F5150008F9150008FD150008011600089F
:1001000005160008091600080D160008111600084B
:1001100015160008191600081D16000821160008FB
:1001200025160008291600082D16000831160008AB
:1001300035160008391600083D160008411600085B
:1001400045160008491600084D160008511600080B
:1001500055160008591600085D16000861160008BB
:1001600065160008691600086D160008711600086B
:1001700075160008791600087D16000800000000BA
:100180008116000885160008891600088D160008DB
:100190009116000895160008991600089D1600088B
:1001A000A1160008A5160008A9160008AD1600083B
:1001B000B1160008B5160008B9160008BD160008EB
:1001C000C1160008C516000800000000C916000886
:1001D000CD160008D1160008D5160008D91600085B
:1001E000DD160008E1160008E5160008E91600080B
:1001F000ED160008F116000838B5040000F0A380E1
:1002000094F83C0028B90021204684F83D1000F005
:1002100035FB022084F83C002068016821F00201CF
:1002200001602068026842F00102026000F096FB63
:10023000054620684168CA0708D400F08FFB401BC0
:100240000B28F6D300F0F4FA00F0EFBA4068C107CB
:1002500076D5A269012A05D12068016841F08001A4
:10026000016004E02368186820F080001860E269EB
:100270002068012A04D1016841F04001016003E0D7
:10028000026822F040020260206A0128206804D13E
:10029000016841F02001016003E0026822F02002C1
:1002A0000260606A0128206804D1016841F01001F1
:1002B000016003E0026822F010020260A06A0128D7
:1002C000206804D1016841F00801016003E0026880
:1002D00022F008020260E06A0128206804D1016867
:1002E00041F00401016003E0026822F004020260B0
:1002F000A368E26821696069134362680B4321685F
:100300000343521E1343CB61206803685B085B0004
:10031000036000F023FB054620684168CA0705D545
:1003200000F01CFB401B0B28F6D38BE74068C1078D
:1003300006D400220120226484F83C00002032BD53
:10034000042184F83C10012032BDF0B54A69012334
:10035000006803FA02F2DFF8E434984218BFDFF8CD
:10036000E034D3F8004244F00104C3F80042D3F86B
:10037000000220F47C50C3F80002D3F80042486A1F
:1003800044EA0024C3F80042D3F81C52D443254069
:10039000C3F81C52C86960B9D3F80C5203F5107049
:1003A0002540C3F80C52CD6800F047F80F6800F004
:1003B0003CF8C86901280CD1D3F80C5203F5107031
:1003C0001543C3F80C520D6800F037F8CF6800F001
:1003D0002CF8886928B9D3F804522540C3F8045290
:1003E00004E0D3F804621643C3F80462086920B934
:1003F000D3F814522C40C3F814420869012804D1E0
:10040000D3F814421443C3F81442086A012804D1F3
:10041000D3F81C120A43C3F81C22D3F80002400888
:100420004000C3F800020020F0BD4D6903F51170D3
:10043000C7EA064C40F835C070474F684E69C7EAB6
:10044000054C40F836C08E6870472DE9F0470646E7
:100450000D46306881684A0106D48368190103D4C7
:100460008268D30040F1E38096F83D10012908BF6F
:10047000022000F0E080012286F83D2096F83C1032
:10048000222904D0322906D0622906D009E042236D
:1004900086F83C3008E0522204E0722186F83C10D5
:1004A00002E0122286F83C2081684A0148BF0024FD
:1004B00004D481680A014CBF01240224210100F503
:1004C000C072535800F5C07003F001034350336B02
:1004D00037689868DA6850B907F5C07007F5C077D3
:1004E00040581B6840EA435002437A500BE007F53E
:1004F000C07E5EF801C05B684CEAC3031843024348
:1005000007F5C0704250306BDFF83883DFF838935E
:10051000DFF838A3027C02F00F020261306800F5B8
:10052000C27300F5C2705F583F093F0147503268FF
:1005300002F5C27002F5C2724358376B3869034343
:100540005350306B3768827DC37D0F44120442EAFA
:100550000362437D007D42EA03220243C7F88821FB
:10056000306B3768837EC27E0F441B0443EA02630C
:10057000427E007E43EA02230343C7F88C31306891
:1005800000F5C07200F5C070535843F001034350AA
:1005900000F0E4F907463068A4B980680AEA000070
:1005A00050451CD015F1010FF5D025B100F0D6F95A
:1005B000C01B8542EFD2032086F83C003068F4B9B6
:1005C000802120E0012C05D1806809EA000048451F
:1005D000E8D104E0816808EA01014145E2D196F8DA
:1005E0003C00422819D052281BD072281DD001226D
:1005F00086F83C200021002086F83D101BE0012CED
:1006000003D14FF40041816002E04FF400028260A8
:10061000002086F83D0003200DE0222186F83C10E2
:10062000E8E7322086F83C00E4E76221F6E70420A0
:1006300086F83C000120BDE8F087F8B505460E4677
:10064000300014460FD195F83C1022291FBF95F8B1
:100650003C00422895F83C1062291AD095F83C00DD
:10066000722812D115E0012E0FD195F83C003228E6
:100670001CBF95F83C1052290BD095F83C0062281D
:100680001CBF95F83C10722903D095F83D00012855
:1006900001D10220F2BD0121300085F83D100CD1BE
:1006A00095F83C20122A04D0322A11D0522A13D0B5
:1006B00001E0422011E0222113E095F83C001228CD
:1006C00004D0222804D0422806D009E0522108E0B4
:1006D000622285F83C2006E0722085F83C0002E0AA
:1006E000322185F83C1000F039F907462B683000BC
:1006F0000CBFD868186910F003000DD114F1010F78
:10070000F4D024B100F02AF9C01B8442EED20320B9
:10071000002185F83C006CE0300003F5D8700CBF78
:10072000696BA96B3201805810F0040088602B6857
:1007300005D103F5D87083585B0D0B6004E003F519
:10074000D874A758FF084F60286800F5D8739C58E4
:1007500004F00204CC602F681744D7F8B40100F00D
:100760000F0008612B681344D3F8B4010E62C0F384
:100770000720C8612B681344D3F8B80108752C68AA
:100780001444D4F8B8311B0A4B7528681044D0F8CB
:10079000B841240C8C752B681344D3F8B801000EB3
:1007A000C8752C681444D4F8BC310B762868104402
:1007B000D0F8BC41240A4C762B681344D3F8BC0112
:1007C000000C88762C682244D2F8BC311B0ECB7604
:1007D00028688EB92021C16095F83C00422816D0C7
:1007E000622818D0722818D0012285F83C200021F8
:1007F000002085F83D10F2BD2022026195F83C00F2
:10080000522804D062280CD072280CD0ECE71221B8
:1008100085F83C10EBE73222E7E7522085F83C00F0
:10082000E5E72221F4E74220F8E784F83D1032BDE5
:100830000320002184F83C00704700000034004091
:1008400000640040000003100003000803000004DF
:1008500081B03B48016841F080510160026802F0BC
:10086000805200920099426842F48042426040689F
:1008700000F480400090009901B0704738B586B010
:10088000044614220021684600F06EF82D492368C2
:100890000A682D4C2D48521CA3420FD1012A00F0AA
:1008A00042F844F00204046005684FF4407428489C
:1008B00005F0020500F02EF8092323E0254CA342A1
:1008C00026D10369012A43F400530361046904F447
:1008D00000540594059B046944F080640461036935
:1008E00003F080630593059C00F01DF844F00104BB
:1008F000046005684FF40144174805F0010500F055
:1009000009F80B23019503946946049300F036F827
:1009100007B030BD0595059B0094022500230A60B1
:1009200002930324704708D1036943F00073036105
:10093000046904F000740594059B04687047000086
:10094000403802406401002000640040303802401A
:1009500000040240003400400000024001480068EA
:10096000704700BF6001002010B5044610460A46DB
:100970000146204600F0FEF8204610BD2DE9F84F54
:100980004FF0000E6E4A6F4BDFF8BC814FF00F093D
:1009900006468A46DAF80040012101FA0EF10C40C1
:1009A0008C4240F0C580DAF804504FEA8E00022DE8
:1009B00018BF122D12D14FEADE0506EB850C00F0B0
:1009C0001C0509FA05FBDCF8207027EA0B07DAF8AA
:1009D00010B00BFA05F53D43CCF8205037689AF873
:1009E00004B04FEA4E0C032505FA0CF5ED432F40F9
:1009F0000BF0030B0BFA0CFB4BEA07073760DAF836
:100A00000470012F18BF022F03D0112F18BF122F0F
:100A100013D1B768DAF80CB02F400BFA0CFB4BEA95
:100A20000707B760776827EA0101DAF80470C7F3AF
:100A3000001707FA0EF739437160F1680D40DAF8D4
:100A4000081001FA0CF12943F160DAF80410CD0026
:100A50006ED5D8F8001000F00C0041F48041C8F8C1
:100A60000010D8F8007007F480470097009909FA41
:100A700000F74FEA9E0153F8215025EA070C334D49
:100A8000AE4208BF00252CD0314FBE4208BF012521
:100A900027D0304DAE4208BF022522D02E4FBE4295
:100AA00008BF03251DD02D4DAE4208BF042518D028
:100AB0002B4FBE4208BF052513D02A4DAE4208BFBA
:100AC00006250ED0284FBE4208BF072509D0274D66
:100AD000AE4208BF082504D0254FBE420CBF0925F1
:100AE0000A2505FA00F040EA0C0043F821001168DD
:100AF000DAF80450E0430140ED0348BF21431160A0
:100B00005168DAF804500140AD0348BF21435160F9
:100B10009168DAF804500140ED0248BF214391602A
:100B2000D1680140DAF80400800248BF2143D16057
:100B30000EF1010EBEF10F0F7FF62CAFBDE8F18F65
:100B4000003C0140083801404438024000000240A7
:100B50000004024000080240000C02400010024065
:100B60000014024000180240001C02400020024015
:100B70000024024062F30F2262F31F42401810F07B
:100B8000030308D0C91A1FD3DB0748BF00F8012DA3
:100B900028BF20F8022D130030B414461546103932
:100BA00028BF20E93C00FAD8490728BF20E90C00FB
:100BB00048BF40F8042D890028BF20F8022D48BF07
:100BC00000F8012D30BC7047C91818BF00F8012D7E
:100BD000CB0728BF00F8012D70470EE0026843687C
:100BE000024408305FEAC37C44BF4B445B1E52F8AA
:100BF00004CB43F804CB091FF9D150F8041B00299A
:100C0000ECD170472DE9FC4104460025BCB12078A9
:100C1000DFF81864C10750D5B26802F00C02042A4C
:100C200007D0B06800F00C0008280AD171684802AB
:100C300007D53268910340D5606800283DD1012076
:100C400056E16068B0F5803F0FD038B9316821F4C3
:100C500080313160306820F4802009E0B0F5A02FA9
:100C600008D1316841F480213160306840F480302F
:100C7000306007E0326822F480323260316821F45B
:100C800080213160606860B1FFF768FE0746316817
:100C9000880312D4FFF762FEC01B6528F7D3032038
:100CA00026E1FFF75BFE07463068810305D5FFF7B5
:100CB00055FEC01B6528F7D3F1E72078810718D5CA
:100CC000B26812F00C0F07D0B06800F00C000828D2
:100CD00025D17168480222D43268910702D5E068B4
:100CE0000128ACD13168206921F0F80141EAC00146
:100CF000316021780A074CD56069002839D0716FBE
:100D000041F001017167FFF729FE0746706F810707
:100D10003FD4FFF723FEC01B0228F7D9BFE7E068E6
:100D2000B8B1316841F001013160FFF717FE0746A5
:100D30003068810705D4FFF711FEC01B0228F7D9E0
:100D4000ADE73068216920F0F80040EAC10030606A
:100D5000CFE73068400840003060FFF7FFFD0746EE
:100D600031688807C5D5FFF7F9FDC01B0228F7D900
:100D700095E7706F400840007067FFF7EFFD07468A
:100D8000706F810705D5FFF7E9FDC01B0228F7D971
:100D900085E72078410761D5326CD00009D4316CE9
:100DA000012541F080513164306C00F0805000909A
:100DB0000099DFF884723868C10510D43A6842F4AB
:100DC00080723A60FFF7CAFD80463868C10506D4D4
:100DD000FFF7C4FDA0EB08006528F6D35FE7A06825
:100DE000012804D1306F40F00100306713E008B9EA
:100DF000306F09E00528306F06D140F004003067FD
:100E0000316F41F0010105E0400840003067316F6B
:100E100021F004013167A06841F2893760B1FFF722
:100E20009DFD8046306F810713D4FFF797FDA0EB3F
:100E30000800B842F6D332E7FFF790FD8046306FE6
:100E4000810706D5FFF78AFDA0EB0800B842F6D36C
:100E500025E71DB1306C20F080503064A069002877
:100E600045D0B16801F00C0108293FF4E8AE022832
:100E7000306820F0807030602DD1FFF76FFD05469F
:100E80003168880105D5FFF769FD401B0228F7D9B5
:100E900005E7E069216AA36A626A0843E16A40EAF9
:100EA0008210226B5B085B1E40EA034040EA01604F
:100EB00040EA02707060306840F080703060FFF788
:100EC0004DFD04463168880111D4FFF747FD001B32
:100ED0000228F7D9E3E6FFF741FD044631688801AF
:100EE00005D5FFF73BFD001B0228F7D9D7E6002008
:100EF000BDE8F681F8B504000E4645D04B4DD5F857
:100F0000000400F00F00B04202D200F061F83BD1C3
:100F100021788A0705D5AB68A06823F0F003034366
:100F2000AB602178CA0726D56068012802D12968FC
:100F30008A0303E0022803D129688A0103D423E04D
:100F40002B68990720D5AA68920840EA8200A86019
:100F5000FFF704FD0746A868616800F00C00B0EBDD
:100F6000810F08D0FFF7FAFCC01B41F28932904292
:100F7000F1D30320F2BDD5F8000400F00F00864243
:100F800004D200F025F801D00120F2BD21784807F5
:100F900005D5AA68E06822F4E0520243AA602178ED
:100FA0000A0706D5A868216920F4604040EAC1001C
:100FB000A86000F01AF8AA6820491D4BC2F303127A
:100FC000895CC8401860002000F03CF80020F2BDA9
:100FD000D5F80014090946EA0111C5F80014D5F83E
:100FE000000400F00F00B04270471549486800F057
:100FF0000C00082817D108680E4A00F03F00B2FB29
:10100000F0F20868430247BF0868C0F388100B6815
:10101000C3F3881042430868C0F30140401C4000FD
:10102000B2FBF0F070470348704700000038024000
:10103000000000200024F40000700040F4130008B9
:1010400004380240084910B50A6804464FF47A7023
:10105000B2FBF0F000F041F8002221464FF0FF30E3
:1010600000F01EF8002010BD000000200901020061
:1010700006D5244A00F00F00104400F8041C704705
:10108000214B19547047214B4FF6FF02196800029B
:1010900000F4E060114008431D49084318607047A0
:1010A00070B51A4B1C68C4F302230124C3F1070571
:1010B000052D2EBF0F2504FA05F56D1E1E1D072EEA
:1010C00034BF0023DB1E2940994004FA03F35B1E62
:1010D0001A401143BDE87040C8E7401EB0F1807F60
:1010E00010B501D3012010BD0A4C0F2160604FF0F4
:1010F000FF30FFF7BBFF00220721A2600020216024
:1011000010BD000018ED00E000E400E00CED00E090
:101110000000FA0510E000E07CB500F037F900F0BF
:10112000DFF89348934C01684FF440254FF4801644
:1011300041F080010160026802F080020092009993
:10114000036843F001030360026802F001020092A9
:1011500000990368062243F002030360006800233D
:1011600000F0020000900099834862602060012135
:10117000A3602046E36025616661A361E1612362AB
:101180006362A362E362FFF737F87C480022606481
:101190000621A16404F14400E26422656565A66548
:1011A000E26522666266A266E2662267FFF724F8BD
:1011B00000224FF480700121C4F8E020C4F8E4203C
:1011C0000222C4F8D8000020C4F8DC10082184F8FA
:1011D000EC2084F8ED2084F8EE2084F8EF2084F8E9
:1011E000F02084F8F12084F8F22084F8F32004F54C
:1011F0008A72C4F8E81004F1D801C4F89C00C4F85D
:10120000A000C4F88800C4F88C00C4F89000C4F8AA
:101210009400C4F898000E2062630122216304F157
:101220008801C4F8AC002046C4F8A420C4F8A82063
:10123000FFF78BF84FF440710022C4F8F41001203E
:10124000C4F8FC200321C4F800210522C4F8F800EA
:10125000082084F80911052184F808210322C4F824
:101260000401052084F80C1184F80E11002184F883
:101270000B2184F80D2184F80F2104F59C7284F869
:101280000A0104F1F400C4F8C410C4F8C810C4F88A
:10129000B010C4F8B410C4F8B810C4F8BC10C4F846
:1012A000C0100E21A2670122606704F14400C4F857
:1012B000D41004F1B001C4F8CC20C4F8D020FFF75A
:1012C00044F82F480168C4F810110A220021204672
:1012D000FFF7B3F90A2104F14400FFF7B6F8F4E789
:1012E00000B593B03422002106A8FFF73DFB14227D
:1012F000002101A8FFF738FB22480123016841F0D3
:1013000080510160006800F08050009000991E48F4
:10131000026822F4404242F48042026000680222E5
:1013200000F4404000900099069206A810210C920B
:101330000A9100210D91082260210E920F91062240
:101340000221099310921191FFF75CFC0F210222F8
:1013500001914FF4A0510292802304914FF48052E6
:1013600003930021059201A8FFF7C4FD13B000BD4F
:101370003038024004000020006400400034004087
:1013800060010020403802400070004080B503201A
:10139000FFF779FE0020FFF755FEFFF759FA00200E
:1013A00002BD000030B50F490F4AD1F8800000247B
:1013B00040F47000C1F8800013680C4843F001034A
:1013C00013600B4B9460156805404FF0006015608A
:1013D00000255360146824F480241460D5600860EC
:1013E00030BD000008ED00E000380240FFFFF6FECF
:1013F000103000240000000000000000010203047F
:101400000607080930B4002512E050F8042BD30772
:1014100044BF4A44521E091F042942F8045BFAD211
:1014200013468C0744BF15809B1CC90748BF1D701D
:1014300050F8041B0029E8D130BC704710B50749AB
:1014400079441831064C7C44163404E00A68081DBF
:10145000114488470146A142F8D110BD2C0000007C
:101460004C0000004EF68851CEF20001086840F4AE
:1014700070000860BFF34F8FBFF36F8F4FF00070A5
:10148000E1EE100A704700007DFFFFFF64010000DD
:10149000040000200000000043F7FFFF04000000EC
:1014A00054020000000000200000000000F00DF8D1
:1014B000002801D0FFF7C2FFAFF300800020AFF398
:1014C0000080FFF729FE00F002F80120704700F0CD
:1014D00001B800000746384600F002F8FBE70000BC
:1014E00080B5AFF30080024A11001820ABBEFBE7C5
:1014F000260002000548014603B4684680F30988C7
:10150000AFF30080FFF7AEFFFFF7D0FFA5EDF5FECC
:101510007047FEE7FEE7FEE7FEE77047704770475B
:1015200000F000B802480168491C0160704700BF24
:10153000600100200148804701480047A5130008CA
:10154000F5140008FFF7FEBFFFF7FEBFFFF7FEBF71
:10155000FFF7FEBFFFF7FEBFFFF7FEBFFFF7FEBFBF
:10156000FFF7FEBFFFF7FEBFFFF7FEBFFFF7FEBFAF
:10157000FFF7FEBFFFF7FEBFFFF7FEBFFFF7FEBF9F
:10158000FFF7FEBFFFF7FEBFFFF7FEBFFFF7FEBF8F
:10159000FFF7FEBFFFF7FEBFFFF7FEBFFFF7FEBF7F
:1015A000FFF7FEBFFFF7FEBFFFF7FEBFFFF7FEBF6F
:1015B000FFF7FEBFFFF7FEBFFFF7FEBFFFF7FEBF5F
:1015C000FFF7FEBFFFF7FEBFFFF7FEBFFFF7FEBF4F
:1015D000FFF7FEBFFFF7FEBFFFF7FEBFFFF7FEBF3F
:1015E000FFF7FEBFFFF7FEBFFFF7FEBFFFF7FEBF2F
:1015F000FFF7FEBFFFF7FEBFFFF7FEBFFFF7FEBF1F
:10160000FFF7FEBFFFF7FEBFFFF7FEBFFFF7FEBF0E
:10161000FFF7FEBFFFF7FEBFFFF7FEBFFFF7FEBFFE
:10162000FFF7FEBFFFF7FEBFFFF7FEBFFFF7FEBFEE
:10163000FFF7FEBFFFF7FEBFFFF7FEBFFFF7FEBFDE
:10164000FFF7FEBFFFF7FEBFFFF7FEBFFFF7FEBFCE
:10165000FFF7FEBFFFF7FEBFFFF7FEBFFFF7FEBFBE
:10166000FFF7FEBFFFF7FEBFFFF7FEBFFFF7FEBFAE
:10167000FFF7FEBFFFF7FEBFFFF7FEBFFFF7FEBF9E
:10168000FFF7FEBFFFF7FEBFFFF7FEBFFFF7FEBF8E
:10169000FFF7FEBFFFF7FEBFFFF7FEBFFFF7FEBF7E
:1016A000FFF7FEBFFFF7FEBFFFF7FEBFFFF7FEBF6E
:1016B000FFF7FEBFFFF7FEBFFFF7FEBFFFF7FEBF5E
:1016C000FFF7FEBFFFF7FEBFFFF7FEBFFFF7FEBF4E
:1016D000FFF7FEBFFFF7FEBFFFF7FEBFFFF7FEBF3E
:1016E000FFF7FEBFFFF7FEBFFFF7FEBFFFF7FEBF2E
:0816F000FFF7FEBF0024F40027
:04000005080014F5E6
:00000001FF
