:020000040800F2
:1000000010040020490C0008890D00088B0D000821
:1000100000000000000000000000000000000000E0
:100020000000000000000000000000008D0D00082E
:1000300000000000000000008F0D0008910D000876
:100040005B08000800000000D7080008DB08000873
:10005000470C00083B0D0008470D0008A90D0008DB
:1000600000000000AB0D0008AD0D0008AF0D00084A
:10007000B10D0008B30D000800000000B50D000828
:100080000000000000000000000000000000000070
:10009000B70D00080000000000000000B90D0008C6
:1000A00000000000BB0D0008000000000000000080
:1000B000BD0D0008BF0D000800000000000000009A
:1000C000FEB5060060D0BB4CE0680C2101400091F9
:1000D000E06880214902084001903078C0070ED5C1
:1000E0004F000098082804D00C2872D1019888424B
:1000F0006FD12068074002D07068002844D0307863
:10010000800733D5F0682021084204D022681143CB
:10011000216020218843BB4F0921C943009A042A4A
:1001200005D00C2A01D1019A002A00D08CE0226867
:10013000520701D5002827D06268174032691202A1
:100140003A436260226811400843206000F0A4FA3C
:10015000AD49E2681206120F895CC840BC490860CC
:10016000BC48006800F0E8FA010031D1A70D3078F2
:10017000C00600D4B4E00098002800D091E02068C8
:10018000800503D5B069002800D1A4E16068B249B8
:100190000140306A0843606060680002000AF1694B
:1001A0000906014361600120316A490B491C8840FE
:1001B000C0039549E2681206120F895CC840A44941
:1001C0000860A448006800F0B7FA010000D187E099
:1001D000FEBD7068884201D1206809E0A021C902F3
:1001E0008842206806D1790001432160206879089F
:1001F00001430AE0BA4901402160206879080840BB
:10020000029002982068B749014021607068002878
:100210000DD000F0B3FA05002068384000D06EE73A
:1002200000F0ACFA401B6528F6D30320FEBD00F0B9
:10023000A5FA05002068384000D160E700F09EFA7A
:10024000401B6528F6D3F0E704220192002817D05E
:10025000226811400843206000F090FA05002068F1
:100260000199014005D100F089FA401B0228F6D916
:10027000DBE760680740306900023843606075E77B
:10028000206801218843206000F078FA050020688A
:1002900001990140F3D000F071FA401B0228F6D911
:1002A000C3E7B0690028206830D03843206000F0F0
:1002B00065FA05002068800505D400F05FFA401B50
:1002C0000228F7D9B1E7606863490140306A084302
:1002D000606060680002000AF1690906014361601C
:1002E0003078000730D570690028206D1DD00121BD
:1002F0000143216500F042FA0500206D800723D4F8
:1003000000F03CFA401B0228F7D98EE776490140FD
:10031000216000F033FA050020688005E0D500F088
:100320002DFA401B0228F7D97FE701218843206579
:1003300000F024FA0500206D800705D500F01EFAB4
:10034000401B0228F7D970E73078400765D50020B8
:1003500001903805A16B014004D1A16B0843A06353
:100360000120019061480068384011D15F48006861
:1003700038435E49086000F001FA05005B480068F8
:10038000384005D100F0FAF9401B6528F6D34CE758
:10039000B168B9420AD0564800290DD0A022D20037
:1003A000914209D1206D210D01432165206D074344
:1003B000276508E000100240216D4B4A0A40226583
:1003C000216D08402065670DB06800280CD000F052
:1003D000D5F90500206D384018D100F0CFF9401B49
:1003E000A9498842F6D320E700F0C8F90500206D3E
:1003F00038400BD000F0C2F9401BA3498842F6D325
:1004000013E700BFFFE0FFFFF40C0008019800288D
:1004100003D0A06B9D490140A163706A00285CD0A5
:1004200000990C2942D08027BF04994902282068EE
:100430002ED10140216000F0A1F90500206838406C
:100440000CD000F09BF9401B0228F7D9EDE600BF65
:100450000C00002008000020FF1FFFFFE0688D490E
:100460000140B06A0843F16A0143306B0843E06021
:10047000206879080143216000F080F905002068B8
:1004800038402AD100F07AF9401B0228F7D9CCE68F
:100490000140216000F072F90500206838401CD04E
:1004A00000F06CF9401B0228F7D9BEE6012812D0F3
:1004B000E068802149020140B26A91420BD1F021EB
:1004C00089030140F26A914205D1C021090401402B
:1004D000306B814201D00120FEBD0020FEBD00BF77
:1004E000FFFFFEFFFFFFFBFFFFFEFFFF007000406E
:1004F000FFFBFFFFF1B582B000285CD00091624F96
:1005000082480068C107C90F0098814217D27F4C0A
:1005100020680121884300990143216000F02EF9F1
:10052000009D06002068C107C90FA94206D000F04F
:1005300025F9801BB842F5D30320FEBD0095744C0D
:1005400002980078800706D5E068F0218843029978
:1005500089680143E1603E4602980078C0074DD5A6
:1005600002984068022819D12168890323D5E168DF
:10057000032291430843E06000F000F9070002986D
:1005800040680C25022818D1E0682840082835D09A
:1005900000F0F4F8C01BB042F6D3CDE7032802D137
:1005A0002168890103E00128216802D14907DED4CE
:1005B00001E08905DBD40120FEBD032809D1E068F4
:1005C00028400C281AD000F0D9F8C01BB042F6D34E
:1005D000B2E7012809D1E068284004280ED000F0D5
:1005E000CDF8C01BB042F6D3A6E7E068284005D09E
:1005F00000F0C4F8C01BB0429ED2F6E70098434911
:100600000968CA07D20F904215D2404D28680121CF
:10061000884300990143296000F0B0F8070028687A
:10062000C107C90F0098814205D000F0A7F8C01B90
:10063000B042F4D380E702980078400706D5E0681E
:10064000344901400298C0680843E060029800788D
:10065000000707D5E0683049014002980069C000F2
:100660000843E06000F018F82C49E2681206120F07
:10067000895CC8402A4908602A48006800F05CF894
:10068000010000D10020FEBD89130000FFFFFFEF35
:10069000FFFFFFFEFFFF02FF50B51D4AD168102388
:1006A0000C200840042804D0082809D00C2809D0C0
:1006B00023E01068034001D01B4850BD1B4850BDCB
:1006C0001B4850BD1B488C02240F005D09028C0F93
:1006D000641C0021D668F60301D5154A03E01268B0
:1006E000134002D0104A002300E0104A00F04CF8FA
:1006F0002200002300F061F850BD50680121000481
:10070000400F401C8140C80350BD00000020024043
:1007100000100240FFF8FFFFFFC7FFFFF40C0008C6
:100720000C0000200800002000093D000024F40017
:1007300000127A00040D000838B505000D4CFA20AF
:100740008000217800F06EF801000B48006800F08E
:1007500069F800F0A4F800280AD1042D08D200227C
:1007600029000020C04300F096F8A560002032BDAB
:10077000012032BD000000200C000020014840682C
:10078000704700BF0000002030B4434351435D1860
:10079000010C0C00130C5C432D1980B2434392B240
:1007A00051430024C918644124040B04090C09199D
:1007B0005043C018694130BC7047124224D099425E
:1007C00028D970B500251B4202D00C00002109E099
:1007D0000024012649186441944200D3A41A7641AA
:1007E000F8D33100012601E0764109D200186441B6
:1007F0006D41A41A9D41F7D2A4185D41B619F5D3F5
:10080000300022002B0070BD1B42D8D108B500F08B
:1008100061F808BD01D19042D3D202000B00002143
:1008200000207047094214D088420FD30122030CE4
:1008300001D100041204002300185B418B4200D355
:100840005B1A5241F8D319001000704701000020D4
:10085000704708B500F040F808BDFEE710B5C200CB
:1008600018231340FF249C40E2438907090E994056
:10087000030004D414489B089B00C01806E0134BE7
:100880000007000F083880088000181803681A4015
:100890001143016010BD80B5FFF7E0FF01BD10B549
:1008A000401E80214904884201D3012010BD084C1C
:1008B000606003210020C043FFF7D0FF0020A0604C
:1008C0000721216010BD000000E400E01CED00E005
:1008D00010E000E07047FEE77047FEE7FFB500223A
:1008E000012301932BE0062603E05E4EB042FAD1CD
:1008F0000526AE402643029C26605B4C2668DC43FE
:1009000026404D68ED0300D51E43574D2E606E689E
:1009100026404F68BF0300D51E436E60AE68264078
:100920004F68FF0200D51E43AE60EE6834404E684B
:10093000B60202D526001C003443EC60521C0B6842
:100940001C00D44000D186E0019D95402B40F5D09D
:1009500054000327A740FE4302964E68012E05D09F
:10096000022E03D0112E01D0122E0FD18768029EC5
:100970003E40CF68A740374387604668AE434D6826
:100980002D09019F2F40974037434760C568029E5D
:100990002E408D68A5403543C56095006E46757044
:1009A0004D68022D01D0122D1AD1D508AD00451980
:1009B0002E6A03966E4677781C263E406F463E7040
:1009C000039EB4460F276E463678B7406646BE4350
:1009D000B4460F696E463678B740664637432F6295
:1009E00007680326029D3D404F683740BC462700FC
:1009F0006446BC402C4304604C68E4009ED51B4C0C
:100A00002468019D2543194C2560194C9508AD00BB
:100A10006419029424686D466F780C253D400F27B9
:100A2000AF40BC43A027FF05B84201D1002660E7D4
:100A3000104FB84201D1019E5BE70F4FB84201D180
:100A4000022656E70D4FB842FBD00D4EB04200D003
:100A50004BE704264DE7FFBD002A01D081617047B6
:100A600081627047001C00500004014034100240B5
:100A7000080001400004005000080050000C005025
:100A80000010005038B586B000F076F800F03AF863
:100A90001422002101A800F083F8802033490A685D
:100AA00002430A600A681040009000980124086818
:100AB000204308600868204000900098A025ED05BC
:100AC000002220212800FFF7C7FF20200190029478
:100AD00000200390049001A92800FFF7FFFEFA24EC
:100AE000A400012220212800FFF7B6FF200000F01B
:100AF00061F8002220212800FFF7AEFF200000F05F
:100B000059F8EEE710B592B03422002105A800F0A4
:100B100047F814220021684600F042F814480168A2
:100B2000144A0A40C10C11430160102005900120B5
:100B30000B9000240C94A02000020D900E9405A8A8
:100B4000FFF7BEFA002801D072B6FEE70F20009032
:100B5000019402940394049400216846FFF7CAFCB0
:100B6000002801D072B6FEE712B010BD2C10024072
:100B700000700040FFE7FFFF10B500240748016840
:100B800040220A4302600020FFF7D6FD002801D072
:100B9000012401E000F022F8200010BD00200240F6
:100BA00010B50400080011000200200000F024F835
:100BB000200010BD38B50500FFF7E0FD040000205F
:100BC000C043854202D0044800782D18FFF7D6FDB7
:100BD000001BA842FAD331BD00000020054801687F
:100BE00001220A4302604168802252050A434260A2
:100BF000704700BF341002401206130A1A43130C48
:100C00001A4300BF094205D0830705D00270401C7B
:100C1000491EF9D1704700001300103906D330B4D3
:100C20001400150010393CC0FCD230BC490700D379
:100C30000CC000D504C0890002D30280801C0029AA
:100C400000D502707047FEE7094880F30888042049
:100C50000168090E1F22914205D106480121016059
:100C6000054800210160054880470548004700000D
:100C7000100400203410024000000140F10C000874
:100C80005D0D000830B401220EE00368C31844680B
:100C90000830144202D04D462C19641E1D68256090
:100CA0001B1D241D091FF9D10168001D0029ECD16D
:100CB00030BC704710B5074979441831064C7C4464
:100CC000163404E0081D0A68891888470100A1420B
:100CD000F8D110BD0800000018000000A9FFFFFFB8
:100CE00010000000B4000000000000200000000020
:100CF0007047000000000000000000000102030433
:100D000006070809030406080C101820300000002C
:100D100000F00DF8002801D0FFF7CCFF00BF00BFA6
:100D2000002000BF00BFFFF7ADFE00F002F8012079
:100D3000704780B500F002F801BDFEE7074638466F
:100D400000F002F8FBE7FEE780B500BF00BF024AF3
:100D500011001820ABBEFBE7260002000548014643
:100D600003B4684680F3098800BF00BF00BF00BF1E
:100D7000FFF7CEFFA5EDF5FE02484168027889181D
:100D80004160704700000020FEE7FEE770477047B3
:100D900080B5FFF7F1FF01BD010000000000000079
:100DA0000400000000002000FEE7FEE7FEE7FEE78B
:100DB000FEE7FEE7FEE7FEE7FEE7FEE7FEE7FEE70B
:0400000508000D5D85
:00000001FF
