:020000040800F2
:10000000600400202D120008B9130008BB1300087B
:1000100000000000000000000000000000000000E0
:10002000000000000000000000000000BD130008F8
:100030000000000000000000BF130008C11300080A
:100040005B08000800000000D7080008DB08000873
:10005000EF0E00086B13000877130008D91300088F
:1000600000000000DB130008DD130008DF130008A8
:10007000E1130008E313000800000000E513000886
:100080000000000000000000000000000000000070
:10009000E71300080000000000000000E91300085A
:1000A00000000000EB13000800000000000000004A
:1000B000ED130008EF13000800000000000000002E
:1000C000FEB5060060D0BB4CE0680C2101400091F9
:1000D000E06880214902084001903078C0070ED5C1
:1000E0004F000098082804D00C2872D1019888424B
:1000F0006FD12068074002D07068002844D0307863
:10010000800733D5F0682021084204D022681143CB
:10011000216020218843BB4F0921C943009A042A4A
:1001200005D00C2A01D1019A002A00D08CE0226867
:10013000520701D5002827D06268174032691202A1
:100140003A436260226811400843206000F0A4FA3C
:10015000AD49E2681206120F895CC840BC490860CC
:10016000BC48006800F0E8FA010031D1A70D3078F2
:10017000C00600D4B4E00098002800D091E02068C8
:10018000800503D5B069002800D1A4E16068B249B8
:100190000140306A0843606060680002000AF1694B
:1001A0000906014361600120316A490B491C8840FE
:1001B000C0039549E2681206120F895CC840A44941
:1001C0000860A448006800F0B7FA010000D187E099
:1001D000FEBD7068884201D1206809E0A021C902F3
:1001E0008842206806D1790001432160206879089F
:1001F00001430AE0BA4901402160206879080840BB
:10020000029002982068B749014021607068002878
:100210000DD000F0B3FA05002068384000D06EE73A
:1002200000F0ACFA401B6528F6D30320FEBD00F0B9
:10023000A5FA05002068384000D160E700F09EFA7A
:10024000401B6528F6D3F0E704220192002817D05E
:10025000226811400843206000F090FA05002068F1
:100260000199014005D100F089FA401B0228F6D916
:10027000DBE760680740306900023843606075E77B
:10028000206801218843206000F078FA050020688A
:1002900001990140F3D000F071FA401B0228F6D911
:1002A000C3E7B0690028206830D03843206000F0F0
:1002B00065FA05002068800505D400F05FFA401B50
:1002C0000228F7D9B1E7606863490140306A084302
:1002D000606060680002000AF1690906014361601C
:1002E0003078000730D570690028206D1DD00121BD
:1002F0000143216500F042FA0500206D800723D4F8
:1003000000F03CFA401B0228F7D98EE776490140FD
:10031000216000F033FA050020688005E0D500F088
:100320002DFA401B0228F7D97FE701218843206579
:1003300000F024FA0500206D800705D500F01EFAB4
:10034000401B0228F7D970E73078400765D50020B8
:1003500001903805A16B014004D1A16B0843A06353
:100360000120019061480068384011D15F48006861
:1003700038435E49086000F001FA05005B480068F8
:10038000384005D100F0FAF9401B6528F6D34CE758
:10039000B168B9420AD0564800290DD0A022D20037
:1003A000914209D1206D210D01432165206D074344
:1003B000276508E000100240216D4B4A0A40226583
:1003C000216D08402065670DB06800280CD000F052
:1003D000D5F90500206D384018D100F0CFF9401B49
:1003E000A9498842F6D320E700F0C8F90500206D3E
:1003F00038400BD000F0C2F9401BA3498842F6D325
:1004000013E700BFFFE0FFFF241300080198002856
:1004100003D0A06B9D490140A163706A00285CD0A5
:1004200000990C2942D08027BF04994902282068EE
:100430002ED10140216000F0A1F90500206838406C
:100440000CD000F09BF9401B0228F7D9EDE600BF65
:100450000C00002008000020FF1FFFFFE0688D490E
:100460000140B06A0843F16A0143306B0843E06021
:10047000206879080143216000F080F905002068B8
:1004800038402AD100F07AF9401B0228F7D9CCE68F
:100490000140216000F072F90500206838401CD04E
:1004A00000F06CF9401B0228F7D9BEE6012812D0F3
:1004B000E068802149020140B26A91420BD1F021EB
:1004C00089030140F26A914205D1C021090401402B
:1004D000306B814201D00120FEBD0020FEBD00BF77
:1004E000FFFFFEFFFFFFFBFFFFFEFFFF007000406E
:1004F000FFFBFFFFF1B582B000285CD00091624F96
:1005000082480068C107C90F0098814217D27F4C0A
:1005100020680121884300990143216000F02EF9F1
:10052000009D06002068C107C90FA94206D000F04F
:1005300025F9801BB842F5D30320FEBD0095744C0D
:1005400002980078800706D5E068F0218843029978
:1005500089680143E1603E4602980078C0074DD5A6
:1005600002984068022819D12168890323D5E168DF
:10057000032291430843E06000F000F9070002986D
:1005800040680C25022818D1E0682840082835D09A
:1005900000F0F4F8C01BB042F6D3CDE7032802D137
:1005A0002168890103E00128216802D14907DED4CE
:1005B00001E08905DBD40120FEBD032809D1E068F4
:1005C00028400C281AD000F0D9F8C01BB042F6D34E
:1005D000B2E7012809D1E068284004280ED000F0D5
:1005E000CDF8C01BB042F6D3A6E7E068284005D09E
:1005F00000F0C4F8C01BB0429ED2F6E70098434911
:100600000968CA07D20F904215D2404D28680121CF
:10061000884300990143296000F0B0F8070028687A
:10062000C107C90F0098814205D000F0A7F8C01B90
:10063000B042F4D380E702980078400706D5E0681E
:10064000344901400298C0680843E060029800788D
:10065000000707D5E0683049014002980069C000F2
:100660000843E06000F018F82C49E2681206120F07
:10067000895CC8402A4908602A48006800F05CF894
:10068000010000D10020FEBD89130000FFFFFFEF35
:10069000FFFFFFFEFFFF02FF50B51D4AD168102388
:1006A0000C200840042804D0082809D00C2809D0C0
:1006B00023E01068034001D01B4850BD1B4850BDCB
:1006C0001B4850BD1B488C02240F005D09028C0F93
:1006D000641C0021D668F60301D5154A03E01268B0
:1006E000134002D0104A002300E0104A00F04CF8FA
:1006F0002200002300F061F850BD50680121000481
:10070000400F401C8140C80350BD00000020024043
:1007100000100240FFF8FFFFFFC7FFFF241300088F
:100720000C0000200800002000093D000024F40017
:1007300000127A003413000838B505000D4CFA2079
:100740008000217800F06EF801000B48006800F08E
:1007500069F800F0A4F800280AD1042D08D200227C
:1007600029000020C04300F096F8A560002032BDAB
:10077000012032BD000000200C000020014840682C
:10078000704700BF0000002030B4434351435D1860
:10079000010C0C00130C5C432D1980B2434392B240
:1007A00051430024C918644124040B04090C09199D
:1007B0005043C018694130BC7047124224D099425E
:1007C00028D970B500251B4202D00C00002109E099
:1007D0000024012649186441944200D3A41A7641AA
:1007E000F8D33100012601E0764109D200186441B6
:1007F0006D41A41A9D41F7D2A4185D41B619F5D3F5
:10080000300022002B0070BD1B42D8D108B500F08B
:1008100061F808BD01D19042D3D202000B00002143
:1008200000207047094214D088420FD30122030CE4
:1008300001D100041204002300185B418B4200D355
:100840005B1A5241F8D319001000704701000020D4
:10085000704708B500F040F808BDFEE710B5C200CB
:1008600018231340FF249C40E2438907090E994056
:10087000030004D414489B089B00C01806E0134BE7
:100880000007000F083880088000181803681A4015
:100890001143016010BD80B5FFF7E0FF01BD10B549
:1008A000401E80214904884201D3012010BD084C1C
:1008B000606003210020C043FFF7D0FF0020A0604C
:1008C0000721216010BD000000E400E01CED00E005
:1008D00010E000E07047FEE77047FEE770B50400E7
:1008E00001D1012070BD2500403500266878002820
:1008F00003D12E70200000F0CAF92420687020680F
:10090000016801229143016060681E49014020682E
:10091000016121681C488A6802408A60E1680129F7
:10092000A16801D1C24301E0842212020A43216876
:100930008A60E168022903D180210901226851609F
:1009400021684A68114B13434B602168CA68104004
:10095000C860206961690143A069000208432168F9
:10096000C860E069216A014320680160206801686D
:1009700001220A4302606E60202068702663AE7018
:10098000002070BDFFFFFFF0FF7FFFFF008000022F
:10099000FEB5040040304078202800D090E00D00E3
:1009A00001D0160005D18020800021004031486030
:1009B0007AE04020205C012800D181E002930120F0
:1009C00040216054FFF7DAFE0190222021004031DF
:1009D00048702020210040318870002021004031E3
:1009E000486065626685606320684168354A0A40F0
:1009F000426080273F0201980090029B002208215C
:100A0000200000F06FF800283BD108202168C86161
:100A100001980090029B01221104200000F062F86E
:100A200000282ED1029E019D08E0406A616A08708C
:100A3000606A401C6062608D401E6085608D002889
:100A400018D02A003100200000F09EF8002820680D
:100A5000EBD041680F43476020688169490723D57F
:100A6000406A616A0870606A401C6062608D401E66
:100A7000608519E02A003100200000F05FF80028AE
:100A800002D0206841680DE020202168C8610095EF
:100A9000330001223900200000F024F800282068EB
:100AA000416803D00F4347600120FEBD0F434760FC
:100AB0002100403120204870002088700870FEBD61
:100AC0000220FEBDFF7FFFFF00688169890701D515
:100AD00000218162012182690A4002D182691143A9
:100AE00081617047F8B5002405000F006846027068
:100AF0001E00286880693840B84201D1012000E01A
:100B0000002069460978884216D10020C0438642F9
:100B1000EFD0FFF733FE0699401A864201D3002E2C
:100B2000E7D128004030202142680A4342604170EA
:100B3000847004700120F2BD0020F2BDF8B52025BC
:100B400004000E0017002068806928401AD13A007E
:100B50003100200000F055F8002807D1FFF70EFE05
:100B6000C01B864204D3002EEDD101E00120F2BD6E
:100B70002000403041682943416045700021817068
:100B80000170F3E70020F2BDF8B5202504000F0046
:100B90000092042620688069304030D1009A3900E4
:100BA000200000F02EF8002827D120688169294014
:100BB00008D1FFF7E3FD0099401A874215D3002FB3
:100BC000E8D112E081690E4002D0218D002916D1B2
:100BD000C56120684168274A0A40426020004030D1
:100BE000002141604570817006E02000403041687E
:100BF000294341604570002101700120F2BD0020B1
:100C0000F2BDF8B5102403689B69234030D005007D
:100C10000F000092202628688169314011D1002000
:100C2000C0438742F7D0FFF7A9FD0099401A8742D9
:100C300001D3002FEFD1280040304168314341609B
:100C400010E0C4612868C6612800FFF73DFF2868EE
:100C50004168084A0A404260280040304168042246
:100C60000A43426046700021817001700120F2BD8C
:100C70000020F2BD00E800FE1A48016801220A4384
:100C800002604168802252050A434260704710B5F5
:100C900086B004001422002101A800F029F8206881
:100CA000114988421CD10120104C21680143216068
:100CB0002168014000910099C021C90001911221D1
:100CC00002910390032004900620059001A9A02022
:100CD000C00500F017F8E068802189030143E16056
:100CE00006B010BD34100240005400402C100240E9
:100CF00010B50400080011000200200000F0D0F838
:100D0000200010BDFFB50022012301932BE0062631
:100D100003E05B4EB042FAD10526AE402643029C6A
:100D20002660584C2668DC4326404D68ED0300D50C
:100D30001E43544D2E606E6826404F68BF0300D599
:100D40001E436E60AE6826404F68FF0200D51E430A
:100D5000AE60EE6834404E68B60202D526001C0034
:100D60003443EC60521C0B681C00D44000D186E078
:100D7000019D95402B40F5D054000327A740FE432A
:100D800002964E68012E05D0022E03D0112E01D0FE
:100D9000122E0FD18768029E3E40CF68A74037438E
:100DA00087604668AE434D682D09019F2F409740EC
:100DB00037434760C568029E2E408D68A540354385
:100DC000C56095006E4675704D68022D01D0122DDC
:100DD0001AD1D508AD0045192E6A03966E4677786C
:100DE0001C263E406F463E70039EB4460F276E465B
:100DF0003678B7406646BE43B4460F696E463678CD
:100E0000B740664637432F6207680326029D3D4080
:100E10004F683740BC4627006446BC402C43046002
:100E20004C68E4009ED5184C2468019D2543164C5F
:100E30002560164C9508AD006419029424686D462F
:100E40006F780C253D400F27AF40BC43A027FF051E
:100E5000B84201D1002660E70D4FB84201D1019E92
:100E60005BE70C4FB84201D1022656E70A4FB84261
:100E7000FBD00A4EB04200D04BE704264DE7FFBD41
:100E8000001C0050000401403410024008000140E2
:100E90000004005000080050000C005000100050EA
:100EA0001206130A1A43130C1A4300BF094205D055
:100EB000830705D00270401C491EF9D1704700001D
:100EC0001300103906D330B41400150010393CC09B
:100ED000FCD230BC490700D30CC000D504C0890047
:100EE00002D30280801C002900D502707047FEE703
:100EF000FEB5070000200190504C3878800676D56A
:100F000080204005A16B014004D1A16B0843A06380
:100F100001200190A50D4A480068284013D1484897
:100F200000900068284300990860FFF727FC06003E
:100F300000980068284006D1FFF720FC801B652838
:100F4000F6D30320FEBD21687868C02292030A40D0
:100F5000C021890301408A420BD0C021890201408F
:100F6000C0229202914204D12168890301D5012057
:100F7000FEBDC026B602216D314020D030408142F6
:100F80001DD0387880061AD5216D2E480840216D75
:100F9000EA020A432265216D2B4A0A402265206538
:100FA00005400CD0FFF7EAFB0500206D800506D454
:100FB000FFF7E4FB401B25498842F6D3C1E7786878
:100FC00031000140B14206D12168214A0A40310175
:100FD000014011432160206D79680E40064326656B
:100FE0000198002803D0A06B1A490140A16338780A
:100FF000800705D5E06C0C218843B9680143E164A2
:101000003878400705D5E06C13490140F86808437B
:10101000E0643878000705D5E06C10490140386974
:101020000843E0643878000605D5E06C0C490140BF
:1010300078690843E0640020FEBD00000010024013
:1010400000700040FFFFFCFFFFFFF7FF8913000067
:10105000FFFFCFFFFFFFFFEFFFF3FFFFFFCFFFFF1C
:10106000FFFFF3FF1CB500F087F800F036F8012011
:101070003A490A6802430A600968014000910099F0
:10108000374C38492160384961600021A160E06037
:1010900021616161A161E16121622000FFF71EFC15
:1010A000002801D000F066F80021200000F078F858
:1010B000002801D000F05EF80021200000F08DF83B
:1010C000002801D000F056F80023DB430422210061
:1010D0004C312000FFF75CFCF6E738B598B03422BD
:1010E00000210BA8FFF704FE142200216846FFF739
:1010F000FFFD1822002105A8FFF7FAFD1B48016833
:101100001B4A0A40C10C1143016002200B900124CC
:101110000E9410200F90002514950BA8FEF7D0FF19
:10112000002801D000F026F80F20009001940295CD
:101130000395049500216846FFF7DCF9002801D0EB
:1011400072B6FEE708200590099505A8FFF7D0FEC6
:10115000002801D072B6FEE719B030BD2C10024055
:1011600010000020005400405B3D30000070004043
:10117000FFE7FFFF72B6FEE710B5002407480168DD
:1011800040220A4302600020FFF7D6FA002801D06F
:10119000012401E0FFF770FD200010BD0020024097
:1011A00070B5020040325378202B14D14023C35C29
:1011B000012B10D001231370242454700468256877
:1011C0009D43256004682568164E2E4026600468FD
:1011D000256829431CE0022070BD70B50200403232
:1011E0005378202B12D14023C35C012B0ED0012356
:1011F000137024245470046825689D432560046896
:101200002568094E2E400902314301E0022070BDDD
:101210002160006801680B430360202050700020AB
:10122000107070BDFFEFFFFFFFF0FFFF094880F374
:10123000088804200168090E1F22914205D1064842
:1012400001210160054800210160054880470548EB
:1012500000470000600400203410024000000140FC
:10126000211300088D13000870B40123002413E03B
:101270000168001D194202D04D466918491E0C60D4
:10128000091D121F042AFAD20D00960701D50C8001
:10129000AD1C1A4000D02C700268001D002AE7D156
:1012A00070BC704730B401220EE00368C318446874
:1012B0000830144202D04D462C19641E1D6825606A
:1012C0001B1D241D091FF9D10168001D0029ECD147
:1012D00030BC704710B5074979441831064C7C443E
:1012E000163404E0081D0A68891888470100A142E5
:1012F000F8D110BD08000000280000006DFFFFFFBE
:1013000050000000100000200000000099FFFFFFC7
:1013100010000000B40000000000002000000000E9
:1013200070470000000000000000000001020304FC
:1013300006070809030406080C10182030000000F6
:1013400000F00DF8002801D0FFF7C4FF00BF00BF78
:10135000002000BF00BFFFF785FE00F002F801206B
:10136000704780B500F002F801BDFEE70746384639
:1013700000F002F8FBE7FEE780B500BF00BF024ABD
:1013800011001820ABBEFBE726000200054801460D
:1013900003B4684680F3098800BF00BF00BF00BFE8
:1013A000FFF7CEFFA5EDF5FE0248416802788918E7
:1013B0004160704700000020FEE7FEE7704770477D
:1013C00080B5FFF7F1FF01BD010000000000000043
:1013D0000400000000002000FEE7FEE7FEE7FEE755
:1013E000FEE7FEE7FEE7FEE7FEE7FEE7FEE7FEE7D5
:040000050800138D4F
:00000001FF
