:020000040800F2
:10000000B8040020991E0008791C00087B1C000819
:100010007D1C00087F1C0008811C000800000000F7
:10002000000000000000000000000000831C000829
:10003000851C000800000000871C0008891C0008BF
:10004000A91E0008AD1E0008B11E0008B51E00085C
:10005000B91E0008BD1E0008C11E0008C51E00080C
:10006000C91E0008CD1E0008D11E0008D51E0008BC
:10007000D91E0008DD1E0008E11E0008E51E00086C
:10008000E91E0008ED1E0008F11E0008F51E00081C
:10009000911C0008F91E0008FD1E0008011F000841
:1000A000051F0008091F00080D1F0008111F000888
:1000B000151F0008191F00081D1F0008211F000838
:1000C000251F0008291F00082D1F0008311F0008E8
:1000D000351F0008391F00083D1F0008411F000898
:1000E000AD1C0008451F0008491F00084D1F0008EF
:1000F000511F0008551F0008591F00085D1F000808
:10010000611F0008651F0008691F00086D1F0008B7
:10011000711F0008751F0008791F00087D1F000867
:10012000811F0008851F0008891F00088D1F000817
:10013000911F0008951F0008991F00089D1F0008C7
:10014000A11F0008A51F0008A91F0008AD1F000877
:10015000B11F0008B51F0008B91F0008BD1F000827
:10016000C11F0008C51F0008C91F0008CD1F0008D7
:10017000D11F0008D51F0008D91F0008000000008B
:10018000DD1F0008E11F0008E51F0008E91F000847
:10019000ED1F0008F11F0008F51F0008F91F0008F7
:1001A000FD1F0008012000080520000809200008A4
:1001B0000D20000811200008152000081920000853
:1001C0001D20000821200008000000002520000854
:1001D000292000082D2000083120000835200008C3
:1001E000392000083D200008412000084520000873
:1001F000492000084D200008F8B50400002500261D
:10020000002C01D10120CAE094F83C00002805D15F
:10021000002084F83D00200000F0FFFD022084F85B
:100220003C002068006830F0020021680860206807
:10023000006850F001002168086000F035FE0700FA
:1002400020684068C0070CD400F02EFEC01B0B28AD
:10025000F6D3032084F83C00002084F83D000320FE
:100260009DE020684068C00740F18C80A0690128AB
:1002700006D12068006850F080002168086005E021
:100280002068006830F0800021680860E06901287B
:1002900006D12068006850F040002168086005E041
:1002A0002068006830F0400021680860206A01285A
:1002B00006D12068006850F020002168086005E041
:1002C0002068006830F0200021680860606A01281A
:1002D00006D12068006850F010002168086005E031
:1002E0002068006830F0100021680860A06A0128CA
:1002F00006D12068006850F008002168086005E019
:100300002068006830F0080021680860E06A012871
:1003100006D12068006850F004002168086005E0FC
:100320002068006830F0040021680860A168E06877
:10033000014320690143606901436068401E014335
:100340002068C1612068006840084000216808609A
:1003500000F0AAFD070020684068C0070CD500F037
:10036000A3FDC01B0B28F6D3032084F83C0000201B
:1003700084F83D00032012E020684068C00701D4E3
:1003800001200500012D06D100202064012084F801
:100390003C00002003E0042084F83C000120F2BD72
:1003A00070B40200002001244B6914FA03F31468AE
:1003B000DFF88053AC4202D1DFF8784301E0DFF888
:1003C0007843D4F8000250F00100C4F80002D4F8D9
:1003D000000230F47C50C4F80002D4F800024D6AE8
:1003E00050EA0520C4F80002D4F81C029843C4F86F
:1003F0001C02C869002816D1D4F80C029843C4F82E
:100400000C02486904EBC000CD684E68C6EA054599
:10041000C0F84052486904EBC0008D680E68C6EA17
:100420000545C0F84452C869012816D1D4F80C0219
:100430001843C4F80C02486904EBC0000D684E680C
:10044000C6EA0545C0F84052486904EBC0008D6813
:10045000CE68C6EA0545C0F844528869002805D12F
:10046000D4F804029843C4F8040204E0D4F8040267
:100470001843C4F804020869002804D1D4F814020F
:100480009843C4F814020869012804D1D4F814026E
:100490001843C4F81402086A012804D1D4F81C02D5
:1004A0001843C4F81C02D4F8000240084000C4F805
:1004B0000002002070BC70472DE9F04106000D00DD
:1004C00004215FF0000830688068400108D430687B
:1004D0008068000104D430688068C00040F1248145
:1004E00096F83D00012801D1022021E1012086F883
:1004F0003D0096F83C00222804D0322806D062281D
:1005000008D00BE0422086F83C000AE0522086F832
:100510003C0006E0722086F83C0002E0122086F8DB
:100520003C0030688068400101D5002406E0306856
:100530008068000101D5012400E002243068210117
:100540000844D0F8800110F0010031682201114404
:10055000C1F88001306B8068002811D1306821011A
:100560000844D0F88011306B006851EA4051306B7C
:10057000C0680143306822011044C0F8801113E0C4
:10058000306821010844D0F88011306B406851EA8E
:10059000C001306B80680143306BC0680143306834
:1005A00022011044C0F88011306B007C10F00F0065
:1005B000316B0861306821010844D0F884010009DA
:1005C0000001316822011144C1F884013068210121
:1005D0000844D0F88411306B00690143306822016F
:1005E0001044C0F88411306BC07D316B897D0904E3
:1005F00051EA0061306B407D51EA0021306B007D93
:100600000143306822011044C0F88811306BC07E6D
:10061000316B897E090451EA0061306B407E51EAFA
:100620000021306B007E0143306822011044C0F885
:100630008C11306821010844D0F8800150F001008D
:10064000316822011144C1F8800100F02DFC07003F
:10065000002C0CD130688168DFF80C050140DFF810
:100660000805814201D101201CE000201AE0012C84
:100670000CD130688168DFF8F4040140DFF8EC0445
:10068000814201D101200DE000200BE0306881683B
:10069000DFF8DC040140DFF8D804814201D10120F9
:1006A00000E00020002822D115F1010FD0D0002D4C
:1006B00004D000F0F9FBC01B8542C9D2032086F8A4
:1006C0003C00002C03D18020316888600AE0012CB6
:1006D00004D14FF400403168886003E05FF400000B
:1006E00031688860002086F83D00032020E096F8FD
:1006F0003C00422804D0522806D0722808D00BE0D3
:10070000222086F83C000AE0322086F83C0006E011
:10071000622086F83C0002E0012086F83C000020C0
:1007200086F83D00002003E0042086F83C0001200C
:10073000BDE8F08100340040006400400200080081
:10074000C0B2002811D192F83C0022280BD092F8B8
:100750003C00422807D092F83C00622803D092F86F
:100760003C00722801D1022072E00800C0B20128CA
:1007700011D192F83C0032280BD092F83C0052285C
:1007800007D092F83C00622803D092F83C0072280F
:1007900001D102205CE092F83D00012801D1022045
:1007A00056E0012082F83D000800C0B2002818D1B0
:1007B00092F83C00122804D0322806D0522808D0E3
:1007C0000BE0422082F83C0023E0622082F83C00EB
:1007D0001FE0722082F83C001BE0222082F83C00DF
:1007E00017E092F83C00122804D0222806D04228B4
:1007F00008D00BE0522082F83C000AE0622082F828
:100800003C0006E0722082F83C0002E0322082F8D0
:100810003C00002010641068406940F40F4050F024
:10082000010013685861002082F83D000800C0B242
:10083000002806D11068406950F00A00136858611A
:1008400005E01068406950F05000136858610020BE
:1008500070472DE9F0478046002200235FF0000931
:100860005FF0000AD8F80000C168090911F0010121
:10087000D8F800004069C00810F00100002907D036
:10088000002805D05AF4007A1022D8F80030DA6037
:10089000D8F800201669360916F00106D8F80020AD
:1008A0005769BF0917F00107002E07D0002F05D0A8
:1008B0005AF4806A1020D8F800100861D8F80000B7
:1008C0004069C00751D5D8F800008168A6480140AA
:1008D000A548814201D1012600E00026D8F8000099
:1008E0008168A2480140A148814201D1012700E06E
:1008F0000027D8F8000081689D4801409C4881424B
:1009000002D15FF0010901E05FF0000957EA06003B
:1009100059EA0000002828D0D8F800008068400874
:1009200010F001000600D8F800008068400A10F0BE
:1009300001000700D8F800008068400C10F00100AA
:10094000814657EA060059EA0000002803D04046D5
:1009500000F014F901E05AF4006AD8F80000816848
:1009600084480143D8F800008160D8F80000C468CA
:1009700014F00304D8F8000045696D0815F001056E
:10098000002C05D0002D03D00021404600F025F9B1
:10099000D8F80000066916F00306D8F80000476989
:1009A0003F0917F00107002E05D0002F03D00121C9
:1009B000404600F012F9D8F840005AEA0000C8F8A2
:1009C0004000D8F80000806910F00100D8F800104D
:1009D0004969090A11F00101D8F800205269D20BC7
:1009E00012F00102002809D0002907D0002A05D002
:1009F000D8F8403053F00103C8F84030D8F8003040
:100A00009B695B0813F00103D8F800406469640A2D
:100A100014F00104D8F800506D69ED0B15F00105D4
:100A2000002B09D0002C07D0002D05D0D8F84000AD
:100A300050F00200C8F84000D8F80000826992081F
:100A400012F00102D8F800004069800A10F001009D
:100A5000D8F800104969C90B11F00101002A09D02A
:100A6000002807D0002905D0D8F8403053F00403FF
:100A7000C8F84030D8F800309B6913F0700F01D1EE
:100A8000012400E00024D8F800205569ED0A15F093
:100A90000105D8F800205669F60B16F00106002C67
:100AA00049D1002D47D0002E45D0D8F800008069EC
:100AB00010F070000400200010280AD020280FD069
:100AC000302814D0402819D050281ED0602823D0B8
:100AD00029E0D8F8400050F00800C8F8400022E0B3
:100AE000D8F8400050F01000C8F840001BE0D8F8DB
:100AF000400050F02000C8F8400014E0D8F8400052
:100B000050F04000C8F840000DE0D8F8400050F028
:100B10008000C8F8400006E0D8F8400050F480702B
:100B2000C8F84000FFE7D8F80000806930F0700096
:100B3000D8F800108861D8F84000002811D00420AF
:100B4000D8F800104860012088F83C00D8F8000070
:100B5000416909480140D8F800004161404600F071
:100B6000A9F9BDE8F08700000300000400030008B5
:100B70000000031019050100A470FFFF10B5040068
:100B800020684069400840002168486194F83C00B2
:100B9000122805D12068406930F40F40216848616F
:100BA00094F83C00422804D0522806D0722808D07D
:100BB0000BE0222084F83C000AE0322084F83C005C
:100BC00006E0622084F83C0002E0012084F83C004A
:100BD000200000F070F9002010BDF8B504000D00F1
:100BE000002100202A00D2B2002A01D1666B00E069
:100BF000A66B20682A00D2B212011044D0F8B001CE
:100C000010F00400B060B068002809D120682A0004
:100C1000D2B212011044D0F8B001400D306008E0AB
:100C200020682A00D2B212011044D0F8B001C008E6
:100C3000706020682A00D2B212011044D0F8B001CE
:100C400010F00200F06020682A00D2B212011044B5
:100C5000D0F8B40110F00F0030612800C0B230624B
:100C600020682A00D2B212011044D0F8B401C0F3B7
:100C70000720F06120682A00D2B212011044D0F897
:100C8000B801307520682A00D2B212011044D0F8A1
:100C9000B801000A707520682A00D2B2120110440F
:100CA000D0F8B801000CB07520682A00D2B2120149
:100CB0001044D0F8B801000EF07520682A00D2B2B6
:100CC00012011044D0F8BC01307620682A00D2B25C
:100CD00012011044D0F8BC01000A707620682A0086
:100CE000D2B212011044D0F8BC01000CB0762068DA
:100CF0002A00D2B212011044D0F8BC01000EF076E6
:100D00002800C0B2002809D120202268D0602068C5
:100D1000406930F00A002268506108E02020226813
:100D200010612068406930F050002268506194F8EA
:100D30003C70222F01D0322F05D12068406930F459
:100D40000F40216848612800C0B2002818D194F8EB
:100D50003C00422804D0622806D0722808D00BE05C
:100D6000122084F83C0023E0322084F83C001FE08D
:100D7000522084F83C001BE0012084F83C0017E07E
:100D800094F83C00522804D0622806D0722808D07B
:100D90000BE0122084F83C000AE0222084F83C009A
:100DA00006E0422084F83C0002E0012084F83C0088
:100DB000200000F081F80020F2BD0EE002684368D8
:100DC000024408305FEAC37C44BF4B445B1E52F8C8
:100DD00004CB43F804CB091FF9D150F8041B0029B8
:100DE000ECD1704781B02B48006850F08050294901
:100DF00008602848006810F080500090009826484D
:100E0000006850F48040244908602348006810F4CA
:100E100080400090009801B0704710B586B0040083
:100E20001422002101A800F048F820681B498842DC
:100E30002ED11848006850F0007016490860154817
:100E4000006810F00070009000981548006850F09D
:100E50000100134908601248006810F0010000907A
:100E600000984FF4C050019002200290002003909F
:100E7000032004900920059001A90A4800F028F8F1
:100E800000220021142000F000FA142000F012FAD1
:100E900006B010BD403802404438024000640040B3
:100EA000303802400000024001480068704700BF2F
:100EB000B000002070477047704710B504461046D8
:100EC0000A460146204600F013FA204610BD0000F5
:100ED000F8B400220023002400260025102D80F005
:100EE00012810122AA4013000A681A4014009C4291
:100EF00040F007814A68022A02D04A68122A1ED1AD
:100F00002A00D20800EB8202176A5FF00F0C15F07E
:100F10000702D2B292001CFA02FC37EA0C07D1F8A1
:100F200010C015F00702D2B292001CFA02FC5CEA73
:100F300007073E002A00D20800EB8202166207680B
:100F40005FF0030C2A00D2B252001CFA02FC37EA0E
:100F50000C0791F804C01CF0030C2A00D2B2520016
:100F60001CFA02FC5CEA070707604A68012A08D0FD
:100F70004A68022A05D04A68112A02D04A68122A11
:100F800024D186685FF0030C2A00D2B252001CFA0A
:100F900002FC36EA0C06D1F80CC02A00D2B252008C
:100FA0001CFA02FC5CEA0606866042685FF0010CEF
:100FB0001CFA05FC32EA0C02D1F804C0CCF3001C88
:100FC0001CFA05FC5CEA020217004760C6685FF085
:100FD000030C2A00D2B252001CFA02FC36EA0C06BC
:100FE000D1F808C02A00D2B252001CFA02FC5CEA16
:100FF0000606C6604A68D20040F18380DFF86021AF
:10100000126852F48042DFF858713A60DFF85021DC
:10101000126812F480420092009ADFF848212F00F3
:10102000BF0852F827705FF00F0C15F00302D2B220
:1010300092001CFA02FC37EA0C07DFF82C219042E0
:1010400001D100262DE0494A904201D1012628E035
:10105000474A904201D1022623E0464A904201D1FC
:1010600003261EE0444A904201D1042619E0434A77
:10107000904201D1052614E0414A904201D1062652
:101080000FE0404A904201D107260AE03E4A9042D2
:1010900001D1082605E03D4A904201D1092600E031
:1010A0000A26F6B215F00302D2B2920096403743F8
:1010B0002C4A2E00B60842F82670354A1268A24320
:1010C0004E68F60300D52243314E3260314E366809
:1010D000A6434F68BF0300D526432E4A16602E4A0A
:1010E0001268A2434F68FF0200D522432A4E3260A5
:1010F0002A4E3668A6434F68BF0200D52643274ACA
:1011000016606D1CEAE6F1BC7047020010690B0026
:101110009BB2184201D0012000E00020C0B270470D
:101120001300DBB2002B03D00B009BB2836103E002
:101130000B009BB21B048361704710B50400184874
:101140000068210089B2084207D0200080B214490B
:101150000860200080B200F0FEF810BD0000000022
:1011600044380240083801400000024000040240B8
:1011700000080240000C024000100240001402402F
:1011800000180240001C02400020024000240240DF
:10119000003C0140043C0140083C01400C3C014043
:1011A000143C014010F0070349490A684FF6FF015B
:1011B0000A4052EA032247490A4345490A607047F8
:1011C00043480068C0F302207047012210F01F015D
:1011D0008A40414903005BB25B0941F82320704714
:1011E00010B4020052B2002A09D50A013B4B040098
:1011F00064B214F00F04234403F8042C04E00A0141
:10120000374B040064B21A5510BC704770B4030029
:1012100013F00704D4F10700052801D3042001E0EE
:10122000D4F10700251D072D01D2002500E0E51EA1
:10123000012616FA00F0401E0140A940012010FAD4
:1012400005F56D1E2A401143080070BC704710B5AB
:101250000400601EB0F1807F01D301200EE0601E0B
:10126000204908600F215FF0FF30FFF7B9FF002031
:101270001D49086007201D490860002010BD10B5F9
:1012800004002000FFF78EFF10BD2DE9F04104009F
:101290000D0016000027FFF793FF8046320029005B
:1012A0004046FFF7B3FF0100200040B2FFF798FF70
:1012B000BDE8F08110B50400200040B2FFF785FFC3
:1012C00010BD10B504002000FFF7C1FF10BD0000E5
:1012D0000CED00E00000FA0500E100E018ED00E090
:1012E00000E400E014E000E018E000E010E000E0BE
:1012F00062F30F2262F31F42401810F0030308D07C
:10130000C91A1FD3DB0748BF00F8012D28BF20F8FA
:10131000022D130030B414461546103928BF20E9B9
:101320003C00FAD8490728BF20E90C0048BF40F824
:10133000042D890028BF20F8022D48BF00F8012D98
:1013400030BC7047C91818BF00F8012DCB0728BF63
:1013500000F8012D70477047F8B504000026002CF6
:1013600001D1012037E22078C00740F18480DFF806
:101370003C06006810F00C0004280BD0DFF82C06A7
:10138000006810F00C0008280ED1DFF82406006871
:10139000400209D5DFF81006006880036BD560684D
:1013A000002868D1012016E26068B0F5803F08D1BE
:1013B000DFF8F405006850F48030DFF8EC150860C1
:1013C00038E06068002810D1DFF8DC05006830F4F0
:1013D0008030DFF8D4150860DFF8CC05006830F401
:1013E0008020DFF8C415086024E06068B0F5A02F05
:1013F00010D1DFF8B405006850F48020DFF8A8159C
:101400000860DFF8A405006850F48030DFF8981514
:1014100008600FE0DFF89005006830F48030DFF8F6
:1014200088150860DFF88005006830F48020DFF858
:1014300078150860606800280ED0FFF735FD0500BC
:10144000DFF864050068800315D4FFF72DFD401B0D
:101450006528F5D30320BEE1FFF726FD0500DFF880
:1014600048050068800306D5FFF71EFD401B652870
:10147000F5D30320AFE12078800764D5DFF82C0591
:10148000006810F00C0F0BD0DFF82005006810F09A
:101490000C0008281AD1DFF818050068400215D49E
:1014A000DFF804050068800704D5E068012801D052
:1014B000012090E1DFF8F004006830F0F8002169C5
:1014C00050EAC100DFF8E01408603CE0E068002862
:1014D00022D0DFF8D404006850F00100DFF8C8140F
:1014E0000860FFF7E1FC0500DFF8BC040068800736
:1014F00006D4FFF7D9FC401B0328F5D303206AE18B
:10150000DFF8A404006830F0F800216950EAC10057
:10151000DFF89414086016E0DFF88C0400684008D7
:101520004000DFF884140860FFF7BEFC0500DFF818
:1015300078040068800706D5FFF7B6FC401B032837
:10154000F5D3032047E12078000730D560690028F3
:1015500016D0DFF86804006850F00100DFF85C1472
:101560000860FFF7A1FC0500DFF850040068800761
:101570001DD4FFF799FC401B0328F5D303202AE173
:10158000DFF83804006840084000DFF830140860D5
:10159000FFF78AFC0500DFF824040068800706D501
:1015A000FFF782FC401B0328F5D3032013E12078CA
:1015B000400740F1A780DFF808040068C00010D49D
:1015C000DFF8FC03006850F08050DFF8F413086087
:1015D000DFF8EC03006810F08050009000980120C4
:1015E0000600DFF8E0030068C00516D4DFF8D40376
:1015F000006850F48070DFF8CC130860FFF754FCEB
:101600000500DFF8C0030068C00506D4FFF74CFCF6
:10161000401B6528F5D30320DDE0A068012808D130
:10162000DFF8A403006850F00100DFF89C130860A5
:1016300037E0A068002810D1DFF88C03006840086C
:101640004000DFF884130860DFF87C03006830F0A6
:101650000400DFF87413086023E0A068052810D1A7
:10166000DFF86403006850F00400DFF85C130860E2
:10167000DFF85403006850F00100DFF84C130860F5
:101680000FE0DFF84403006840084000DFF838133B
:101690000860DFF83403006830F00400DFF8281336
:1016A0000860A068002810D0FFF7FEFB0500DFF8F7
:1016B00018030068800719D4FFF7F6FB401B41F2BE
:1016C00089318842F3D3032085E0FFF7EDFB050065
:1016D000DFF8F4020068800708D5FFF7E5FB401B40
:1016E00041F289318842F3D3032074E03000C0B264
:1016F000012807D1DFF8C802006830F08050DFF819
:10170000C0120860A069002864D0DFF8A002006859
:1017100010F00C0008285BD0A069022841D1DFF846
:101720008802006830F08070DFF87C120860FFF7F4
:10173000BBFB0700DFF870020068800106D5FFF7E9
:10174000B3FBC01B0328F5D3032044E0E169206A02
:101750000143606A51EA8011A06A4008401E51EAC4
:101760000041E06A51EA0061206B51EA0071DFF844
:1017700040020160DFF83002006850F08070DFF84E
:1017800028120860FFF790FB0500DFF81C020068D4
:1017900080011FD4FFF788FB401B0328F5D30320EB
:1017A00019E0DFF80402006830F08070DFF8F8110B
:1017B0000860FFF779FB0500DFF8EC0100688001A5
:1017C00008D5FFF771FB401B0328F5D3032002E087
:1017D000012000E00020F2BD70B504000D000026DD
:1017E000002C01D10120A1E0DFF8E001006810F039
:1017F0000F00A84211D2DFF8D401006800090001EF
:101800002843DFF8C8110860DFF8C001006810F055
:101810000F00A84201D0012088E02078800709D578
:10182000DFF88801016831F0F001A0680143DFF8BA
:101830007C0101602078C00739D56068012806D195
:10184000DFF864010068800312D401206EE0606854
:10185000022806D1DFF850010068800108D4012079
:1018600064E0DFF844010068800701D401205DE0F6
:10187000DFF8380101688908890060680143DFF8F2
:101880002C010160FFF710FB0600DFF82001006863
:1018900010F00C006168B0EB810F08D0FFF704FB7B
:1018A000801B41F289318842EFD303203EE0DFF80C
:1018B0001C01006810F00F00854211D2DFF80C0106
:1018C0000068000900012843DFF800110860DFF814
:1018D000FC00006810F00F00A84201D0012025E0B4
:1018E0002078400707D53148016831F4E051E068BD
:1018F00001432E4801602078000708D52B48006876
:1019000030F46040216950EAC1002849086000F0C5
:101910000EF82F49254A1268C2F30312895CC840A9
:1019200025490860002000F055F8002070BD30B453
:1019300000210022002300241C48006810F00C0045
:10194000002804D0042804D0082804D029E019482D
:1019500028E0184826E01648006810F03F00010013
:1019600013480068400209D51248B0FBF1F5104851
:101970000068C0F3881045432A0008E00D48B0FB1A
:10198000F1F50B480068C0F3881045432A00084869
:101990000068C0F30140401C40000300B2FBF3F0BC
:1019A00000E0044830BC704700380240083802406C
:1019B000043802400024F400000000207438024083
:1019C000403802400070004070380240003C024045
:1019D000881E000810B50400074800684FF47A71AB
:1019E000B0FBF1F0FFF76DFC002221005FF0FF304B
:1019F000FFF74BFC002010BD0000002080B500F078
:101A00002FF900F03DF800F0B4F800F083F88848B2
:101A100088490863884887494863002087494861A6
:101A200001208649886101208449C86144F6A000EC
:101A30008249086000208149886000207F49C86091
:101A400000207E4908610E207C4948627B49794824
:101A5000FEF7A6FC4FF411707649096B0860002070
:101A60007449096BC86000207249096B88600120C5
:101A70007049096B086100216E48FEF75FFEFEE7C2
:101A800000B593B03422002106A8FFF716FA1422FD
:101A9000002101A8FFF711FA6948006850F0805052
:101AA000674908606648006810F080500090009810
:101AB0006448006830F4404050F480406149086058
:101AC0006048006810F440400090009802200690A2
:101AD0000120099010200A9000200C9006A8FFF722
:101AE0003BFC002801D000F0B9F80F200190002045
:101AF0000290002003904FF4805004900020059045
:101B0000002101A8FFF768FE002801D000F0A6F828
:101B100013B000BD80B54C484649086002204549D5
:101B2000486000204349886000204249C8605FF453
:101B30004020404908615FF480103E494861002020
:101B40003C49886100203B49C8610020394908624E
:101B50000020384948620020364988620020354913
:101B6000C8623448FEF748FB002801D000F076F840
:101B700001BD80B586B01422002101A8FFF79DF9B0
:101B80003248006850F00400304908602F4800686F
:101B900010F00400009000982C48006850F080007D
:101BA0002A4908602948006810F0800000900098D9
:101BB0002648006850F00200244908602348006865
:101BC00010F00200009000982048006850F00100DA
:101BD0001E4908601D48006810F001000090009840
:101BE000002244F281011A48FFF79AFA4FF400509C
:101BF0000190184802900020039001A91648FFF7B1
:101C000067F944F2810001900120029000200390C6
:101C10000020049001A90E48FFF75AF90022012183
:101C20002820FFF732FB2820FFF744FB07B000BD58
:101C300094000020040000207000002048000020D4
:101C400040380240007000400064004030380240DC
:101C5000000402400000111000080240704700001C
:101C600080B50320FFF70BFB0020FFF7B3FEFFF763
:101C7000B9F8002002BD00007047FEE7FEE7FEE76E
:101C8000FEE770477047704780B500F039F801BD36
:101C900080B51648FEF7DDFD00211448FEF74EFD25
:101CA0001248406B007D1249087001BD80B50020CC
:101CB0001049884201DA401CFAE701210E48FFF77B
:101CC00024FA00280DD00D480078401C0B490870FC
:101CD0000A4800780549096B087501210348FEF799
:101CE000EBFB4FF40050FFF728FA01BD0400002081
:101CF000B500002020A1070000040240B40000202D
:101D000002480068401C014908607047B00000208C
:101D10001248006850F470001049086010480068CC
:101D200050F001000E49086000200E4908600C4880
:101D300001680D4801400A4801600C480C490860E0
:101D40000748006830F480200549086000200949F0
:101D500008605FF0006008490860704788ED00E0A7
:101D60000038024008380240FFFFF6FE1030002421
:101D7000043802400C38024008ED00E030B4002581
:101D800012E050F8042BD30744BF4A44521E091FE7
:101D9000042942F8045BFAD213468C0744BF15802D
:101DA0009B1CC90748BF1D7050F8041B0029E8D1CF
:101DB00030BC704710B5074979441831064C7C4453
:101DC000163404E00A68081D114488470146A14200
:101DD000F8D110BD2C0000004C0000004EF68851D8
:101DE000CEF20001086840F470000860BFF34F8F26
:101DF000BFF36F8F4FF00070E1EE100A70470000E4
:101E00007DFFFFFFB4000000040000200000000080
:101E1000ABEFFFFF040000003802000000000020CC
:101E20000000000000F00DF8002801D0FFF7C2FF0D
:101E3000AFF300800020AFF30080FFF7DFFD00F07C
:101E400002F80120704700F001B80000074638464C
:101E500000F002F8FBE7000080B5AFF30080024A13
:101E600011001820ABBEFBE7260002000548014622
:101E700003B4684680F30988AFF30080FFF7AEFF34
:101E8000FFF7D0FFA5EDF5FE000000000000000008
:101E9000010203040607080901488047014800477A
:101EA000111D00086D1E0008FFF7FEBFFFF7FEBF03
:101EB000FFF7FEBFFFF7FEBFFFF7FEBFFFF7FEBF56
:101EC000FFF7FEBFFFF7FEBFFFF7FEBFFFF7FEBF46
:101ED000FFF7FEBFFFF7FEBFFFF7FEBFFFF7FEBF36
:101EE000FFF7FEBFFFF7FEBFFFF7FEBFFFF7FEBF26
:101EF000FFF7FEBFFFF7FEBFFFF7FEBFFFF7FEBF16
:101F0000FFF7FEBFFFF7FEBFFFF7FEBFFFF7FEBF05
:101F1000FFF7FEBFFFF7FEBFFFF7FEBFFFF7FEBFF5
:101F2000FFF7FEBFFFF7FEBFFFF7FEBFFFF7FEBFE5
:101F3000FFF7FEBFFFF7FEBFFFF7FEBFFFF7FEBFD5
:101F4000FFF7FEBFFFF7FEBFFFF7FEBFFFF7FEBFC5
:101F5000FFF7FEBFFFF7FEBFFFF7FEBFFFF7FEBFB5
:101F6000FFF7FEBFFFF7FEBFFFF7FEBFFFF7FEBFA5
:101F7000FFF7FEBFFFF7FEBFFFF7FEBFFFF7FEBF95
:101F8000FFF7FEBFFFF7FEBFFFF7FEBFFFF7FEBF85
:101F9000FFF7FEBFFFF7FEBFFFF7FEBFFFF7FEBF75
:101FA000FFF7FEBFFFF7FEBFFFF7FEBFFFF7FEBF65
:101FB000FFF7FEBFFFF7FEBFFFF7FEBFFFF7FEBF55
:101FC000FFF7FEBFFFF7FEBFFFF7FEBFFFF7FEBF45
:101FD000FFF7FEBFFFF7FEBFFFF7FEBFFFF7FEBF35
:101FE000FFF7FEBFFFF7FEBFFFF7FEBFFFF7FEBF25
:101FF000FFF7FEBFFFF7FEBFFFF7FEBFFFF7FEBF15
:10200000FFF7FEBFFFF7FEBFFFF7FEBFFFF7FEBF04
:10201000FFF7FEBFFFF7FEBFFFF7FEBFFFF7FEBFF4
:10202000FFF7FEBFFFF7FEBFFFF7FEBFFFF7FEBFE4
:10203000FFF7FEBFFFF7FEBFFFF7FEBFFFF7FEBFD4
:10204000FFF7FEBFFFF7FEBFFFF7FEBFFFF7FEBFC4
:042050000024F40074
:0400000508001E6D64
:00000001FF
