:020000040800F2
:1000000028050020091C0008111B0008131B00080C
:10001000151B0008171B0008191B00080000000032
:100020000000000000000000000000001B1B000892
:100030001D1B0008000000001F1B0008211B0008FA
:10004000211C0008251C0008291C00082D1C000884
:10005000311C0008351C0008391C00083D1C000834
:10006000411C0008451C0008491C00084D1C0008E4
:10007000511C0008551C0008591C00085D1C000894
:10008000611C0008651C0008691C00086D1C000844
:10009000711C0008751C0008791C00087D1C0008F4
:1000A000811C0008851C0008891C00088D1C0008A4
:1000B000911C0008951C0008991C00089D1C000854
:1000C000A11C0008A51C0008A91C0008AD1C000804
:1000D000B11C0008B51C0008B91C0008BD1C0008B4
:1000E000C11C0008C51C0008C91C0008CD1C000864
:1000F000D11C0008D51C0008D91C0008DD1C000814
:10010000E11C0008E51C0008E91C0008ED1C0008C3
:10011000251B00082B1B0008F11C0008F51C00081B
:10012000F91C0008FD1C0008011D0008051D000841
:10013000091D00080D1D0008111D0008151D0008EF
:10014000191D00081D1D0008211D0008251D00089F
:10015000291D00082D1D0008311D0008351D00084F
:10016000391D00083D1D0008411D0008451D0008FF
:10017000491D00084D1D0008511D00080000000029
:10018000551D0008591D00085D1D0008611D00086F
:10019000651D0008691D00086D1D0008711D00081F
:1001A000751D0008791D00087D1D0008811D0008CF
:1001B000851D0008891D00088D1D0008911D00087F
:1001C000951D0008991D0008000000009D1D0008F5
:1001D000A11D0008A51D0008A91D0008AD1D0008EF
:1001E000B11D0008B51D0008B91D0008BD1D00089F
:1001F000C11D0008C51D000810B5040007D0616FBF
:1002000009B900F01FF800F02BF8012801D10120F6
:1002100010BD606A08B100F01AF800F00BF822F087
:100220002A02826000F016F8FFE72046BDE8104081
:1002300000F00CBB2068416821F4904141602068C7
:1002400082687047002284F8702000F0BFBB20460F
:1002500000F098BA2068016841F001010160704720
:10026000242161672068026852085200026020461B
:1002700000F05CB92DE9FC4106460D46706F14464E
:100280001F4620284DD10DB1200001D1012049E0A9
:1002900096F87000012844D00121002286F87010E1
:1002A0002120F267706700F0FFFBA6F850408046FF
:1002B000A6F85240B168B1F5805F04BF30690028EC
:1002C0001ABF2C46002500240EE0002C306812BF17
:1002D00014F8011B35F8021BC1F308018162B6F85E
:1002E0005220511EA6F85210B6F85200009743460D
:1002F000002807D000228021304600F0C6FA0028EE
:10030000E3D005E000224021304600F0BEFA08B1FB
:10031000032007E0202000217067002086F870107D
:1003200000E00220BDE8F68110B5836F202B46D196
:1003300009B1130001D1012010BD90F87030012BDC
:100340003DD00124416580F870400021A0F858207C
:10035000A0F85A20FF2201668168B1F5805F04D1C0
:10036000016991B940F2FF120FE011B9016961B161
:1003700004E0B1F1805F07D1016909B97F2204E08F
:100380003F21A0F85C1002E00022A0F85C200021D0
:100390002223C167836700F01DF88368B3F5805F8F
:1003A00004BF0169002907BFDFF8A0230266DFF858
:1003B000A013016600F005F841F4907107E00220F7
:1003C00010BD002280F8702000680168704701604D
:1003D000002010BD01688A6842F001028A607047FF
:1003E0000160286882685208520082607047836802
:1003F00023F040038360E06E7047F8B5044625683B
:10040000EA692E68AB6812F00F0F06F0200002F0C8
:1004100020010AD1002918BF00286AD0216E0029C6
:1004200066D02046BDE8F4400847DF0702D416F442
:10043000907F5ED0D70707D5F60505D501262E6239
:10044000E56F45F00105E567960708D5DD0706D598
:10045000266802273762E56F45F00405E567560711
:1004600008D5DD0706D5266804273762E56F45F015
:100470000205E567120709D508B9DB0706D5256827
:1004800008222A62E36F43F00803E367E26F002A61
:100490004AD0002918BF002803D0216E09B1204698
:1004A0008847E06F21688A68530601D400071AD58F
:1004B000204600F015FA206881684A060ED5FFF73D
:1004C00096FF58B10FF239410165E06E00F0F2FA83
:1004D00050B3E06E016DBDE8F44008472046BDE82A
:1004E000F24000F0F9BA204600F0F6FA0020E0678A
:1004F000F1BD110607D5300605D5616EA1B12046C4
:10050000BDE8F440084750060ED571060CD52868A2
:100510002021002220F040002860204661676266AA
:10052000BDE8F24000F0D9BAF1BD0000F8B50446CC
:1005300088482668002300253768A168226907409B
:1005400060690F43E169174307430F4337607268DF
:10055000E06822F4405202437260B268A169206AE6
:1005600022F430620A4302437B48B2607B4A9642DF
:1005700021D1016801F00301032903D8DFE801F06C
:10058000693829471020E1694FF6F076B1F5004F40
:1005900040F0A88060B1012800F07F80022800F0C0
:1005A0007F80042800F08180082800F087808DE09B
:1005B00000F0B9FC7BE06A498E420CD1006810F073
:1005C0000C0068D0042813D0082802D00C281ED0B4
:1005D000D8E70220D7E763498E420BD1006810F0BC
:1005E000300058D0102803D02028F2D03028EEE771
:1005F0000420C8E75C498E420BD1006810F0C000AF
:1006000049D04028F4D08028E3D0C028BAD10820AF
:10061000B9E756498E420CD1006810F440703AD0C8
:10062000B0F5807FE4D0B0F5007FD2D0B0F5407F48
:10063000CDE74F4A96420ED1016811F4406108D0CF
:10064000B1F5806FD4D0B1F5006FC2D0B1F5406F75
:10065000BDE7012097E7474A96420CD1006810F4A5
:10066000405018D0B0F5805FC2D0B0F5005FB0D078
:10067000B0F5405FABE740498E4283D1026812F487
:10068000404208D0B2F5804FB2D0B2F5004FA0D0B2
:10069000B2F5404F9BE7002075E700F04CFC06E008
:1006A0006068364901EB50010CE000F017FC61680E
:1006B0004A0802EB4002B2FBF1F305E06068410832
:1006C00001F58031B1FBF0F39BB200E00125A3F10D
:1006D0001000B04233D221681E40C3F342000643EB
:1006E000CE602DE040B1012809D002280AD00428AC
:1006F0000DD0082813D01AE000F015FC09E000F036
:100700001AFC06E060681E4901EB50010BE000F0A6
:10071000E5FB616800EB5100B0FBF1F305E06068B8
:10072000410801F50041B1FBF0F39BB200E0012567
:10073000A3F11000B04202D22168CB6000E0012595
:100740000020206660662846F2BD00003D090008D2
:1007500011090008F369FFEF9038024000100140D2
:100760000044004000480040004C00400050004061
:100770000014014000780040007C00400048E8017F
:100780000024F40010B590F82410CA0706D50268BA
:100790005368816A23F400330B43536090F824209C
:1007A000910706D502685368C16A23F480330B436E
:1007B000536090F82420510706D502685368016BF6
:1007C00023F480230B43536090F82420110706D5AF
:1007D00002685368416B23F400430B43536090F865
:1007E0002420D10606D502689368816B23F48053D8
:1007F0000B43936090F82420910606D50268936815
:10080000C16B23F400530B43936090F824205106EE
:1008100010D502685368016C23F480130B435360B6
:10082000036CB3F5801F05D15468416C24F4C004F7
:100830000C43546090F82420110606D501684A68DC
:10084000806C22F4002202434A6010BD38B5044691
:100850000020E06700F028F9216803460A681007C5
:100860000BD56FF07E45002200954FF40011204615
:1008700000F00BF808B1032032BD20200022606791
:10088000A067002084F8702032BD2DE9F0410546B4
:100890000E4690461F46069C2868C1693140B14209
:1008A0000CBF01200020404517D114F1010FF3D0F7
:1008B00000F0FAF8C01B844201D3002CECD1286868
:1008C000016821F4D071FFF78BFD202068670022BA
:1008D000A867032085F8702000E00020BDE8F081C3
:1008E00001680A6822F490720A60016800228B682D
:1008F0005B085B008B602021816702667047000007
:10090000806B0021A0F85A10A0F8521000F0E4B853
:1009100038B50168826F222A08D100F020F81A70D9
:10092000426D541C00F021F811B927E000F001F8E5
:1009300031BD8B6943F008038B61704738B501689E
:10094000826F222A08D100F00AF81A80426D941CA6
:1009500000F00BF811B911E0FFF7EBFF31BD4A6A67
:10096000B0F85C10436D0A4070474465B0F85A30E7
:100970005D1EA0F85A50B0F85A10704701680A6816
:1009800022F490720A60016800228B685B085B00A9
:100990008B60202181670266BDE8324000F0E6BA34
:1009A00081B03B48016841F080510160026802F06B
:1009B000805200920099426842F48042426040684E
:1009C00000F480400090009901B0704710B586B0E7
:1009D000044614220021684600F0C9FA20682D4A16
:1009E0002D49904225D1086940F4002008610A6928
:1009F0002A4802F400220592059B0C68032344F068
:100A000001040C60096801F001010591059A0221B9
:100A100000930022019102920822039369460492F6
:100A200000F0CCFA00220021342000F0DDFB34205D
:100A300029E01B4A904228D1086940F480100861DF
:100A40000A69184802F480120592059B0C684FF45D
:100A5000405344F002040C60096801F00201059162
:100A6000059A022100930191002202920321039131
:100A700008220492694600F0A1FA002200213520E4
:100A800000F0B2FB352000F0CCFB06B010BD00003A
:100A900040380240004C0040303802400000024024
:100AA000005000400004024001484068704700BF09
:100AB0001801002090F83510022903D080224265E9
:100AC00001207047052180F835100068026852083F
:100AD0005200026000207047704770472DE9FC41CA
:100AE00004460025BCB12078DFF86064C10750D50A
:100AF000B26802F00C02042A07D0B06800F00C00C3
:100B000008280AD17168480207D53268910340D598
:100B1000606800283DD1012056E16068B0F5803F53
:100B20000FD038B9316821F480313160306820F459
:100B3000802009E0B0F5A02F08D1316841F4802170
:100B40003160306840F48030306007E0326822F471
:100B500080323260316821F480213160606860B198
:100B6000FFF7A2FF07463168880312D4FFF79CFF06
:100B7000C01B6528F7D3032026E1FFF795FF074642
:100B80003068810305D5FFF78FFFC01B6528F7D3B9
:100B9000F1E72078810718D5B26812F00C0F07D062
:100BA000B06800F00C00082825D17168480222D4F2
:100BB0003268910702D5E0680128ACD1316820691C
:100BC00021F0F80141EAC001316021780A074CD5D3
:100BD0006069002839D0716F41F001017167FFF73A
:100BE00063FF0746706F81073FD4FFF75DFFC01BAF
:100BF0000228F7D9BFE7E068B8B1316841F00101D8
:100C00003160FFF751FF07463068810705D4FFF7D1
:100C10004BFFC01B0228F7D9ADE73068216920F0EF
:100C2000F80040EAC1003060CFE73068400840007B
:100C30003060FFF739FF074631688807C5D5FFF7F1
:100C400033FFC01B0228F7D995E7706F40084000BA
:100C50007067FFF729FF0746706F810705D5FFF71B
:100C600023FFC01B0228F7D985E72078410761D50B
:100C7000326CD00009D4316C012541F080513164CF
:100C8000306C00F0805000900099DFF8CC7238682A
:100C9000C10510D43A6842F480723A60FFF704FF4D
:100CA00080463868C10506D4FFF7FEFEA0EB0800B9
:100CB0006528F6D35FE7A068012804D1306F40F0C3
:100CC0000100306713E008B9306F09E00528306F84
:100CD00006D140F004003067316F41F0010105E0BA
:100CE000400840003067316F21F004013167A0688F
:100CF00041F2893760B1FFF7D7FE8046306F810738
:100D000013D4FFF7D1FEA0EB0800B842F6D332E7C8
:100D1000FFF7CAFE8046306F810706D5FFF7C4FE95
:100D2000A0EB0800B842F6D325E71DB1306C20F0E7
:100D300080503064A069002845D0B16801F00C01F2
:100D400008293FF4E8AE0228306820F08070306057
:100D50002DD1FFF7A9FE05463168880105D5FFF7BB
:100D6000A3FE401B0228F7D905E7E069216AA36AC0
:100D7000626A0843E16A40EA8210226B5B085B1EEC
:100D800040EA034040EA016040EA02707060306867
:100D900040F080703060FFF787FE044631688801BC
:100DA00011D4FFF781FE001B0228F7D9E3E6FFF715
:100DB0007BFE04463168880105D5FFF775FE001BF0
:100DC0000228F7D9D7E60020BDE8F681F8B504007F
:100DD0000E4652D05D4DD5F8000400F00F00B04231
:100DE00002D200F06EF848D12068810712D5400782
:100DF00003D5A96841F4E051A9602078010703D523
:100E0000AA6842F46042AA60A968A06821F0F001D3
:100E10000143A9602178CA0726D56068012802D15C
:100E200029688A0303E0022803D129688A0103D4D0
:100E300023E02B68990720D5AA68920840EA82002F
:100E4000A860FFF731FE0746A868616800F00C0053
:100E5000B0EB810F08D0FFF727FEC01B41F28932AB
:100E60009042F1D30320F2BDD5F8000400F00F004A
:100E7000864204D200F025F801D00120F2BD21788D
:100E8000480705D5AA68E06822F4E0520243AA6048
:100E900021780A0706D5A868216920F4604040EA55
:100EA000C100A86000F01AF8AA682C49284BC2F3C8
:100EB0000312895CC8401860002000F0DDF90020B2
:100EC000F2BDD5F80014090946EA0111C5F800146D
:100ED000D5F8000400F00F00B04270472DE95041F2
:100EE000204C606800F00C00082819D1002322680B
:100EF0002068184E410202F03F0247BF2068C0F34D
:100F000088182168C1F38818A6FB080100F0D4F9FD
:100F10002168C1F30141491C4900B0FBF1F000E038
:100F20000C48BDE850810A480D4A006813680E4914
:100F3000C3F3822206E00648094A006813680A499A
:100F4000C3F34232895CC840704700000038024059
:100F5000240100200024F40000700040001B000861
:100F60000838024004380240181C0008704710B5C9
:100F7000044610460A460146204600F021FA204663
:100F800010BD30B5016884684218416802EB510316
:100F9000C90703D54C4401E0491C08D19A4218BF47
:100FA00012F9011B01D10C3030BD12F8015B002990
:100FB00004F8015BF0D4491EF7D5EFE72DE9F84FAF
:100FC0004FF0000E6E4A6F4BDFF8BC814FF00F09F7
:100FD00006468A46DAF80040012101FA0EF10C407B
:100FE0008C4240F0C580DAF804504FEA8E00022DA2
:100FF00018BF122D12D14FEADE0506EB850C00F06A
:101000001C0509FA05FBDCF8207027EA0B07DAF863
:1010100010B00BFA05F53D43CCF8205037689AF82C
:1010200004B04FEA4E0C032505FA0CF5ED432F40B2
:101030000BF0030B0BFA0CFB4BEA07073760DAF8EF
:101040000470012F18BF022F03D0112F18BF122FC9
:1010500013D1B768DAF80CB02F400BFA0CFB4BEA4F
:101060000707B760776827EA0101DAF80470C7F369
:10107000001707FA0EF739437160F1680D40DAF88E
:10108000081001FA0CF12943F160DAF80410CD00E0
:101090006ED5D8F8001000F00C0041F48041C8F87B
:1010A0000010D8F8007007F480470097009909FAFB
:1010B00000F74FEA9E0153F8215025EA070C334D03
:1010C000AE4208BF00252CD0314FBE4208BF0125DB
:1010D00027D0304DAE4208BF022522D02E4FBE424F
:1010E00008BF03251DD02D4DAE4208BF042518D0E2
:1010F0002B4FBE4208BF052513D02A4DAE4208BF74
:1011000006250ED0284FBE4208BF072509D0274D1F
:10111000AE4208BF082504D0254FBE420CBF0925AA
:101120000A2505FA00F040EA0C0043F82100116896
:10113000DAF80450E0430140ED0348BF2143116059
:101140005168DAF804500140AD0348BF21435160B3
:101150009168DAF804500140ED0248BF21439160E4
:10116000D1680140DAF80400800248BF2143D16011
:101170000EF1010EBEF10F0F7FF62CAFBDE8F18F1F
:10118000003C014008380140443802400000024061
:101190000004024000080240000C0240001002401F
:1011A0000014024000180240001C024000200240CF
:1011B000002402400901020002D4294881547047EA
:1011C000284B02F00F021A4402F8041C7047264B09
:1011D0004FF6FF021968000200F4E0601140084376
:1011E000224908431860704770B51F4B1C68C4F350
:1011F00002230124C3F10705052D2EBF0F2504FA94
:1012000005F56D1E1E1D072E34BF0023DB1E294071
:10121000994004FA03F35B1E1A401143BDE8704085
:10122000C8E7010007D4012200F01F018A40104BDB
:10123000400943F820207047401EB0F1807F10B570
:1012400001D3012010BD0B4C0F2160604FF0FF3027
:10125000FFF7B0FF00220721A2600020216010BD2F
:1012600000E400E018ED00E00CED00E00000FA05FD
:1012700000E100E010E000E038B50D4D04462A78AA
:101280000C4B18684FF47A71B1FBF2F2B0FBF2F03C
:10129000FFF7D2FF50B9102C08D2002221464FF0A0
:1012A000FF30FFF7A1FFAC60002032BD012032BD4E
:1012B0001801002024010020D3BBD9B1B2F5803F32
:1012C0005BD2022A1ED98C46B1FBF2F102FB11C39C
:1012D0001B0443EA1043B3FBF2FC02FB1C3380B255
:1012E00040EA0343B3FBF2F002FB103240EA0C4049
:1012F00000237047022A05D98446B0FBF2F002FBB6
:1013000010C270474AB105D100F0010249085FEAF6
:101310003000704700220023704700F085B80B00B2
:101320000200002100207047F7D3002200237047FD
:10133000904271EB030CF2D370B5B1FA81F4B3FAB9
:1013400083F52C1BA340C4F1200532FA05F6334384
:10135000A2405FF00046E64002E05B085FEA32022E
:10136000841A71EB030524BF204629467641F4D345
:1013700002000B003000002170BD70B5B1FA81F49D
:10138000B2FA82F5C4F120046419B4F12006DAD36C
:10139000B2405FF00044F440002502E052085FEAEA
:1013A0003303C61A71EB020E24BF30467146644106
:1013B0006D41F3D302000B002000290070BD000036
:1013C00062F30F2262F31F42401810F0030308D0AB
:1013D000C91A1FD3DB0748BF00F8012D28BF20F82A
:1013E000022D130030B414461546103928BF20E9E9
:1013F0003C00FAD8490728BF20E90C0048BF40F854
:10140000042D890028BF20F8022D48BF00F8012DC7
:1014100030BC7047C91818BF00F8012DCB0728BF92
:1014200000F8012D70470000704700002DE9F843D7
:101430000646002530780024DFF8E874C1070AD595
:10144000BA6822F40002BA60BB68716B0B43BB60E0
:10145000706B00B90125316808030FD5D7F88C20CF
:10146000F06B22F440120243C7F88C20F06BB0F509
:10147000801F08BF012501D000B901243068C102D6
:101480000FD5D7F88C20306C22F440020243C7F805
:101490008C20306CB0F5800F08BF012501D000B959
:1014A00001243068C10148BF012580065ED5396C32
:1014B000DFF8748441F080513964386C00F080505A
:1014C00000900099D8F8000040F48070C8F800003F
:1014D000FFF7EAFA8146D8F80010C80507D4FFF7ED
:1014E000E3FAA0EB09006528F5D30320F4E1386F97
:1014F00010F440701EBF316B01F4407188421DD062
:10150000386F396F41F4803139673A6F20F4407099
:1015100022F480323A673867386FC1070ED5FFF77B
:10152000C3FA8046386F810708D4FFF7BDFAA0EBF5
:10153000080041F289329042F4D3D6E7316B01F4CE
:101540004070B0F5407F07D1BA68DFF8E003014092
:1015500022F4F812114302E0B96821F4F811B960DD
:10156000386F316BC1F30B01084338673078C1061F
:101570000BD5D7F88C2022F08072C7F88C20D7F8D2
:101580008C10B06B0143C7F88C103268510406D53B
:10159000D7F89030706E23F4403300F0BFF9316813
:1015A0000A0406D5D7F89030B06E23F4402300F03B
:1015B000B5F93168CA0306D5D7F89030F06E23F438
:1015C000401300F0ABF931688A0306D5D7F89030A4
:1015D000306F23F4400300F0A1F931784A0607D5B3
:1015E000D7F89030706C9B0840EA8303C7F89030BE
:1015F00031780A0606D5D7F89030B06C23F00C038A
:1016000000F08CF93168CA0506D5D7F89030F06C37
:1016100023F0300300F082F931688A0506D5D7F847
:101620009030306D23F0C00300F078F931684A053E
:1016300006D5D7F89030706D23F4407300F06EF942
:1016400031680A0506D5D7F89030B06D23F44063B1
:1016500000F064F93168CA0406D5D7F89030F06D0F
:1016600023F4405300F05AF931688A0406D5D7F8BC
:101670009030306E23F4404300F050F931684A0254
:1016800006D5D7F89030B06F23F0806300F046F9AC
:1016900031688A020BD5D7F89030F06F23F00063E1
:1016A00000F03CF9F16FB1F1006F08BF0124306820
:1016B000010748BF0124400307D5D7F89010706F89
:1016C00021F040710143C7F8901031680A0207D534
:1016D000D7F89030D6F8800023F0805300F01EF940
:1016E00031684A0107D5D7F89030D6F8840023F046
:1016F000005300F013F931680A0108D5D7F88C308F
:10170000D6F8880023F000730343C7F88C303168A3
:10171000CA0008D5D7F88C30D6F88C0023F0806347
:101720000343C7F88C301DB93168B1F1007F6CD12B
:10173000386820F080603860FFF7B6F905463968F0
:10174000080105D5FFF7B0F9401B6528F7D3CCE6B3
:101750003178CA070FD5706B68B900F0C5F800F48E
:10176000403040EA821001F070610843B16840EAFD
:101770000170C7F884003068010303D5F26BB2F53D
:10178000801F05D0C00213D5316CB1F5800F0FD189
:1017900000F0AAF8F36800F0B7F8C7F88400D7F8AB
:1017A0008C00716A4009491E41EA4010C7F88C005C
:1017B0003068C10109D5D7F88400D7F8841033699F
:1017C000726800F097F8C7F88400306881010CD582
:1017D00030697268F168000440EA8210B26840EA39
:1017E000016040EA0270C7F88400386840F0806009
:1017F0003860FFF759F905463968080105D4FFF745
:1018000053F9401B6528F7D36FE6002C63D0386886
:1018100020F080503860FFF747F9044639688800A7
:1018200005D5FFF741F9001B6528F7D35DE6316860
:101830000A0301D5F06B18B1C90212D5306C80B91A
:1018400000F04CF8B36900F05FF8C7F88800D7F8EB
:101850008C00B16A20F4F850491E40EA0120C7F814
:101860008C00306881020DD5F26FB2F1006F09D1A2
:10187000D7F88800D7F88810336A726900F03AF810
:10188000C7F888003078010715D500F027F801F473
:10189000403141EA821100F070600843F16940EA8A
:1018A0000170C7F88800D7F88C20F06A22F4403223
:1018B0000243C7F88C20396841F080513960FFF746
:1018C000F3F804463868810005D4FFF7EDF8001BF3
:1018D0006528F7D309E60020BDE8F283D7F8880031
:1018E000D7F8881072697047D7F88400D7F8841049
:1018F000726870471B0443EA821300F0706001F0C5
:10190000E04118430843704700F4403040EA821039
:1019100001F0E04140EA0360084370470343C7F821
:10192000903070470038024000700040FFFCFF0F0D
:101930007CB500F0B1F800F05CF85248524C0168F8
:10194000524D4FF4167641F001010160026802F039
:101950000102009200990368002243F00203036031
:10196000006800F002000090009900202560A0604F
:101970000C200021606166602046E1602261A16167
:10198000E26121626162FEF737FC05F580600021AB
:10199000C4F880000020C4F888100022C4F8900029
:1019A0000C21C4F89C00C4F8A00004F18000C4F825
:1019B0008460C4F88C20C4F89410C4F89820C4F84B
:1019C000A420FEF719FC082204F5847104F18000BC
:1019D000FEF7AAFC082204F588712046FEF7A4FC55
:1019E0004FF0FF33082204F580712046FEF742FCD9
:1019F000F6E700B5B7B03422002106A8FFF7B7FA22
:101A00001422002101A8FFF7B2FA9022002113A8A6
:101A1000FFF7ADFA1E48016841F08051016000688F
:101A200000F08050009000991A48026822F4404269
:101A300042F4804202600368022206A803F4404395
:101A400000930099069201231021002209930A9124
:101A50000C92FFF743F80F2100220191002102921E
:101A600001A8039204910592FFF7B0F94FF4C06109
:101A70000022139113A827922892FFF7D7FC37B0C2
:101A800000BD00003038024000000020004C004043
:101A9000403802400070004080B50320FFF797FBFC
:101AA0000020FFF7E9FBFEF77BFF002002BD0000EE
:101AB00030B50F490F4AD1F88000002440F470007F
:101AC000C1F8800013680C4843F0010313600B4B0E
:101AD0009460156805404FF0006015600025536064
:101AE000146824F480241460D560086030BD0000C0
:101AF00008ED00E000380240FFFFF6FE1030002441
:101B000000000000000000000102030406070809AD
:101B10007047FEE7FEE7FEE7FEE770477047704755
:101B200000F00AB80248FEF768BC0248FEF765BC40
:101B300000000020800000200248416802788A18D6
:101B4000426070471801002010B5074979441831E8
:101B5000064C7C44163404E00A68081D114488478A
:101B60000146A142F8D110BD2C0000003800000051
:101B70004EF68851CEF20001086840F4700008600B
:101B8000BFF34F8FBFF36F8F4FF00070E1EE100A7D
:101B900070470000EFF3FFFF300200003A00000042
:101BA0000000002000F00DF8002801D0FFF7CCFF66
:101BB000AFF300800020AFF30080FFF7B9FE00F024
:101BC00002F80120704700F001B8000007463846CF
:101BD00000F002F8FBE7000080B5AFF30080024A96
:101BE00011001820ABBEFBE72600020005480146A5
:101BF00003B4684680F30988AFF30080FFF7B8FFAD
:101C0000FFF7D0FFA5EDF5FE0148804701480047EA
:101C1000B11A0008ED1B00080000000001020304D7
:101C2000FFF7FEBFFFF7FEBFFFF7FEBFFFF7FEBFE8
:101C3000FFF7FEBFFFF7FEBFFFF7FEBFFFF7FEBFD8
:101C4000FFF7FEBFFFF7FEBFFFF7FEBFFFF7FEBFC8
:101C5000FFF7FEBFFFF7FEBFFFF7FEBFFFF7FEBFB8
:101C6000FFF7FEBFFFF7FEBFFFF7FEBFFFF7FEBFA8
:101C7000FFF7FEBFFFF7FEBFFFF7FEBFFFF7FEBF98
:101C8000FFF7FEBFFFF7FEBFFFF7FEBFFFF7FEBF88
:101C9000FFF7FEBFFFF7FEBFFFF7FEBFFFF7FEBF78
:101CA000FFF7FEBFFFF7FEBFFFF7FEBFFFF7FEBF68
:101CB000FFF7FEBFFFF7FEBFFFF7FEBFFFF7FEBF58
:101CC000FFF7FEBFFFF7FEBFFFF7FEBFFFF7FEBF48
:101CD000FFF7FEBFFFF7FEBFFFF7FEBFFFF7FEBF38
:101CE000FFF7FEBFFFF7FEBFFFF7FEBFFFF7FEBF28
:101CF000FFF7FEBFFFF7FEBFFFF7FEBFFFF7FEBF18
:101D0000FFF7FEBFFFF7FEBFFFF7FEBFFFF7FEBF07
:101D1000FFF7FEBFFFF7FEBFFFF7FEBFFFF7FEBFF7
:101D2000FFF7FEBFFFF7FEBFFFF7FEBFFFF7FEBFE7
:101D3000FFF7FEBFFFF7FEBFFFF7FEBFFFF7FEBFD7
:101D4000FFF7FEBFFFF7FEBFFFF7FEBFFFF7FEBFC7
:101D5000FFF7FEBFFFF7FEBFFFF7FEBFFFF7FEBFB7
:101D6000FFF7FEBFFFF7FEBFFFF7FEBFFFF7FEBFA7
:101D7000FFF7FEBFFFF7FEBFFFF7FEBFFFF7FEBF97
:101D8000FFF7FEBFFFF7FEBFFFF7FEBFFFF7FEBF87
:101D9000FFF7FEBFFFF7FEBFFFF7FEBFFFF7FEBF77
:101DA000FFF7FEBFFFF7FEBFFFF7FEBFFFF7FEBF67
:101DB000FFF7FEBFFFF7FEBFFFF7FEBFFFF7FEBF57
:101DC000FFF7FEBFFFF7FEBF8100810009000001A1
:101DD00002030405070608F0000001F9000010FCEA
:051DE000000224F400E4
:0400000508001BEDE7
:00000001FF
