:020000040800F2
:1000000070050020491B0008251B0008271B00085D
:10001000291B00082B1B00082D1B000800000000F6
:100020000000000000000000000000002F1B00087E
:10003000311B000800000000331B0008351B0008BE
:10004000591B00085D1B0008611B0008651B0008A8
:10005000691B00086D1B0008711B0008751B000858
:10006000791B00087D1B0008811B0008851B000808
:10007000891B00088D1B0008911B0008951B0008B8
:10008000991B00089D1B0008A11B0008A51B000868
:10009000A91B0008AD1B0008B11B0008B51B000818
:1000A000B91B0008BD1B0008C11B0008C51B0008C8
:1000B000C91B0008CD1B0008D11B0008D51B000878
:1000C000D91B0008DD1B0008E11B0008E51B000828
:1000D000E91B0008ED1B0008F11B0008F51B0008D8
:1000E000F91B0008FD1B0008011C0008051C000886
:1000F000091C00080D1C0008111C0008151C000834
:10010000191C00081D1C0008211C0008251C0008E3
:10011000291C00082D1C0008311C0008351C000893
:10012000391C00083D1C0008411C0008451C000843
:10013000491C00084D1C0008511C0008551C0008F3
:10014000591C00085D1C0008611C0008651C0008A3
:10015000691C00086D1C0008711C0008751C000853
:10016000791C00087D1C0008811C0008851C000803
:10017000891C00088D1C0008911C0008000000006C
:10018000951C0008991C00089D1C0008A11C000873
:10019000A51C0008A91C0008AD1C0008B11C000823
:1001A000B51C0008B91C0008BD1C0008C11C0008D3
:1001B000C51C0008C91C0008CD1C0008D11C000883
:1001C000D51C0008D91C000800000000DD1C000838
:1001D000E11C0008E51C0008E91C0008ED1C0008F3
:1001E000F11C0008F51C0008F91C0008FD1C0008A3
:1001F000011D0008051D000838B5040000F0A380AB
:1002000094F83C0028B90021204684F83D1000F005
:1002100035FB022084F83C002068016821F00201CF
:1002200001602068026842F00102026000F0EAFB0F
:10023000054620684168CA0708D400F0E3FB401B6C
:100240000B28F6D300F0F4FA00F0EFBA4068C107CB
:1002500076D5A269012A05D12068016841F08001A4
:10026000016004E02368186820F080001860E269EB
:100270002068012A04D1016841F04001016003E0D7
:10028000026822F040020260206A0128206804D13E
:10029000016841F02001016003E0026822F02002C1
:1002A0000260606A0128206804D1016841F01001F1
:1002B000016003E0026822F010020260A06A0128D7
:1002C000206804D1016841F00801016003E0026880
:1002D00022F008020260E06A0128206804D1016867
:1002E00041F00401016003E0026822F004020260B0
:1002F000A368E26821696069134362680B4321685F
:100300000343521E1343CB61206803685B085B0004
:10031000036000F077FB054620684168CA0705D5F1
:1003200000F070FB401B0B28F6D38BE74068C10739
:1003300006D400220120226484F83C00002032BD53
:10034000042184F83C10012032BDF0B54A69012334
:10035000006803FA02F2DFF8E434984218BFDFF8CD
:10036000E034D3F8004244F00104C3F80042D3F86B
:10037000000220F47C50C3F80002D3F80042486A1F
:1003800044EA0024C3F80042D3F81C52D443254069
:10039000C3F81C52C86960B9D3F80C5203F5107049
:1003A0002540C3F80C52CD6800F047F80F6800F004
:1003B0003CF8C86901280CD1D3F80C5203F5107031
:1003C0001543C3F80C520D6800F037F8CF6800F001
:1003D0002CF8886928B9D3F804522540C3F8045290
:1003E00004E0D3F804621643C3F80462086920B934
:1003F000D3F814522C40C3F814420869012804D1E0
:10040000D3F814421443C3F81442086A012804D1F3
:10041000D3F81C120A43C3F81C22D3F80002400888
:100420004000C3F800020020F0BD4D6903F51170D3
:10043000C7EA064C40F835C070474F684E69C7EAB6
:10044000054C40F836C08E6870472DE9F0470646E7
:100450000D46306881684A0106D48368190103D4C7
:100460008268D30040F1E38096F83D10012908BF6F
:10047000022000F0E080012286F83D2096F83C1032
:10048000222904D0322906D0622906D009E042236D
:1004900086F83C3008E0522204E0722186F83C10D5
:1004A00002E0122286F83C2081684A0148BF0024FD
:1004B00004D481680A014CBF01240224210100F503
:1004C000C072535800F5C07003F001034350336B02
:1004D00037689868DA6850B907F5C07007F5C077D3
:1004E00040581B6840EA435002437A500BE007F53E
:1004F000C07E5EF801C05B684CEAC3031843024348
:1005000007F5C0704250306BDFF83883DFF838935E
:10051000DFF838A3027C02F00F020261306800F5B8
:10052000C27300F5C2705F583F093F0147503268FF
:1005300002F5C27002F5C2724358376B3869034343
:100540005350306B3768827DC37D0F44120442EAFA
:100550000362437D007D42EA03220243C7F88821FB
:10056000306B3768837EC27E0F441B0443EA02630C
:10057000427E007E43EA02230343C7F88C31306891
:1005800000F5C07200F5C070535843F001034350AA
:1005900000F038FA07463068A4B980680AEA00001B
:1005A00050451CD015F1010FF5D025B100F02AFA05
:1005B000C01B8542EFD2032086F83C003068F4B9B6
:1005C000802120E0012C05D1806809EA000048451F
:1005D000E8D104E0816808EA01014145E2D196F8DA
:1005E0003C00422819D052281BD072281DD001226D
:1005F00086F83C200021002086F83D101BE0012CED
:1006000003D14FF40041816002E04FF400028260A8
:10061000002086F83D0003200DE0222186F83C10E2
:10062000E8E7322086F83C00E4E76221F6E70420A0
:1006300086F83C000120BDE8F087F8B505460E4677
:10064000300014460FD195F83C1022291FBF95F8B1
:100650003C00422895F83C1062291AD095F83C00DD
:10066000722812D115E0012E0FD195F83C003228E6
:100670001CBF95F83C1052290BD095F83C0062281D
:100680001CBF95F83C10722903D095F83D00012855
:1006900001D10220F2BD0121300085F83D100CD1BE
:1006A00095F83C20122A04D0322A11D0522A13D0B5
:1006B00001E0422011E0222113E095F83C001228CD
:1006C00004D0222804D0422806D009E0522108E0B4
:1006D000622285F83C2006E0722085F83C0002E0AA
:1006E000322185F83C1000F08DF907462B68300068
:1006F0000CBFD868186910F003000DD114F1010F78
:10070000F4D024B100F07EF9C01B8442EED2032065
:10071000002185F83C006CE0300003F5D8700CBF78
:10072000696BA96B3201805810F0040088602B6857
:1007300005D103F5D87083585B0D0B6004E003F519
:10074000D874A758FF084F60286800F5D8739C58E4
:1007500004F00204CC602F681744D7F8B40100F00D
:100760000F0008612B681344D3F8B4010E62C0F384
:100770000720C8612B681344D3F8B80108752C68AA
:100780001444D4F8B8311B0A4B7528681044D0F8CB
:10079000B841240C8C752B681344D3F8B801000EB3
:1007A000C8752C681444D4F8BC310B762868104402
:1007B000D0F8BC41240A4C762B681344D3F8BC0112
:1007C000000C88762C682244D2F8BC311B0ECB7604
:1007D00028688EB92021C16095F83C00422816D0C7
:1007E000622818D0722818D0012285F83C200021F8
:1007F000002085F83D10F2BD2022026195F83C00F2
:10080000522804D062280CD072280CD0ECE71221B8
:1008100085F83C10EBE73222E7E7522085F83C00F0
:10082000E5E72221F4E74220F8E784F83D1032BDE5
:100830000320002184F83C00704700000034004091
:1008400000640040000003100003000803000004DF
:1008500081B06448016841F080510160026802F093
:10086000805200920099426842F48042426040689F
:1008700000F480400090009901B07047F8B586B050
:10088000044614220021684600F0C2F8564A266841
:100890001368564C564857495B1CA64220D1012B81
:1008A00008D10D6945F000750D610C6904F0007404
:1008B0000594059D0C684FF4C05544F001040C608C
:1008C0000E6806F001060596059C00950226002498
:1008D00003250294092401960395049413607CE097
:1008E00094685568444F641C6D1CBE423AD1012D7A
:1008F00008D1086940F4005008610E6906F40056FA
:1009000005960598012C08D10E6946F080660E61A7
:10091000086900F080600590059E012B08D10869E8
:1009200040F0007008610E6906F0007605960598A3
:100930000E684FF44057314846F002060E600968D1
:1009400001F002010591059E022100970191002608
:100950000296032103910926049669461360946068
:1009600055603BE0264FBE423AD1012D08D10E69B9
:1009700046F400560E610F6907F400570597059E6F
:10098000012C08D10F6947F080670F610E6906F0EE
:1009900080660596059F012B08D10E6946F000760A
:1009A0000E610F6907F000770597059E0F6847F005
:1009B00001070F6009684FF4014701F0010105913B
:1009C000059E0097022101910026029603270B261F
:1009D00003970496136094605560694600F022F80E
:1009E00007B0F0BD403802406001002000640040C4
:1009F000000002403038024000680040000402401D
:100A00000034004001480068704700BF6C010020BE
:100A100010B5044610460A460146204600F0FEF88E
:100A2000204610BD2DE9F84F4FF0000E6E4A6F4B77
:100A3000DFF8BC814FF00F0906468A46DAF800401D
:100A4000012101FA0EF10C408C4240F0C580DAF829
:100A500004504FEA8E00022D18BF122D12D14FEA1A
:100A6000DE0506EB850C00F01C0509FA05FBDCF839
:100A7000207027EA0B07DAF810B00BFA05F53D43B2
:100A8000CCF8205037689AF804B04FEA4E0C032592
:100A900005FA0CF5ED432F400BF0030B0BFA0CFBA2
:100AA0004BEA07073760DAF80470012F18BF022FEE
:100AB00003D0112F18BF122F13D1B768DAF80CB07A
:100AC0002F400BFA0CFB4BEA0707B760776827EA61
:100AD0000101DAF80470C7F3001707FA0EF739437B
:100AE0007160F1680D40DAF8081001FA0CF1294341
:100AF000F160DAF80410CD006ED5D8F8001000F0DF
:100B00000C0041F48041C8F80010D8F8007007F4D8
:100B100080470097009909FA00F74FEA9E0153F8C1
:100B2000215025EA070C334DAE4208BF00252CD0DA
:100B3000314FBE4208BF012527D0304DAE4208BF1D
:100B4000022522D02E4FBE4208BF03251DD02D4DB9
:100B5000AE4208BF042518D02B4FBE4208BF052562
:100B600013D02A4DAE4208BF06250ED0284FBE42F4
:100B700008BF072509D0274DAE4208BF082504D07D
:100B8000254FBE420CBF09250A2505FA00F040EAB0
:100B90000C0043F821001168DAF80450E0430140EA
:100BA000ED0348BF214311605168DAF80450014059
:100BB000AD0348BF214351609168DAF80450014009
:100BC000ED0248BF21439160D1680140DAF804008A
:100BD000800248BF2143D1600EF1010EBEF10F0F1C
:100BE0007FF62CAFBDE8F18F003C01400838014092
:100BF0004438024000000240000402400008024065
:100C0000000C024000100240001402400018024094
:100C1000001C0240002002400024024062F30F2228
:100C200062F31F42401810F0030308D0C91A1FD303
:100C3000DB0748BF00F8012D28BF20F8022D130064
:100C400030B414461546103928BF20E93C00FAD8C4
:100C5000490728BF20E90C0048BF40F8042D89004F
:100C600028BF20F8022D48BF00F8012D30BC704786
:100C7000C91818BF00F8012DCB0728BF00F8012DB7
:100C800070470EE002684368024408305FEAC37CA4
:100C900044BF4B445B1E52F804CB43F804CB091FFE
:100CA000F9D150F8041B0029ECD170472DE9F84325
:100CB0000646002530780024DFF8E874C1070AD51D
:100CC000BA6822F40002BA60BB68716B0B43BB6068
:100CD000706B00B90125316808030FD5D7F88C2057
:100CE000F06B22F440120243C7F88C20F06BB0F591
:100CF000801F08BF012501D000B901243068C1025E
:100D00000FD5D7F88C20306C22F440020243C7F88C
:100D10008C20306CB0F5800F08BF012501D000B9E0
:100D200001243068C10148BF012580065ED5396CB9
:100D3000DFF8748441F080513964386C00F08050E1
:100D400000900099D8F8000040F48070C8F80000C6
:100D5000FFF758FE8146D8F80010C80507D4FFF702
:100D600051FEA0EB09006528F5D30320F4E1386FAC
:100D700010F440701EBF316B01F4407188421DD0E9
:100D8000386F396F41F4803139673A6F20F4407021
:100D900022F480323A673867386FC1070ED5FFF703
:100DA00031FE8046386F810708D4FFF72BFEA0EB99
:100DB000080041F289329042F4D3D6E7316B01F456
:100DC0004070B0F5407F07D1BA68DFF8E00301401A
:100DD00022F4F812114302E0B96821F4F811B96065
:100DE000386F316BC1F30B01084338673078C106A7
:100DF0000BD5D7F88C2022F08072C7F88C20D7F85A
:100E00008C10B06B0143C7F88C103268510406D5C2
:100E1000D7F89030706E23F4403300F0BFF931689A
:100E20000A0406D5D7F89030B06E23F4402300F0C2
:100E3000B5F93168CA0306D5D7F89030F06E23F4BF
:100E4000401300F0ABF931688A0306D5D7F890302B
:100E5000306F23F4400300F0A1F931784A0607D53A
:100E6000D7F89030706C9B0840EA8303C7F8903045
:100E700031780A0606D5D7F89030B06C23F00C0311
:100E800000F08CF93168CA0506D5D7F89030F06CBF
:100E900023F0300300F082F931688A0506D5D7F8CF
:100EA0009030306D23F0C00300F078F931684A05C6
:100EB00006D5D7F89030706D23F4407300F06EF9CA
:100EC00031680A0506D5D7F89030B06D23F4406339
:100ED00000F064F93168CA0406D5D7F89030F06D97
:100EE00023F4405300F05AF931688A0406D5D7F844
:100EF0009030306E23F4404300F050F931684A02DC
:100F000006D5D7F89030B06F23F0806300F046F933
:100F100031688A020BD5D7F89030F06F23F0006368
:100F200000F03CF9F16FB1F1006F08BF01243068A7
:100F3000010748BF0124400307D5D7F89010706F10
:100F400021F040710143C7F8901031680A0207D5BB
:100F5000D7F89030D6F8800023F0805300F01EF9C7
:100F600031684A0107D5D7F89030D6F8840023F0CD
:100F7000005300F013F931680A0108D5D7F88C3016
:100F8000D6F8880023F000730343C7F88C3031682B
:100F9000CA0008D5D7F88C30D6F88C0023F08063CF
:100FA0000343C7F88C301DB93168B1F1007F6CD1B3
:100FB000386820F080603860FFF724FD0546396806
:100FC000080105D5FFF71EFD401B6528F7D3CCE6C9
:100FD0003178CA070FD5706B68B900F0CFF800F40C
:100FE000403040EA821001F070610843B16840EA85
:100FF0000170C7F884003068010303D5F26BB2F5C5
:10100000801F05D0C00213D5316CB1F5800F0FD110
:1010100000F0B4F8F36800F0B7F8C7F88400D7F828
:101020008C00716A4009491E41EA4010C7F88C00E3
:101030003068C10109D5D7F88400D7F88410336926
:10104000726800F091F8C7F88400306881010CD50F
:1010500030697268F168000440EA8210B26840EAC0
:10106000016040EA0270C7F88400386840F0806090
:101070003860FFF7C7FC05463968080105D4FFF75B
:10108000C1FC401B6528F7D36FE6002C63D038689D
:1010900020F080503860FFF7B5FC044639688800BE
:1010A00005D5FFF7AFFC001B6528F7D35DE6316877
:1010B0000A0301D5F06B18B1C90212D5306C80B9A2
:1010C00000F04CF8B36900F05FF8C7F88800D7F873
:1010D0008C00B16A20F4F850491E40EA0120C7F89C
:1010E0008C00306881020DD5F26FB2F1006F09D12A
:1010F000D7F88800D7F88810336A726900F034F89E
:10110000C7F888003078010715D500F027F801F4FA
:10111000403141EA821100F070600843F16940EA11
:101120000170C7F88800D7F88C20F06A22F44032AA
:101130000243C7F88C20396841F080513960FFF7CD
:1011400061FC04463868810005D4FFF75BFC001B96
:101150006528F7D309E60020BDE8F283D7F88800B8
:10116000D7F88810726970471B0443EA821300F0B5
:10117000706001F0E041184308437047D7F88400DD
:10118000D7F884107268704700F4403040EA82104B
:1011900001F0E04140EA0360084370470343C7F8A9
:1011A000903070470038024000700040FFFCFF0F95
:1011B0002DE9FC4104460025BCB12078DFF8186415
:1011C000C10750D5B26802F00C02042A07D0B068FB
:1011D00000F00C0008280AD17168480207D532686F
:1011E000910340D5606800283DD1012056E1606838
:1011F000B0F5803F0FD038B9316821F480313160CB
:10120000306820F4802009E0B0F5A02F08D13168C3
:1012100041F480213160306840F48030306007E074
:10122000326822F480323260316821F480213160EA
:10123000606860B1FFF7E6FB07463168880312D4A7
:10124000FFF7E0FBC01B6528F7D3032026E1FFF77B
:10125000D9FB07463068810305D5FFF7D3FBC01BD8
:101260006528F7D3F1E72078810718D5B26812F026
:101270000C0F07D0B06800F00C00082825D1716869
:10128000480222D43268910702D5E0680128ACD127
:101290003168206921F0F80141EAC001316021780C
:1012A0000A074CD56069002839D0716F41F00101FF
:1012B0007167FFF7A7FB0746706F81073FD4FFF701
:1012C000A1FBC01B0228F7D9BFE7E068B8B13168BD
:1012D00041F001013160FFF795FB07463068810757
:1012E00005D4FFF78FFBC01B0228F7D9ADE73068A4
:1012F000216920F0F80040EAC1003060CFE7306893
:10130000400840003060FFF77DFB074631688807E2
:10131000C5D5FFF777FBC01B0228F7D995E7706F9B
:10132000400840007067FFF76DFB0746706F81074C
:1013300005D5FFF767FBC01B0228F7D985E72078A2
:10134000410761D5326CD00009D4316C012541F0E0
:1013500080513164306C00F0805000900099DFF8CB
:1013600084723868C10510D43A6842F480723A60D9
:10137000FFF748FB80463868C10506D4FFF742FBFB
:10138000A0EB08006528F6D35FE7A068012804D128
:10139000306F40F00100306713E008B9306F09E0AA
:1013A0000528306F06D140F004003067316F41F0FE
:1013B000010105E0400840003067316F21F0040171
:1013C0003167A06841F2893760B1FFF71BFB8046A7
:1013D000306F810713D4FFF715FBA0EB0800B8426C
:1013E000F6D332E7FFF70EFB8046306F810706D554
:1013F000FFF708FBA0EB0800B842F6D325E71DB1C4
:10140000306C20F080503064A069002845D0B1686D
:1014100001F00C0108293FF4E8AE0228306820F002
:10142000807030602DD1FFF7EDFA054631688801F4
:1014300005D5FFF7E7FA401B0228F7D905E7E06971
:10144000216AA36A626A0843E16A40EA8210226B59
:101450005B085B1E40EA034040EA016040EA02701C
:101460007060306840F080703060FFF7CBFA04465F
:101470003168880111D4FFF7C5FA001B0228F7D99B
:10148000E3E6FFF7BFFA04463168880105D5FFF7A8
:10149000B9FA001B0228F7D9D7E60020BDE8F6818B
:1014A000F8B504000E4645D04B4DD5F8000400F0C9
:1014B0000F00B04202D200F061F83BD121788A07D8
:1014C00005D5AB68A06823F0F0030343AB60217837
:1014D000CA0726D56068012802D129688A0303E07B
:1014E000022803D129688A0103D423E02B689907D5
:1014F00020D5AA68920840EA8200A860FFF782FA25
:101500000746A868616800F00C00B0EB810F08D0B6
:10151000FFF778FAC01B41F289329042F1D30320E1
:10152000F2BDD5F8000400F00F00864204D200F0AE
:1015300025F801D00120F2BD2178480705D5AA6819
:10154000E06822F4E0520243AA6021780A0706D537
:10155000A868216920F4604040EAC100A86000F05A
:101560001AF8AA6820491D4BC2F30312895CC840CF
:101570001860002000F03CF80020F2BDD5F80014FF
:10158000090946EA0111C5F80014D5F8000400F075
:101590000F00B04270471549486800F00C00082859
:1015A00017D108680E4A00F03F00B2FBF0F208685D
:1015B000430247BF0868C0F388100B68C3F3881064
:1015C00042430868C0F30140401C4000B2FBF0F009
:1015D00070470348704700000038024000000020B8
:1015E0000024F40000700040081A0008043802408B
:1015F000084910B50A6804464FF47A70B2FBF0F05F
:1016000000F041F8002221464FF0FF3000F01EF8B4
:10161000002010BD000000200901020006D5244A68
:1016200000F00F00104400F8041C7047214B1954BF
:101630007047214B4FF6FF021968000200F4E0608A
:10164000114008431D4908431860704770B51A4B94
:101650001C68C4F302230124C3F10705052D2EBF26
:101660000F2504FA05F56D1E1E1D072E34BF00233D
:10167000DB1E2940994004FA03F35B1E1A40114314
:10168000BDE87040C8E7401EB0F1807F10B501D3BF
:10169000012010BD0A4C0F2160604FF0FF30FFF7B2
:1016A000BBFF00220721A2600020216010BD0000C6
:1016B00018ED00E000E400E00CED00E00000FA05A9
:1016C00010E000E07CB500F031F900F0CDF8904872
:1016D000904C0168062200234FF440254FF48016F9
:1016E00041F002010160006800F0020000900099E2
:1016F0008948626020600121A3602046E360256183
:101700006661A361E16123626362A362E362FEF743
:1017100073FD8248002260640621A16404F1440044
:10172000E26422656565A665E26522666266A26678
:10173000E2662267FEF760FD00224FF4807001210F
:10174000C4F8E020C4F8E4200222C4F8D800002045
:10175000C4F8DC10082184F8EC2084F8ED2084F82B
:10176000EE2084F8EF2084F8F02084F8F12084F84B
:10177000F22084F8F32004F58A72C4F8E81004F12A
:10178000D801C4F89C00C4F8A000C4F88800C4F8CC
:101790008C00C4F89000C4F89400C4F898000E209F
:1017A00062630122216304F18801C4F8AC00204681
:1017B000C4F8A420C4F8A820FEF7C7FD4FF4407178
:1017C0000022C4F8F4100120C4F8FC200321C4F85E
:1017D00000210522C4F8F800082084F80911052129
:1017E00084F808210322C4F80401052084F80C11B0
:1017F00084F80E11002184F80B2184F80D2184F85F
:101800000F2104F59C7284F80A0104F1F400C4F875
:10181000C410C4F8C810C4F8B010C4F8B410C4F8A8
:10182000B810C4F8BC10C4F8C0100E21A267012281
:10183000606704F14400C4F8D41004F1B001C4F8A6
:10184000CC20C4F8D020FEF780FD35480168C4F8EC
:1018500010110A2200212046FEF7EFFE0A2104F1B2
:101860004400FEF7F2FDF4E700B5B7B034220021E2
:1018700006A8FFF7CDF81422002101A8FFF7C8F849
:101880009022002113A8FFF7C3F82648016841F011
:1018900080510160006800F080500090009922485B
:1018A000026822F4404242F480420260036802224D
:1018B00006A803F4404300930099069201231021E7
:1018C0000C920A91002108220D910E9260210222B1
:1018D00009930F9110921192FFF76AFC00F032F811
:1018E0000F21022201910021802304910591012101
:1018F000029201A80393FFF7D3FD4FF48041002229
:10190000139113A82C92FFF7D1F937B000BD000056
:1019100030380240040000200064004000340040E1
:101920006C010020403802400070004080B5032068
:10193000FFF77FFE0020FFF75BFEFEF789FF002028
:1019400002BD00007CB500F023F840F4803000F0C8
:101950001CF806466068C10306D4FFF753F8801BE5
:10196000A842F7D3032076BD206840F4003000F091
:101970000CF806466168880305D4FFF743F8801B1E
:10198000A842F7D3EEE7002076BD2060FFF73AB813
:101990000848074C016840F2E93541F08051016088
:1019A000006800F0805000900099206870470000A7
:1019B000007000404038024030B50F490F4AD1F85E
:1019C0008000002440F47000C1F8800013680C48C7
:1019D00043F0010313600B4B9460156805404FF012
:1019E0000060156000255360146824F4802414609E
:1019F000D560086030BD000008ED00E0003802400E
:101A0000FFFFF6FE10300024000000000000000080
:101A1000010203040607080930B4002512E050F85B
:101A2000042BD30744BF4A44521E091F042942F81D
:101A3000045BFAD213468C0744BF15809B1CC90770
:101A400048BF1D7050F8041B0029E8D130BC704716
:101A500010B5074979441831064C7C44163404E02B
:101A60000A68081D114488470146A142F8D110BDFB
:101A70002C0000004C0000004EF68851CEF2000110
:101A8000086840F470000860BFF34F8FBFF36F8F9A
:101A90004FF00070E1EE100A704700007DFFFFFF7D
:101AA0006C0100000400002000000000D7F1FFFFDF
:101AB00004000000540200000000002000000000AC
:101AC00000F00DF8002801D0FFF7C2FFAFF300804F
:101AD0000020AFF30080FFF7F5FD00F002F80120D1
:101AE000704700F001B800000746384600F002F8E1
:101AF000FBE7000080B5AFF30080024A1100182018
:101B0000ABBEFBE7260002000548014603B4684669
:101B100080F30988AFF30080FFF7AEFFFFF7D0FF37
:101B2000A5EDF5FE7047FEE7FEE7FEE7FEE770472E
:101B30007047704700F000B802480168491C016016
:101B4000704700BF6C0100200148804701480047F2
:101B5000B9190008091B0008FFF7FEBFFFF7FEBF19
:101B6000FFF7FEBFFFF7FEBFFFF7FEBFFFF7FEBFA9
:101B7000FFF7FEBFFFF7FEBFFFF7FEBFFFF7FEBF99
:101B8000FFF7FEBFFFF7FEBFFFF7FEBFFFF7FEBF89
:101B9000FFF7FEBFFFF7FEBFFFF7FEBFFFF7FEBF79
:101BA000FFF7FEBFFFF7FEBFFFF7FEBFFFF7FEBF69
:101BB000FFF7FEBFFFF7FEBFFFF7FEBFFFF7FEBF59
:101BC000FFF7FEBFFFF7FEBFFFF7FEBFFFF7FEBF49
:101BD000FFF7FEBFFFF7FEBFFFF7FEBFFFF7FEBF39
:101BE000FFF7FEBFFFF7FEBFFFF7FEBFFFF7FEBF29
:101BF000FFF7FEBFFFF7FEBFFFF7FEBFFFF7FEBF19
:101C0000FFF7FEBFFFF7FEBFFFF7FEBFFFF7FEBF08
:101C1000FFF7FEBFFFF7FEBFFFF7FEBFFFF7FEBFF8
:101C2000FFF7FEBFFFF7FEBFFFF7FEBFFFF7FEBFE8
:101C3000FFF7FEBFFFF7FEBFFFF7FEBFFFF7FEBFD8
:101C4000FFF7FEBFFFF7FEBFFFF7FEBFFFF7FEBFC8
:101C5000FFF7FEBFFFF7FEBFFFF7FEBFFFF7FEBFB8
:101C6000FFF7FEBFFFF7FEBFFFF7FEBFFFF7FEBFA8
:101C7000FFF7FEBFFFF7FEBFFFF7FEBFFFF7FEBF98
:101C8000FFF7FEBFFFF7FEBFFFF7FEBFFFF7FEBF88
:101C9000FFF7FEBFFFF7FEBFFFF7FEBFFFF7FEBF78
:101CA000FFF7FEBFFFF7FEBFFFF7FEBFFFF7FEBF68
:101CB000FFF7FEBFFFF7FEBFFFF7FEBFFFF7FEBF58
:101CC000FFF7FEBFFFF7FEBFFFF7FEBFFFF7FEBF48
:101CD000FFF7FEBFFFF7FEBFFFF7FEBFFFF7FEBF38
:101CE000FFF7FEBFFFF7FEBFFFF7FEBFFFF7FEBF28
:101CF000FFF7FEBFFFF7FEBFFFF7FEBFFFF7FEBF18
:0C1D0000FFF7FEBFFFF7FEBF0024F40059
:0400000508001B09CB
:00000001FF
