:020000040800F2
:10000000A0040020D1170008D1150008D31500085E
:10001000D5150008D7150008D91500080000000004
:10002000000000000000000000000000DB150008D8
:10003000DD15000800000000DF150008E1150008CC
:10004000F1170008F5170008F9170008FD17000858
:100050000118000805180008091800080D18000804
:100060001118000815180008191800081D180008B4
:100070002118000825180008291800082D18000864
:100080003118000835180008391800083D18000814
:10009000E51500084118000845180008491800082F
:1000A0004D18000851180008551800085918000884
:1000B0005D18000861180008651800086918000834
:1000C0006D180008711800087518000879180008E4
:1000D0007D18000881180008851800088918000894
:1000E000FF1500088D1800089118000895180008E1
:1000F000991800089D180008A1180008A518000804
:10010000A9180008AD180008B1180008B5180008B3
:10011000B9180008BD180008C1180008C518000863
:10012000C9180008CD180008D1180008D518000813
:10013000D9180008DD180008E1180008E5180008C3
:10014000E9180008ED180008F1180008F518000873
:10015000F9180008FD180008011900080519000821
:10016000091900080D1900081119000815190008CF
:10017000191900081D1900082119000800000000C5
:1001800025190008291900082D190008311900083F
:1001900035190008391900083D19000841190008EF
:1001A00045190008491900084D190008511900089F
:1001B00055190008591900085D190008611900084F
:1001C0006519000869190008000000006D19000891
:1001D0007119000875190008791900087D190008BF
:1001E0008119000885190008891900088D1900086F
:1001F000911900089519000870B50400002C01D170
:100200000120AEE094F82000002802D1200000F088
:10021000FFFB2068006830F002002168086000F0F1
:1002200037FC05002068406880070DD500F030FCE1
:10023000401B0B28F6D3606A50F400306062052042
:1002400084F8200001208CE02068006850F0010054
:100250002168086000F01CFC060020684068C007A8
:100260000DD400F015FC801B0B28F6D3606A50F407
:1002700000306062052084F82000012071E0207EBB
:10028000012806D12068006850F0800021680860CD
:1002900005E02068006830F0800021680860607E1A
:1002A000012806D12068006850F0400021680860ED
:1002B00005E02068006830F0400021680860A07EFA
:1002C000012806D12068006850F0200021680860ED
:1002D00005E02068006830F0200021680860E07EBA
:1002E000012806D12068006830F0100021680860FD
:1002F00005E02068006850F0100021680860207F49
:10030000012806D12068006850F0080021680860C4
:1003100005E02068006830F0080021680860607F10
:10032000012806D12068006850F0040021680860A8
:1003300005E02068006830F0040021680860A168CA
:10034000E068014320690143606901436068401E21
:1003500001432068C16100206062012084F8200010
:10036000002070BDF0B40200136892F82040200015
:10037000C0B2012804D02000C0B2022840F087801B
:1003800010685D4DA84201D05C480300D3F800021C
:1003900050F00100C3F80002584883420CD1D3F852
:1003A000000230F47C50C3F80002D3F800024D6A1A
:1003B00050EA0520C3F8000201200D7D15F01F054D
:1003C00010FA05F5D3F81C02A843C3F81C02C8694B
:1003D000002816D1D3F80C02A843C3F80C024869D0
:1003E00003EBC000CE684F68C7EA0646C0F840621B
:1003F000486903EBC0008E680F68C7EA0646C0F87C
:100400004462C869012816D1D3F80C022843C3F806
:100410000C02486903EBC0000E684F68C7EA064645
:10042000C0F84062486903EBC0008E68CF68C7EA35
:100430000646C0F844628869002805D1D3F8040252
:10044000A843C3F8040204E0D3F804022843C3F825
:1004500004020869002805D1D3F81402A843C3F8A0
:10046000140204E0D3F814022843C3F81402086A03
:10047000012804D1D3F81C022843C3F81C02D3F886
:10048000000240084000C3F80002002004E0506A67
:1004900050F4802050620120F0BC704738B5040051
:1004A00094F82000012821D1022084F8200020683F
:1004B0000068400840002168086000F0E9FA050083
:1004C00020684068C0070DD500F0E2FA401B0B28F9
:1004D000F6D3606A50F400306062052084F8200092
:1004E000012008E000206062002004E0606A50F40F
:1004F00000206062012032BD0034004000640040F2
:10050000F0B5040094F820502068866888680028B8
:10051000FFD02800C0B2012804D02800C0B20228B1
:1005200040F0848016F0E05F7AD0C6F30167032FB5
:1005300005D3606A50F40000606201207BE0012076
:10054000B8401860886800280BD10868D1F80CC042
:100550005CEA405C20685FEA071E7044C0F880C116
:100560000DE04868D1F808C05CEAC00CC86850EAE1
:100570000C0C20685FEA071E7044C0F880C108694F
:10058000D4F800C05FEA071EF444CCF88401087D6B
:1005900001280ED120685FEA071C6044D0F884016E
:1005A00050F48070D4F800C05FEA071EF444CCF821
:1005B0008401D07992F806C05FEA0C4C5CEA006CCA
:1005C00050795CEA002C107950EA0C0C20685FEA44
:1005D000071E7044C0F88CC1D07892F802C05FEA60
:1005E0000C4C5CEA006C50785CEA002C107850EA05
:1005F0000C0C20685FEA071E7044C0F888C12068B0
:100600005FEA071C6044D0F8800150F00100D4F884
:1006100000C05FEA071EF444CCF8800100200AE025
:10062000606A50F400106062012004E0606A50F4D7
:10063000802060620120F0BD70B4040094F8205066
:100640002800C0B2012804D02800C0B2022840F01F
:10065000988000290AD12068C06810F0030F10D1DB
:10066000606A50F40010606201208FE02068006929
:1006700010F0030F05D1606A50F400106062012091
:1006800084E020680E013044D0F8B00110F004007E
:1006900090609068002807D120680E013044D0F89F
:1006A000B001400D106006E020680E013044D0F823
:1006B000B001C008506020680E013044D0F8B0018D
:1006C000C0F34000D06020680E013044D0F8B4017F
:1006D00010F00F00106120680E013044D0F8B40112
:1006E000C0F30720906120680E013044D0F8B401B7
:1006F000000C506120680E013044D0F8B801187029
:1007000020680E013044D0F8B801000A5870206803
:100710000E013044D0F8B801000C987020680E012A
:100720003044D0F8B801000ED87020680E01304473
:10073000D0F8BC01187120680E013044D0F8BC011B
:10074000000A587120680E013044D0F8BC01000C3A
:10075000987120680E013044D0F8BC01000ED871A9
:10076000002906D12068C06850F020002668F0609B
:1007700005E02068006950F0200026683061002004
:1007800004E0606A50F480206062012070BC704711
:1007900010B4020092F820301800C0B2012803D033
:1007A0001800C0B2022806D11068406908431468D6
:1007B0006061002004E0506A50F480205062012003
:1007C00010BC70472DE9F84F0500002428684669E1
:1007D000286847682868D0F808802868D0F80C9006
:1007E0002868D0F810A02868D0F818B0F00755D5C0
:1007F0005FEAC87018D50120296888605FEA8870B0
:1008000003D5280000F04AF90EE05FEA487002D5EF
:1008100054F4006408E05FEA087002D554F4805490
:1008200002E0280000F03BF95FEAC85019D54FF408
:100830008070296888605FEA885003D5280000F03E
:100840002FF90EE05FEA485002D554F4005408E056
:100850005FEA085002D554F4804402E0280000F01A
:1008600020F95FEAC83019D55FF4803029688860C4
:100870005FEA883003D5280000F014F90EE05FEA43
:10088000483002D554F4004408E05FEA083002D54D
:1008900054F4803402E0280000F005F9300707D551
:1008A0005FEAC96004D554F4007410202968C86058
:1008B000700708D55FEA097005D508202968C86067
:1008C000280000F0F1F8B00707D52868C06810F0DC
:1008D000030F02D0280000F0E8F8700607D55FEAA1
:1008E000CA6004D554F48064102029680861B006F9
:1008F00008D55FEA0A7005D5082029680861280034
:1009000000F0D4F8F00607D52868006910F0030F4E
:1009100002D0280000F0CBF8B00307D5F80605D5C3
:10092000102029684860280000F0C2F8F00307D5BD
:10093000380705D5082029684860280000F0B9F874
:10094000300445D5780740D5F00504D55846C00792
:1009500001D554F00104B00504D55FEA8B7001D5D0
:1009600054F00204700504D55FEA4B7001D554F0D1
:100970000404300529D51BF0700F26D01BF0700041
:1009800010280AD020280BD030280CD040280DD0B9
:1009900050280ED060280FD011E054F008040EE06B
:1009A00054F010040BE054F0200408E054F040042C
:1009B00005E054F0800402E054F48074FFE72868F6
:1009C000806930F0700029688861042029684860D7
:1009D000002C05D0686A20436862280000F06AF89D
:1009E000BDE8F18F81B02648016841F08051016077
:1009F000026802F0805200920099426842F48042FC
:100A00004260406800F480400090009901B0704757
:100A100010B586B004461422002101A800F04BF85E
:100A20002368184A934229D11748016941F000719F
:100A30000161026902F0007200920099036843F0BC
:100A40000203036002684FF44073104802F0020290
:100A50000092009902220193002102920391092140
:100A600003220591049201A900F044F8002202211A
:100A7000142000F069F9142000F083F906B010BDCD
:100A80004038024000640040303802400004024018
:100A900001484068704700BF000000207047704761
:100AA000704770477047704770477047704770478E
:100AB00070477047704710B5044610460A46014615
:100AC000204600F089F9204610BD0EE00268436818
:100AD000024408305FEAC37C44BF4B445B1E52F8BB
:100AE00004CB43F804CB091FF9D150F8041B0029AB
:100AF000ECD170472DE9F84F4FF0000E774A784B54
:100B0000DFF8E0814FF00F0906468A46DAF8004028
:100B1000012101FA0EF10C408C4240F0C580DAF858
:100B200004504FEA8E00022D18BF122D12D14FEA49
:100B3000DE0506EB850C00F01C0509FA05FBDCF868
:100B4000207027EA0B07DAF810B00BFA05F53D43E1
:100B5000CCF8205037689AF804B04FEA4E0C0325C1
:100B600005FA0CF5ED432F400BF0030B0BFA0CFBD1
:100B70004BEA07073760DAF80470012F18BF022F1D
:100B800003D0112F18BF122F13D1B768DAF80CB0A9
:100B90002F400BFA0CFB4BEA0707B760776827EA90
:100BA0000101DAF80470C7F3001707FA0EF73943AA
:100BB0007160F1680D40DAF8081001FA0CF1294370
:100BC000F160DAF80410CD006ED5D8F8001000F00E
:100BD0000C0041F48041C8F80010D8F8007007F408
:100BE00080470097009909FA00F74FEA9E0153F8F1
:100BF000215025EA070C3C4DAE4208BF00252CD001
:100C00003A4FBE4208BF012527D0394DAE4208BF3A
:100C1000022522D0374FBE4208BF03251DD0364DD6
:100C2000AE4208BF042518D0344FBE4208BF052588
:100C300013D0334DAE4208BF06250ED0314FBE4211
:100C400008BF072509D0304DAE4208BF082504D0A3
:100C50002E4FBE420CBF09250A2505FA00F040EAD6
:100C60000C0043F821001168DAF80450E043014019
:100C7000ED0348BF214311605168DAF80450014088
:100C8000AD0348BF214351609168DAF80450014038
:100C9000ED0248BF21439160D1680140DAF80400B9
:100CA000800248BF2143D1600EF1010EBEF10F0F4B
:100CB0007FF62CAFBDE8F18F0069084018BF012016
:100CC000C0B2704702B9090481617047104A1368C5
:100CD00003421CBF106000F0B2B87047003C0140F6
:100CE000083801404438024000000240000402403D
:100CF00000080240000C02400010024000140240B4
:100D000000180240001C0240002002400024024063
:100D1000143C01400901020002D429488154704763
:100D2000284B02F00F021A4402F8041C7047264BAD
:100D30004FF6FF021968000200F4E060114008431A
:100D4000224908431860704770B51F4B1C68C4F3F4
:100D500002230124C3F10705052D2EBF0F2504FA38
:100D600005F56D1E1E1D072E34BF0023DB1E294016
:100D7000994004FA03F35B1E1A401143BDE870402A
:100D8000C8E7010007D4012200F01F018A40104B80
:100D9000400943F820207047401EB0F1807F10B515
:100DA00001D3012010BD0B4C0F2160604FF0FF30CC
:100DB000FFF7B0FF00220721A2600020216010BDD4
:100DC00000E400E018ED00E00CED00E00000FA05A2
:100DD00000E100E010E000E062F30F2262F31F4246
:100DE000401810F0030308D0C91A1FD3DB0748BF0F
:100DF00000F8012D28BF20F8022D130030B414464E
:100E00001546103928BF20E93C00FAD8490728BF09
:100E100020E90C0048BF40F8042D890028BF20F8C5
:100E2000022D48BF00F8012D30BC7047C91818BF0B
:100E300000F8012DCB0728BF00F8012D704770473F
:100E40002DE9FC4104460025BCB12078DFF83C6464
:100E5000C10750D5B26802F00C02042A07D0B0686E
:100E600000F00C0008280AD17168480207D53268E2
:100E7000910340D5606800283DD1012056E16068AB
:100E8000B0F5803F0FD038B9316821F4803131603E
:100E9000306820F4802009E0B0F5A02F08D1316837
:100EA00041F480213160306840F48030306007E0E8
:100EB000326822F480323260316821F4802131605E
:100EC000606860B1FFF7E4FD07463168880312D41B
:100ED000FFF7DEFDC01B6528F7D3032026E1FFF7EF
:100EE000D7FD07463068810305D5FFF7D1FDC01B4C
:100EF0006528F7D3F1E72078810718D5B26812F09A
:100F00000C0F07D0B06800F00C00082825D17168DC
:100F1000480222D43268910702D5E0680128ACD19A
:100F20003168206921F0F80141EAC001316021787F
:100F30000A074CD56069002839D0716F41F0010172
:100F40007167FFF7A5FD0746706F81073FD4FFF774
:100F50009FFDC01B0228F7D9BFE7E068B8B1316830
:100F600041F001013160FFF793FD074630688107CA
:100F700005D4FFF78DFDC01B0228F7D9ADE7306817
:100F8000216920F0F80040EAC1003060CFE7306806
:100F9000400840003060FFF77BFD07463168880756
:100FA000C5D5FFF775FDC01B0228F7D995E7706F0F
:100FB000400840007067FFF76BFD0746706F8107C0
:100FC00005D5FFF765FDC01B0228F7D985E7207816
:100FD000410761D5326CD00009D4316C012541F054
:100FE00080513164306C00F0805000900099DFF83F
:100FF000A8723868C10510D43A6842F480723A6029
:10100000FFF746FD80463868C10506D4FFF740FD6E
:10101000A0EB08006528F6D35FE7A068012804D19B
:10102000306F40F00100306713E008B9306F09E01D
:101030000528306F06D140F004003067316F41F071
:10104000010105E0400840003067316F21F00401E4
:101050003167A06841F2893760B1FFF719FD80461A
:10106000306F810713D4FFF713FDA0EB0800B842DF
:10107000F6D332E7FFF70CFD8046306F810706D5C7
:10108000FFF706FDA0EB0800B842F6D325E71DB137
:10109000306C20F080503064A069002845D0B168E1
:1010A00001F00C0108293FF4E8AE0228306820F076
:1010B000807030602DD1FFF7EBFC05463168880168
:1010C00005D5FFF7E5FC401B0228F7D905E7E069E5
:1010D000216AA36A626A0843E16A40EA8210226BCD
:1010E0005B085B1E40EA034040EA016040EA027090
:1010F0007060306840F080703060FFF7C9FC0446D3
:101100003168880111D4FFF7C3FC001B0228F7D90E
:10111000E3E6FFF7BDFC04463168880105D5FFF71B
:10112000B7FC001B0228F7D9D7E60020BDE8F681FE
:10113000F8B504000E4652D0544DD5F8000400F026
:101140000F00B04202D200F06EF848D1206881074B
:1011500012D5400703D5A96841F4E051A960207871
:10116000010703D5AA6842F46042AA60A968A06892
:1011700021F0F0010143A9602178CA0726D56068F3
:10118000012802D129688A0303E0022803D12968D3
:101190008A0103D423E02B68990720D5AA68920816
:1011A00040EA8200A860FFF773FC0746A868616800
:1011B00000F00C00B0EB810F08D0FFF769FCC01BFA
:1011C00041F289329042F1D30320F2BDD5F80004F8
:1011D00000F00F00864204D200F025F801D0012073
:1011E000F2BD2178480705D5AA68E06822F4E052EC
:1011F0000243AA6021780A0706D5A868216920F46D
:10120000604040EAC100A86000F01AF8AA682349CB
:101210001F4BC2F30312895CC8401860002000F025
:1012200041F80020F2BDD5F80014090946EA011181
:10123000C5F80014D5F8000400F00F00B042704764
:101240002DE95041164C606800F00C00082819D1B7
:101250000023226820680F4E410202F03F0247BF80
:101260002068C0F388182168C1F38818A6FB08011C
:1012700000F038F82168C1F30141491C4900B0FB76
:10128000F1F000E00348BDE8508100000038024062
:101290000C0000200024F40000700040B416000888
:1012A0000438024038B50D4D04462A780C4B1868B6
:1012B0004FF47A71B1FBF2F2B0FBF2F0FFF76CFD84
:1012C00050B9102C08D2002221464FF0FF30FFF712
:1012D0003BFDAC60002032BD012032BD000000208B
:1012E0000C000020D3BBD9B1B2F5803F5BD2022AFB
:1012F0001ED98C46B1FBF2F102FB11C31B0443EA79
:101300001043B3FBF2FC02FB1C3380B240EA034300
:10131000B3FBF2F002FB103240EA0C4000237047AE
:10132000022A05D98446B0FBF2F002FB10C27047D6
:101330004AB105D100F0010249085FEA3000704768
:1013400000220023704700F051B80B00020000217A
:1013500000207047F7D3002200237047904271EBC2
:10136000030CF2D370B5B1FA81F4B3FA83F52C1BF8
:10137000A340C4F1200532FA05F63343A2405FF0E2
:101380000046E64002E05B085FEA3202841A71EB35
:10139000030524BF204629467641F4D302000B0002
:1013A0003000002170BD70B5B1FA81F4B2FA82F557
:1013B000C4F120046419B4F12006DAD3B2405FF01E
:1013C0000044F440002502E052085FEA3303C61AE5
:1013D00071EB020E24BF3046714664416D41F3D378
:1013E00002000B002000290070BD000070470000C3
:1013F00010B586B0654C00F0DFF800F082F800F020
:10140000D5F86348016841F004010160026802F008
:10141000040200920099036843F0800303600268AD
:1014200002F0800200920099036843F00803036011
:10143000026802F00802009200990368002243F05B
:1014400002030360006800F002000090009920464B
:101450004FF47041FFF736FC4FF400514D4A00F055
:101460004AF84D48FFF746FB4FF47041012200F067
:1014700042F820460493494CFFF73CFB002201212F
:101480002820FFF761FC2820FFF77BFC444802215D
:101490000022A062E162002022634FF440214FF459
:1014A00080126063A163E263206484F8440084F8DE
:1014B000450004F12800FEF79FFE01200021206670
:1014C0004FF41170A1650122E165206504F1280047
:1014D000216121606160A1602146E2612262FEF724
:1014E00041FF04F12800FEF7D9FF022104F1280092
:1014F000FFF74EF9FEE701910023029201A9039341
:10150000704700B593B03422002106A8FFF7D3FA44
:1015100000F04CF823480123016841F0805101603C
:10152000006800F08050009000991F48026822F483
:10153000404242F4804202600068022200F44040CF
:1015400000900099069206A810210C920A910021A1
:101550000D91082260210E920F910622022109931B
:1015600010921191FFF76CFC0F21022201914FF4B0
:10157000805102928023049100220393002105925E
:1015800001A8FFF7D5FD13B000BD0000000C02401C
:101590003038024000001110000802401000002006
:1015A00000640040403802400070004014220021D6
:1015B00001A8FFF780BA000080B50320FFF7B7FB52
:1015C0000020FFF76FFEFFF70DFA002002BD0000BC
:1015D0007047FEE7FEE7FEE7FEE77047704770479B
:1015E00000F038B810B5144C2046FFF7EBF8204651
:1015F000124B134A0021BDE81040FFF71DB810B58B
:10160000104C4FF400512046FFF756FB68B10E4ACC
:101610000E4B10780E49401C10700748FEF770FF03
:10162000064801780903C4F814144FF40050BDE8CB
:101630001040FFF74BBB000038000020990000204D
:10164000780000200008024098000020940000204C
:10165000600000200248416802788A1842607047A2
:101660000000002030B50F490F4AD1F88000002457
:1016700040F47000C1F8800013680C4843F0010387
:1016800013600B4B9460156805404FF000601560C7
:1016900000255360146824F480241460D560086029
:1016A00030BD000008ED00E000380240FFFFF6FE0C
:1016B00010300024000000000000000001020304BC
:1016C0000607080930B4002512E050F8042BD307B0
:1016D00044BF4A44521E091F042942F8045BFAD24F
:1016E00013468C0744BF15809B1CC90748BF1D705B
:1016F00050F8041B0029E8D130BC704710B50749E9
:1017000079441831064C7C44163404E00A68081DFC
:10171000114488470146A142F8D110BD2C000000B9
:101720004C0000004EF68851CEF20001086840F4EB
:1017300070000860BFF34F8FBFF36F8F4FF00070E2
:10174000E1EE100A704700007DFFFFFF8C000000F3
:10175000100000200000000073F3FFFF10000000E5
:1017600080000000000000200000000000F00DF8E4
:10177000002801D0FFF7C2FFAFF300800020AFF3D5
:101780000080FFF735FE00F002F80120704700F0FE
:1017900001B800000746384600F002F8FBE70000F9
:1017A00080B5AFF30080024A11001820ABBEFBE702
:1017B000260002000548014603B4684680F3098804
:1017C000AFF30080FFF7AEFFFFF7D0FFA5EDF5FE0A
:1017D000014880470148004765160008B517000812
:1017E0000100000000000000100000000024F400D0
:1017F000FFF7FEBFFFF7FEBFFFF7FEBFFFF7FEBF1D
:10180000FFF7FEBFFFF7FEBFFFF7FEBFFFF7FEBF0C
:10181000FFF7FEBFFFF7FEBFFFF7FEBFFFF7FEBFFC
:10182000FFF7FEBFFFF7FEBFFFF7FEBFFFF7FEBFEC
:10183000FFF7FEBFFFF7FEBFFFF7FEBFFFF7FEBFDC
:10184000FFF7FEBFFFF7FEBFFFF7FEBFFFF7FEBFCC
:10185000FFF7FEBFFFF7FEBFFFF7FEBFFFF7FEBFBC
:10186000FFF7FEBFFFF7FEBFFFF7FEBFFFF7FEBFAC
:10187000FFF7FEBFFFF7FEBFFFF7FEBFFFF7FEBF9C
:10188000FFF7FEBFFFF7FEBFFFF7FEBFFFF7FEBF8C
:10189000FFF7FEBFFFF7FEBFFFF7FEBFFFF7FEBF7C
:1018A000FFF7FEBFFFF7FEBFFFF7FEBFFFF7FEBF6C
:1018B000FFF7FEBFFFF7FEBFFFF7FEBFFFF7FEBF5C
:1018C000FFF7FEBFFFF7FEBFFFF7FEBFFFF7FEBF4C
:1018D000FFF7FEBFFFF7FEBFFFF7FEBFFFF7FEBF3C
:1018E000FFF7FEBFFFF7FEBFFFF7FEBFFFF7FEBF2C
:1018F000FFF7FEBFFFF7FEBFFFF7FEBFFFF7FEBF1C
:10190000FFF7FEBFFFF7FEBFFFF7FEBFFFF7FEBF0B
:10191000FFF7FEBFFFF7FEBFFFF7FEBFFFF7FEBFFB
:10192000FFF7FEBFFFF7FEBFFFF7FEBFFFF7FEBFEB
:10193000FFF7FEBFFFF7FEBFFFF7FEBFFFF7FEBFDB
:10194000FFF7FEBFFFF7FEBFFFF7FEBFFFF7FEBFCB
:10195000FFF7FEBFFFF7FEBFFFF7FEBFFFF7FEBFBB
:10196000FFF7FEBFFFF7FEBFFFF7FEBFFFF7FEBFAB
:10197000FFF7FEBFFFF7FEBFFFF7FEBFFFF7FEBF9B
:10198000FFF7FEBFFFF7FEBFFFF7FEBFFFF7FEBF8B
:08199000FFF7FEBFFFF7FEBFE9
:04000005080017B523
:00000001FF
