:020000040800F2
:1000000008040020250C0008010C0008030C00085F
:10001000050C0008070C0008090C0008000000008F
:100020000000000000000000000000000B0C0008B1
:100030000D0C0008000000000F0C0008110C000857
:100040003D0C0008410C0008450C0008490C000854
:100050004D0C0008510C0008550C0008590C000804
:100060005D0C0008610C0008650C0008690C0008B4
:100070006D0C0008710C0008750C0008790C000864
:100080007D0C0008810C0008850C0008890C000814
:100090008D0C0008910C0008950C0008990C0008C4
:1000A0009D0C0008A10C0008A50C0008A90C000874
:1000B000AD0C0008B10C0008B50C0008B90C000824
:1000C000BD0C0008C10C0008C50C0008C90C0008D4
:1000D000CD0C0008D10C0008D50C0008D90C000884
:1000E000DD0C0008E10C0008E50C0008E90C000834
:1000F000ED0C0008F10C0008F50C0008F90C0008E4
:10010000FD0C0008010D0008050D0008090D000890
:100110000D0D0008110D0008150D0008190D00083F
:100120001D0D0008210D0008250D0008290D0008EF
:100130002D0D0008310D0008350D0008390D00089F
:100140003D0D0008410D0008450D0008490D00084F
:100150004D0D0008510D0008550D0008590D0008FF
:100160005D0D0008610D0008650D0008690D0008AF
:100170006D0D0008710D0008750D000800000000ED
:10018000790D00087D0D0008810D0008850D00081F
:10019000890D00088D0D0008910D0008950D0008CF
:1001A000990D00089D0D0008A10D0008A50D00087F
:1001B000A90D0008AD0D0008B10D0008B50D00082F
:1001C000B90D0008BD0D000800000000C10D0008B9
:1001D000C50D0008C90D0008CD0D0008D10D00089F
:1001E000D50D0008D90D0008DD0D0008E10D00084F
:1001F000E50D0008E90D00082DE9FC410446002545
:10020000BCB12078DFF81864C10750D5B26802F09D
:100210000C02042A07D0B06800F00C0008280AD1AC
:100220007168480207D53268910340D5606800289C
:100230003DD1012056E16068B0F5803F0FD038B95C
:10024000316821F480313160306820F4802009E089
:10025000B0F5A02F08D1316841F4802131603068B9
:1002600040F48030306007E0326822F4803232603F
:10027000316821F480213160606860B100F0DCF900
:1002800007463168880312D400F0D6F9C01B6528F0
:10029000F7D3032026E100F0CFF907463068810349
:1002A00005D500F0C9F9C01B6528F7D3F1E7207820
:1002B000810718D5B26812F00C0F07D0B06800F0B3
:1002C0000C00082825D17168480222D432689107B1
:1002D00002D5E0680128ACD13168206921F0F8012D
:1002E00041EAC001316021780A074CD560690028D5
:1002F00039D0716F41F00101716700F09DF9074637
:10030000706F81073FD400F097F9C01B0228F7D91E
:10031000BFE7E068B8B1316841F00101316000F039
:100320008BF907463068810705D400F085F9C01BBA
:100330000228F7D9ADE73068216920F0F80040EADB
:10034000C1003060CFE7306840084000306000F006
:1003500073F9074631688807C5D500F06DF9C01BF1
:100360000228F7D995E7706F40084000706700F0E9
:1003700063F90746706F810705D500F05DF9C01B72
:100380000228F7D985E72078410761D5326CD00083
:1003900009D4316C012541F080513164306C00F09A
:1003A000805000900099DFF884723868C10510D43D
:1003B0003A6842F480723A6000F03EF9804638684C
:1003C000C10506D400F038F9A0EB08006528F6D383
:1003D0005FE7A068012804D1306F40F0010030676A
:1003E00013E008B9306F09E00528306F06D140F0FE
:1003F00004003067316F41F0010105E04008400022
:100400003067316F21F004013167A06841F289370C
:1004100060B100F011F98046306F810713D400F00D
:100420000BF9A0EB0800B842F6D332E700F004F96C
:100430008046306F810706D500F0FEF8A0EB08007B
:10044000B842F6D325E71DB1306C20F080503064FF
:10045000A069002845D0B16801F00C0108293FF4DB
:10046000E8AE0228306820F0807030602DD100F0B6
:10047000E3F805463168880105D500F0DDF8401B3A
:100480000228F7D905E7E069216AA36A626A08438E
:10049000E16A40EA8210226B5B085B1E40EA03407F
:1004A00040EA016040EA02707060306840F080709D
:1004B000306000F0C1F804463168880111D400F0C2
:1004C000BBF8001B0228F7D9E3E600F0B5F80446B4
:1004D0003168880105D500F0AFF8001B0228F7D974
:1004E000D7E60020BDE8F681F8B504000E4645D0F9
:1004F0004B4DD5F8000400F00F00B04202D200F0DE
:1005000061F83BD121788A0705D5AB68A06823F054
:10051000F0030343AB602178CA0726D56068012841
:1005200002D129688A0303E0022803D129688A01DD
:1005300003D423E02B68990720D5AA68920840EAE3
:100540008200A86000F078F80746A868616800F0AB
:100550000C00B0EB810F08D000F06EF8C01B41F228
:1005600089329042F1D30320F2BDD5F8000400F0A7
:100570000F00864204D200F025F801D00120F2BD20
:100580002178480705D5AA68E06822F4E0520243C2
:10059000AA6021780A0706D5A868216920F460407E
:1005A00040EAC100A86000F01AF8AA6820491D4B73
:1005B000C2F30312895CC8401860002000F042F8C2
:1005C0000020F2BDD5F80014090946EA0111C5F86A
:1005D0000014D5F8000400F00F00B0427047154930
:1005E000486800F00C00082817D108680E4A00F08F
:1005F0003F00B2FBF0F20868430247BF0868C0F34F
:1006000088100B68C3F3881042430868C0F30140A8
:10061000401C4000B2FBF0F07047034870470000F8
:1006200000380240000000200024F4000070004068
:100630002C0B00080438024001480068704700BFD6
:1006400004000020084910B50A6804464FF47A7087
:10065000B2FBF0F000F041F8002221464FF0FF30ED
:1006600000F01EF8002010BD00000020090102006B
:1006700006D5244A00F00F00104400F8041C70470F
:10068000214B19547047214B4FF6FF0219680002A5
:1006900000F4E060114008431D49084318607047AA
:1006A00070B51A4B1C68C4F302230124C3F107057B
:1006B000052D2EBF0F2504FA05F56D1E1E1D072EF4
:1006C00034BF0023DB1E2940994004FA03F35B1E6C
:1006D0001A401143BDE87040C8E7401EB0F1807F6A
:1006E00010B501D3012010BD0A4C0F2160604FF0FE
:1006F000FF30FFF7BBFF00220721A260002021602E
:1007000010BD000018ED00E000E400E00CED00E09A
:100710000000FA0510E000E02DE9F84F4FF0000E60
:10072000704A714BDFF8C4814FF00F0906468A46C4
:10073000DAF80040012101FA0EF10C408C4240F041
:10074000C580DAF804504FEA8E00022D18BF122D32
:1007500012D14FEADE0506EB850C00F01C0509FA04
:1007600005FBDCF8207027EA0B07DAF810B00BFA6B
:1007700005F53D43CCF8205037689AF804B04FEAAD
:100780004E0C032505FA0CF5ED432F400BF0030B3F
:100790000BFA0CFB4BEA07073760DAF80470012FFD
:1007A00018BF022F03D0112F18BF122F13D1B76813
:1007B000DAF80CB02F400BFA0CFB4BEA0707B760D6
:1007C000776827EA0101DAF80470C7F3001707FA1F
:1007D0000EF739437160F1680D40DAF8081001FA3C
:1007E0000CF12943F160DAF80410CD006ED5D8F889
:1007F000001000F00C0041F48041C8F80010D8F857
:10080000007007F480470097009909FA00F74FEA53
:100810009E0153F8215025EA070C354DAE4208BF22
:1008200000252CD0334FBE4208BF012527D0324DC2
:10083000AE4208BF022522D0304FBE4208BF03257A
:100840001DD02F4DAE4208BF042518D02D4FBE42FB
:1008500008BF052513D02C4DAE4208BF06250ED08B
:100860002A4FBE4208BF072509D0294DAE4208BF16
:10087000082504D0274FBE420CBF09250A2505FADA
:1008800000F040EA0C0043F821001168DAF8045047
:10089000E0430140ED0348BF214311605168DAF89D
:1008A00004500140AD0348BF214351609168DAF81C
:1008B00004500140ED0248BF21439160D1680140DE
:1008C000DAF80400800248BF2143D1600EF1010E26
:1008D000BEF10F0F7FF62CAFBDE8F18F02B909040E
:1008E00081617047003C01400838014044380240B3
:1008F000000002400004024000080240000C0240D8
:10090000001002400014024000180240001C024087
:10091000002002400024024010B586B02D4C00F0AB
:100920007BF800F01FF800F05DF82B48002201680A
:1009300041F008010160006800F008000090009993
:1009400020464FF40071FFF7C9FF4FF400710122F8
:1009500001910023029201A9039320460493FFF71B
:10096000DBFEFEE700B593B03422002106A800F0BC
:100970005EF800F037F81948016841F080510160D5
:10098000006800F08050009000991548026822F439
:10099000404242F4804202600368022206A803F447
:1009A00040430093009906920123102100220993ED
:1009B0000A910C92FFF720FC0F21002201910021E7
:1009C000029201A8039204910592FFF78DFD13B0E6
:1009D00000BD0000000C02403038024040380240A8
:1009E000007000401422002101A800F020B80EE0A1
:1009F00002684368024408305FEAC37C44BF4B444A
:100A00005B1E52F804CB43F804CB091FF9D150F810
:100A1000041B0029ECD1704780B50320FFF733FE9B
:100A20000020FFF70FFE00F00DF8002002BD10B50A
:100A3000044610460A460146204600F01BF82046B0
:100A400010BD000081B00A48016841F0805101608A
:100A5000026802F0805200920099426842F480429B
:100A60004260406800F480400090009901B07047F7
:100A70004038024062F30F2262F31F42401810F028
:100A8000030308D0C91A1FD3DB0748BF00F8012DA4
:100A900028BF20F8022D130030B414461546103933
:100AA00028BF20E93C00FAD8490728BF20E90C00FC
:100AB00048BF40F8042D890028BF20F8022D48BF08
:100AC00000F8012D30BC7047C91818BF00F8012D7F
:100AD000CB0728BF00F8012D7047000030B50F4943
:100AE0000F4AD1F88000002440F47000C1F8800063
:100AF00013680C4843F0010313600B4B94601568B6
:100B000005404FF00060156000255360146824F420
:100B100080241460D560086030BD000008ED00E05E
:100B200000380240FFFFF6FE1030002400000000F5
:100B300000000000010203040607080910B5074978
:100B400079441831064C7C44163404E00A68081DC8
:100B5000114488470146A142F8D110BD2C00000085
:100B60003C0000004EF68851CEF20001086840F4C7
:100B700070000860BFF34F8FBFF36F8F4FF00070AE
:100B8000E1EE100A7047000067FEFFFF080000005A
:100B9000A4000000000000200000000000F00DF89C
:100BA000002801D0FFF7CAFFAFF300800020AFF3A9
:100BB0000080FFF7B1FE00F002F80120704700F05E
:100BC00001B800000746384600F002F8FBE70000D5
:100BD00080B5AFF30080024A11001820ABBEFBE7DE
:100BE000260002000548014603B4684680F30988E0
:100BF000AFF30080FFF7B6FFFFF7D0FFA5EDF5FEDE
:100C00007047FEE7FEE7FEE7FEE770477047704774
:100C100000F000B802480168491C0160704700BF3D
:100C2000040000200148804701480047DD0A000811
:100C3000E50B00080024F40000000000FFF7FEBFF1
:100C4000FFF7FEBFFFF7FEBFFFF7FEBFFFF7FEBFD8
:100C5000FFF7FEBFFFF7FEBFFFF7FEBFFFF7FEBFC8
:100C6000FFF7FEBFFFF7FEBFFFF7FEBFFFF7FEBFB8
:100C7000FFF7FEBFFFF7FEBFFFF7FEBFFFF7FEBFA8
:100C8000FFF7FEBFFFF7FEBFFFF7FEBFFFF7FEBF98
:100C9000FFF7FEBFFFF7FEBFFFF7FEBFFFF7FEBF88
:100CA000FFF7FEBFFFF7FEBFFFF7FEBFFFF7FEBF78
:100CB000FFF7FEBFFFF7FEBFFFF7FEBFFFF7FEBF68
:100CC000FFF7FEBFFFF7FEBFFFF7FEBFFFF7FEBF58
:100CD000FFF7FEBFFFF7FEBFFFF7FEBFFFF7FEBF48
:100CE000FFF7FEBFFFF7FEBFFFF7FEBFFFF7FEBF38
:100CF000FFF7FEBFFFF7FEBFFFF7FEBFFFF7FEBF28
:100D0000FFF7FEBFFFF7FEBFFFF7FEBFFFF7FEBF17
:100D1000FFF7FEBFFFF7FEBFFFF7FEBFFFF7FEBF07
:100D2000FFF7FEBFFFF7FEBFFFF7FEBFFFF7FEBFF7
:100D3000FFF7FEBFFFF7FEBFFFF7FEBFFFF7FEBFE7
:100D4000FFF7FEBFFFF7FEBFFFF7FEBFFFF7FEBFD7
:100D5000FFF7FEBFFFF7FEBFFFF7FEBFFFF7FEBFC7
:100D6000FFF7FEBFFFF7FEBFFFF7FEBFFFF7FEBFB7
:100D7000FFF7FEBFFFF7FEBFFFF7FEBFFFF7FEBFA7
:100D8000FFF7FEBFFFF7FEBFFFF7FEBFFFF7FEBF97
:100D9000FFF7FEBFFFF7FEBFFFF7FEBFFFF7FEBF87
:100DA000FFF7FEBFFFF7FEBFFFF7FEBFFFF7FEBF77
:100DB000FFF7FEBFFFF7FEBFFFF7FEBFFFF7FEBF67
:100DC000FFF7FEBFFFF7FEBFFFF7FEBFFFF7FEBF57
:100DD000FFF7FEBFFFF7FEBFFFF7FEBFFFF7FEBF47
:0C0DE000FFF7FEBFFFF7FEBFFFF7FEBFEE
:0400000508000BE5FF
:00000001FF
