:020000040800F2
:1000000080040020B911000895110008971100081C
:10001000991100089B1100089D11000800000000C4
:100020000000000000000000000000009F11000818
:10003000A111000800000000A3110008A51100088C
:10004000C9110008CD110008D1110008D511000810
:10005000D9110008DD110008E1110008E5110008C0
:10006000E9110008ED110008F1110008F511000870
:10007000F9110008FD11000801120008051200081E
:10008000091200080D1200081112000815120008CC
:10009000191200081D12000821120008251200087C
:1000A000291200082D12000831120008351200082C
:1000B000391200083D1200084112000845120008DC
:1000C000491200084D12000851120008551200088C
:1000D000591200085D12000861120008651200083C
:1000E000691200086D1200087112000875120008EC
:1000F000791200087D12000881120008851200089C
:10010000891200088D12000891120008951200084B
:10011000991200089D120008A1120008A5120008FB
:10012000A9120008AD120008B1120008B5120008AB
:10013000B9120008BD120008C1120008C51200085B
:10014000C9120008CD120008D1120008D51200080B
:10015000D9120008DD120008E1120008E5120008BB
:10016000E9120008ED120008F1120008F51200086B
:10017000F9120008FD120008011300080000000039
:1001800005130008091300080D13000811130008D7
:1001900015130008191300081D1300082113000887
:1001A00025130008291300082D1300083113000837
:1001B00035130008391300083D13000841130008E7
:1001C0004513000849130008000000004D13000803
:1001D0005113000855130008591300085D13000857
:1001E0006113000865130008691300086D13000807
:1001F00071130008751300082DE9FC410446002521
:10020000BCB12078DFF83C64C10750D5B26802F079
:100210000C02042A07D0B06800F00C0008280AD1AC
:100220007168480207D53268910340D5606800289C
:100230003DD1012056E16068B0F5803F0FD038B95C
:10024000316821F480313160306820F4802009E089
:10025000B0F5A02F08D1316841F4802131603068B9
:1002600040F48030306007E0326822F4803232603F
:10027000316821F480213160606860B100F0EEF9EE
:1002800007463168880312D400F0E8F9C01B6528DE
:10029000F7D3032026E100F0E1F907463068810337
:1002A00005D500F0DBF9C01B6528F7D3F1E720780E
:1002B000810718D5B26812F00C0F07D0B06800F0B3
:1002C0000C00082825D17168480222D432689107B1
:1002D00002D5E0680128ACD13168206921F0F8012D
:1002E00041EAC001316021780A074CD560690028D5
:1002F00039D0716F41F00101716700F0AFF9074625
:10030000706F81073FD400F0A9F9C01B0228F7D90C
:10031000BFE7E068B8B1316841F00101316000F039
:100320009DF907463068810705D400F097F9C01B96
:100330000228F7D9ADE73068216920F0F80040EADB
:10034000C1003060CFE7306840084000306000F006
:1003500085F9074631688807C5D500F07FF9C01BCD
:100360000228F7D995E7706F40084000706700F0E9
:1003700075F90746706F810705D500F06FF9C01B4E
:100380000228F7D985E72078410761D5326CD00083
:1003900009D4316C012541F080513164306C00F09A
:1003A000805000900099DFF8A8723868C10510D419
:1003B0003A6842F480723A6000F050F9804638683A
:1003C000C10506D400F04AF9A0EB08006528F6D371
:1003D0005FE7A068012804D1306F40F0010030676A
:1003E00013E008B9306F09E00528306F06D140F0FE
:1003F00004003067316F41F0010105E04008400022
:100400003067316F21F004013167A06841F289370C
:1004100060B100F023F98046306F810713D400F0FB
:100420001DF9A0EB0800B842F6D332E700F016F948
:100430008046306F810706D500F010F9A0EB080068
:10044000B842F6D325E71DB1306C20F080503064FF
:10045000A069002845D0B16801F00C0108293FF4DB
:10046000E8AE0228306820F0807030602DD100F0B6
:10047000F5F805463168880105D500F0EFF8401B16
:100480000228F7D905E7E069216AA36A626A08438E
:10049000E16A40EA8210226B5B085B1E40EA03407F
:1004A00040EA016040EA02707060306840F080709D
:1004B000306000F0D3F804463168880111D400F0B0
:1004C000CDF8001B0228F7D9E3E600F0C7F8044690
:1004D0003168880105D500F0C1F8001B0228F7D962
:1004E000D7E60020BDE8F681F8B504000E4652D0EC
:1004F000544DD5F8000400F00F00B04202D200F0D5
:100500006EF848D12068810712D5400703D5A96845
:1005100041F4E051A9602078010703D5AA6842F4AC
:100520006042AA60A968A06821F0F0010143A960B7
:100530002178CA0726D56068012802D129688A0374
:1005400003E0022803D129688A0103D423E02B6841
:10055000990720D5AA68920840EA8200A86000F0B6
:100560007DF80746A868616800F00C00B0EB810FC9
:1005700008D000F073F8C01B41F289329042F1D3E9
:100580000320F2BDD5F8000400F00F00864204D22B
:1005900000F025F801D00120F2BD2178480705D5EB
:1005A000AA68E06822F4E0520243AA6021780A07B0
:1005B00006D5A868216920F4604040EAC100A8601F
:1005C00000F01AF8AA6823491F4BC2F30312895C92
:1005D000C8401860002000F047F80020F2BDD5F8B0
:1005E0000014090946EA0111C5F80014D5F8000401
:1005F00000F00F00B04270472DE95041164C606882
:1006000000F00C00082819D10023226820680F4E42
:10061000410202F03F0247BF2068C0F388182168FA
:10062000C1F38818A6FB080100F03EF82168C1F369
:100630000141491C4900B0FBF1F000E00348BDE86E
:100640005081000000380240780000200024F400AF
:1006500000700040C410000804380240014840689F
:10066000704700BF6C00002038B50D4D04462A7855
:100670000C4B18684FF47A71B1FBF2F2B0FBF2F058
:1006800000F0E9F850B9102C08D2002221464FF0B2
:10069000FF3000F0C3F8AC60002032BD012032BD55
:1006A0006C00002078000020D3BBD9B1B2F5803FA8
:1006B0005BD2022A1ED98C46B1FBF2F102FB11C3B8
:1006C0001B0443EA1043B3FBF2FC02FB1C3380B271
:1006D00040EA0343B3FBF2F002FB103240EA0C4065
:1006E00000237047022A05D98446B0FBF2F002FBD2
:1006F00010C270474AB105D100F0010249085FEA13
:100700003000704700220023704700F0C3B80B0090
:100710000200002100207047F7D300220023704719
:10072000904271EB030CF2D370B5B1FA81F4B3FAD5
:1007300083F52C1BA340C4F1200532FA05F63343A0
:10074000A2405FF00046E64002E05B085FEA32024A
:10075000841A71EB030524BF204629467641F4D361
:1007600002000B003000002170BD70B5B1FA81F4B9
:10077000B2FA82F5C4F120046419B4F12006DAD388
:10078000B2405FF00044F440002502E052085FEA06
:100790003303C61A71EB020E24BF30467146644122
:1007A0006D41F3D302000B002000290070BD30B56D
:1007B000016884684218416802EB5103C90703D5F8
:1007C0004C4401E0491C08D19A4218BF12F9011BA0
:1007D00001D10C3030BD12F8015B002904F8015B37
:1007E000F0D4491EF7D5EFE70901020002D42448EE
:1007F00081547047234B02F00F021A4402F8041C84
:100800007047214B4FF6FF021968000200F4E060C8
:10081000114008431D4908431860704770B51A4BD2
:100820001C68C4F302230124C3F10705052D2EBF64
:100830000F2504FA05F56D1E1E1D072E34BF00237B
:10084000DB1E2940994004FA03F35B1E1A40114352
:10085000BDE87040C8E7401EB0F1807F10B501D3FD
:10086000012010BD0A4C0F2160604FF0FF30FFF7F0
:10087000BBFF00220721A2600020216010BD000004
:1008800000E400E018ED00E00CED00E00000FA05E7
:1008900010E000E07047000010B5040001D1012015
:1008A00010BD94F83D0018B900F026F800F042F9A8
:1008B00016E010B50222DFF84C1080F83D200368E6
:1008C0009A680A40062A18BFB2F5803F03D019681B
:1008D00041F001011960012480F83D40002010BD65
:1008E0000220211D84F83D00206800F070F80120EE
:1008F00084F83D00002010BD0021204684F83C1003
:10090000704700000700010038B500F05BF801D126
:10091000022032BD0122022384F83C20DFF84C0182
:1009200084F83D30226893680340936008680500AE
:1009300018BF10282DD0202818BF302829D04028D3
:1009400023D0502816D0602818D0702803D0B0F5D6
:10095000005F07D021E000F024F82068816841F0B2
:10096000770105E000F01DF82068816841F48041BE
:10097000816012E000F01AF850210BE0CA68496863
:10098000206800F09CF8602104E000F00FF840219E
:1009900000E00146206800F0A4F800F00BF832BD3A
:1009A0000000CB684A6889682068A2E0CA68496884
:1009B000206873E00120002184F83D00002084F8C5
:1009C0003C107047044694F83C0001287047F0B58D
:1009D000DFF89C500668A842DFF89840DFF89830AE
:1009E000DFF89870DFF898C018BFB0F1804F07D0DB
:1009F000604518BFB84203D0984218BFA0420DD13D
:100A00004A6826F070061643A84218BFB0F1804F1E
:100A100017D060451CBFB842984212D0A0421CBFFC
:100A2000184B98420DD0184A90421CBF174FB8423D
:100A300007D0174B98421FBF164A9042164FB84234
:100A400003D1CB6826F440761E434A6926F080061F
:100A50001643A84206608B68C3620E68866212BFA6
:100A6000A0420969016301224261F0BD8800FEFFD6
:100A70000000014000040140000C0040000800405C
:100A80000004004000400140004401400048014093
:100A900000180040001C00400020004030B5036AF0
:100AA000046A640864000462856923F00A03194338
:100AB00025F0F00545EA02158561016230BD10B5EB
:100AC000036A23F0100303628369046A23F470430A
:100AD00043EA023324F0A004836144EA011404626F
:100AE00010BD826822F07002114341F0070181605D
:100AF000704710B5846824F47F442143114341EAD0
:100B00000321816010BD000081B01348016841F0ED
:100B100080510160026802F08052009200994268A0
:100B200042F480424260406800F4804000900099A6
:100B300001B0704781B000680849884209D1064871
:100B4000026842F002020260006800F002000090B9
:100B5000009901B070470000403802400004004096
:100B6000F0B587B07D4C00F005F900F0A4F8142230
:100B7000002101A87A4D00F008F97A48016841F097
:100B800080010160026802F080020092009903680F
:100B9000002243F004030360006800F004000090AA
:100BA000009920464FF4007100F0DCF94FF4007119
:100BB000012201910023029201A90393204604938C
:100BC00000F0EEF81022002103A800F0DEF80C225D
:100BD0000021684600F0D9F86348002228600F2100
:100BE0004FF6FF736960AA602846EB602A61AA612C
:100BF000FFF752FE4FF4805003A903902846FFF7F9
:100C000083FE0021284600910291694600F0C8F950
:100C10002846FFF74EFE28680022416A85F86220C8
:100C2000A5F86410102195F8600005F14002CBB2E0
:100C3000491CD65CCFB23018182FF8DB85F860005D
:100C40000421C2B20023D318CEB203F0FE03000683
:100C5000D21A2E4486F86720491E400ECAB2002AD6
:100C6000EFD10021CAB22A4492F86830491C82F8B8
:100C70004C30CAB2042AF5DB85F8630001E000229B
:100C80000CE085F861104FF47A7000F04EF895F89A
:100C9000611005F14000425C012AF0D14FF400716F
:100CA000204600F05FF995F86110491CC8B21C2875
:100CB000E7D10021E5E700B593B03422002106A872
:100CC00000F063F81422002101A800F05EF8274824
:100CD000016841F080510160006800F08050009090
:100CE00000992348026822F4404242F480420260A4
:100CF0000368022206A803F4404300930099069279
:100D000001231021002209930A910C92FFF774FA33
:100D10000F21002201910021029201A80392049167
:100D20000592FFF7E1FB13B000BD01280E4998BF03
:100D30000220401EC862012048610A695208520020
:100D40000A61086840F0010008600A69D007FCD514
:100D50000B695B085B000B617047000000080240F4
:100D600000000020303802400004004040380240BB
:100D70000070004080B50320FFF743FD0020FFF71F
:100D800073FCFFF7C1FE002002BD10B504461046FB
:100D90000A460146204600F039F9204610BD000001
:100DA0002DE9F84F4FF0000E704A714BDFF8C48107
:100DB0004FF00F0906468A46DAF80040012101FA91
:100DC0000EF10C408C4240F0C580DAF804504FEA36
:100DD0008E00022D18BF122D12D14FEADE0506EB50
:100DE000850C00F01C0509FA05FBDCF8207027EAE9
:100DF0000B07DAF810B00BFA05F53D43CCF820509C
:100E000037689AF804B04FEA4E0C032505FA0CF542
:100E1000ED432F400BF0030B0BFA0CFB4BEA0707DB
:100E20003760DAF80470012F18BF022F03D0112F9A
:100E300018BF122F13D1B768DAF80CB02F400BFA95
:100E40000CFB4BEA0707B760776827EA0101DAF87D
:100E50000470C7F3001707FA0EF739437160F168A1
:100E60000D40DAF8081001FA0CF12943F160DAF8C4
:100E70000410CD006ED5D8F8001000F00C0041F43D
:100E80008041C8F80010D8F8007007F48047009738
:100E9000009909FA00F74FEA9E0153F8215025EA1C
:100EA000070C354DAE4208BF00252CD0334FBE4253
:100EB00008BF012527D0324DAE4208BF022522D0FF
:100EC000304FBE4208BF03251DD02F4DAE4208BF94
:100ED000042518D02D4FBE4208BF052513D02C4D38
:100EE000AE4208BF06250ED02A4FBE4208BF0725D6
:100EF00009D0294DAE4208BF082504D0274FBE4275
:100F00000CBF09250A2505FA00F040EA0C0043F859
:100F100021001168DAF80450E0430140ED0348BFB6
:100F2000214311605168DAF804500140AD0348BF15
:100F3000214351609168DAF804500140ED0248BF46
:100F400021439160D1680140DAF80400800248BF73
:100F50002143D1600EF1010EBEF10F0F7FF62CAFD1
:100F6000BDE8F18F02B9090481617047003C01407E
:100F700008380140443802400000024000040240AA
:100F800000080240000C0240001002400014024021
:100F900000180240001C02400020024000240240D1
:100FA000F0B590F83C20012A01D10220F0BD00F0FC
:100FB00025F8104A046894421CBF0F4FBC42656874
:100FC000A66803D14B6825F470051D4325F0700514
:100FD0008A68096826F080060D4300216560164383
:100FE000036801229E6080F83D2080F83C100020BC
:100FF000F0BD000000000140000401400123022276
:1010000080F83C3080F83D207047000062F30F22EA
:1010100062F31F42401810F0030308D0C91A1FD30F
:10102000DB0748BF00F8012D28BF20F8022D130070
:1010300030B414461546103928BF20E93C00FAD8D0
:10104000490728BF20E90C0048BF40F8042D89005B
:1010500028BF20F8022D48BF00F8012D30BC704792
:10106000C91818BF00F8012DCB0728BF00F8012DC3
:101070007047000030B50F490F4AD1F880000024B6
:1010800040F47000C1F8800013680C4843F001037D
:1010900013600B4B9460156805404FF000601560BD
:1010A00000255360146824F480241460D56008601F
:1010B00030BD000008ED00E000380240FFFFF6FE02
:1010C00010300024000000000000000001020304B2
:1010D0000607080910B5074979441831064C7C44C5
:1010E000163404E00A68081D114488470146A142ED
:1010F000F8D110BD2C000000380000004EF68851D9
:10110000CEF20001086840F470000860BFF34F8F12
:10111000BFF36F8F4FF00070E1EE100A70470000D0
:101120008FF6FFFF5402000038000000000000208E
:1011300000F00DF8002801D0FFF7CCFFAFF30080DE
:101140000020AFF30080FFF70BFD00F002F8012054
:10115000704700F001B800000746384600F002F87A
:10116000FBE7000080B5AFF30080024A11001820B1
:10117000ABBEFBE7260002000548014603B4684603
:1011800080F30988AFF30080FFF7B8FFFFF7D0FFC7
:10119000A5EDF5FE7047FEE7FEE7FEE7FEE77047C8
:1011A0007047704700F000B80248416802788A181A
:1011B000426070476C0000200148804701480047AA
:1011C0007510000879110008FFF7FEBFFFF7FEBF9A
:1011D000FFF7FEBFFFF7FEBFFFF7FEBFFFF7FEBF43
:1011E000FFF7FEBFFFF7FEBFFFF7FEBFFFF7FEBF33
:1011F000FFF7FEBFFFF7FEBFFFF7FEBFFFF7FEBF23
:10120000FFF7FEBFFFF7FEBFFFF7FEBFFFF7FEBF12
:10121000FFF7FEBFFFF7FEBFFFF7FEBFFFF7FEBF02
:10122000FFF7FEBFFFF7FEBFFFF7FEBFFFF7FEBFF2
:10123000FFF7FEBFFFF7FEBFFFF7FEBFFFF7FEBFE2
:10124000FFF7FEBFFFF7FEBFFFF7FEBFFFF7FEBFD2
:10125000FFF7FEBFFFF7FEBFFFF7FEBFFFF7FEBFC2
:10126000FFF7FEBFFFF7FEBFFFF7FEBFFFF7FEBFB2
:10127000FFF7FEBFFFF7FEBFFFF7FEBFFFF7FEBFA2
:10128000FFF7FEBFFFF7FEBFFFF7FEBFFFF7FEBF92
:10129000FFF7FEBFFFF7FEBFFFF7FEBFFFF7FEBF82
:1012A000FFF7FEBFFFF7FEBFFFF7FEBFFFF7FEBF72
:1012B000FFF7FEBFFFF7FEBFFFF7FEBFFFF7FEBF62
:1012C000FFF7FEBFFFF7FEBFFFF7FEBFFFF7FEBF52
:1012D000FFF7FEBFFFF7FEBFFFF7FEBFFFF7FEBF42
:1012E000FFF7FEBFFFF7FEBFFFF7FEBFFFF7FEBF32
:1012F000FFF7FEBFFFF7FEBFFFF7FEBFFFF7FEBF22
:10130000FFF7FEBFFFF7FEBFFFF7FEBFFFF7FEBF11
:10131000FFF7FEBFFFF7FEBFFFF7FEBFFFF7FEBF01
:10132000FFF7FEBFFFF7FEBFFFF7FEBFFFF7FEBFF1
:10133000FFF7FEBFFFF7FEBFFFF7FEBFFFF7FEBFE1
:10134000FFF7FEBFFFF7FEBFFFF7FEBFFFF7FEBFD1
:10135000FFF7FEBFFFF7FEBFFFF7FEBFFFF7FEBFC1
:10136000FFF7FEBFFFF7FEBFFFF7FEBFFFF7FEBFB1
:10137000FFF7FEBFFFF7FEBFC000F401FB00060150
:10138000000100010001EC000001F9000010FC0068
:041390000224F4003F
:040000050800117965
:00000001FF
