:020000040800F2
:10000000B8040020511A0008CD180008CF180008C5
:10001000D1180008D3180008D51800080000000007
:10002000000000000000000000000000D7180008D9
:10003000D918000800000000DB180008DD180008CF
:10004000611A0008651A0008691A00086D1A00088C
:10005000711A0008751A0008791A00087D1A00083C
:10006000811A0008851A0008891A00088D1A0008EC
:10007000911A0008951A0008991A00089D1A00089C
:10008000A11A0008A51A0008A91A0008AD1A00084C
:10009000B11A0008B51A0008B91A0008BD1A0008FC
:1000A000C11A0008C51A0008C91A0008CD1A0008AC
:1000B000D11A0008D51A0008D91A0008DD1A00085C
:1000C000E11A0008E51A0008E91A0008ED1A00080C
:1000D000F11A0008F51A0008F91A0008FD1A0008BC
:1000E000E5180008011B0008051B0008091B000893
:1000F0000D1B0008111B0008151B0008191B000828
:100100001D1B0008211B0008251B0008291B0008D7
:100110002D1B0008311B0008351B0008391B000887
:100120003D1B0008411B0008451B0008491B000837
:100130004D1B0008511B0008551B0008591B0008E7
:100140005D1B0008611B0008651B0008691B000897
:100150006D1B0008711B0008751B0008791B000847
:100160007D1B0008811B0008851B0008891B0008F7
:100170008D1B0008911B0008951B00080000000063
:10018000991B00089D1B0008A11B0008A51B000867
:10019000A91B0008AD1B0008B11B0008B51B000817
:1001A000B91B0008BD1B0008C11B0008C51B0008C7
:1001B000C91B0008CD1B0008D11B0008D51B000877
:1001C000D91B0008DD1B000800000000E11B00082F
:1001D000E51B0008E91B0008ED1B0008F11B0008E7
:1001E000F51B0008F91B0008FD1B0008011C000896
:1001F000051C0008091C0008F8B5040000250026AD
:10020000002C01D10120CAE094F83C00002805D15F
:10021000002084F83D00200000F01DFC022084F83E
:100220003C002068006830F0020021680860206807
:10023000006850F001002168086000F04BFC0700E6
:1002400020684068C0070CD400F044FCC01B0B2899
:10025000F6D3032084F83C00002084F83D000320FE
:100260009DE020684068C00740F18C80A0690128AB
:1002700006D12068006850F080002168086005E021
:100280002068006830F0800021680860E06901287B
:1002900006D12068006850F040002168086005E041
:1002A0002068006830F0400021680860206A01285A
:1002B00006D12068006850F020002168086005E041
:1002C0002068006830F0200021680860606A01281A
:1002D00006D12068006850F010002168086005E031
:1002E0002068006830F0100021680860A06A0128CA
:1002F00006D12068006850F008002168086005E019
:100300002068006830F0080021680860E06A012871
:1003100006D12068006850F004002168086005E0FC
:100320002068006830F0040021680860A168E06877
:10033000014320690143606901436068401E014335
:100340002068C1612068006840084000216808609A
:1003500000F0C0FB070020684068C0070CD500F023
:10036000B9FBC01B0B28F6D3032084F83C00002007
:1003700084F83D00032012E020684068C00701D4E3
:1003800001200500012D06D100202064012084F801
:100390003C00002003E0042084F83C000120F2BD72
:1003A00070B40200002001244B6914FA03F31468AE
:1003B000DFF88053AC4202D1DFF8784301E0DFF888
:1003C0007843D4F8000250F00100C4F80002D4F8D9
:1003D000000230F47C50C4F80002D4F800024D6AE8
:1003E00050EA0520C4F80002D4F81C029843C4F86F
:1003F0001C02C869002816D1D4F80C029843C4F82E
:100400000C02486904EBC000CD684E68C6EA054599
:10041000C0F84052486904EBC0008D680E68C6EA17
:100420000545C0F84452C869012816D1D4F80C0219
:100430001843C4F80C02486904EBC0000D684E680C
:10044000C6EA0545C0F84052486904EBC0008D6813
:10045000CE68C6EA0545C0F844528869002805D12F
:10046000D4F804029843C4F8040204E0D4F8040267
:100470001843C4F804020869002804D1D4F814020F
:100480009843C4F814020869012804D1D4F814026E
:100490001843C4F81402086A012804D1D4F81C02D5
:1004A0001843C4F81C02D4F8000240084000C4F805
:1004B0000002002070BC70472DE9F04106000D00DD
:1004C00004215FF0000830688068400108D430687B
:1004D0008068000104D430688068C00040F1248145
:1004E00096F83D00012801D1022021E1012086F883
:1004F0003D0096F83C00222804D0322806D062281D
:1005000008D00BE0422086F83C000AE0522086F832
:100510003C0006E0722086F83C0002E0122086F8DB
:100520003C0030688068400101D5002406E0306856
:100530008068000101D5012400E002243068210117
:100540000844D0F8800110F0010031682201114404
:10055000C1F88001306B8068002811D1306821011A
:100560000844D0F88011306B006851EA4051306B7C
:10057000C0680143306822011044C0F8801113E0C4
:10058000306821010844D0F88011306B406851EA8E
:10059000C001306B80680143306BC0680143306834
:1005A00022011044C0F88011306B007C10F00F0065
:1005B000316B0861306821010844D0F884010009DA
:1005C0000001316822011144C1F884013068210121
:1005D0000844D0F88411306B00690143306822016F
:1005E0001044C0F88411306BC07D316B897D0904E3
:1005F00051EA0061306B407D51EA0021306B007D93
:100600000143306822011044C0F88811306BC07E6D
:10061000316B897E090451EA0061306B407E51EAFA
:100620000021306B007E0143306822011044C0F885
:100630008C11306821010844D0F8800150F001008D
:10064000316822011144C1F8800100F043FA07002B
:10065000002C0CD130688168DFF8B8030140DFF866
:10066000B403814201D101201CE000201AE0012CDA
:100670000CD130688168DFF8A0030140DFF89803EF
:10068000814201D101200DE000200BE0306881683B
:10069000DFF888030140DFF88403814201D10120A3
:1006A00000E00020002822D115F1010FD0D0002D4C
:1006B00004D000F00FFAC01B8542C9D2032086F88F
:1006C0003C00002C03D18020316888600AE0012CB6
:1006D00004D14FF400403168886003E05FF400000B
:1006E00031688860002086F83D00032020E096F8FD
:1006F0003C00422804D0522806D0722808D00BE0D3
:10070000222086F83C000AE0322086F83C0006E011
:10071000622086F83C0002E0012086F83C000020C0
:1007200086F83D00002003E0042086F83C0001200C
:10073000BDE8F08100340040006400402DE9F8433A
:1007400005000E0014005FF000095FF000083000A3
:10075000C0B2002811D195F83C0022280BD095F8A2
:100760003C00422807D095F83C00622803D095F859
:100770003C00722801D1022049E13000C0B20128BA
:1007800011D195F83C0032280BD095F83C00522846
:1007900007D095F83C00622803D095F83C007228F9
:1007A00001D1022033E195F83D00012801D102205A
:1007B0002DE1012085F83D003000C0B2002818D19D
:1007C00095F83C00122804D0322806D0522808D0D0
:1007D0000BE0422085F83C0023E0622085F83C00D5
:1007E0001FE0722085F83C001BE0222085F83C00C9
:1007F00017E095F83C00122804D0222806D04228A1
:1008000008D00BE0522085F83C000AE0622085F811
:100810003C0006E0722085F83C0002E0322085F8BA
:100820003C0000F057F907003000C0B2002804D1A6
:100830002868C06810F0030003E02868006910F021
:100840000300002811D114F1010FEDD0002C04D0C9
:1008500000F040F9C01B8442E6D2032085F83C003A
:10086000002085F83D000320D1E03000C0B2002810
:1008700001D1696B00E0A96B28683200D2B2120185
:100880001044D0F8B00110F0040088608868002897
:1008900009D128683200D2B212011044D0F8B00158
:1008A000400D086008E028683200D2B212011044FE
:1008B000D0F8B001C008486028683200D2B21201F6
:1008C0001044D0F8B00110F00200C860286832006F
:1008D000D2B212011044D0F8B40110F00F00086138
:1008E00028683200D2B212011044D0F8B401C0F32B
:1008F0000720C8613000C0B2086228683200D2B256
:1009000012011044D0F8B801087528683200D2B23C
:1009100012011044D0F8B801000A48752868320066
:10092000D2B212011044D0F8B801000C88752868C2
:100930003200D2B212011044D0F8B801000EC875CE
:1009400028683200D2B212011044D0F8BC010876F7
:1009500028683200D2B212011044D0F8BC01000A5B
:10096000487628683200D2B212011044D0F8BC0197
:10097000000C887628683200D2B212011044D0F8F8
:10098000BC01000EC8763000C0B2002803D1202080
:100990002A68D06002E020202A6810613000C0B2CE
:1009A000002818D195F83C00422804D0622806D0CF
:1009B000722808D00BE0122085F83C0023E032209A
:1009C00085F83C001FE0522085F83C001BE0012028
:1009D00085F83C0017E095F83C00522804D06228C6
:1009E00006D0722808D00BE0122085F83C000AE0FF
:1009F000222085F83C0006E0422085F83C0002E019
:100A0000012085F83C00002085F83D000020BDE86D
:100A1000F28300000300000400030008000003103C
:100A200081B02748006850F080502549086024486C
:100A3000006810F08050009000982248006850F440
:100A40008040204908601F48006810F480400090F2
:100A5000009801B0704710B586B004001422002140
:100A600001A800F03DF820681749884226D11448B3
:100A7000006850F00070124908601148006810F0DA
:100A80000070009000981148006850F001000F4974
:100A900008600E48006810F00100009000984FF4C4
:100AA000C050019002200290002003900320049087
:100AB0000920059001A9064800F01CF806B010BDF9
:100AC0004038024044380240006400403038024060
:100AD0000000024001480068704700BFB0000020DD
:100AE00010B5044610460A460146204600F054F967
:100AF000204610BDF8B40022002300240026002563
:100B0000102D80F012810122AA4013000A681A40B9
:100B100014009C4240F007814A68022A02D04A68C9
:100B2000122A1ED12A00D20800EB8202176A5FF057
:100B30000F0C15F00702D2B292001CFA02FC37EA41
:100B40000C07D1F810C015F00702D2B292001CFABF
:100B500002FC5CEA07073E002A00D20800EB820292
:100B6000166207685FF0030C2A00D2B252001CFA2A
:100B700002FC37EA0C0791F804C01CF0030C2A00B1
:100B8000D2B252001CFA02FC5CEA070707604A680E
:100B9000012A08D04A68022A05D04A68112A02D0E0
:100BA0004A68122A24D186685FF0030C2A00D2B268
:100BB00052001CFA02FC36EA0C06D1F80CC02A00DE
:100BC000D2B252001CFA02FC5CEA06068660426859
:100BD0005FF0010C1CFA05FC32EA0C02D1F804C0EB
:100BE000CCF3001C1CFA05FC5CEA0202170047600B
:100BF000C6685FF0030C2A00D2B252001CFA02FC55
:100C000036EA0C06D1F808C02A00D2B252001CFA0B
:100C100002FC5CEA0606C6604A68D20040F18380A6
:100C2000DFF83021126852F48042DFF828713A6010
:100C3000DFF82021126812F480420092009ADFF857
:100C400018212F00BF0852F827705FF00F0C15F025
:100C50000302D2B292001CFA02FC37EA0C07DFF85A
:100C6000FC20904201D100262DE03D4A904201D166
:100C7000012628E03B4A904201D1022623E03A4A6D
:100C8000904201D103261EE0384A904201D1042649
:100C900019E0374A904201D1052614E0354A9042C6
:100CA00001D106260FE0344A904201D107260AE01E
:100CB000324A904201D1082605E0314A904201D1E2
:100CC000092600E00A26F6B215F00302D2B292001D
:100CD00096403743204A2E00B60842F82670294A2B
:100CE0001268A2434E68F60300D52243254E3260B7
:100CF000254E3668A6434F68BF0300D52643224AD7
:100D00001660224A1268A2434F68FF0200D52243B0
:100D10001E4E32601E4E3668A6434F68BF0200D595
:100D200026431B4A16606D1CEAE6F1BC704710B5FD
:100D3000040018480068210089B2084207D020004A
:100D400080B214490860200080B200F058F810BD4D
:100D50000000000044380240083801400000024012
:100D60000004024000080240000C02400010024053
:100D70000014024000180240001C02400020024003
:100D800000240240003C0140043C0140083C01407A
:100D90000C3C0140143C014062F30F2262F31F42FD
:100DA000401810F0030308D0C91A1FD3DB0748BF4F
:100DB00000F8012D28BF20F8022D130030B414468E
:100DC0001546103928BF20E93C00FAD8490728BF4A
:100DD00020E90C0048BF40F8042D890028BF20F806
:100DE000022D48BF00F8012D30BC7047C91818BF4C
:100DF00000F8012DCB0728BF00F8012D7047704780
:100E0000F8B504000026002C01D1012037E220783B
:100E1000C00740F18480DFF83C06006810F00C0049
:100E200004280BD0DFF82C06006810F00C0008280E
:100E30000ED1DFF824060068400209D5DFF810065D
:100E4000006880036BD56068002868D1012016E235
:100E50006068B0F5803F08D1DFF8F405006850F411
:100E60008030DFF8EC15086038E06068002810D1A9
:100E7000DFF8DC05006830F48030DFF8D415086056
:100E8000DFF8CC05006830F48020DFF8C415086076
:100E900024E06068B0F5A02F10D1DFF8B405006839
:100EA00050F48020DFF8A8150860DFF8A40500687A
:100EB00050F48030DFF8981508600FE0DFF89005F7
:100EC000006830F48030DFF888150860DFF88005AE
:100ED000006830F48020DFF878150860606800282A
:100EE0000ED0FFF7F7FD0500DFF86405006880030A
:100EF00015D4FFF7EFFD401B6528F5D30320BEE1B5
:100F0000FFF7E8FD0500DFF848050068800306D517
:100F1000FFF7E0FD401B6528F5D30320AFE1207803
:100F2000800764D5DFF82C05006810F00C0F0BD09B
:100F3000DFF82005006810F00C0008281AD1DFF84F
:100F400018050068400215D4DFF804050068800722
:100F500004D5E068012801D0012090E1DFF8F00419
:100F6000006830F0F800216950EAC100DFF8E014B1
:100F700008603CE0E068002822D0DFF8D404006874
:100F800050F00100DFF8C8140860FFF7A3FD05006A
:100F9000DFF8BC040068800706D4FFF79BFD401B08
:100FA0000328F5D303206AE1DFF8A404006830F0D9
:100FB000F800216950EAC100DFF89414086016E0D7
:100FC000DFF88C04006840084000DFF884140860F3
:100FD000FFF780FD0500DFF878040068800706D57C
:100FE000FFF778FD401B0328F5D3032047E1207865
:100FF000000730D56069002816D0DFF86804006863
:1010000050F00100DFF85C140860FFF763FD050095
:10101000DFF85004006880071DD4FFF75BFD401B1C
:101020000328F5D303202AE1DFF8380400684008DC
:101030004000DFF830140860FFF74CFD0500DFF8D2
:1010400024040068800706D5FFF744FD401B0328F1
:10105000F5D3032013E12078400740F1A780DFF8A3
:1010600008040068C00010D4DFF8FC03006850F0EA
:101070008050DFF8F4130860DFF8EC03006810F02C
:1010800080500090009801200600DFF8E00300681F
:10109000C00516D4DFF8D403006850F48070DFF880
:1010A000CC130860FFF716FD0500DFF8C0030068E9
:1010B000C00506D4FFF70EFD401B6528F5D30320BD
:1010C000DDE0A068012808D1DFF8A403006850F033
:1010D0000100DFF89C13086037E0A068002810D1F9
:1010E000DFF88C03006840084000DFF884130860D4
:1010F000DFF87C03006830F00400DFF87413086048
:1011000023E0A068052810D1DFF86403006850F0E0
:101110000400DFF85C130860DFF85403006850F047
:101120000100DFF84C1308600FE0DFF844030068AB
:1011300040084000DFF838130860DFF83403006827
:1011400030F00400DFF828130860A068002810D0F1
:10115000FFF7C0FC0500DFF818030068800719D40A
:10116000FFF7B8FC401B41F289318842F3D30320DA
:1011700085E0FFF7AFFC0500DFF8F40200688007A8
:1011800008D5FFF7A7FC401B41F289318842F3D311
:10119000032074E03000C0B2012807D1DFF8C80294
:1011A000006830F08050DFF8C0120860A0690028A5
:1011B00064D0DFF8A002006810F00C0008285BD0B3
:1011C000A069022841D1DFF88802006830F0807001
:1011D000DFF87C120860FFF77DFC0700DFF8700283
:1011E0000068800106D5FFF775FCC01B0328F5D306
:1011F000032044E0E169206A0143606A51EA8011FA
:10120000A06A4008401E51EA0041E06A51EA0061CC
:10121000206B51EA0071DFF840020160DFF8300214
:10122000006850F08070DFF828120860FFF752FC69
:101230000500DFF81C02006880011FD4FFF74AFC9C
:10124000401B0328F5D3032019E0DFF804020068EF
:1012500030F08070DFF8F8110860FFF73BFC050004
:10126000DFF8EC010068800108D5FFF733FC401B74
:101270000328F5D3032002E0012000E00020F2BDA6
:1012800070B504000D000026002C01D10120A1E062
:10129000DFF8E001006810F00F00A84211D2DFF87B
:1012A000D4010068000900012843DFF8C811086074
:1012B000DFF8C001006810F00F00A84201D0012043
:1012C00088E02078800709D5DFF88801016831F0CF
:1012D000F001A0680143DFF87C0101602078C007BD
:1012E00039D56068012806D1DFF864010068800301
:1012F00012D401206EE06068022806D1DFF85001A8
:101300000068800108D4012064E0DFF8440100682F
:10131000800701D401205DE0DFF838010168890809
:10132000890060680143DFF82C010160FFF7D2FB00
:101330000600DFF82001006810F00C006168B0EBD7
:10134000810F08D0FFF7C6FB801B41F2893188422C
:10135000EFD303203EE0DFF81C01006810F00F001F
:10136000854211D2DFF80C01006800090001284312
:10137000DFF800110860DFF8FC00006810F00F00D3
:10138000A84201D0012025E02078400707D5314848
:10139000016831F4E051E06801432E480160207893
:1013A000000708D52B48006830F46040216950EAF6
:1013B000C1002849086000F00EF82F49254A12683C
:1013C000C2F30312895CC84025490860002000F080
:1013D00055F8002070BD30B4002100220023002405
:1013E0001C48006810F00C00002804D0042804D029
:1013F000082804D029E0194828E0184826E01648B3
:10140000006810F03F00010013480068400209D551
:101410001248B0FBF1F510480068C0F3881045434E
:101420002A0008E00D48B0FBF1F50B480068C0F356
:10143000881045432A0008480068C0F30140401C5A
:1014400040000300B2FBF3F000E0044830BC7047FA
:101450000038024008380240043802400024F400FA
:101460000000002074380240403802400070004004
:1014700070380240003C0240401A000810B50400D9
:10148000074800684FF47A71B0FBF1F000F099F86A
:10149000002221005FF0FF3000F077F8002010BD3F
:1014A0000000002010F0070349490A684FF6FF01C9
:1014B0000A4052EA032247490A4345490A607047F5
:1014C00043480068C0F302207047012210F01F015A
:1014D0008A40414903005BB25B0941F82320704711
:1014E00010B4020052B2002A09D50A013B4B040095
:1014F00064B214F00F04234403F8042C04E00A013E
:10150000374B040064B21A5510BC704770B4030026
:1015100013F00704D4F10700052801D3042001E0EB
:10152000D4F10700251D072D01D2002500E0E51E9E
:10153000012616FA00F0401E0140A940012010FAD1
:1015400005F56D1E2A401143080070BC704710B5A8
:101550000400601EB0F1807F01D301200EE0601E08
:10156000204908600F215FF0FF30FFF7B9FF00202E
:101570001D49086007201D490860002010BD10B5F6
:1015800004002000FFF78EFF10BD2DE9F04104009C
:101590000D0016000027FFF793FF80463200290058
:1015A0004046FFF7B3FF0100200040B2FFF798FF6D
:1015B000BDE8F08110B50400200040B2FFF785FFC0
:1015C00010BD10B504002000FFF7C1FF10BD0000E2
:1015D0000CED00E00000FA0500E100E018ED00E08D
:1015E00000E400E014E000E018E000E010E000E0BB
:1015F00080B500F029F900F051F800F0C7F800F0CC
:1016000096F840F201107B49086001207949486052
:1016100000207849886000207649C8600820754914
:10162000086174487449086374487349486300202A
:101630007349486100207249886101207049C8617E
:1016400000206F49086000206D49486000206C4907
:10165000886000206A49C86000206949086101204B
:10166000674908620E206649486265496248FEF78C
:1016700097FE02206049096B087505205E49096BD9
:10168000487503205C49096B887502205A49096B2B
:10169000C87505205849096B0876FEE700B593B078
:1016A0003422002106A8FFF71BFA1422002101A80A
:1016B000FFF716FA5348006850F08050514908600F
:1016C0005048006810F08050009000984E48006824
:1016D00030F4404050F480404B4908604A4800686C
:1016E00010F44040009000980220069001200990DC
:1016F00010200A9000200C9006A8FFF781FB00281C
:1017000001D000F08BF80F20019000200290002003
:1017100003900020049000200590002101A8FFF70D
:10172000AFFD002801D000F079F813B000BD80B5FE
:1017300036483149086002202F49486000202E4970
:10174000886000202C49C8605FF440202A49086165
:101750005FF48010284948610020274988610020F3
:101760002549C861002024490862002022494862B6
:1017700000202149886200201F49C8621E48FEF7E8
:101780003BFD002801D000F049F801BD80B586B0CE
:101790001422002101A8FFF7A3F91D48006850F0AA
:1017A00004001B4908601A48006810F0040000900B
:1017B00000981748006850F0010015490860144867
:1017C000006810F00100009000984FF40050019064
:1017D000104802900020039001A90F48FFF78AF9F2
:1017E000002200212820FFF7D0FE2820FFF7E2FE8C
:1017F00007B000BD9400002004000020700000200D
:101800004800002040380240007000400064004062
:1018100030380240000011100008024070470EE00E
:1018200002684368024408305FEAC37C44BF4B440B
:101830005B1E52F804CB43F804CB091FF9D150F8D2
:10184000041B0029ECD1704780B50320FFF797FEF9
:101850000020FFF713FEFFF7E3F8002002BD0000B1
:101860001248006850F47000104908601048006881
:1018700050F001000E49086000200E4908600C4835
:1018800001680D4801400A4801600C480C49086095
:101890000748006830F480200549086000200949A5
:1018A00008605FF0006008490860704788ED00E05C
:1018B0000038024008380240FFFFF6FE10300024D6
:1018C000043802400C38024008ED00E07047FEE7A3
:1018D000FEE7FEE7FEE770477047704780B500F00F
:1018E00021F801BD80B500200B49884201DA401C77
:1018F000FAE764210948FEF7DFFD6422002107486A
:10190000FEF71CFF06480078401C054908704FF49C
:101910000050FFF70CFA01BD20A1070004000020D1
:10192000B400002002480068401C0149086070476C
:10193000B000002030B4002512E050F8042BD3078B
:1019400044BF4A44521E091F042942F8045BFAD2DC
:1019500013468C0744BF15809B1CC90748BF1D70E8
:1019600050F8041B0029E8D130BC704710B5074976
:1019700079441831064C7C44163404E00A68081D8A
:10198000114488470146A142F8D110BD2C00000047
:101990004C0000004EF68851CEF20001086840F479
:1019A00070000860BFF34F8FBFF36F8F4FF0007070
:1019B000E1EE100A704700007DFFFFFFB400000059
:1019C000040000200000000057FEFFFF040000009C
:1019D0003C020000000000200000000000F00DF8B4
:1019E000002801D0FFF7C2FFAFF300800020AFF363
:1019F0000080FFF7FDFD00F002F80120704700F0C5
:101A000001B800000746384600F002F8FBE7000086
:101A100080B5AFF30080024A11001820ABBEFBE78F
:101A2000260002000548014603B4684680F3098891
:101A3000AFF30080FFF7AEFFFFF7D0FFA5EDF5FE97
:101A4000000000000000000001020304060708096E
:101A5000014880470148004761180008251A00081E
:101A6000FFF7FEBFFFF7FEBFFFF7FEBFFFF7FEBFAA
:101A7000FFF7FEBFFFF7FEBFFFF7FEBFFFF7FEBF9A
:101A8000FFF7FEBFFFF7FEBFFFF7FEBFFFF7FEBF8A
:101A9000FFF7FEBFFFF7FEBFFFF7FEBFFFF7FEBF7A
:101AA000FFF7FEBFFFF7FEBFFFF7FEBFFFF7FEBF6A
:101AB000FFF7FEBFFFF7FEBFFFF7FEBFFFF7FEBF5A
:101AC000FFF7FEBFFFF7FEBFFFF7FEBFFFF7FEBF4A
:101AD000FFF7FEBFFFF7FEBFFFF7FEBFFFF7FEBF3A
:101AE000FFF7FEBFFFF7FEBFFFF7FEBFFFF7FEBF2A
:101AF000FFF7FEBFFFF7FEBFFFF7FEBFFFF7FEBF1A
:101B0000FFF7FEBFFFF7FEBFFFF7FEBFFFF7FEBF09
:101B1000FFF7FEBFFFF7FEBFFFF7FEBFFFF7FEBFF9
:101B2000FFF7FEBFFFF7FEBFFFF7FEBFFFF7FEBFE9
:101B3000FFF7FEBFFFF7FEBFFFF7FEBFFFF7FEBFD9
:101B4000FFF7FEBFFFF7FEBFFFF7FEBFFFF7FEBFC9
:101B5000FFF7FEBFFFF7FEBFFFF7FEBFFFF7FEBFB9
:101B6000FFF7FEBFFFF7FEBFFFF7FEBFFFF7FEBFA9
:101B7000FFF7FEBFFFF7FEBFFFF7FEBFFFF7FEBF99
:101B8000FFF7FEBFFFF7FEBFFFF7FEBFFFF7FEBF89
:101B9000FFF7FEBFFFF7FEBFFFF7FEBFFFF7FEBF79
:101BA000FFF7FEBFFFF7FEBFFFF7FEBFFFF7FEBF69
:101BB000FFF7FEBFFFF7FEBFFFF7FEBFFFF7FEBF59
:101BC000FFF7FEBFFFF7FEBFFFF7FEBFFFF7FEBF49
:101BD000FFF7FEBFFFF7FEBFFFF7FEBFFFF7FEBF39
:101BE000FFF7FEBFFFF7FEBFFFF7FEBFFFF7FEBF29
:101BF000FFF7FEBFFFF7FEBFFFF7FEBFFFF7FEBF19
:101C0000FFF7FEBFFFF7FEBFFFF7FEBF0024F400A3
:0400000508001A25B0
:00000001FF
