:020000040800F2
:1000000030050020D12F0008493100084B3100088D
:1000100000000000000000000000000000000000E0
:100020000000000000000000000000004D3100084A
:1000300000000000000000004F31000851310008AE
:100040002F11000800000000CF120008D31700088D
:10005000D7170008071F0008872F00080F31000876
:10006000000000001B310008613100086331000806
:1000700065310008673100080000000069310008A0
:100080000000000000000000000000000000000070
:100090006B31000800000000000000006D31000816
:1000A000000000006F3100080000000000000000A8
:1000B00071310008733100080000000000000000EA
:1000C000FDB5B2B03A98049102A93B2288540020B1
:1000D0000D9022A8401C2F900DE00498329A904772
:1000E0000490002801D100F0F5FE0D98401C0D9001
:1000F0003398401C33903398017800290BD0252980
:10010000EBD100200790089009900A900B900C907A
:100110000021339805E00D9800F0DEFE0A00012171
:100120001143401C0278202AF8D0232A0CD02B2A15
:1001300004D02D2A05D0302A09D00BE00A00022174
:10014000EEE70A000421EBE70A000821E8E70A00CD
:100150001021E5E72A2A0FD1349A13681A681B1D6B
:10016000349C23600F92002A04D553420F930A0057
:1001700004211143441C13E000220F92654A09E058
:100180000F9B934205DA9D00EB185B001B19303B77
:100190000F93401C04782300303B0A2BF0D304005B
:1001A00020782E2803D00020C0430E9027E0641C46
:1001B00020782A2808D1349800680268001D349BF2
:1001C00018600E92641C1AE02D2802D12D22641CA6
:1001D00000E0002200200E900CE0130009D10E9BDD
:1001E0004C4DAB4205DA9D00EB185B001818303817
:1001F0000E90641C20780300303B0A2BEDD302A83C
:1002000001872578290041487844FF30401C00F0E0
:1002100049FF002801D0641C00E0002502A83A2113
:100220004554405C682804D1207868280BD16220AE
:1002300005E06C2807D120786C2804D1712002A930
:100240003A228854641C13A80690207869460870E6
:10025000601C3390684602781000253833D01C3873
:1002600000D115E2001F022800D811E2133801D195
:1002700000F05CFD093800D10AE2801E01D100F0D7
:10028000F1FD401E01D100F09EFD401E022800D865
:10029000FEE1001F01D100F096FD401F00D151E1A9
:1002A000401E01D100F042FD401E00D1F2E0C01E10
:1002B0000FD0801E01D100F039FDC01E01D100F029
:1002C00035FD00F0DAFD252013A90870012000F0AB
:1002D000DFFD349800680468001D349908600594B7
:1002E000002C00D0C2E002A83B21405C002800D1D5
:1002F000B5E00024E44306487844143000F0E0FE02
:10030000201A01D000F0E6FD00F0C3FD102C000023
:10031000442C0000CBCCCC0C01236A4602A9280057
:1003200000F0A5FE002801D000F0D4FD641EF3D13A
:100330003295079D13AC002D0FD0329E227802A972
:10034000300000F083FE002802D4641C6D1EF5D13D
:100350003296002801D000F0BDFD302069460870BB
:100360000A9C002C0DDD329D01236A4602A928005B
:1003700000F07DFE002801D000F0ACFD641EF3D13A
:100380003295059C089D002D0FD0329E227802A93F
:10039000300000F05BFE002802D4641C6D1EF5D115
:1003A0003296002801D000F095FD302769460F7085
:1003B0000B9C002C0DDD329D01236A4602A928000A
:1003C00000F055FE002801D000F084FD641EF3D13A
:1003D0003295059808994418099D002D0FD0329E3A
:1003E000227802A9300000F031FE002802D4641CFB
:1003F0006D1EF5D13296002801D000F06BFD6846E5
:1004000007700C9C002C0DDD329D01236A4602A969
:10041000280000F02CFE002801D000F05BFD641ED7
:10042000F3D1329502A83821405C400700D462E63F
:100430002020694608700198002800DC5BE6019CDA
:10044000329D01236A4602A9280000F010FE002810
:1004500001D000F03FFD641EF3D132954BE63F48DA
:100460007844FF30C01F059000F013FD0E9D002D55
:1004700003D5200000F048FE09E02A0000212000FA
:1004800000F04AFE002801D0001B00E02800089080
:1004900000F0FFFC349800680268001D3499086081
:1004A0000020C0430021104002AA03C213A80590F7
:1004B000069A3C2302A803C8002904D1002802D1CF
:1004C0000E9C002C15D05B1E05072D0F3035EEB2AB
:1004D0003A2E08DAD55400090C072043090904D143
:1004E000002802D105E02735F4E7059CD518AC4279
:1004F000E9D33C20C01A0890D11805910E99884282
:1005000008DA081A0A9002A8018FA94A0A4002874D
:1005100000F0BFFC002901D400F0BBFC02A9382286
:10052000895C14220A40102A01D000F0B2FC0F9915
:10053000079A891A0A9A891A081A002801DC00F019
:10054000A8FCF1E302A83B21415C002908D000246B
:10055000E4434B487844FF302930CFE6142A0000AA
:100560003A21405C62286AD0682819D06A2845D0B0
:100570006C2806D071284FD0742831D07A2821D029
:100580006FE0349800680168001D349A10600029FB
:100590007AD10024E4433B487844FF301738ADE675
:1005A000349800680168001D349A1060002905D154
:1005B0000024E44333487844CA309FE60D9808800D
:1005C00000F067FC349800680168001D349A1060E0
:1005D000002959D10024E4432A487844A6308DE606
:1005E000349800680168001D349A106000294BD1CE
:1005F0000024E443234878448A307FE63498006836
:100600000268001D34990860002A13D10024E443D5
:100610001C4878446E3071E6349800680268001D0A
:1006200034990860002A05D10024E4431548784431
:10063000523063E60D98C11703C200F02AFC3498CB
:1006400000680168001D349A1060002905D100245B
:10065000E4430C4878442C3050E60D98087000F0C4
:1006600018FC349800680168001D349A1060002955
:100670000AD10024E4430348784408303EE600BF32
:10068000A4280000B82800000D98086000F001FCC4
:1006900034980368DB1D072083433498036003CB41
:1006A000349C236002AB03C32023C80F04D00798F7
:1006B0002D2113AB19540DE002A8008F810704D53A
:1006C00007982B2113AB195404E0C00704D50798F1
:1006D00013A90B54401C079013A8079943180593BE
:1006E00022AD02A8C0C868460078202101436846B0
:1006F0008170612909D00E98002801D5062003E0F9
:1007000003D1672901D101200E9002A803C8080077
:100710004C006415641C0ED109030CD00320089012
:10072000613A1A2A03D22349794488310FE02249D9
:10073000794484310BE0002C0ED100030CD103204E
:100740000890613A1A2A1DD31C4979446E3103225C
:10075000180000F007FD9CE301AA02A803C800F0FE
:100760000EFD02AA03C268468078612813D105985D
:1007700030210170811C059169460978612905D1F4
:10078000782104E00E4979443631E0E75821417080
:100790000798801C079002A803C893A20CCA0240C5
:1007A0000B400FD1002A0DD10024002661E100BFCB
:1007B000EFFF0000C0270000C0270000C427000092
:1007C000BC27000068468078612800D099E00E9828
:1007D000002801D5212000E0401C12901298401CF6
:1007E0002C90300039000022002300F0DDFC02A82C
:1007F00030C802D28020000645400198001F0190B9
:1008000022A90A7022A8461C2C98002832DD2C9FB1
:1008100020002900002280235B0300F0DEFC29D8A1
:100820001C2200F0F3FC04000D0000F027FD2C90CA
:10083000FF1F002F09DD00F05BFD02000B00200010
:10084000290000F0BCFD04000D00F01D07212C9ACA
:10085000002A0ADD491E08D4401E13071B0F03702F
:100860001211F5E7401E00220270491EFAD5C61D7E
:10087000002FCDDC22A82F99711A22AA551C129A9A
:100880000C00914200DD1400002C33D48C4205DAB8
:10089000411C095D082901DB0F2100E00021220035
:1008A00022AB9B1801E0641E5B1E521E1E788E4216
:1008B000F9D00F2904D1411C895C491C401C81548A
:1008C000002A04D522AD641C0198001D0190611E10
:1008D00010D46A186846007813783033DEB23A2EA6
:1008E00001DBC318C6331370491E521E0029F3D50D
:1008F000694608700E98002800D4B9E0601E0E907A
:10090000B6E07F007F08019868494843684900F0D5
:10091000CDFD019007200199401A002805DD020055
:100920003000390000F06CFB0AE0424200206149CF
:1009300000F066FB02000B003000390000F0E5FD1E
:100940006A469278662A02D1019A0A3200E00622AB
:100950000E9B9A18142A00DD142222AB30241C703E
:100960005C1C02E030A803C8129A002A40DD30ABBC
:1009700003C3129230A803C800F092FC2C900646E4
:100980000834042530000A2100F0A4FD0F003000D7
:100990000A2100F09FFD06003037601E077030000E
:1009A0000A2100F097FD0F0030000A2100F092FDAF
:1009B0000600A41E303727706D1EE3D1083412984C
:1009C000083812900028CDDD2C9800F081FC020040
:1009D0000B0030A803C800F0F2FC0022364B00F0F8
:1009E000F5FD30AA03C2C5E7FFFFFFFFFFFFFF7F52
:1009F0002F98201A22A94D1C04E0401E0199491E7F
:100A000001916D1C29783029F7D0694689786629CB
:100A100002D10199491C06E069468978652901D10E
:100A2000012100E000210E9A5418A04200DA441E71
:100A3000002C1DD4844204DA285D342801DD3921DC
:100A400000E030212200681E831801E0641E5B1E56
:100A5000521E1E788E42F9D0392902D1A95C491C58
:100A6000A954002A04D50500641C0198401C01907B
:100A7000019E1295684600786946487000F068FE4D
:100A8000406A0078694608700E9D20B2002804DC98
:100A90000124054878441030129068468078662812
:100AA0000CD1761C23E000BFDC2400009775000009
:100AB000A08601000000F03F84D797416846807807
:100AC000672844D130B20321C943884245DBA8429C
:100AD00043DA761C02A83821405C000703D420B218
:100AE000A84200DC050030B22D1A00D5002537B22F
:100AF000002F00DDB7E00898411C08913021059ACD
:100B00001154002D04DC02A83821405C000706D5F2
:100B10000898411C089169460978059A1154784251
:100B2000854200DA6E4236B270420B90AD1920B2A7
:100B3000854200DA2C0024B209942200129905980B
:100B4000089BC01800F00EFB281B0C90D6E06846EE
:100B50004078612817D170201AE020B2A84205DA47
:100B600002A93822895C090700D405006D1E00D552
:100B7000002568464078672802D16520694607E06D
:100B80004520694604E068464078412801D150205C
:100B900048700898411C089112990978059A1154D7
:100BA0001298411C002D04DC02A83822805C00074A
:100BB00019D50898421C08926A461278059B1A5467
:100BC000002D10DD641E20B2854200DA2C0022B216
:100BD0000598089BC01800F0C5FA24B208980019BF
:100BE0000890281B0B900598089940186946497889
:100BF000017031B2002903D42B214170871C03E01E
:100C00002D224270871C4E4200242CAD300008E09B
:100C10000A2100F04BFC30AA03C229703098641CF2
:100C20006D1C00B20028F3DC012C08DC684640781B
:100C300020210143652902D1302038707F1C002C0F
:100C400009D1302038707F1C07E0641E2CA8005D9D
:100C5000303038707F1C002CF7DC0598089940185C
:100C6000381A09904AE020B231B288421CDA22B226
:100C700012990598089BC01800F074FA24B20898DD
:100C800000190890391B0B91002D04DC02A93822B1
:100C9000895C090706D569460978059A11540998AF
:100CA000401C09900C9529E032B212990598089BD6
:100CB000C01800F057FA0898C0190890A41B002D1E
:100CC00004DC02A93822895C090705D5411C08917A
:100CD00069460978059A115420B2854200DA2C0041
:100CE00022B21298C1190598089BC01800F03AFA70
:100CF00024B2089800190890281B0B9002A83821EC
:100D0000405C14210140102900D0C2E007980899E6
:100D100040180B994018099940180C9940180F99E0
:100D2000884200DBB5E0081A0A90B2E002AA3A2035
:100D3000105C622808D068280ED06A2814D06C286D
:100D40001DD0712810D01AE0349801680868091D78
:100D5000349B1960C0B218E0349801680868091D16
:100D6000349B196080B210E034980368DB1D0720C3
:100D700083433498036003CB349C236006E03498AB
:100D800001680868091D349B1960002102AB03C388
:100D90003820105C00075BD502A803C8002901D1E8
:100DA000002855D0684600782021014378294FD18A
:100DB000079813A930220A54401C421C07926A4625
:100DC00012780A5444E002AA3A20105C622808D043
:100DD00068280ED06A2814D06C281DD0712810D035
:100DE0001AE0349801680868091D349B196040B204
:100DF00018E0349801680868091D349B196000B236
:100E000010E034980368DB1D0720834334980360A7
:100E100003CB349C236006E0349801680868091D00
:100E2000349B1960C11702AB03C3002902DA07988B
:100E30002D2109E0108F810702D507982B2103E0AF
:100E4000C00705D50798202113AA1154401C07900C
:100E500013A80799401805906846017802A800F089
:100E60003DF816E001200790349800680168001DE5
:100E7000349A106013A801700BE0252013A90870A4
:100E80000120079068460078002802D04A700220AE
:100E900007900F980799401A0A99401A0899401A22
:100EA0000B99401A0999401A0C99401A019002A80E
:100EB0003821405C400701D5FFF73BFA2020694606
:100EC00008700198002801DCFFF733FA019C329D7D
:100ED000FFF722FA0020C04335B0F0BDF2B586B06E
:100EE000040025696F2901D1082707E00846202161
:100EF0000143782901D00A2700E010273C2603CCC3
:100F0000083C04AA03C26A46127E642A03D06A46D9
:100F1000127E692A09D1002907DA04A803C8002231
:100F20000023121A8B4104A80CC004A803C800298E
:100F30000DD100280BD1206B002808D1082F3DD1FE
:100F40003820205C000739D53B26302035E002945C
:100F5000009504A830C8761E0196200029003A00AA
:100F6000FB1700F0FBFB3032D0B23A280DDA0098C4
:100F70008255200029003A00FB1700F0EFFB040027
:100F80000D0007D1002C05D10AE06846007E8218CA
:100F9000AF32ECE70298C068009989198842DAD329
:100FA000029C009D082F09D13820205C000705D540
:100FB000A85D302802D0761E3020A8553C20801B2A
:100FC000A061A919E160216B884206DA081A206243
:100FD000208F1C490140218710E000290ED53821BF
:100FE000615C14220A40102A08D1616B6269891A77
:100FF000226A891A081A002800DD206207B0F0BDB5
:10100000F8B50026104F04000D00009214E0C00750
:1010100007D532003B002000290000F0D7FA040079
:101020000D000098401000903000390032003B0065
:1010300000F0CCFA06000F0000980028E7D120004D
:101040002900F4BDEFFF00000000244010B50300AC
:101050000C001100A0689847A060002804D0E06A46
:10106000401CE062002010BD0020C04310BDF8B558
:101070000024002B11D007000E0014001D00217861
:10108000B068B847B060002809D0F06A401CF06230
:101090000020641C6D1EF2D104002000F2BD00206F
:1010A000C043F9E7C9B202788A4203D0401C002A43
:1010B000F9D1002070470268531C0360117070471B
:1010C00080B5002801D100BF07A006490B68002B9E
:1010D00003D022220021984701E000F074FB222077
:1010E00002BD000028010020636F6E737472616995
:1010F0006E742068616E646C65723A20626164206F
:101100006D65737361676500431C0178401C09427B
:10111000FBD1C01A70472E00C9B2521E05D3037806
:10112000401C8B42F9D1401E704700207047FEE7FB
:1011300070B4103A03D378C9103A78C0FBD2530781
:1011400001D318C918C001D508C908C0D20704D3F3
:101150000B880380891C801C002A01D50B78037042
:1011600070BC70478B0701D18307E1D0124205D0D4
:101170000B78491C0370401C521EF9D1704710B502
:10118000144600F002F8226010BD4A0053155B1CA3
:1011900008D0520D06D003231B02FE3AD21A1305C3
:1011A000C91A70470022704730B4012464054D000D
:1011B000EC420BD85D00EC4208D80C001C436400E4
:1011C0000443144304D2994200D1904230BC70478A
:1011D000FCD08B42FAD18242F8E730B40124640596
:1011E0004D00EC420BD85D00EC4208D80C001C43CB
:1011F00064000443144304D28B4200D1824230BCC9
:101200007047FCD09942FAD19042F8E7124217D4C5
:101210000023DB435B0D9C464B005B0D06D0634512
:1012200004D09B18634502D21205891870476246A4
:10123000090D11430905002000B500BF00BF00BD26
:1012400052424B005B0DF1D05B1C5B05EED25B0D97
:10125000934102D91205891A70470BD10B031B1356
:10126000C90FC907821C002043411343E4D912056A
:101270001143E1E7C90FC9070020DDE7F4464A182A
:1012800005D200F00FF801D580174008604700F044
:1012900009F80121C907884200D908004042604787
:1012A0004A1812D2400DC90208430121C907084358
:1012B000520D40210901521A521C06D452421F32CB
:1012C00001D4D0407047C017704700207047FEE738
:1012D000010042221201D21E004207D002D4521E47
:1012E0000018FCD5C10A4005120589187047000096
:1012F0000100EED54042F446FFF7EBFF0122D20792
:10130000114360478B4200D1824205D984461000C8
:1013100062468C4619006346DF184C18640D7F0D39
:101320003AD0661C760537D0E61B352E34DCDB025E
:101330002B43DB0A0C0DC9022943C912202E0DDBF9
:101340001700203E06D01F00F741F3405F40002603
:10135000012A7741C01871410DD217E01700F741FB
:10136000F2405740F3415A40B340F3405A40002600
:10137000801859410AD3A21C52050FD0C207012F71
:10138000724117004008CB0718434908641C240524
:101390004208AF4170416141F0BC7047641C2105B7
:1013A0000020F9E76B4010E06B40ABE7F742F3D168
:1013B000E943F1E72442EFD100200021ECE7F0B44B
:1013C0000125ED070F005F40EED40C00871A9C4109
:1013D00005D2C01BA141D219634169406B40AE0ADE
:1013E000DF184C18F442E1D2640D7F0DE2D0E61B09
:1013F000362ED1DCDB022B43DB0AA4460C0DC902DE
:101400002943C90A012E28DC04D1D6075208DF0778
:101410003A435B08EF0A76429041994114D0394231
:101420003BD1B61940414941761C394204D1761C62
:10143000001849413942FAD0B9436746B74208D942
:10144000A41B24052143A7E70042EAD13642E8D194
:10145000A2E7E40AE10700209EE7202E0BDD203EF4
:101460001F00F340F7415F40012A002257417E42AE
:10147000984191410BE01700F741F2405740F3418A
:101480005A40B340F3405A407E42904199410A038A
:1014900003D2641EB619404149410027641E240549
:1014A0004208AE4178416141F0BC7047CA0F00D09C
:1014B000494203105A400DD004B500D3404200F019
:1014C00009F8009AD20701D34942124200D540429E
:1014D00004BD0000094214D088420FD30122030C3E
:1014E00001D100041204002300185B418B4200D399
:1014F0005B1A5241F8D31900100070470100002018
:10150000704708B500F064F908BDF0B40E005E4005
:101510000125ED072E40B446AE0ADF184C18F44200
:101520003BD2F74241D2640D43D07F0D38D0E41B4B
:10153000C902DB0229432B43CF0ADB0A0600B61A95
:101540009F4104D2641EB6197F41B6185F416812EC
:10155000800D24180018844222DAE80C0021B61904
:101560007F41B61A9F4102D2B6185F413F1C4041ED
:101570004941F4D3241C21DD2405B6197F41B61A54
:101580009F4105D33743C60737430026012F7041DB
:10159000614166463143F0BC7047FCD1F74205D249
:1015A0000020C14349054908F3E704D00020C143A6
:1015B000F1E77F0DFAD000206146ECE72442FAD132
:1015C000401C61410F03F6D30020E2E7F0B50E00A6
:1015D0005E400125ED072E40B446AE0ADF184C18D8
:1015E000F44208D2F7420ED2640D01D07F0D12D121
:1015F00000206146F0BD05D1F74201D87F0D05D12D
:101600000020C143F0BDFBD1640DF9D00020C143DF
:10161000490549088FE0E419C902DB0229432B433D
:10162000DB0A460DC00231438E4630B487B295B214
:101630007D432E0CADB2140C7C43A419260C24045B
:1016400025439CB27C43A419190C7943270CC91972
:10165000A4B20F043C43090C000C97B247432E0C74
:10166000BE193543ADB2170C4743360CBF19A6B2AD
:10167000BF193E043543240C3E0C36199FB2474334
:10168000BF19BCB23E0C89191F0C47437F183E049A
:101690003443390C704680B297B247432E0CBE19C2
:1016A0003543ADB2170C4743360CBF19A6B2BF196C
:1016B0003E043543240C3E0C36199FB24743BF19F4
:1016C000BCB23E0C89191F0C47437F183E043443BB
:1016D000390C77463F0C90B278432E0C80190604E3
:1016E000ADB22E43050CA0B22D18120C7A4350193E
:1016F000020C80B2240CA4189AB27A431219140472
:101700002043120C89181B0C7B43C91830BCEF0A0C
:10171000394203D1B61940414941641E6F12BF0DD1
:10172000E41B0BDBFF19BC4211DA24050027420839
:10173000AE417841614166463143F0BD641C05D13C
:10174000401C6141CF0201D34908F4E750E75DE74F
:10175000014870470000000010000020124224D011
:10176000994228D970B500251B4202D00C000021F7
:1017700009E00024012649186441944200D3A41AC8
:101780007641F8D33100012601E0764109D20018F4
:1017900064416D41A41A9D41F7D2A4185D41B61968
:1017A000F5D3300022002B0070BD1B42D8D108B504
:1017B00000F010F808BD01D19042D3D202000B0016
:1017C00000210020704780B5012000F005F801BD20
:1017D0007047FEE77047FEE780B500BF00BF024AD2
:1017E00011001820ABBEFBE726000200FEB5060084
:1017F00060D0BB4CE0680C2101400091E068802182
:101800004902084001903078C0070ED54F0000987B
:10181000082804D00C2872D1019888426FD1206822
:10182000074002D07068002844D03078800733D554
:10183000F0682021084204D0226811432160202151
:101840008843BB4F0921C943009A042A05D00C2ABA
:1018500001D1019A002A00D08CE02268520701D5FC
:10186000002827D062681740326912023A4362604A
:10187000226811400843206000F0A4FAAD49E268F4
:101880001206120F895CC840BC490860BC48006859
:1018900000F0F8FA010031D1A70D3078C00600D46D
:1018A000B4E00098002800D091E02068800503D5BE
:1018B000B069002800D1A4E16068B2490140306AF3
:1018C0000843606060680002000AF169090601438C
:1018D00061600120316A490B491C8840C003954969
:1018E000E2681206120F895CC840A4490860A44847
:1018F000006800F0C7FA010000D187E0FEBD706803
:10190000884201D1206809E0A021C90288422068EC
:1019100006D17900014321602068790801430AE07B
:10192000BA49014021602068790808400290029875
:101930002068B74901402160706800280DD000F090
:10194000C3FA05002068384000D06EE700F0BCFA0A
:10195000401B6528F6D30320FEBD00F0B5FA050054
:101960002068384000D160E700F0AEFA401B6528DF
:10197000F6D3F0E704220192002817D02268114024
:101980000843206000F0A0FA05002068019901409A
:1019900005D100F099FA401B0228F6D9DBE7606810
:1019A0000740306900023843606075E72068012114
:1019B0008843206000F088FA050020680199014002
:1019C000F3D000F081FA401B0228F6D9C3E7B069D2
:1019D0000028206830D03843206000F075FA0500F8
:1019E0002068800505D400F06FFA401B0228F7D963
:1019F000B1E7606863490140306A0843606060682D
:101A00000002000AF16909060143616030780007AD
:101A100030D570690028206D1DD00121014321655A
:101A200000F052FA0500206D800723D400F04CFA34
:101A3000401B0228F7D98EE776490140216000F06B
:101A400043FA050020688005E0D500F03DFA401B10
:101A50000228F7D97FE701218843206500F034FA96
:101A60000500206D800705D500F02EFA401B0228E6
:101A7000F7D970E73078400765D500200190380528
:101A8000A16B014004D1A16B0843A0630120019028
:101A900061480068384011D15F48006838435E49AA
:101AA000086000F011FA05005B480068384005D175
:101AB00000F00AFA401B6528F6D34CE7B168B9423A
:101AC0000AD0564800290DD0A022D200914209D157
:101AD000206D210D01432165206D0743276508E036
:101AE00000100240216D4B4A0A402265216D0840DA
:101AF0002065670DB06800280CD000F0E5F90500FE
:101B0000206D384018D100F0DFF9401BA949884208
:101B1000F6D320E700F0D8F90500206D38400BD04F
:101B200000F0D2F9401BA3498842F6D313E700BF67
:101B3000FFE0FFFFC83000080198002803D0A06B29
:101B40009D490140A163706A00285CD000990C296E
:101B500042D08027BF049949022820682ED1014035
:101B6000216000F0B1F90500206838400CD000F089
:101B7000ABF9401B0228F7D9EDE600BF0C000020AE
:101B800008000020FF1FFFFFE0688D490140B06A98
:101B90000843F16A0143306B0843E060206879082C
:101BA0000143216000F090F90500206838402AD1F7
:101BB00000F08AF9401B0228F7D9CCE601402160E9
:101BC00000F082F90500206838401CD000F07CF954
:101BD000401B0228F7D9BEE6012812D0E068802118
:101BE00049020140B26A91420BD1F02189030140C0
:101BF000F26A914205D1C02109040140306B814253
:101C000001D00120FEBD0020FEBD00BFFFFFFEFF92
:101C1000FFFFFBFFFFFEFFFF00700040FFFBFFFF29
:101C2000F1B582B000285CD00091624F8648006810
:101C3000C107C90F0098814217D2834C2068012147
:101C4000884300990143216000F03EF9009D0600A1
:101C50002068C107C90FA94206D000F035F9801BE2
:101C6000B842F5D30320FEBD00957A4C0298007867
:101C7000800706D5E068F02188430299896801430E
:101C8000E1603E4602980078C0074DD50298406852
:101C9000022819D12168890323D5E16803229143E1
:101CA0000843E06000F010F90700029840680C2536
:101CB000022818D1E0682840082835D000F004F93F
:101CC000C01BB042F6D3CDE7032802D121688901B9
:101CD00003E00128216802D14907DED401E089052B
:101CE000DBD40120FEBD032809D1E06828400C2880
:101CF0001AD000F0E9F8C01BB042F6D3B2E70128D1
:101D000009D1E068284004280ED000F0DDF8C01B9F
:101D1000B042F6D3A6E7E068284005D000F0D4F83A
:101D2000C01BB0429ED2F6E7009847490968CA072F
:101D3000D20F904215D2444D286801218843009962
:101D40000143296000F0C0F807002868C107C90FE7
:101D50000098814205D000F0B7F8C01BB042F4D320
:101D600080E702980078400706D5E0683A490140CC
:101D70000298C0680843E06002980078000707D521
:101D8000E0683649014002980069C0000843E060FD
:101D900000F018F83249E2681206120F895CC84058
:101DA000304908603048006800F06CF8010000D14C
:101DB0000020FEBD89130000FFFFFFEFFFFFFFFEC5
:101DC000FFFF02FF50B5234AD16810230C200840C2
:101DD000042804D0082809D00C2809D023E0106872
:101DE000034001D0224850BD224850BD224850BD7A
:101DF00022488C02240F005D09028C0F641C002114
:101E0000D668F60301D51C4A03E01268134002D0DD
:101E1000174A002300E0174A00F05CF82200002374
:101E2000FFF79CFC50BD506801210004400F401C8E
:101E30008140C80350BD0B48006811490B4A126825
:101E4000520503E00000000000200240520F895CB0
:101E5000C840704700100240FFF8FFFFFFC7FFFFB8
:101E6000C83000080C000020080000200C100240C0
:101E700000093D000024F40000127A00D830000868
:101E80005831000838B505000D4CFA208000217843
:101E9000FFF720FB01000B480068FFF71BFB00F079
:101EA00054F800280AD1042D08D20022290000206D
:101EB000C04300F046F8A560002032BD012032BDCD
:101EC000000000200C00002001484068704700BF5F
:101ED0000000002030B4434351435D18010C0C0056
:101EE000130C5C432D1980B2434392B2514300243A
:101EF000C918644124040B04090C09195043C01883
:101F0000694130BC7047FEE710B5C200182313408A
:101F1000FF249C40E2438907090E9940030004D442
:101F200014489B089B00C01806E0134B0007000FE5
:101F3000083880088000181803681A4011430160AF
:101F400010BD80B5FFF7E0FF01BD10B5401E802138
:101F50004904884201D3012010BD084C6060032170
:101F60000020C043FFF7D0FF0020A06007212160C0
:101F700010BD000000E400E01CED00E010E000E017
:101F800038B5040014D0250074356868002803D1E2
:101F90002870200000F0D2FA2420686020680168D0
:101FA000012291430160200000F09DF8012801D139
:101FB000012032BD606A002802D0200000F082F9C2
:101FC00020684168084A0A404260206881682A22E5
:101FD00091438160FFE72068016801220A430260A3
:101FE000200000F0DBF932BDFFB7FFFFF1B584B090
:101FF0001C00743001904068202871D10D000FD072
:1020000068460280002A0BD080277F0104988068F0
:10201000B84207D104980069002803D1E80701D528
:1020200001205EE004987421405C012858D0012012
:102030000199087000260198C66021200199486026
:10204000FFF742FF04995031029169460988029ACC
:10205000118069460988029A518004998968B942B9
:1020600003D104990969002901D029000025019AAA
:102070001670049E029407000C0010E02178816223
:10208000641C07E03068002CF8D12988C905C90D07
:102090008162AD1C300050304188491E41803000C3
:1020A0005030408800280AD0029800903B0000225F
:1020B0008021300000F0A2F90028E3D009E03000D0
:1020C0003B00029900910022402100F097F900287E
:1020D00001D0032005E0202001994860002000E0A5
:1020E000022005B0F0BDF1B582B000240568286873
:1020F00071490140029880680843029909690143C7
:102100000298406908430299C969014329606868D7
:102110006A4901400298C068084368600298806973
:10212000674FBD4203D001000298006A0843A968C6
:10213000964A0A401043A860954B10269548854260
:1021400028D1D86C0C21014036D0042938D0082978
:1021500034D00C2936D0102000908F488108F2022C
:10216000BD424AD1009D002D06D0022D2CD0042D59
:102170002FD0082D30D097E0FFF75DFE00284ED01D
:1021800002994A6851008918884202D3110381429A
:1021900024D289E0BD42DED1D86CC02109010140C2
:1021A0000AD0180D81420BD04000814206D0C020D9
:1021B0000001814206D0CEE70020CDE70220CBE728
:1021C0000420C9E70820C7E71A681640D8D00800DD
:1021D000D6E7FFF7F7FDD1E71000D1E7070E0602BB
:1021E00050080021801979410023FFF7B7FAAD4963
:1021F0004118AD4A914257D248E0AC4D029FFF6969
:1022000097422AD10098002806D0022819D0042825
:102210001ED008281FD047E0FFF70DFE002844D04D
:102220004000029949684A088018FFF753F980B2C4
:1022300001001039A94237D205400007400F28435A
:1022400024E01868064001D04800EAE7C800E8E743
:10225000FFF7B8FDE2E75000E3E7009F002F06D04C
:10226000022F17D0042F1AD0082F1BD01CE0FFF725
:10227000E2FD002819D0029949684A088018FFF742
:1022800029F980B201001039A9420DD202990968DA
:10229000C8600AE01A681640EDD00800EBE7FFF7C7
:1022A00091FDE6E71000E6E7012400200299486668
:1022B000029988662000FEBDF369FFEFFFCFFFFFA4
:1022C000004800402421415CC90706D501684A68DE
:1022D000774B1340826A1A434A602421415C890784
:1022E00006D501684A68734B1340C26A1A434A60B4
:1022F0002421415C490706D501684A686E4B1340AA
:10230000026B1A434A602421415C090706D5016823
:102310004A686A4B1340426B1A434A602421415C6D
:10232000C90606D501688A68654B1340826B1A435B
:102330008A602421415C890606D501688A68614B60
:102340001340C26B1A438A602421415C490611D5AF
:1023500001684A685C4B1340026C1A434A60026C85
:1023600080235B039A4205D14A68584B1340426C64
:102370001A434A602421415C090606D501684A686F
:10238000534B1340806C184348607047FFF4FFFFC5
:1023900000100240004400400024F400F8B504009E
:1023A00000257430C560FFF78FFD0700494E206897
:1023B0000068000709D500963B00002280218903B0
:1023C000200000F01BF800280DD1206800684007AD
:1023D0000BD500963B0000228021C903200000F0AD
:1023E0000DF8002801D00320F2BD21007431202017
:1023F0004860886025660D700020F2BDFEB5089F1C
:102400008024240100250600019168460270029391
:102410003068C069019901400198814201D10120D1
:1024200000E0002069460978884238D10020C04386
:102430008742EDD0FFF748FD0299401A874201D349
:10244000002F11D130680168234A0A4002603068C9
:102450008168012291438160300074302021416005
:10246000816005700320FEBD306800684007CFD54D
:102470003068C0692040CBD03068046230680168A1
:10248000154A0A40026030688168012291438160E8
:1024900030007430202141608160C160E1E700209C
:1024A000FEBD000000FDFFFF00FD0F00F0FF00007B
:1024B000FFFFFDFFFFFFFEFFFFFFFBFFFF7FFFFFB3
:1024C000FFEFFFFFFFDFFFFFFFFFEFFFFFFF9FFFBC
:1024D000FFFFF7FFFFFFFF015FFEFFFF2D480168D1
:1024E00001220A4302604168802252050A43426089
:1024F000704710B586B004001422002101A800F036
:1025000051F820682449884216D124488168420D38
:102510000A438260012102680A43026000680840A1
:10252000009000980191032002900020039001A9DF
:10253000A020C00500F040F806B010BD10B586B070
:1025400004001422002101A800F02CF8206814498E
:1025500088421CD11148C168802292020A43C2609D
:10256000012102680A43026000680140009100985E
:102570000C20019002200290002003900320049080
:102580000420059001A9A020C00500F015F806B0B0
:1025900010BD000034100240002401402C10024005
:1025A0000044004010B504000800110002002000A3
:1025B00000F0D2F8200010BDFFB5002201230193E6
:1025C0002BE0062603E05B4EB042FAD10526AE4072
:1025D0002643029C2660584C2668DC4326404D6802
:1025E000ED0300D51E43544D2E606E6826404F68A3
:1025F000BF0300D51E436E60AE6826404F68FF02E1
:1026000000D51E43AE60EE6834404E68B60202D577
:1026100026001C003443EC60521C0B681C00D440A4
:1026200000D186E0019D95402B40F5D05400032752
:10263000A740FE4302964E68012E05D0022E03D01D
:10264000112E01D0122E0FD18768029E3E40CF6816
:10265000A740374387604668AE434D682D09019F08
:102660002F40974037434760C568029E2E408D68D3
:10267000A5403543C56095006E4675704D68022DC6
:1026800001D0122D1AD1D508AD0045192E6A039636
:102690006E4677781C263E406F463E70039EB446D9
:1026A0000F276E463678B7406646BE43B4460F697C
:1026B0006E463678B740664637432F620768032672
:1026C000029D3D404F683740BC4627006446BC40F1
:1026D0002C4304604C68E4009ED5184C2468019D8E
:1026E0002543164C2560164C9508AD0064190294DC
:1026F00024686D466F780C253D400F27AF40BC43E2
:10270000A027FF05B84201D1002660E70D4FB8426F
:1027100001D1019E5BE70C4FB84201D1022656E77A
:102720000A4FB842FBD00A4EB04200D04BE7042615
:102730004DE7FFBD001C0050000401403410024072
:10274000080001400004005000080050000C005038
:1027500000100050002200BF094202D0491E42541E
:10276000FCD17047F8B5040016D02500503500267E
:102770006868002804D1AE602E702000FFF7B9FE13
:1027800010206968014003D121688A68520705D585
:102790006968084368602E700120F2BD6868704A5D
:1027A00002400220104368606E488A689207920FC8
:1027B000012A02D10A68D2072AD462686A4BC0276C
:1027C0003F06BA4206D05F1CBA4203D080273F06BC
:1027D000BA4208D10A6913400B6121680A6963682B
:1027E00013430B610AE00A6913400B6101685F4AF9
:1027F0000A400260016862680A4302602168CA6890
:1028000018239A43CA602168CA68A3681343CB603F
:102810000168574A0A4002600168626B52060A4327
:10282000026020688021490582680A4002D18268DE
:10283000114381602068C168814A0A40C2602069F2
:10284000022801D1042100E000212068C268E36869
:10285000134319432022A25C52030A432C21615CDA
:1028600049001143226B0A43A16989031143E269BC
:10287000D2030A43C260606AFF21C231884205D098
:102880002168CA681043A26A0243CA60012021215C
:10289000615C012910D12021615C002905D12168EA
:1028A000CA6803041343CB6006E0696820220A4328
:1028B0006A60A9680143A960E16B012921680A697E
:1028C0000FD1604B13400B6121680A69236C1343DD
:1028D000626C1A43A36C13430B6121680A690243BB
:1028E00003E0024002D00A6982430A6121684A6912
:1028F00007239A434A6121684A69A36B13434B61DA
:10290000AE60696802229143084368600020F2BD0E
:10291000F8B50400002500200426216889683140AC
:102920001BD15021615C012917D0270050370121AC
:102930003970E169012904D0200000F0CEF80100CF
:102940000CD17968434A0A40B10111437960BD60F6
:102950003D701C212268116076E00220F2BD00006B
:10296000FFFEFFFF08270140FFFFFF3FFFFFC3FF00
:10297000FFFFFFFDF3B583B0044650342027002548
:102980000126406908280BD003980068C0683040D1
:1029900005D0606807436760257001204DE00C207A
:1029A0000090FFF791FA0190039801680868009A77
:1029B000024014D104980021C9438842F4D0002871
:1029C00006D0FFF781FA0199401A04998142EBD2AF
:1029D0006068042101436160257003202DE00398A5
:1029E00062687302134363600268D268C0231B01EC
:1029F00013401BD1C25D002A18D10968090715D5FB
:102A00000168896849070BD4016849680C22914321
:102A1000026851606168104A0A401643666005E02A
:102A200061680F436760A1680E43A6608169002951
:102A300002D10C2100680160002005B0F0BD00004B
:102A40001902FEFF03FCFFFF21688A6816438E60AF
:102A5000F2BD0000FEF1FFFFFFFEFFFF0068006C0B
:102A60007047F8B55022825C012A01D10220F2BDE4
:102A70000200503201231370006800238468640749
:102A800006D5506820210143516013700120F2BD2A
:102A9000009109684903490B2B4C8025AD02009E2B
:102AA00076682A4FBE42866A0AD031438162009816
:102AB000006805400ED020688021C903014308E06A
:102AC0008E43866200980068054003D02068204944
:102AD0000140216013700020F2BDF8B505002868A0
:102AE00081688907890F012902D10168C90728D4A3
:102AF000102701248168174A0A401AD181682143AE
:102B00008160154800681549FEF7E4FC01E0009873
:102B1000401E009000980028F9D1FFF7D5F9060073
:102B20002868006820400CD1FFF7CEF9801B0B28E5
:102B3000F6D3686D07436F65A86D0443AC6501204B
:102B4000F2BD0020F2BD0000082701400110000086
:102B5000FFFFBFFF170000800C00002040420F0065
:102B600078B585B000F0D8F800F079F880205D499C
:102B70000A6802430A600A68104000900098012623
:102B80000868304308600868304000900098684644
:102B90000021002206C0544D544828600024EC63F4
:102BA000B0076860AC60AC632E61EC6020216E54AD
:102BB00021216C54AC62FF20C23068622C216C541D
:102BC000042068612C63AC616C63EC612800FFF742
:102BD000C9FD002801D000F091F800963003019063
:102BE00069462800FFF73DFF002801D000F086F875
:102BF0003F48E865E120400228666C66AC66EC66FA
:102C00000C2028676C67AC67EC6780202C5028008C
:102C10005C30FFF7B5F9002801D000F06FF828000C
:102C2000FFF776FE0024E44321002800FFF7A2FE10
:102C30002800FFF713FF82B231A102A800F080F84C
:102C400002A8FEF761FA230082B202A928005C30D4
:102C5000FFF7CCF9FA20800000F092F8DFE738B5F2
:102C600098B034210BA8FFF775FD14216846FFF7D3
:102C700071FD182105A8FFF76DFD1E4801681E4A69
:102C80000A40C10C1143016001200B9000040C901C
:102C9000022414941590C02000031690600517902C
:102CA0000BA8FEF7A3FD002801D000F027F80F20A5
:102CB00000900320019000250295039504950121C1
:102CC0006846FEF7ADFF002801D072B6FEE7059416
:102CD000079505A800F068F8002801D072B6FEE755
:102CE00019B030BD2C1002404800002000240140E3
:102CF0000044004000700040FFE7FFFF72B6FEE7AF
:102D000053616C7574617265207072696574656E6B
:102D100069202568750D0A0010B500240748016870
:102D200040220A4302600020FFF7ACF8002801D0DF
:102D3000012401E0FFF7D2FB200010BD002002407B
:102D40000CB418B583B004000A0006A802900194E0
:102D50000020009002AB01A9084878441E30FDF71E
:102D6000AFF90021019A1170002801D40198001BCD
:102D700004B0019910BC03B0084700BF3BE3FFFF5C
:102D800038B50500FFF7A0F804000020C0438542D5
:102D900002D0044800782D18FFF796F8001BA842CF
:102DA000FAD331BD00000020FEB5070000200190DD
:102DB000504C3878800676D580204005A16B0140C4
:102DC00004D1A16B0843A06301200190A50D4A48DE
:102DD0000068284013D148480090006828430099B3
:102DE0000860FFF771F8060000980068284006D1D7
:102DF000FFF76AF8801B6528F6D30320FEBD216823
:102E00007868C02292030A40C021890301408A42A7
:102E10000BD0C02189020140C0229202914204D10C
:102E20002168890301D50120FEBDC026B602216DAF
:102E3000314020D0304081421DD0387880061AD5EC
:102E4000216D2E480840216DEA020A432265216D5A
:102E50002B4A0A402265206505400CD0FFF734F864
:102E60000500206D800506D4FFF72EF8401B25498C
:102E70008842F6D3C1E7786831000140B14206D1FB
:102E80002168214A0A403101014011432160206D2F
:102E900079680E40064326650198002803D0A06B90
:102EA0001A490140A1633878800705D5E06C0C21F0
:102EB0008843B9680143E1643878400705D5E06C80
:102EC00013490140F8680843E0643878000705D5E5
:102ED000E06C1049014038690843E0643878000626
:102EE00005D5E06C0C49014078690843E064002096
:102EF000FEBD00000010024000700040FFFFFCFF1C
:102F0000FFFFF7FF89130000FFFFCFFFFFFFFFEF79
:102F1000FFF3FFFFFFCFFFFFFFFFF3FF686A6C7453
:102F20007A4C00007072696E74665F733A20256E89
:102F300020646973616C6C6F776564007072696E90
:102F400074663A2062616420256E20617267756D37
:102F5000656E74007072696E74665F733A206261A8
:102F60006420257320617267756D656E74000000C2
:102F7000000000006E616E004E414E00696E6600FA
:102F8000494E46003000FEE701000000000000004E
:102F900004000000000020007431000874310008B3
:102FA000743100087431000874310008743100086D
:102FB00074310008FFFFFFFFFFFFFFFF161100083D
:102FC0007431000874310008FFFFFFFFFFFF0000AD
:102FD000094880F3088804200168090E1F229142E5
:102FE00005D106480121016005480021016005481E
:102FF000804705480047000030050020341002409B
:1030000000000140C53000081D31000870B40123E4
:10301000002413E00168001D194202D04D466918D2
:10302000491E0C60091D121F042AFAD20D009607D2
:1030300001D50C80AD1C1A4000D02C700268001D18
:10304000002AE7D170BC704730B401220EE003685B
:10305000C31844680830144202D04D462C19641E2F
:103060001D6825601B1D241D091FF9D10168001D65
:103070000029ECD130BC704710B5074979441831AC
:10308000064C7C44163404E0081D0A6889188847F9
:103090000100A142F8D110BD080000002800000086
:1030A0006DFFFFFFE400000048000020000000006A
:1030B00099FFFFFF48000000D0FEFFFF0000002046
:1030C0000000000070470000000000000000000049
:1030D0000102030406070809030406080C1018205F
:1030E0003000000000F00DF8002801D0FFF7C4FF09
:1030F00000BF00BF002000BF00BFFFF731FD00F0A0
:1031000002F80120704780B500F002F801BDFEE72B
:1031100007463846FEF760FBFBE7FEE70548014639
:1031200003B4684680F3098800BF00BF00BF00BF3A
:10313000FFF7D8FFA5EDF5FE02484168027889182F
:103140004160704700000020FEE7FEE770477047CF
:1031500080B5FFF7F1FF01BD00000000010203048C
:10316000FEE7FEE7FEE7FEE7FEE7FEE7FEE7FEE737
:05317000FEE7FEE70090
:040000050800311DA1
:00000001FF
