:020000040800F2
:1000000068040020CD1A0008451B0008471B0008A3
:1000100000000000000000000000000000000000E0
:10002000000000000000000000000000491B000864
:1000300000000000000000004B1B00084D1B0008E2
:100040006B0F000800000000FB160008FF160008F8
:10005000031700084B1C0008571C0008991C0008D7
:10006000000000009B1C00089D1C00089F1C00084D
:10007000A11C0008A31C000800000000A51C00082B
:100080000000000000000000000000000000000070
:10009000A71C00080000000000000000551B00081D
:1000A00000000000A91C0008000000000000000083
:1000B000AB1C0008AD1C00080000000000000000A0
:1000C00070B5040001D1012070BD25004035002627
:1000D0006878002803D12E70200000F092FD2420C3
:1000E00068702068016801229143016060686C4972
:1000F00001402068016121686A488A6802408A607C
:10010000E1680129A16801D1C24301E08422120201
:100110000A4321688A60E168022903D1802109012C
:100120002268516021684A685F4B13434B60216825
:10013000CA681040C860206961690143A069000273
:1001400008432168C860E069216A014320680160B2
:100150002068016801220A4302606E6020206870F6
:100160002663AE70002070BDFEB504000F001600BF
:100170001D0040304078202800D08FE04020205CD7
:10018000012800D18AE001204021605400F072FD76
:100190000190009019230122D103200000F0EEFB12
:1001A000002879D121202100403148701020210001
:1001B00040318870002021004031486066626585CA
:1001C00060633A48089E618DFF290BD9FF21218584
:1001D000009080235B04FF223900200000F0BFFC68
:1001E000019D11E0628D2285009080239B04D2B294
:1001F000F2E7FF2020850020009080235B04FF228F
:100200003900200000F0ABFC608D00282DD02A00C2
:100210003100200000F0DEFB00283DD1606A00784C
:1002200021688862606A401C60622148618D0918FB
:100230006185218D08182085618D0029E4D0000496
:10024000E2D10095330000228021200000F096FBCF
:10025000002821D1608DFF28CBD8628D2285002017
:10026000009080239B04D2B2CAE731002A0020000C
:1002700000F0D9FB01000DD120202268D061226856
:1002800053680C4D1D4055602200403250700020D4
:1002900090701070080002D00120FEBD0220FEBD4B
:1002A000FFFFFFF0FF7FFFFF0080000200200080C3
:1002B000FFFF000000E800FEFEB50400403040787B
:1002C000202800D090E00D0001D0160005D180203C
:1002D00080002100403148607AE04020205C012805
:1002E00000D181E0029301204021605400F0C2FC63
:1002F000019022202100403148702020210040310F
:100300008870002021004031486065626685606326
:1003100020684168354A0A40426080273F020198C0
:100320000090029B00220821200000F027FB0028FB
:100330003BD108202168C86101980090029B0122EE
:100340001104200000F01AFB00282ED1029E019D0E
:1003500008E0406A616A0870606A401C6062608DF3
:10036000401E6085608D002818D02A0031002000D2
:1003700000F07FFB00282068EBD041680F43476006
:1003800020688169490723D5406A616A0870606AFC
:10039000401C6062608D401E608519E02A003100BB
:1003A000200000F040FB002802D0206841680DE0EA
:1003B00020202168C8610095330001223900200007
:1003C00000F0DCFA00282068416803D00F43476042
:1003D0000120FEBD0F4347602100403120204870BE
:1003E000002088700870FEBD0220FEBDFF7FFFFF69
:1003F000026891691268436B002B00D1704780B589
:10040000984701BDF8B50468A169226880235D00A2
:10041000294206D01A4204D0466C0127374347646C
:10042000E561DC00214207D01A4205D0456C082660
:100430002E4346640568EC619C00214007D01340C0
:1004400005D0416C02220A4342640168CC61416CD0
:100450000B220A4001D000F0DFF9F1BDF8B504002D
:10046000E56A4020205C012801D10220F2BD0E0087
:1004700001204021605420201700064205D038405A
:1004800003D03100200000F001F980204004042155
:100490003D4A10231E4231D01F422FD0678D002FBE
:1004A0001CD1200040304078282807D1C80585425B
:1004B00004D13100200000F07BF961E020004030E1
:1004C0004078292807D1954205D02068C3612000D3
:1004D00000F027FA51E02068C36151E02268D3613F
:1004E00022004032536819435160002D01D08542EB
:1004F00046D15168200000F08FF941E0D3430E420D
:1005000017D0394015D0608D00280CD02068406A83
:10051000616A0870606A401C6062208DC018208586
:10052000608DC0186085608D002829D1954227D044
:1005300023E008210E4206D0394004D031002000CB
:1005400000F024F81CE002210E4019D0394017D0E9
:10055000618D00290DD0606A007821688862606A28
:10056000401C6062608DC0186085208DC018208599
:1005700006E0854201D0002D02D1200000F053F8A2
:10058000002040216054F2BD0000FFFFFEB50600D0
:1005900034004034306800250822617828230B405D
:1005A000282B3DD18169C903CB0F69460B70816946
:1005B000090CFE270F4081688905890D6B4659801B
:1005C000C368FE2119406B4699801103F368022B22
:1005D0001BD106231F40BC466F467F88FF093B4066
:1005E0009C450BD1A168491CA160A168022919D1C1
:1005F000A560C2612570684642880CE0300000F0BA
:10060000C3FA25706846828805E0300000F0BCFA25
:1006100025703A0068460178300000F031FBF7BDE4
:10062000C2612570F7BD70B504002068016826001E
:1006300040360025B5704A0402D50168734A03E0CC
:10064000090403D50168724A0A40026028207178C3
:1006500029290BD17070212020630121200000F096
:1006600093FA3570200000F00CFB70BD71782A29D8
:100670000AD17070222020630221200000F084FA49
:100680003570200000F0FEFA70BD0000FEB50400D9
:100690002068006801900091250040356878202787
:1006A0002168CF61212801D0292805D19049200057
:1006B00000F06AFA212008E0222801D02A2805D17A
:1006C0009F49200000F060FA222020632068BE02CB
:1006D000416831434160206841684E4A0A404260A7
:1006E000200000F01EF90198400406D5206801683A
:1006F000464A0A400260A06B08E0019806400AD012
:1007000020680168424A0A400260E06B002802D07B
:1007100000684068608504200099014012D000996B
:10072000814300912168496A626A1170616A491CBB
:100730006162218D002905D0824A89182185618D49
:1007400089186185618D002902D069680843686055
:100750000026AE706663686800280BD069682000C8
:1007600000F05AF86878282821D10099200000F07C
:100770001FF8F7BDE06A744988420BD02000FFF7EC
:1007800052FF7148E0626F7026632E70200000F007
:100790007AFAF7BD687822286F7026632E7003D12D
:1007A000200000F06FFAF7BD200000F06AFAF7BDF4
:1007B00070B504004D48E0620025256326004036F0
:1007C00020207070B57065630420014012D021684C
:1007D000496A626A1170616A491C6162218D00294F
:1007E00008D0584A89182185618D891861857168FA
:1007F000084370605549200000F0C6F910202168B8
:10080000C8613570200000F03EFA70BDFFBFFFFFE9
:10081000FF7FFFFF00E800FEF8B504002700403727
:1008200078780025BD70314AE26265857A681143A7
:100830007960282803D0292801D02A2808D103214B
:10084000200000F0A1F9282078704148606309E099
:100850003E49200000F098F97878602801D02020E7
:1008600078706563206B3B4EA16B00291AD011286C
:1008700001D0212816D120680168490403D50168F8
:10088000354A0A400260A06B00F025FA012829D001
:10089000A06B86633D70A06B00F0F6F9002824D0B1
:1008A000A06B1CE0E16B00291CD0122801D022288B
:1008B00018D120680168090403D50168274A0A4055
:1008C0000260E06B00F007FA01280BD0E06B866352
:1008D0003D70E06B00F0D8F9002806D0E06B816B2A
:1008E0008847F1BD200000F005F8F1BD0000FFFFD2
:1008F0000180000010B50200303200214123C35CAA
:10090000602B08D1202341240355116040228154DB
:1009100000F0E4F910BD11604022815400F0DFF9CD
:1009200010BD00688169890701D50021816201211C
:1009300082690A4002D182691143816170470000D7
:1009400002800000FFFF00000000FFFF03800000A6
:100950005D04000861090008FFBFFFFFFF7FFFFF84
:1009600080B5806A816B0022002900D08A63C16B48
:10097000002900D08A63FFF7BDFF01BDF8B5002450
:1009800005000F00684602701E0028688069384024
:10099000B84201D1012000E0002069460978884270
:1009A00016D10020C0438642EFD000F063F90699CB
:1009B000401A864201D3002EE7D128004030202182
:1009C00042680A4342604170847004700120F2BDA5
:1009D0000020F2BD70B504000D001600206880698B
:1009E00080071ED432002900200000F07FF8002884
:1009F00001D0012070BD0020C0438542EED000F040
:100A000039F9801B854201D3002DE7D12000403009
:100A1000202142680A4342604170002181700170C8
:100A2000E7E7002070BDF8B5202504000E00170090
:100A30002068806928401AD13A003100200000F077
:100A400055F8002807D100F015F9C01B864204D3E1
:100A5000002EEDD101E00120F2BD200040304168C0
:100A6000294341604570002181700170F3E7002047
:100A7000F2BDF8B5202504000F000092042620687E
:100A80008069304030D1009A3900200000F02EF803
:100A9000002827D120688169294008D100F0EAF8B0
:100AA0000099401A874215D3002FE8D112E08169DE
:100AB0000E4002D0218D002916D1C5612068416801
:100AC0002F4A0A40426020004030002141604570BA
:100AD000817006E020004030416829434160457044
:100AE000002101700120F2BD0020F2BDF8B51024F4
:100AF00003689B69234030D005000F000092202638
:100B000028688169314011D10020C0438742F7D065
:100B100000F0B0F80099401A874201D3002FEFD1BE
:100B20002800403041683143416010E0C4612868CA
:100B3000C6612800FFF7F5FE28684168104A0A40A0
:100B4000426028004030416804220A4342604670F7
:100B50000021817001700120F2BD0020F2BDF0B5CE
:100B6000059C00684568660D064F3743BD438905FF
:100B7000890D294312040A4313431C434460F0BD0A
:100B800000E800FEFF63FF0310B500222823CC0716
:100B900006D542224124045D1C40282C00D0F222BC
:100BA0008C070AD51400442222434124045D2340CB
:100BB000282B02D01300B0221A430B0402D51300D5
:100BC000B8221A43102902D11100902208E02029EE
:100BD00002D11100202203E0402902D1110040225D
:100BE0000A43006801689143016010BD1E48016816
:100BF00001220A4302604168802252050A43426092
:100C0000704710B586B004001422002101A800F03E
:100C100067F820681549884224D10120144C2168C6
:100C2000014321602168014000910099C021C90061
:100C30000191122102910390032004900620059057
:100C400001A9A020C00500F055F8E06880218903C3
:100C50000143E16000220021172000F036F917203F
:100C600000F037F906B010BD3410024000540040C7
:100C70002C10024001484068704700BF000000206F
:100C8000704770477047704770B5002200240121FB
:100C90002523C35C022B03D00422C263012418E085
:100CA00003681D680E26B5431D6003681D688D43EB
:100CB0001D604423C35C1C251D400123AB40056C13
:100CC0006B602523C15424214254816B002900D03C
:100CD0008847200070BD2521405C704770477047F1
:100CE00010B50400080011000200200000F016F901
:100CF000200010BDFFB50022012301932BE0062642
:100D000003E05B4EB042FAD10526AE402643029C7A
:100D10002660584C2668DC4326404D68ED0300D51C
:100D20001E43544D2E606E6826404F68BF0300D5A9
:100D30001E436E60AE6826404F68FF0200D51E431A
:100D4000AE60EE6834404E68B60202D526001C0044
:100D50003443EC60521C0B681C00D44000D186E088
:100D6000019D95402B40F5D054000327A740FE433A
:100D700002964E68012E05D0022E03D0112E01D00E
:100D8000122E0FD18768029E3E40CF68A74037439E
:100D900087604668AE434D682D09019F2F409740FC
:100DA00037434760C568029E2E408D68A540354395
:100DB000C56095006E4675704D68022D01D0122DEC
:100DC0001AD1D508AD0045192E6A03966E4677787C
:100DD0001C263E406F463E70039EB4460F276E466B
:100DE0003678B7406646BE43B4460F696E463678DD
:100DF000B740664637432F6207680326029D3D4091
:100E00004F683740BC4627006446BC402C43046012
:100E10004C68E4009ED5184C2468019D2543164C6F
:100E20002560164C9508AD006419029424686D463F
:100E30006F780C253D400F27AF40BC43A027FF052E
:100E4000B84201D1002660E70D4FB84201D1019EA2
:100E50005BE70C4FB84201D1022656E70A4FB84271
:100E6000FBD00A4EB04200D04BE704264DE7FFBD51
:100E7000001C0050000401403410024008000140F2
:100E80000004005000080050000C005000100050FA
:100E900010B5C20018231340FF249C40E243890789
:100EA000090E9940030004D418489B089B00C01801
:100EB00006E0174B0007000F08388008800018185C
:100EC00003681A401143016010BD80B5FFF7E0FFD1
:100ED00001BD010005D40121C006C00E81400D48AE
:100EE0000160704710B5401E80214904884201D33B
:100EF000012010BD084C606003210020C043FFF7B3
:100F0000C7FF0020A0600721216010BD00E400E0C1
:100F10001CED00E000E100E010E000E01206130A22
:100F20001A43130C1A4300BF094205D0830705D0AA
:100F30000270401C491EF9D170470000130010399F
:100F400006D330B41400150010393CC0FCD230BCBC
:100F5000490700D30CC000D504C0890002D3028029
:100F6000801C002900D502707047FEE7FEB5060020
:100F700060D0BB4CE0680C2101400091E06880210A
:100F80004902084001903078C0070ED54F00009804
:100F9000082804D00C2872D1019888426FD12068AB
:100FA000074002D07068002844D03078800733D5DD
:100FB000F0682021084204D02268114321602021DA
:100FC0008843BB4F0921C943009A042A05D00C2A43
:100FD00001D1019A002A00D08CE02268520701D585
:100FE000002827D062681740326912023A436260D3
:100FF000226811400843206000F0A4FAAD49E2687D
:101000001206120F895CC840BC490860BC480068E1
:1010100000F0E8FA010031D1A70D3078C00600D405
:10102000B4E00098002800D091E02068800503D546
:10103000B069002800D1A4E16068B2490140306A7B
:101040000843606060680002000AF1690906014314
:1010500061600120316A490B491C8840C0039549F1
:10106000E2681206120F895CC840A4490860A448CF
:10107000006800F0B7FA010000D187E0FEBD70689B
:10108000884201D1206809E0A021C9028842206875
:1010900006D17900014321602068790801430AE004
:1010A000BA490140216020687908084002900298FE
:1010B0002068B74901402160706800280DD0FFF713
:1010C000D9FD05002068384000D06EE7FFF7D2FD5B
:1010D000401B6528F6D30320FEBDFFF7CBFD0500BE
:1010E0002068384000D160E7FFF7C4FD401B652849
:1010F000F6D3F0E704220192002817D022681140AD
:1011000008432060FFF7B6FD050020680199014003
:1011100005D1FFF7AFFD401B0228F6D9DBE7606879
:101120000740306900023843606075E7206801219C
:1011300088432060FFF79EFD05002068019901406B
:10114000F3D0FFF797FD401B0228F6D9C3E7B0693B
:101150000028206830D038432060FFF78BFD050061
:101160002068800505D4FFF785FD401B0228F7D9CC
:10117000B1E7606863490140306A084360606068B5
:101180000002000AF1690906014361603078000736
:1011900030D570690028206D1DD0012101432165E3
:1011A000FFF768FD0500206D800723D4FFF762FD7F
:1011B000401B0228F7D98EE7764901402160FFF7EE
:1011C00059FD050020688005E0D5FFF753FD401B61
:1011D0000228F7D97FE7012188432065FFF74AFD00
:1011E0000500206D800705D5FFF744FD401B022850
:1011F000F7D970E73078400765D5002001903805B1
:10120000A16B014004D1A16B0843A06301200190B0
:1012100061480068384011D15F48006838435E4932
:101220000860FFF727FD05005B480068384005D1DE
:10123000FFF720FD401B6528F6D34CE7B168B942A3
:101240000AD0564800290DD0A022D200914209D1DF
:10125000206D210D01432165206D0743276508E0BE
:1012600000100240216D4B4A0A402265216D084062
:101270002065670DB06800280CD0FFF7FBFC050067
:10128000206D384018D1FFF7F5FC401BA949884272
:10129000F6D320E7FFF7EEFC0500206D38400BD0B9
:1012A000FFF7E8FC401BA3498842F6D313E700BFD1
:1012B000FFE0FFFF041C00080198002803D0A06B8A
:1012C0009D490140A163706A00285CD000990C29F7
:1012D00042D08027BF049949022820682ED10140BE
:1012E0002160FFF7C7FC0500206838400CD0FFF7ED
:1012F000C1FC401B0228F7D9EDE600BF0C0000201E
:1013000008000020FF1FFFFFE0688D490140B06A20
:101310000843F16A0143306B0843E06020687908B4
:1013200001432160FFF7A6FC0500206838402AD160
:10133000FFF7A0FC401B0228F7D9CCE60140216052
:10134000FFF798FC0500206838401CD0FFF792FC9E
:10135000401B0228F7D9BEE6012812D0E0688021A0
:1013600049020140B26A91420BD1F0218903014048
:10137000F26A914205D1C02109040140306B8142DB
:1013800001D00120FEBD0020FEBD00BFFFFFFEFF1B
:10139000FFFFFBFFFFFEFFFF00700040FFFBFFFFB2
:1013A000F1B582B000285CD00091624F824800689D
:1013B000C107C90F0098814217D27F4C20680121D4
:1013C0008843009901432160FFF754FC009D06000B
:1013D0002068C107C90FA94206D0FFF74BFC801B4C
:1013E000B842F5D30320FEBD0095744C02980078F6
:1013F000800706D5E068F021884302998968014397
:10140000E1603E4602980078C0074DD502984068DA
:10141000022819D12168890323D5E1680322914369
:101420000843E060FFF726FC0700029840680C259F
:10143000022818D1E0682840082835D0FFF71AFCA8
:10144000C01BB042F6D3CDE7032802D12168890141
:1014500003E00128216802D14907DED401E08905B3
:10146000DBD40120FEBD032809D1E06828400C2808
:101470001AD0FFF7FFFBC01BB042F6D3B2E701283A
:1014800009D1E068284004280ED0FFF7F3FBC01B09
:10149000B042F6D3A6E7E068284005D0FFF7EAFBA4
:1014A000C01BB0429ED2F6E7009843490968CA07BC
:1014B000D20F904215D2404D2868012188430099EF
:1014C00001432960FFF7D6FB07002868C107C90F51
:1014D0000098814205D0FFF7CDFBC01BB042F4D38A
:1014E00080E702980078400706D5E068344901405B
:1014F0000298C0680843E06002980078000707D5AA
:10150000E0683049014002980069C0000843E0608B
:1015100000F018F82C49E2681206120F895CC840E6
:101520002A4908602A48006800F05CF8010000D1F0
:101530000020FEBD89130000FFFFFFEFFFFFFFFE4D
:10154000FFFF02FF50B51D4AD16810230C20084050
:10155000042804D0082809D00C2809D023E01068FA
:10156000034001D01B4850BD1B4850BD1B4850BD17
:101570001B488C02240F005D09028C0F641C0021A3
:10158000D668F60301D5154A03E01268134002D06D
:10159000104A002300E0104A00F046F82200002321
:1015A00000F05BF850BD506801210004400F401C62
:1015B0008140C80350BD00000020024000100240DE
:1015C000FFF8FFFFFFC7FFFF041C00080C0000200E
:1015D0000800002000093D000024F40000127A00F9
:1015E000141C000838B505000D4CFA208000217845
:1015F00000F068F801000B48006800F063F8FFF79E
:1016000071FC00280AD1042D08D2002229000020F4
:10161000C043FFF75AFCA560002032BD012032BD57
:10162000000000200C00002030B4434351435D18FB
:10163000010C0C00130C5C432D1980B2434392B291
:1016400051430024C918644124040B04090C0919EE
:101650005043C018694130BC7047124224D09942AF
:1016600028D970B500251B4202D00C00002109E0EA
:101670000024012649186441944200D3A41A7641FB
:10168000F8D33100012601E0764109D20018644107
:101690006D41A41A9D41F7D2A4185D41B619F5D346
:1016A000300022002B0070BD1B42D8D108B500F0DD
:1016B00025F808BD01D19042D3D202000B000021D1
:1016C00000207047094214D088420FD30122030C36
:1016D00001D100041204002300185B418B4200D3A7
:1016E0005B1A5241F8D31900100070470100002026
:1016F000704708B500F004F808BDFEE77047FEE744
:101700007047FEE7F8B500F0B9F800F061F801277E
:1017100053480168394301600068384000900098E0
:10172000504D514868605148A8600026EE602F6116
:101730006E61AE61EE612E626E62281DFEF7C0FC26
:10174000002801D000F098F80021281D00F0AAF828
:10175000002801D000F090F80021281D00F0BFF80B
:1017600000281CD000F088F819E0002002E00A29C7
:10177000FBDB03206870009401236A1C0021281DF4
:10178000FEF7F2FCFA2000F0D3F82300082229002B
:101790005031281DFEF790FDFA2000F0C9F8FA201C
:1017A00000F0C6F80024E443230001222900281D8C
:1017B000FEF782FDFA2000F0BBF82878010004292A
:1017C00001DC0120D6E7401F0528D0D20220D1E756
:1017D00010B598B0342200210BA8FFF781FA14222B
:1017E00000216846FFF77CFA1822002105A8FFF7C0
:1017F00077FA1F4801681F4A0A40C10C1143016073
:1018000002200B9001210E9110210F9114900024C1
:10181000159440041690000117900BA8FFF7A6FB43
:10182000002801D000F028F80F200090032001903C
:1018300002940394049401216846FFF7B1FD002847
:1018400001D072B6FEE708200590099405A800F0C3
:1018500083F8002801D072B6FEE718B010BD000072
:101860002C1002401000002000540040BB7C70008F
:1018700000700040FFE7FFFF72B6FEE710B50024DE
:101880000748016840220A4302600020FFF7AAFED1
:10189000002801D0012401E0FFF7A8F9200010BDC5
:1018A0000020024070B5020040325378202B14D142
:1018B0004023C35C012B10D00123137024245470E7
:1018C000046825689D43256004682568164E2E40EF
:1018D00026600468256829431CE0022070BD70B5AD
:1018E000020040325378202B12D14023C35C012BDD
:1018F0000ED00123137024245470046825689D437E
:10190000256004682568094E2E400902314301E034
:10191000022070BD2160006801680B430360202035
:1019200050700020107070BDFFEFFFFFFFF0FFFF51
:1019300038B50500FFF79EF904000020C04385423A
:1019400002D0044800782D18FFF794F9001BA84234
:10195000FAD331BD00000020FEB507000020019041
:10196000504C3878800676D580204005A16B014028
:1019700004D1A16B0843A06301200190A50D4A4842
:101980000068284013D14848009000682843009917
:101990000860FFF76FF9060000980068284006D13C
:1019A000FFF768F9801B6528F6D30320FEBD216888
:1019B0007868C02292030A40C021890301408A420C
:1019C0000BD0C02189020140C0229202914204D171
:1019D0002168890301D50120FEBDC026B602216D14
:1019E000314020D0304081421DD0387880061AD551
:1019F000216D2E480840216DEA020A432265216DBF
:101A00002B4A0A402265206505400CD0FFF732F9C9
:101A10000500206D800506D4FFF72CF9401B2549F1
:101A20008842F6D3C1E7786831000140B14206D15F
:101A30002168214A0A403101014011432160206D93
:101A400079680E40064326650198002803D0A06BF4
:101A50001A490140A1633878800705D5E06C0C2154
:101A60008843B9680143E1643878400705D5E06CE4
:101A700013490140F8680843E0643878000705D549
:101A8000E06C1049014038690843E064387800068A
:101A900005D5E06C0C49014078690843E0640020FA
:101AA000FEBD00000010024000700040FFFFFCFF80
:101AB000FFFFF7FF89130000FFFFCFFFFFFFFFEFDE
:101AC000FFF3FFFFFFCFFFFFFFFFF3FF094880F3A6
:101AD000088804200168090E1F22914205D106489A
:101AE0000121016005480021016005488047054843
:101AF000004700006804002034100240000001404C
:101B0000011C00086D1C000870B40123002413E0C0
:101B10000168001D194202D04D466918491E0C602B
:101B2000091D121F042AFAD20D00960701D50C8058
:101B3000AD1C1A4000D02C700268001D002AE7D1AD
:101B400070BC7047FEE7FEE77047704780B500F055
:101B500011F801BD80B5064801688969E022D2000C
:101B60000A4002D0FEF74EFC01BDFEF741FC01BD6C
:101B700014000020024841680278891841607047CB
:101B80000000002030B401220EE00368C31844684E
:101B90000830144202D04D462C19641E1D68256081
:101BA0001B1D241D091FF9D10168001D0029ECD15E
:101BB00030BC704710B5074979441831064C7C4455
:101BC000163404E0081D0A68891888470100A142FC
:101BD000F8D110BD08000000280000002DFFFFFF15
:101BE00058000000100000200000000099FFFFFFD7
:101BF0001000000094000000000000200000000021
:101C00007047000000000000000000000102030413
:101C100006070809030406080C101820300000000D
:101C200000F00DF8002801D0FFF7C4FF00BF00BF8F
:101C3000002000BF00BFFFF765FD00F002F80120A3
:101C4000704780B500F002F801BDFEE70746384650
:101C500000F002F8FBE7FEE780B500BF00BF024AD4
:101C600011001820ABBEFBE7260002000548014624
:101C700003B4684680F3098800BF00BF00BF00BFFF
:101C8000FFF7CEFFA5EDF5FE01000000000000000B
:101C90000400000000002000FEE7FEE7FEE7FEE78C
:0E1CA000FEE7FEE7FEE7FEE7FEE7FEE7FEE7F3
:0400000508001C6D66
:00000001FF
