:020000040800F2
:10000000C004002061150008FD140008FF1400085A
:1000100000000000000000000000000000000000E0
:1000200000000000000000000000000001150008B2
:10003000000000000000000003150008051500087E
:100040005B08000800000000EB080008EF0800084B
:100050000D150008C71000089F1600080F150008AE
:100060000000000031150008AB160008ED1600086E
:100070003B150008EF16000800000000F11600080C
:100080000000000000000000000000000000000070
:10009000F31600080000000000000000F51600083C
:1000A00000000000F716000800000000000000003B
:1000B000F9160008FB160008000000000000000010
:1000C000FEB5060060D0BB4CE0680C2101400091F9
:1000D000E06880214902084001903078C0070ED5C1
:1000E0004F000098082804D00C2872D1019888424B
:1000F0006FD12068074002D07068002844D0307863
:10010000800733D5F0682021084204D022681143CB
:10011000216020218843BB4F0921C943009A042A4A
:1001200005D00C2A01D1019A002A00D08CE0226867
:10013000520701D5002827D06268174032691202A1
:100140003A436260226811400843206000F0A4FA3C
:10015000AD49E2681206120F895CC840BC490860CC
:10016000BC48006800F0E8FA010031D1A70D3078F2
:10017000C00600D4B4E00098002800D091E02068C8
:10018000800503D5B069002800D1A4E16068B249B8
:100190000140306A0843606060680002000AF1694B
:1001A0000906014361600120316A490B491C8840FE
:1001B000C0039549E2681206120F895CC840A44941
:1001C0000860A448006800F0B7FA010000D187E099
:1001D000FEBD7068884201D1206809E0A021C902F3
:1001E0008842206806D1790001432160206879089F
:1001F00001430AE0BA4901402160206879080840BB
:10020000029002982068B749014021607068002878
:100210000DD000F0B3FA05002068384000D06EE73A
:1002200000F0ACFA401B6528F6D30320FEBD00F0B9
:10023000A5FA05002068384000D160E700F09EFA7A
:10024000401B6528F6D3F0E704220192002817D05E
:10025000226811400843206000F090FA05002068F1
:100260000199014005D100F089FA401B0228F6D916
:10027000DBE760680740306900023843606075E77B
:10028000206801218843206000F078FA050020688A
:1002900001990140F3D000F071FA401B0228F6D911
:1002A000C3E7B0690028206830D03843206000F0F0
:1002B00065FA05002068800505D400F05FFA401B50
:1002C0000228F7D9B1E7606863490140306A084302
:1002D000606060680002000AF1690906014361601C
:1002E0003078000730D570690028206D1DD00121BD
:1002F0000143216500F042FA0500206D800723D4F8
:1003000000F03CFA401B0228F7D98EE776490140FD
:10031000216000F033FA050020688005E0D500F088
:100320002DFA401B0228F7D97FE701218843206579
:1003300000F024FA0500206D800705D500F01EFAB4
:10034000401B0228F7D970E73078400765D50020B8
:1003500001903805A16B014004D1A16B0843A06353
:100360000120019061480068384011D15F48006861
:1003700038435E49086000F001FA05005B480068F8
:10038000384005D100F0FAF9401B6528F6D34CE758
:10039000B168B9420AD0564800290DD0A022D20037
:1003A000914209D1206D210D01432165206D074344
:1003B000276508E000100240216D4B4A0A40226583
:1003C000216D08402065670DB06800280CD000F052
:1003D000D5F90500206D384018D100F0CFF9401B49
:1003E000A9498842F6D320E700F0C8F90500206D3E
:1003F00038400BD000F0C2F9401BA3498842F6D325
:1004000013E700BFFFE0FFFF58160008019800281F
:1004100003D0A06B9D490140A163706A00285CD0A5
:1004200000990C2942D08027BF04994902282068EE
:100430002ED10140216000F0A1F90500206838406C
:100440000CD000F09BF9401B0228F7D9EDE600BF65
:100450000C00002008000020FF1FFFFFE0688D490E
:100460000140B06A0843F16A0143306B0843E06021
:10047000206879080143216000F080F905002068B8
:1004800038402AD100F07AF9401B0228F7D9CCE68F
:100490000140216000F072F90500206838401CD04E
:1004A00000F06CF9401B0228F7D9BEE6012812D0F3
:1004B000E068802149020140B26A91420BD1F021EB
:1004C00089030140F26A914205D1C021090401402B
:1004D000306B814201D00120FEBD0020FEBD00BF77
:1004E000FFFFFEFFFFFFFBFFFFFEFFFF007000406E
:1004F000FFFBFFFFF1B582B000285CD00091624F96
:1005000082480068C107C90F0098814217D27F4C0A
:1005100020680121884300990143216000F02EF9F1
:10052000009D06002068C107C90FA94206D000F04F
:1005300025F9801BB842F5D30320FEBD0095744C0D
:1005400002980078800706D5E068F0218843029978
:1005500089680143E1603E4602980078C0074DD5A6
:1005600002984068022819D12168890323D5E168DF
:10057000032291430843E06000F000F9070002986D
:1005800040680C25022818D1E0682840082835D09A
:1005900000F0F4F8C01BB042F6D3CDE7032802D137
:1005A0002168890103E00128216802D14907DED4CE
:1005B00001E08905DBD40120FEBD032809D1E068F4
:1005C00028400C281AD000F0D9F8C01BB042F6D34E
:1005D000B2E7012809D1E068284004280ED000F0D5
:1005E000CDF8C01BB042F6D3A6E7E068284005D09E
:1005F00000F0C4F8C01BB0429ED2F6E70098434911
:100600000968CA07D20F904215D2404D28680121CF
:10061000884300990143296000F0B0F8070028687A
:10062000C107C90F0098814205D000F0A7F8C01B90
:10063000B042F4D380E702980078400706D5E0681E
:10064000344901400298C0680843E060029800788D
:10065000000707D5E0683049014002980069C000F2
:100660000843E06000F018F82C49E2681206120F07
:10067000895CC8402A4908602A48006800F05CF894
:10068000010000D10020FEBD89130000FFFFFFEF35
:10069000FFFFFFFEFFFF02FF50B51D4AD168102388
:1006A0000C200840042804D0082809D00C2809D0C0
:1006B00023E01068034001D01B4850BD1B4850BDCB
:1006C0001B4850BD1B488C02240F005D09028C0F93
:1006D000641C0021D668F60301D5154A03E01268B0
:1006E000134002D0104A002300E0104A00F04CF8FA
:1006F0002200002300F061F850BD50680121000481
:10070000400F401C8140C80350BD00000020024043
:1007100000100240FFF8FFFFFFC7FFFF5816000858
:100720000C0000200800002000093D000024F40017
:1007300000127A006816000838B505000D4CFA2042
:100740008000217800F06EF801000B48006800F08E
:1007500069F800F0ADF800280AD1042D08D2002273
:1007600029000020C04300F096F8A560002032BDAB
:10077000012032BD000000200C000020014840682C
:10078000704700BF0000002030B4434351435D1860
:10079000010C0C00130C5C432D1980B2434392B240
:1007A00051430024C918644124040B04090C09199D
:1007B0005043C018694130BC7047124224D099425E
:1007C00028D970B500251B4202D00C00002109E099
:1007D0000024012649186441944200D3A41A7641AA
:1007E000F8D33100012601E0764109D200186441B6
:1007F0006D41A41A9D41F7D2A4185D41B619F5D3F5
:10080000300022002B0070BD1B42D8D108B500F08B
:100810006BF808BD01D19042D3D202000B00002139
:1008200000207047094214D088420FD30122030CE4
:1008300001D100041204002300185B418B4200D355
:100840005B1A5241F8D319001000704701000020D4
:10085000704708B500F04AF808BDFEE710B5C200C1
:1008600018231340FF249C40E2438907090E994056
:10087000030004D418489B089B00C01806E0174BDF
:100880000007000F083880088000181803681A4015
:100890001143016010BD80B5FFF7E0FF01BD01000D
:1008A00005D40121C006C00E81400D48016070478B
:1008B00010B5401E80214904884201D3012010BD9B
:1008C000084C606003210020C043FFF7C7FF0020F1
:1008D000A0600721216010BD00E400E01CED00E0F5
:1008E00000E100E010E000E07047FEE77047FEE73F
:1008F000F8B5040016D02500503500266868002899
:1009000004D1AE602E70200000F076FA10206968E5
:10091000014003D121688A68520705D569680843F8
:1009200068602E700120F2BD68685C4A02400220B7
:10093000104368605A488A689207920F012A02D1D0
:100940000A68D2072AD46268564BC0273F06BA42CB
:1009500006D05F1CBA4203D080273F06BA4208D1B6
:100960000A6913400B6121680A69636813430B61CC
:100970000AE00A6913400B6101684B4A0A400260B1
:10098000016862680A4302602168CA6818239A43B2
:10099000CA602168CA68A3681343CB600168434AF0
:1009A0000A4002600168626B52060A4302602068D6
:1009B0008021490582680A4002D182681143816022
:1009C0002068C1683A4A0A40C2602069022801D101
:1009D000042100E000212068C268E3681343194342
:1009E0002022A25C52030A432C21615C490011437E
:1009F000226B0A43A16989031143E269D2030A43C6
:100A0000C260606AFF21C231884205D02168CA688D
:100A10001043A26A0243CA6001202121615C0129BE
:100A200010D12021615C002905D12168CA68030426
:100A30001343CB6006E0696820220A436A60A96814
:100A40000143A960E16B012921680A690FD1194BA3
:100A500013400B6121680A69236C1343626C1A43CB
:100A6000A36C13430B6121680A69024303E002404F
:100A700002D00A6982430A6121684A6907239A43BE
:100A80004A6121684A69A36B13434B61AE60696890
:100A900002229143084368600020F2BDFFFEFFFF81
:100AA00008270140FFFFFF3FFFFFC3FFFFFFFFFDE0
:100AB0001902FEFF03FCFFFFF2B505001700002638
:100AC00000242868816849073CD45021695C0129C9
:100AD00001D10220F2BD01215023E954C268114323
:100AE000C160E869012804D0280000F0E3F80400A0
:100AF00029D13B00009A28005030476813493940FB
:100B000080277F000F434760866006706648E96C67
:100B1000C8626648E96C08636548E96C48631C2054
:100B2000296808602868416810260E4346602968D5
:100B30004031E86C00F0FCF92868816804220A431F
:100B4000826000E002242000F2BD0000FEF1FFFF01
:100B5000F8B5040020680127082110250422036845
:100B6000134002D04368134005D103680B4035D0D1
:100B700043680B4032D0636D2B4003D1636D8E010F
:100B80001E436665C368C02636011E401DD1202362
:100B9000E35C002B19D10068014016D02068806802
:100BA00002400BD1206840680C21884321684860CE
:100BB000606D5B4901403943616506E0606D20214D
:100BC00001436165A06D3843A065200000F06DFA17
:100BD000A069012802D00C202168086080262068C6
:100BE000006830400CD020684068304008D0606D0C
:100BF000290301436165200000F058FA206806606F
:100C000020680168294012D0416829400FD0216B2B
:100C1000002902D0C1680F4007D0A16D02220A430B
:100C2000A2650560200000F042FA20680560F1BD71
:100C3000F8B55022825C012A01D10220F2BD0200E7
:100C4000503201231370006800238468640706D5BE
:100C5000506820210143516013700120F2BD0091C2
:100C600009684903490B4A4C8025AD02009E76680D
:100C7000484FBE42866A0AD03143816200980068BC
:100C800005400ED020688021C903014308E08E434F
:100C9000866200980068054003D020683E49014004
:100CA000216013700020F2BD250D0008AD0D000875
:100CB000B70D0008F8B50500286881688907890F15
:100CC000012902D10168C90728D4102701248168AD
:100CD000324A0A401AD18168214381603048006855
:100CE0003049FFF79FFD01E00098401E00900098FA
:100CF0000028F9D1FFF742FD06002868006820406F
:100D00000CD1FFF73BFD801B0B28F6D3686D074322
:100D10006F65A86D0443AC650120F2BD0020F2BDF3
:100D2000FFFEFFFF10B5816A4A6D502313402BD19F
:100D3000486D8022920002434A650868C268C02359
:100D40001B0113401CD120228A5C002A18D10A689A
:100D50001268120714D5012283685B0709D443681F
:100D60000C24A3434360486D0F4B03401A434A656C
:100D700006E0486D202303434B65886D02438A6576
:100D8000080000F092F910BDC96C496B884710BD8E
:100D90000827014001100000FFFFBFFF170000807F
:100DA0000C00002040420F00FFFEFFFF80B5806A6C
:100DB00000F07EF901BD80B5806A416D40220A4392
:100DC0004265816D04220A43826500F070F901BD1D
:100DD00080B52C48016801220A43026041688022E4
:100DE00052050A434260002200210420FFF753FD10
:100DF0000420FFF754FD01BDF8B586B007001422AA
:100E0000002101A800F055F938681F49884236D101
:100E10001E48440D816821438160012102680A4314
:100E200002600068014000910098062001900320B4
:100E300002900025039501A9A020C00500F044F907
:100E4000134E144830607560B560F56080203061E5
:100E500074610001B0612020F0613562300000F063
:100E60001BF8002801D000F00BFBFE64B7620022E3
:100E700000210C20FFF70FFD0C20FFF710FD07B03D
:100E8000F0BD000034100240002401402C1002404C
:100E9000740000200800024070B5040001D1012058
:100EA00070BD20681E4940181421FFF7BBFC80006C
:100EB00060641C482064022025216054206800687A
:100EC00019490140A0680843E168014320690843CB
:100ED00061690143A0690843E1690143206A08434D
:100EE00021680860A0688021C901884210D00F489D
:100EF0001C2102680F23656C1C262E40B3409A43C8
:100F0000026002686368656C29408B40134303608C
:100F10000020E06301212522A1542421605470BDEA
:100F2000F8FFFDBF000002400F80FFFFA800024055
:100F3000F8B50400002000252426A65D012E01D16D
:100F40000220F2BD01262427E65502262527E75D6B
:100F5000012F1FD12527E655E06320680668012789
:100F6000BE430660200000F08CF82068216B002949
:100F7000016801D00E2205E004229143016020683F
:100F800001680A220A4302602068016801220A43BC
:100F9000026002E02421605402252800F2BDFEB563
:100FA000016C0968029101680A6801924422825C1E
:100FB0001C2313406A46137004232022029C6D46B2
:100FC0002D780426AE40264014D0019C1C4011D040
:100FD0000C68224002D10A689A430A604421415CAD
:100FE0001C220A409340016C4B60016B002947D0E2
:100FF0008847F7BD012302240025029EB4466E46B1
:1010000036780227B7406646374019D0019E264001
:1010100016D00E68324005D10A680A26B2430A602B
:10102000252143544421415C1C220A409440016C18
:101030004C6024214554C16A002921D08847F7BD5E
:10104000082264466E4636780827B740274017D0F6
:10105000019C224014D00A680E24A2430A60442155
:10106000415C1C220A4001219140026C5160C36323
:101070002521435424214554416B002900D0884741
:10108000F7BD70B501244425455D1C262E40B440B3
:10109000056C6C60046863608068102802D1A260EF
:1010A000E16070BDA160E26070BD7047704770473D
:1010B000704710B50400080011000200200000F085
:1010C000E1F9200010BDFEE7FFB5002201230193E6
:1010D0002BE0062603E0674EB042FAD10526AE406B
:1010E0002643029C2660644C2668DC4326404D68FB
:1010F000ED0300D51E43604D2E606E6826404F689C
:10110000BF0300D51E436E60AE6826404F68FF02E5
:1011100000D51E43AE60EE6834404E68B60202D57C
:1011200026001C003443EC60521C0B681C00D440A9
:1011300000D186E0019D95402B40F5D05400032757
:10114000A740FE4302964E68012E05D0022E03D022
:10115000112E01D0122E0FD18768029E3E40CF681B
:10116000A740374387604668AE434D682D09019F0D
:101170002F40974037434760C568029E2E408D68D8
:10118000A5403543C56095006E4675704D68022DCB
:1011900001D0122D1AD1D508AD0045192E6A03963B
:1011A0006E4677781C263E406F463E70039EB446DE
:1011B0000F276E463678B7406646BE43B4460F6981
:1011C0006E463678B740664637432F620768032677
:1011D000029D3D404F683740BC4627006446BC40F6
:1011E0002C4304604C68E4009ED5244C2468019D87
:1011F0002543224C2560224C9508AD0064190294C9
:1012000024686D466F780C253D400F27AF40BC43E6
:10121000A027FF05B84201D1002660E7194FB84268
:1012200001D1019E5BE7184FB84201D1022656E773
:10123000164FB842FBD0164EB04200D04BE7042602
:101240004DE7FFBD0069084000D00120C0B27047E3
:10125000002A01D081617047816270470D4A13688E
:10126000034000D1704780B5106000F032F901BD35
:1012700000000000001C0050000401403410024037
:10128000080001400004005000080050000C00500D
:101290000010005014040140F8B586B000F01AF9AF
:1012A00000F0A5F8142200216846FFF702FF6B4CFE
:1012B0002068042101432160206804210840059032
:1012C000059880202168014321602168084005902D
:1012D0000598012620683043206020683040059042
:1012E00005985F4F0122FF213800FFF7B1FF002270
:1012F000F021A020C005FFF7ABFF70030090594814
:1013000001900025029569463800FFF7DDFEFF20B9
:10131000009001960295039569463800FFF7D4FEC8
:10132000F02000900196029503956946A020C00523
:10133000FFF7CAFE002200210720FFF7ACFA0720C2
:10134000FFF7ADFA6068304360606068304000903D
:101350000098002200210920FFF79DFA0920FFF7DD
:101360009EFA082200216846FFF7A3FE3E4C3F4844
:101370002060E563C02000066060A5600720A063D0
:101380002661E5602020265421216554A562FF20B6
:10139000C23060622C216554042060612563A56120
:1013A0006563E5612000FFF7A3FA002801D000F093
:1013B00067F82F480090800B019069462000FFF7E6
:1013C00037FC002801D000F05BF82A4800906946FD
:1013D0002000FFF72DFC002801D000F051F8022278
:1013E00021005C312000FFF767FB7D61FEE710B54F
:1013F00092B03422002105A8FFF75BFE14220021E1
:101400006846FFF756FE1C4801681C4A0A40C10C9A
:1014100011430160022005900121089110210991DA
:101420000E9000240F9410948005119005A8FEF7EB
:1014300047FE002801D072B6FEE70F20009003207F
:10144000019002940394049400216846FFF752F837
:10145000002801D072B6FEE712B010BD2C10024079
:10146000000800500000111010000020002401406E
:10147000020000040400000800700040FFE7FFFFC6
:1014800072B6FEE71206130A1A43130C1A4300BF82
:10149000094205D0830705D00270401C491EF9D1CE
:1014A000704700001300103906D330B41400150043
:1014B00010393CC0FCD230BC490700D30CC000D569
:1014C00004C0890002D30280801C002900D502706C
:1014D0007047704710B500240748016840220A434E
:1014E00002600020FFF728F9002801D0012401E064
:1014F000FFF76EFC200010BD00200240FEE7FEE773
:101500007047704780B500F023F801BD704738B5CB
:101510000C4D8024A40121002800FFF793FE002831
:1015200002D06869401C68612000FFF797FE31BD5A
:1015300080B50548FFF733FD01BD80B50348FFF7CF
:1015400007FB01BD000800507400002010000020BF
:101550000248416802788918416070470000002005
:10156000094880F3088804200168090E1F2291426F
:1015700005D10648012101600548002101600548A8
:101580008047054800470000C00400203410024096
:101590000000014055160008C116000870B4012370
:1015A000002413E00168001D194202D04D4669185D
:1015B000491E0C60091D121F042AFAD20D0096075D
:1015C00001D50C80AD1C1A4000D02C700268001DA3
:1015D000002AE7D170BC704730B401220EE00368E6
:1015E000C31844680830144202D04D462C19641EBA
:1015F0001D6825601B1D241D091FF9D10168001DF0
:101600000029ECD130BC704710B507497944183136
:10161000064C7C44163404E0081D0A688918884783
:101620000100A142F8D110BD080000002800000010
:101630006DFFFFFFAC000000100000200000000064
:1016400099FFFFFF10000000940000000000002040
:1016500000000000704700000000000000000000D3
:101660000102030406070809030406080C101820E9
:101670003000000000F00DF8002801D0FFF7C4FF93
:1016800000BF00BF002000BF00BFFFF705FE00F055
:1016900002F80120704780B500F002F801BDFEE7B6
:1016A0000746384600F002F8FBE7FEE780B500BFCA
:1016B00000BF024A11001820ABBEFBE72600020063
:1016C0000548014603B4684680F3098800BF00BF9F
:1016D00000BF00BFFFF7CEFFA5EDF5FE0100000043
:1016E000000000000400000000002000FEE7FEE70C
:0C16F000FEE7FEE7FEE7FEE7FEE7FEE790
:04000005080016C118
:00000001FF
