:020000040800F2
:10000000A804002085190008291900082B190008E8
:1000100000000000000000000000000000000000E0
:100020000000000000000000000000002D19000882
:1000300000000000000000002F190008311900081E
:10004000EB120008000000000F1300084B15000819
:10005000391900084F150008531500083B1900080E
:100060000000000067150008431A00084F1A000836
:10007000951A0008971A000800000000991A000855
:100080000000000000000000000000000000000070
:100090009B1A000800000000000000009D1A0008E4
:1000A000000000009F1A000800000000000000008F
:1000B0005D190008A11A00080000000000000000FF
:1000C00038B5040014D0250074356868002803D1C1
:1000D0002870200000F0CDFC2420686020680168B2
:1000E000012291430160200000F0C2F9012801D1F2
:1000F000012032BD606A002802D0200000F0A8FA7A
:1001000020684168084A0A404260206881682A22C3
:1001100091438160FFE72068016801220A43026081
:10012000200000F001FB32BDFFB7FFFF70B50300F8
:1001300074335C68202C2ED100290BD0140009D018
:10014000846880256D01AC4206D10669002E03D17A
:10015000CE0701D5012070BD7426865D012E1AD010
:1001600001261E70C164010050310A804A800022BD
:100170008A61DA6021265E60AC4204D10469002CF9
:1001800001D11E4C00E01E4C8C611A7000680168A1
:10019000802200F090FB022070BD38B5030074335C
:1001A0009C68202C27D100290BD0140009D084682A
:1001B00080256D01AC4206D10469002C03D1CC0727
:1001C00001D5012032BD7424045D012C13D001241B
:1001D0001C700023036603680A4CA34208D05B68C6
:1001E0001B0205D503681B68AC031C4303681C6035
:1001F00000F024FB32BD022032BD00006709000878
:100200003D09000800480040FEB504002068C669AA
:1002100001688268009225005835202220230B4077
:1002200001932023334002938D4B33400BD1029B2B
:10023000002B0DD0019B002B0AD0E968002901D0CA
:1002400020008847F7BD009BDB0702D4854B0B409D
:1002500070D0F30706D5CB0504D501230362A86A45
:100260000343AB6202200423064207D0009FFF072E
:1002700004D527683862AF6A1F43AF621E4207D0B9
:10028000009FFF0704D527683B62AB6A1843A8624A
:10029000082006420AD0019B002B02D1009BDB07FD
:1002A00004D523681862AB6A1843A862900106401F
:1002B00006D0490104D521680862A86A0243AA62EF
:1002C000A86A00282BD00298002807D0019800289F
:1002D00004D0E968002901D020008847A86A402698
:1002E00021688968314002D1282101401CD02000BA
:1002F00000F0ECFA206881680E4011D0816840223D
:1003000091438160A86900280AD057498163A86990
:1003100000F005FC002802D0A869816B8847F7BD72
:10032000200000F023FCF7BD200000F01FFC00209F
:10033000A862F7BDAB68012B67D110231E4264D0C1
:10034000194262D003621020C0430121C943002337
:100350002668B668760634D5AE69366876686F4624
:100360003E806E463688002E76D06E4636885827F8
:10037000E75BBE4270D26E4636886E80AE693668E4
:100380003668164017D126683768384E3E402768D1
:100390003E602668B7683940B16021688E684027A2
:1003A000BE438E606A62AB6021680A6810400860D4
:1003B000A86900F08FFB5820205A6988411A89B239
:1003C0001FE05826A65B6F88F61B6F463E806E883E
:1003D000002E41D06E463688002E3DD02668376804
:1003E0001E4E3E4027683E602668B7683940B160BF
:1003F0006A62AB60EB6021680A681040086068467A
:100400000188200000F0B3FBF7BDD3031E4207D0E4
:10041000009F7F0204D50362200000F0A9FBF7BD16
:100420008020064207D0084005D02969002913D052
:1004300020008847F7BD402006400DD008400BD073
:100440002068006840218843216808602A620020F3
:100450002861200000F08DFBF7BD0000DFFEFFFFEC
:100460000F0800002001000429090008FFFEFFFF1B
:10047000F1B582B0002405682868724901400298ED
:10048000806808430299096901430298406908435A
:100490000299C9690143296068686B490140029863
:1004A000C0680843686002988069684FBD4203D005
:1004B00001000298006A0843A968974A0A4010435D
:1004C000A860964B10269648854228D1D86C0C21FE
:1004D000014036D0042938D0082934D00C2936D030
:1004E000102000908F488108F202BD424AD1009D41
:1004F000002D06D0022D2CD0042D2FD0082D30D069
:1005000097E000F05CFE00284ED002994A68510046
:100510008918884202D31103814224D289E0BD4266
:10052000DED1D86CC021090101400AD0180D8142EA
:100530000BD04000814206D0C0200001814206D08D
:10054000CEE70020CDE70220CBE70420C9E7082052
:10055000C7E71A681640D8D00800D6E700F0F6FDC5
:10056000D1E71000D1E7070E0602500800218019DC
:100570007941002300F04AFEAD494118AD4A91424D
:1005800057D248E0AC4D029FFF6997422AD10098AC
:10059000002806D0022819D004281ED008281FD011
:1005A00047E000F00CFE002844D040000299496862
:1005B0004A08801800F07EFE80B201001039A9427E
:1005C00037D205400007400F284324E01868064052
:1005D00001D04800EAE7C800E8E700F0B7FDE2E72D
:1005E0005000E3E7009F002F06D0022F17D0042F02
:1005F0001AD0082F1BD01CE000F0E1FD002819D014
:10060000029949684A08801800F054FE80B201003F
:100610001039A9420DD202990968C8600AE01A6827
:100620001640EDD00800EBE700F090FDE6E7100083
:10063000E6E70124002002994866029988662000B6
:10064000FEBD0000F369FFEFFFCFFFFF0048004051
:100650002421415CC90706D501684A68984B1340BC
:10066000826A1A434A602421415C890706D50168E1
:100670004A68944B1340C26A1A434A602421415C81
:10068000490706D501684A688F4B1340026B1A432D
:100690004A602421415C090706D501684A68974BE6
:1006A0001340426B1A434A602421415CC90606D5B7
:1006B00001688A68924B1340826B1A438A60242136
:1006C000415C890606D501688A688E4B1340C26B6F
:1006D0001A438A602421415C490611D501684A68A1
:1006E000894B1340026C1A434A60026C80235B03FF
:1006F0009A4205D14A68854B1340426C1A434A60BE
:100700002421415C090606D501684A68804B1340E4
:10071000806C184348607047FFF4FFFF00100240F0
:10072000004400400024F400F8B5040000257430B3
:10073000C56000F0DBFD0700764E2068006800070A
:1007400009D500963B00002280218903200000F09B
:100750001BF800280DD12068006840070BD50096D3
:100760003B0000228021C903200000F00DF8002882
:1007700001D00320F2BD2100743120204860886040
:1007800025660D700020F2BDFEB5089F802424016F
:100790000025060001916846027002933068C06926
:1007A000019901400198814201D1012000E000201F
:1007B00069460978884238D10020C0438742EDD08D
:1007C00000F094FD0299401A874201D3002F11D105
:1007D00030680168504A0A4002603068816801222E
:1007E0009143816030007430202141608160057048
:1007F0000320FEBD306800684007CFD53068C0696F
:100800002040CBD03068046230680168424A0A4018
:100810000260306881680122914381603000743049
:10082000202141608160C160E1E70020FEBD000041
:1008300000FDFFFF00FD0F00F0FF000070B54165F7
:10084000010058310A804A800022CA608668FF246D
:1008500080235B019E4204D10569002D11D12F4CEC
:100860000FE07F25002E03D10669002E06D108E097
:100870001C04A64207D10469002C01D18D8003E03D
:100880003F248C8000E08A808A6222244C620468C3
:10089000A56801262E43A66084689C4204D10369A2
:1008A000002B01D11E4B00E01E4BCB600A77006885
:1008B0000168902252000A430260002070BD0000CF
:1008C000FFFFFDFFFFFFFEFFFFFFFBFF01680A6860
:1008D000614B13400B6001688A6801239A438A6068
:1008E000016E012904D101680A6810239A430A6045
:1008F0002021C1670021016641667047FF7FFFFF2D
:10090000FFEFFFFFFFDFFFFFFFFFEFFFFFFF9FFF97
:10091000FFFFF7FFFFFFFF015FFEFFFFFF0100008A
:10092000E1090008AB09000880B5806A0100523176
:1009300000220A810A8000F019F901BD816F212986
:1009400010D15221415A002900D123E0C16C09780D
:1009500002689162C16C491CC1645221415A491E0E
:10096000522281527047816F212912D15221415A5E
:10097000002900D10EE0C16C0988C905C90D0268C3
:100980009162C16C891CC1645221415A491E522294
:100990008152704701680A6880239A430A600068A0
:1009A000016840220A430260704738B50400583499
:1009B0000168626A222A0ED1496AA2880A40416D02
:1009C0000A70416D491C41656188491E61806188DA
:1009D000002904D11FE08869082202438A6131BDE1
:1009E00038B5040058340168626A222A0ED1496A77
:1009F000A2880A40416D0A80416D891C4165618869
:100A0000491E61806188002904D104E088690822B8
:100A100002438A6131BD01680A680F4B13400B60C5
:100A200001688A6801239A438A6020216162002557
:100A3000E560A168012909D101680A6810239A4379
:100A40000A605821415A00F092F801E000F054FC8D
:100A5000A56031BD00000000DFFEFFFF1A480168FD
:100A600001220A4302604168802252050A43426023
:100A7000704710B586B004001422002101A800F0D0
:100A80003CFC2068114988421CD11148C168802271
:100A900092020A43C260012102680A4302600068B0
:100AA0000140009100980C2001900220029000204B
:100AB0000390032004900420059001A9A020C00504
:100AC00000F026FC06B010BD341002400044004087
:100AD0002C10024030B50100243100222523C35CD4
:100AE000022B04D00423C3630A70012030BD0368C5
:100AF0001C680E25AC431C6003681C680125AC43D0
:100B00001C6001234424045D1C2525400124AC40C5
:100B1000056C6C60252403550A70002030BD70B54B
:100B20000022002401212523C35C022B03D00422D0
:100B3000C263012418E003681D680E26B5431D60DA
:100B400003681D688D431D604423C35C1C251D4044
:100B50000123AB40056C6B602523C1542421425412
:100B6000816B002900D08847200070BD7047704716
:100B700070477047FEB5060060D0BB4CE0680C21A2
:100B800001400091E06880214902084001903078DE
:100B9000C0070ED54F000098082804D00C2872D149
:100BA000019888426FD12068074002D07068002801
:100BB00044D03078800733D5F0682021084204D033
:100BC00022681143216020218843BB4F0921C9437A
:100BD000009A042A05D00C2A01D1019A002A00D0DB
:100BE0008CE02268520701D5002827D062681740A0
:100BF000326912023A436260226811400843206061
:100C000000F0A4FAAD49E2681206120F895CC840F0
:100C1000BC490860BC48006800F05CFC010031D1B0
:100C2000A70D3078C00600D4B4E00098002800D0AA
:100C300091E02068800503D5B069002800D1A4E1C7
:100C40006068B2490140306A084360606068000231
:100C5000000AF1690906014361600120316A490B0C
:100C6000491C8840C0039549E2681206120F895C4E
:100C7000C840A4490860A448006800F02BFC0100AB
:100C800000D187E0FEBD7068884201D1206809E08C
:100C9000A021C9028842206806D179000143216061
:100CA0002068790801430AE0BA49014021602068C0
:100CB00079080840029002982068B74901402160F5
:100CC000706800280DD000F011FB05002068384046
:100CD00000D06EE700F00AFB401B6528F6D3032026
:100CE000FEBD00F003FB05002068384000D160E73E
:100CF00000F0FCFA401B6528F6D3F0E704220192CD
:100D0000002817D0226811400843206000F0EEFA56
:100D1000050020680199014005D100F0E7FA401B69
:100D20000228F6D9DBE760680740306900023843E3
:100D3000606075E7206801218843206000F0D6FAE2
:100D40000500206801990140F3D000F0CFFA401B64
:100D50000228F6D9C3E7B0690028206830D03843AC
:100D6000206000F0C3FA05002068800505D400F07B
:100D7000BDFA401B0228F7D9B1E76068634901401A
:100D8000306A0843606060680002000AF169090681
:100D9000014361603078000730D570690028206D0C
:100DA0001DD001210143216500F0A0FA0500206D4E
:100DB000800723D400F09AFA401B0228F7D98EE767
:100DC00076490140216000F091FA05002068800515
:100DD000E0D500F08BFA401B0228F7D97FE701210C
:100DE0008843206500F082FA0500206D800705D554
:100DF00000F07CFA401B0228F7D970E730784007F2
:100E000065D5002001903805A16B014004D1A16B8C
:100E10000843A0630120019061480068384011D167
:100E20005F48006838435E49086000F05FFA0500DB
:100E30005B480068384005D100F058FA401B65282F
:100E4000F6D34CE7B168B9420AD0564800290DD014
:100E5000A022D200914209D1206D210D01432165CC
:100E6000206D0743276508E000100240216D4B4AC2
:100E70000A402265216D08402065670DB068002892
:100E80000CD000F033FA0500206D384018D100F086
:100E90002DFA401BA9498842F6D320E700F026FA34
:100EA0000500206D38400BD000F020FA401BA3490C
:100EB0008842F6D313E700BFFFE0FFFFFC190008EC
:100EC0000198002803D0A06B9D490140A163706A7E
:100ED00000285CD000990C2942D08027BF04994992
:100EE000022820682ED10140216000F0FFF90500A2
:100EF000206838400CD000F0F9F9401B0228F7D9DF
:100F0000EDE600BF9C00002098000020FF1FFFFFBF
:100F1000E0688D490140B06A0843F16A0143306BD3
:100F20000843E060206879080143216000F0DEF9A1
:100F30000500206838402AD100F0D8F9401B02286B
:100F4000F7D9CCE60140216000F0D0F90500206817
:100F500038401CD000F0CAF9401B0228F7D9BEE681
:100F6000012812D0E068802149020140B26A914212
:100F70000BD1F02189030140F26A914205D1C021D1
:100F800009040140306B814201D00120FEBD0020E8
:100F9000FEBD00BFFFFFFEFFFFFFFBFFFFFEFFFFE9
:100FA00000700040FFFBFFFFF1B582B000285CD06D
:100FB0000091624F86480068C107C90F00988142BE
:100FC00017D2834C20680121884300990143216096
:100FD00000F08CF9009D06002068C107C90FA942E6
:100FE00006D000F083F9801BB842F5D30320FEBD84
:100FF00000957A4C02980078800706D5E068F021C9
:101000008843029989680143E1603E46029800786E
:10101000C0074DD502984068022819D1216889037C
:1010200023D5E168032291430843E06000F05EF9B4
:101030000700029840680C25022818D1E068284073
:10104000082835D000F052F9C01BB042F6D3CDE7E6
:10105000032802D12168890103E00128216802D117
:101060004907DED401E08905DBD40120FEBD032859
:1010700009D1E06828400C281AD000F037F9C01BCD
:10108000B042F6D3B2E7012809D1E068284004282D
:101090000ED000F02BF9C01BB042F6D3A6E7E068F3
:1010A000284005D000F022F9C01BB0429ED2F6E7DE
:1010B000009847490968CA07D20F904215D2444D9B
:1010C00028680121884300990143296000F00EF946
:1010D00007002868C107C90F0098814205D000F0B9
:1010E00005F9C01BB042F4D380E7029800784007AE
:1010F00006D5E0683A4901400298C0680843E060BC
:1011000002980078000707D5E06836490140029848
:101110000069C0000843E06000F018F83249E26856
:101120001206120F895CC8403049086030480068D8
:1011300000F0D0F9010000D10020FEBD89130000AD
:10114000FFFFFFEFFFFFFFFEFFFF02FF50B5234A47
:10115000D16810230C200840042804D0082809D0A6
:101160000C2809D023E01068034001D0224850BD6C
:10117000224850BD224850BD22488C02240F005DF9
:1011800009028C0F641C0021D668F60301D51C4AA5
:1011900003E01268134002D0174A002300E0174A08
:1011A00000F0BAF92200002300F030F850BD50687A
:1011B00001210004400F401C8140C80350BD0B4872
:1011C000006811490B4A1268520503E00000000054
:1011D00000200240520F895CC84070470010024056
:1011E000FFF8FFFFFFC7FFFFFC1900089C0000206D
:1011F000980000200C10024000093D000024F4007B
:1012000000127A000C1A00088C1A0008124224D02E
:10121000994228D970B500251B4202D00C0000214C
:1012200009E00024012649186441944200D3A41A1D
:101230007641F8D33100012601E0764109D2001849
:1012400064416D41A41A9D41F7D2A4185D41B619BD
:10125000F5D3300022002B0070BD1B42D8D108B559
:1012600000F074F908BD01D19042D3D202000B0006
:1012700000210020704730B50168411844686208B9
:101280008A188368E40704D54C461B1901E0641CE6
:1012900009D1914203D00C7864B2491C01E00C30B2
:1012A00030BD0D78491C1D705B1C002CEFD4641EF2
:1012B000F7D5EEE7094214D088420FD30122030C80
:1012C00001D100041204002300185B418B4200D3BB
:1012D0005B1A5241F8D3190010007047010000203A
:1012E000704708B500F034F908BDFEE701484068D2
:1012F000704700BF90000020704710B50400080040
:1013000011000200200000F027F9200010BDFEE7C8
:10131000FFB50022012301932BE0062603E0644E73
:10132000B042FAD10526AE402643029C2660614CAD
:101330002668DC4326404D68ED0300D51E435D4D15
:101340002E606E6826404F68BF0300D51E436E6056
:10135000AE6826404F68FF0200D51E43AE60EE68BF
:1013600034404E68B60202D526001C003443EC60BF
:10137000521C0B681C00D44000D186E0019D9540B2
:101380002B40F5D054000327A740FE4302964E6839
:10139000012E05D0022E03D0112E01D0122E0FD116
:1013A0008768029E3E40CF68A74037438760466803
:1013B000AE434D682D09019F2F409740374347604A
:1013C000C568029E2E408D68A5403543C5609500D6
:1013D0006E4675704D68022D01D0122D1AD1D508B8
:1013E000AD0045192E6A03966E4677781C263E405E
:1013F0006F463E70039EB4460F276E463678B74060
:101400006646BE43B4460F696E463678B7406646B8
:1014100037432F6207680326029D3D404F683740DF
:10142000BC4627006446BC402C4304604C68E40082
:101430009ED5214C2468019D25431F4C25601F4CDF
:101440009508AD006419029424686D466F780C25E8
:101450003D400F27AF40BC43A027FF05B84201D154
:10146000002660E7164FB84201D1019E5BE7154F99
:10147000B84201D1022656E7134FB842FBD0134EB3
:10148000B04200D04BE704264DE7FFBD006908409D
:1014900000D00120C0B270470D4A1368034000D14C
:1014A000704780B5106000F05DF801BD00000000DD
:1014B000001C0050000401403410024008000140AC
:1014C0000004005000080050000C005000100050B4
:1014D0001404014038B505000D4CFA208000217835
:1014E000FFF7E8FE01000B480068FFF7E3FE00F09D
:1014F00065F800280AD1042D08D200222900002016
:10150000C04300F04EF8A560002032BD012032BD7E
:10151000900000209C00002030B4434351435D18EC
:10152000010C0C00130C5C432D1980B2434392B2A2
:1015300051430024C918644124040B04090C0919FF
:101540005043C018694130BC7047FEE77047FEE762
:101550007047FEE7002200BF094202D0491E4254F4
:10156000FCD170477047FEE710B5C2001823134046
:10157000FF249C40E2438907090E9940030004D4EC
:1015800018489B089B00C01806E0174B0007000F87
:10159000083880088000181803681A401143016059
:1015A00010BD80B5FFF7E0FF01BD010005D40121AA
:1015B000C006C00E81400D480160704710B5401E46
:1015C00080214904884201D3012010BD084C60608D
:1015D00003210020C043FFF7C7FF0020A0600721C0
:1015E000216010BD00E400E01CED00E000E100E03F
:1015F00010E000E0FEB5070000200190504C387864
:10160000800676D580204005A16B014004D1A16BF6
:101610000843A06301200190A50D4A4800682840B6
:1016200013D1484800900068284300990860FFF7EC
:101630005DFE060000980068284006D1FFF756FEC0
:10164000801B6528F6D30320FEBD21687868C02280
:1016500092030A40C021890301408A420BD0C02175
:1016600089020140C0229202914204D1216889037B
:1016700001D50120FEBDC026B602216D314020D02B
:10168000304081421DD0387880061AD5216D2E4811
:101690000840216DEA020A432265216D2B4A0A4067
:1016A0002265206505400CD0FFF720FE0500206D67
:1016B000800506D4FFF71AFE401B25498842F6D361
:1016C000C1E7786831000140B14206D12168214A62
:1016D0000A403101014011432160206D79680E40BC
:1016E000064326650198002803D0A06B1A490140E3
:1016F000A1633878800705D5E06C0C218843B96870
:101700000143E1643878400705D5E06C1349014096
:10171000F8680843E0643878000705D5E06C1049A4
:10172000014038690843E0643878000605D5E06C6C
:101730000C49014078690843E0640020FEBD0000C8
:101740000010024000700040FFFFFCFFFFFFF7FFAA
:1017500089130000FFFFCFFFFFFFFFEFFFF3FFFF45
:10176000FFCFFFFFFFFFF3FF38B586B000F0B4F8FE
:1017700000F05FF8142101A8FFF7ECFE04214E48A9
:1017800002680A43026002681140009100998021BA
:1017900002680A4302600268114000910099012129
:1017A00002680A43026000680140009100988020AE
:1017B00080010190414802900025039501A940480D
:1017C000FFF7A6FD002200210720FFF7EAFE072011
:1017D000FFF7EBFE3B4C3C482060962080016060A8
:1017E000A560E56025610C206061A561E561256269
:1017F00065622000FEF764FC002801D000F06AF862
:101800002068016820220A430260016840220A43DE
:1018100002600522210088312000FEF7BEFC08226C
:10182000842021582000FEF781FCC82000F068F8D1
:10183000EFE738B598B034210BA8FFF78BFE1421E1
:101840006846FFF787FE182105A8FFF783FE1F48AB
:1018500001681F4A0A40C10C1143016001200B902E
:1018600000040C90022414941590C02000031690DC
:10187000600517900BA8FFF77DF9002801D000F054
:1018800029F80F2000900320019000250295039570
:10189000049501216846FFF787FB002801D072B646
:1018A000FEE70594079505A8FFF7A4FE002801D0E0
:1018B00072B6FEE719B030BD2C10024000001110C6
:1018C000000800500000002000440040007000406C
:1018D000FFE7FFFF72B6FEE710B500240748016876
:1018E00040220A4302600020FFF7F4FD002801D0E7
:1018F000012401E0FFF7B2F8200010BD00200240F3
:1019000038B50500FFF7F2FC04000020C043854213
:1019100002D0044800782D18FFF7E8FC001BA8420D
:10192000FAD331BD90000020FEE7FEE77047704714
:1019300080B500F01FF801BD704710B58024A401E8
:1019400021000948FFF7A2FD002803D007480188BD
:10195000491C01802000FFF79FFD10BD80B50448A1
:10196000FEF752FC01BD000000080050A00000205E
:1019700000000020024841680278891841607047E1
:1019800090000020094880F3088804200168090EAF
:101990001F22914205D1064801210160054800211E
:1019A000016005488047054800470000A804002062
:1019B0003410024000000140F9190008651A0008BF
:1019C00010B5074979441831064C7C44163404E0BC
:1019D000081D0A68891888470100A142F8D110BD86
:1019E00008000000140000008FF8FFFFB6000000A0
:1019F0002E000000000000207047000000000000E2
:101A00000000000001020304060708090304060899
:101A10000C1018203000000000F00DF8002801D054
:101A2000FFF7CEFF00BF00BF002000BF00BFFFF7E1
:101A30009BFE00F002F80120704780B500F002F82C
:101A400001BDFEE70746384600F002F8FBE7FEE777
:101A500080B500BF00BF024A11001820ABBEFBE7F3
:101A6000260002000548014603B4684680F3098851
:101A700000BF00BF00BF00BFFFF7CEFFA5EDF5FE22
:101A800048656C6C6F210A0D00000000000000002A
:101A900001020304FEE7FEE7FEE7FEE7FEE7FEE7DE
:101AA000FEE78100FB0003801A0008F8000001F93E
:091AB000000004FB000020FD0011
:0400000508001A6570
:00000001FF
