:020000040800F2
:1000000048050020051700089515000897150008F9
:10001000991500089B1500089D15000800000000B8
:100020000000000000000000000000009F15000814
:10003000A115000800000000A3150008A515000880
:1000400015170008191700081D17000821170008C8
:1000500025170008291700082D1700083117000878
:1000600035170008391700083D1700084117000828
:1000700045170008491700084D17000851170008D8
:1000800055170008591700085D1700086117000888
:10009000A915000865170008691700086D17000802
:1000A0007117000875170008791700087D170008F8
:1000B0008117000885170008891700088D170008A8
:1000C0009117000895170008991700089D17000858
:1000D000A1170008A5170008A9170008AD17000808
:1000E000B1170008B5170008B9170008BD170008B8
:1000F000C1170008C5170008C9170008CD17000868
:10010000D1170008D5170008D9170008DD17000817
:10011000E1170008E5170008E9170008ED170008C7
:10012000F1170008F5170008F9170008FD17000877
:100130000118000805180008091800080D18000823
:100140001118000815180008191800081D180008D3
:100150002118000825180008291800082D18000883
:100160003118000835180008391800083D18000833
:100170004118000845180008491800080000000050
:100180004D180008511800085518000859180008A3
:100190005D18000861180008651800086918000853
:1001A0006D18000871180008751800087918000803
:1001B0007D180008811800088518000889180008B3
:1001C0008D1800089118000800000000951800081C
:1001D000991800089D180008A1180008A518000823
:1001E000A9180008BB150008AD180008B1180008D0
:1001F000B5180008B918000838B5040029D094F8DB
:10020000200010B9204600F05BFB2068016821F057
:100210000201016000F0D6FB0546206841688A07AC
:1002200005D500F0CFFB401B0B28F6D30FE002688A
:1002300042F00102026000F0C5FB054620684268FA
:10024000D10708D400F0BEFB401B0B28F6D300F00A
:1002500014F9012032BD207E012805D121680A68E9
:1002600042F080020A6004E02368196821F08001EE
:100270001960607E0128206804D1016841F04001C6
:10028000016003E0026822F040020260A07E0128C3
:10029000206804D1016841F02001016003E0026898
:1002A00022F020020260E07E0128206804D101686B
:1002B00021F01001016003E0026842F010020260C8
:1002C000207F0128206804D1016841F00801016005
:1002D00003E0026822F008020260607F01282068C3
:1002E00004D1016841F00401016003E0026822F0DA
:1002F00004020260A368E2682169606913436268CE
:100300000B43216803430020521E1343CB6101229B
:10031000606284F8202032BDF0B5036890F8204078
:10032000012C18BF022C1A466ED1584C5848A342D3
:1003300018BF0246D2F80032824243F00103C2F8ED
:1003400000320CD1D0F8004224F47C54C0F80042B2
:10035000D0F800324C6A43EA0423C0F800320B7D27
:100360000120D2F81C5203F01F0300FA03F3DC4310
:100370002540C2F81C52C86960B9D2F80C5202F587
:1003800010702540C2F80C52CD6800F048F80F6894
:1003900000F03DF8C86901280CD1D2F80C5202F5E2
:1003A00010701D43C2F80C520D6800F038F8CF6889
:1003B00000F02DF8886928B9D2F804522540C2F817
:1003C000045204E0D2F804621E43C2F804620869D1
:1003D00028B9D2F814522C40C2F8144204E0D2F8E2
:1003E00014021843C2F81402096A012904D1D2F890
:1003F0001C020343C2F81C32D2F800120020490844
:100400004900C2F80012F0BD00F0AFF8AAE04D6953
:1004100002F51170C7EA064C40F835C070474F68C6
:100420004E69C7EA054C40F836C08E68704738B54B
:10043000044694F82000012819D1022184F82010E4
:100440002068026852085200026000F0BBFA0546BC
:1004500020684168CA0707D500F0B4FA401B0B2892
:10046000F6D300F00AF806E00020606232BD616A4F
:1004700041F400216162012032BD606A052140F42F
:100480000030606284F820107047000000340040A3
:1004900000640040F0B590F820400568012C18BFBA
:1004A000022CAD685CD115F0E05F55D0C5F3016456
:1004B000032C03D3416A41F4000153E00125A54018
:1004C0001D608B682401CD68066833B90B6806F59A
:1004D000C07645EA4355355106E04F6843EAC70305
:1004E0001D4306F5C0731D5106680D6906F5C277F8
:1004F0003D51097D012908D1016801F5C27301F55B
:10050000C2711D5945F480750D519579D3791179D2
:1005100006682D0445EA03655379264445EA032518
:100520000D43C6F88C519578D37811782D0445EA9F
:1005300003655378026845EA03250D432244C2F857
:100540008851006800F5C07300F5C0701D5945F072
:10055000010505510020F0BD416A41F4001101E0A0
:1005600000F003F841620120F0BD416A41F48021AE
:100570007047F0B590F82040012C18BF022C77D1BD
:100580000029046801D1E56800E0256915F0030F32
:1005900003D1416A41F400116CE00D0104F5D876F5
:1005A000745914F004049460066805D106F5D874F3
:1005B0006659760D166004E006F5D8777C59E40894
:1005C0005460046804F5D8767759C7F34004D460C2
:1005D000D0F800C0AC44DCF8B44104F00F0414615E
:1005E00006682E44D6F8B441C4F307249461076822
:1005F0002F44D7F8B461360C566102682A44D2F809
:10060000B8411C7006682E44D6F8B8713F0A5F7076
:1006100002682A44D2F8B841240C9C7006682E4423
:10062000D6F8B821120EDA7004682C44D4F8BC61F4
:100630001E7102682A44D2F8BC41240A5C71066823
:100640002E44D6F8BC21120C9A7104682C44D4F8BC
:10065000BC512D0EDD71006821B9C16841F0200147
:10066000C16003E0026942F0200202610020F0BD97
:10067000FFF77BFF76E790F82020012A18BF022AB7
:1006800003D100684269114305E0416A41F48021C9
:100690004162012070474161002070472DE9F84F09
:1006A00005464FF0000828684669D0F804B0846811
:1006B000D0F80C90D0F810A08769F10745D5E20773
:1006C00013D501238360A00703D5284600F080F9E5
:1006D0000BE0610748BF4FF4006806D420074EBF07
:1006E0004FF48058284600F074F9E00515D52A68C3
:1006F0004FF48071A005916003D5284600F06AF997
:100700000BE0610548BF48F4005806D420054EBFF1
:1007100048F48048284600F05EF9E00315D52A68C1
:100720004FF48031A003916003D5284600F054F9BE
:100730000BE0610348BF48F4004806D420034EBFD5
:1007400048F48038284600F048F9300748BF5FEA8F
:10075000C96104D52A68102048F40078D060710778
:1007600048BF5FEA097005D5296808222846CA6093
:1007700000F034F9B00707D52968CA6812F0030FF2
:100780001CBF284600F02BF9700648BF5FEACA611B
:1007900004D52A68102048F480681061B10648BF6B
:1007A0005FEA0A7005D52968082228460A6100F028
:1007B00017F9F00607D529680A6912F0030F1CBF64
:1007C000284600F00EF9B00348BF5FEACB6105D5BB
:1007D000286810224260284600F004F9F10348BF5F
:1007E0005FEA0B7005D52968082228464A6000F0A8
:1007F000FAF8300440D55FEA4B713AD5F00503D5DD
:10080000F90748BF48F00108B00503D5B90748BF4C
:1008100048F00208700503D5790748BF48F004087E
:10082000300526D517F0700F23D007F07007102F72
:100830000CD0202F0DD0302F0ED0402F0FD0502FA6
:1008400010D0602F08BF48F480780DE048F0080809
:100850000AE048F0100807E048F0200804E048F0FB
:10086000400801E048F080082868816921F07001A3
:1008700081612A6804205060B8F1000F08D0686ACE
:1008800048EA000068622846BDE8F24F00F0ACB8C4
:10089000BDE8F18F81B04448016841F080510160AA
:1008A000026802F0805200920099426842F480424D
:1008B0004260406800F480400090009901B07047A9
:1008C00038B586B0044614220021684600F08DF841
:1008D000364923680A68364C3648521CA34217D161
:1008E000012A00F054F844F00204046005684FF453
:1008F0004074314805F0020500F040F8092300F08B
:1009000037F800220021142000F0B0F814202BE06A
:100910002A4CA3422AD10369012A43F400530361FC
:10092000046904F400540594059B046944F0806450
:100930000461036903F080630593059C00F027F8C8
:1009400044F00104046005684FF401441C4805F0BC
:10095000010500F013F80B2300F00AF80022002133
:10096000692000F083F8692000F09DF807B030BDE1
:10097000019503946946049300F0C0B80595059B62
:100980000094022500230A6002930324704708D1D3
:10099000036943F000730361046904F00074059473
:1009A000059B046870470000403802404001002069
:1009B000006400403038024000040240003400402F
:1009C0000000024001484068704700BFE800002076
:1009D000704770477047704770477047704770475F
:1009E0007047704770477047704710B5044610460F
:1009F0000A460146204600F07DF9204610BD30B57C
:100A0000016884684218416802EB5103C90703D5A5
:100A10004C4401E0491C08D19A4218BF12F9011B4D
:100A200001D10C3030BD12F8015B002904F8015BE4
:100A3000F0D4491EF7D5EFE70901020002D4294896
:100A400081547047284B02F00F021A4402F8041C2C
:100A50007047264B4FF6FF021968000200F4E06071
:100A600011400843224908431860704770B51F4B76
:100A70001C68C4F302230124C3F10705052D2EBF12
:100A80000F2504FA05F56D1E1E1D072E34BF002329
:100A9000DB1E2940994004FA03F35B1E1A40114300
:100AA000BDE87040C8E7010007D4012200F01F0133
:100AB0008A40104B400943F820207047401EB0F197
:100AC000807F10B501D3012010BD0B4C0F21606059
:100AD0004FF0FF30FFF7B0FF00220721A260002097
:100AE000216010BD00E400E018ED00E00CED00E036
:100AF0000000FA0500E100E010E000E02DE9F84F09
:100B00004FF0000E6E4A6F4BDFF8BC814FF00F09BB
:100B100006468A46DAF80040012101FA0EF10C403F
:100B20008C4240F0C580DAF804504FEA8E00022D66
:100B300018BF122D12D14FEADE0506EB850C00F02E
:100B40001C0509FA05FBDCF8207027EA0B07DAF828
:100B500010B00BFA05F53D43CCF8205037689AF8F1
:100B600004B04FEA4E0C032505FA0CF5ED432F4077
:100B70000BF0030B0BFA0CFB4BEA07073760DAF8B4
:100B80000470012F18BF022F03D0112F18BF122F8E
:100B900013D1B768DAF80CB02F400BFA0CFB4BEA14
:100BA0000707B760776827EA0101DAF80470C7F32E
:100BB000001707FA0EF739437160F1680D40DAF853
:100BC000081001FA0CF12943F160DAF80410CD00A5
:100BD0006ED5D8F8001000F00C0041F48041C8F840
:100BE0000010D8F8007007F480470097009909FAC0
:100BF00000F74FEA9E0153F8215025EA070C334DC8
:100C0000AE4208BF00252CD0314FBE4208BF01259F
:100C100027D0304DAE4208BF022522D02E4FBE4213
:100C200008BF03251DD02D4DAE4208BF042518D0A6
:100C30002B4FBE4208BF052513D02A4DAE4208BF38
:100C400006250ED0284FBE4208BF072509D0274DE4
:100C5000AE4208BF082504D0254FBE420CBF09256F
:100C60000A2505FA00F040EA0C0043F8210011685B
:100C7000DAF80450E0430140ED0348BF214311601E
:100C80005168DAF804500140AD0348BF2143516078
:100C90009168DAF804500140ED0248BF21439160A9
:100CA000D1680140DAF80400800248BF2143D160D6
:100CB0000EF1010EBEF10F0F7FF62CAFBDE8F18FE4
:100CC000003C014008380140443802400000024026
:100CD0000004024000080240000C024000100240E4
:100CE0000014024000180240001C02400020024094
:100CF0000024024062F30F2262F31F42401810F0FA
:100D0000030308D0C91A1FD3DB0748BF00F8012D21
:100D100028BF20F8022D130030B4144615461039B0
:100D200028BF20E93C00FAD8490728BF20E90C0079
:100D300048BF40F8042D890028BF20F8022D48BF85
:100D400000F8012D30BC7047C91818BF00F8012DFC
:100D5000CB0728BF00F8012D704700002DE9FC41AA
:100D600004460025BCB12078DFF83C64C10750D5AB
:100D7000B26802F00C02042A07D0B06800F00C0040
:100D800008280AD17168480207D53268910340D516
:100D9000606800283DD1012056E16068B0F5803FD1
:100DA0000FD038B9316821F480313160306820F4D7
:100DB000802009E0B0F5A02F08D1316841F48021EE
:100DC0003160306840F48030306007E0326822F4EF
:100DD00080323260316821F480213160606860B116
:100DE000FFF7F0FD07463168880312D4FFF7EAFDEC
:100DF000C01B6528F7D3032026E1FFF7E3FD074674
:100E00003068810305D5FFF7DDFDC01B6528F7D3EA
:100E1000F1E72078810718D5B26812F00C0F07D0DF
:100E2000B06800F00C00082825D17168480222D46F
:100E30003268910702D5E0680128ACD13168206999
:100E400021F0F80141EAC001316021780A074CD550
:100E50006069002839D0716F41F001017167FFF7B7
:100E6000B1FD0746706F81073FD4FFF7ABFDC01B94
:100E70000228F7D9BFE7E068B8B1316841F0010155
:100E80003160FFF79FFD07463068810705D4FFF703
:100E900099FDC01B0228F7D9ADE73068216920F021
:100EA000F80040EAC1003060CFE7306840084000F9
:100EB0003060FFF787FD074631688807C5D5FFF723
:100EC00081FDC01B0228F7D995E7706F40084000EC
:100ED0007067FFF777FD0746706F810705D5FFF74D
:100EE00071FDC01B0228F7D985E72078410761D53D
:100EF000326CD00009D4316C012541F0805131644D
:100F0000306C00F0805000900099DFF8A8723868CB
:100F1000C10510D43A6842F480723A60FFF752FD7E
:100F200080463868C10506D4FFF74CFDA0EB0800E9
:100F30006528F6D35FE7A068012804D1306F40F040
:100F40000100306713E008B9306F09E00528306F01
:100F500006D140F004003067316F41F0010105E037
:100F6000400840003067316F21F004013167A0680C
:100F700041F2893760B1FFF725FD8046306F810768
:100F800013D4FFF71FFDA0EB0800B842F6D332E7F9
:100F9000FFF718FD8046306F810706D5FFF712FD79
:100FA000A0EB0800B842F6D325E71DB1306C20F065
:100FB00080503064A069002845D0B16801F00C0170
:100FC00008293FF4E8AE0228306820F080703060D5
:100FD0002DD1FFF7F7FC05463168880105D5FFF7ED
:100FE000F1FC401B0228F7D905E7E069216AA36AF2
:100FF000626A0843E16A40EA8210226B5B085B1E6A
:1010000040EA034040EA016040EA027070603068E4
:1010100040F080703060FFF7D5FC044631688801ED
:1010200011D4FFF7CFFC001B0228F7D9E3E6FFF746
:10103000C9FC04463168880105D5FFF7C3FC001BD5
:101040000228F7D9D7E60020BDE8F681F8B50400FC
:101050000E4652D0544DD5F8000400F00F00B042B7
:1010600002D200F06EF848D12068810712D54007FF
:1010700003D5A96841F4E051A9602078010703D5A0
:10108000AA6842F46042AA60A968A06821F0F00151
:101090000143A9602178CA0726D56068012802D1DA
:1010A00029688A0303E0022803D129688A0103D44E
:1010B00023E02B68990720D5AA68920840EA8200AD
:1010C000A860FFF77FFC0746A868616800F00C0085
:1010D000B0EB810F08D0FFF775FCC01B41F28932DD
:1010E0009042F1D30320F2BDD5F8000400F00F00C8
:1010F000864204D200F025F801D00120F2BD21780B
:10110000480705D5AA68E06822F4E0520243AA60C5
:1011100021780A0706D5A868216920F4604040EAD2
:10112000C100A86000F01AF8AA6823491F4BC2F357
:101130000312895CC8401860002000F041F80020CC
:10114000F2BDD5F80014090946EA0111C5F80014EA
:10115000D5F8000400F00F00B04270472DE950416F
:10116000164C606800F00C00082819D10023226892
:1011700020680F4E410202F03F0247BF2068C0F3D3
:1011800088182168C1F38818A6FB080100F038F818
:101190002168C1F30141491C4900B0FBF1F000E0B6
:1011A0000348BDE85081000000380240F4000020F0
:1011B0000024F40000700040841500080438024048
:1011C00038B50D4D04462A780C4B18684FF47A71E7
:1011D000B1FBF2F2B0FBF2F0FFF770FC50B9102C4B
:1011E00008D2002221464FF0FF30FFF73FFCAC60F1
:1011F000002032BD012032BDE8000020F4000020B4
:10120000D3BBD9B1B2F5803F5BD2022A1ED98C463E
:10121000B1FBF2F102FB11C31B0443EA1043B3FB21
:10122000F2FC02FB1C3380B240EA0343B3FBF2F052
:1012300002FB103240EA0C4000237047022A05D915
:101240008446B0FBF2F002FB10C270474AB105D1F0
:1012500000F0010249085FEA3000704700220023D5
:10126000704700F051B80B000200002100207047C9
:10127000F7D3002200237047904271EB030CF2D3A6
:1012800070B5B1FA81F4B3FA83F52C1BA340C4F115
:10129000200532FA05F63343A2405FF00046E640EF
:1012A00002E05B085FEA3202841A71EB030524BF97
:1012B000204629467641F4D302000B00300000217D
:1012C00070BD70B5B1FA81F4B2FA82F5C4F12004B0
:1012D0006419B4F12006DAD3B2405FF00044F44060
:1012E000002502E052085FEA3303C61A71EB020ED2
:1012F00024BF3046714664416D41F3D302000B00B8
:101300002000290070BD0000704700007CB500F08F
:1013100005F900F0BAF87B487B4C01684FF4402592
:101320004FF4801641F080010160026802F08002F3
:1013300000920099036843F001030360026802F021
:101340000102009200990368022243F00203036045
:10135000006800F00200009000996C48626500216E
:101360002065A16504F15000E16525666666A16609
:1013700084F86C1084F86D10FEF73EFF644800227C
:10138000A0670221E16704F17800C4F88020C4F866
:101390008420C4F88850C4F88C6084F8902084F8C5
:1013A000912084F8922084F8932084F8942084F883
:1013B0009520FEF721FF08200021C4F8C80040F264
:1013C0004320C4F8B8000120C4F8C010C4F8C41009
:1013D000A163A162E162216304F128016064A06459
:1013E00004F17800FEF798FF08200021C4F8B0004F
:1013F0004FF41170C4F8A8100122C4F8AC10C4F85E
:10140000A00004F15000216121606160A1602146CB
:10141000E2612262FEF780FF04F15000FFF707F857
:1014200004F17800FFF703F8022104F15000FFF700
:1014300022F9022104F17800FFF71DF9002021189C
:10144000231891F8D01093F8D85022182618401C71
:10145000491C6D1C082882F8D01086F8D850EEDBA5
:1014600004F1E00304F1D00204F1A00104F1500002
:10147000FFF710F804F1E40304F1D80204F1B80115
:1014800004F17800FFF706F8D8E700B593B03422EE
:10149000002106A8FFF7A9FA1422002101A8FFF7EE
:1014A000A4FA1C48016841F080510160006800F016
:1014B0008050009000991848026822F4404242F49B
:1014C000804202600368022206A803F440430093AE
:1014D0000099069201231021002209930A910C928F
:1014E000FFF73CFC0F21002201914FF48051049141
:1014F0000021029201A803920592FFF7A7FD13B005
:1015000000BD0000303802400000002000640040B0
:1015100000340040403802400070004080B5032095
:10152000FFF797FA0020FFF74BFEFFF7B3F9002013
:1015300002BD000030B50F490F4AD1F880000024E9
:1015400040F47000C1F8800013680C4843F00103B8
:1015500013600B4B9460156805404FF000601560F8
:1015600000255360146824F480241460D56008605A
:1015700030BD000008ED00E000380240FFFFF6FE3D
:1015800010300024000000000000000001020304ED
:10159000060708097047FEE7FEE7FEE7FEE770472B
:1015A0007047704700F022B810B50A4C2046FFF78C
:1015B00075F82046084B094A07E010B5084C20464C
:1015C000FFF76CF82046074B074A0021BDE81040A2
:1015D000FEF7CFBF5000002030010020F8000020AF
:1015E00078000020380100201401002002484168E2
:1015F00002788A1842607047E800002030B4002565
:1016000012E050F8042BD30744BF4A44521E091F6E
:10161000042942F8045BFAD213468C0744BF1580B4
:101620009B1CC90748BF1D7050F8041B0029E8D156
:1016300030BC704710B5074979441831064C7C44DA
:10164000163404E00A68081D114488470146A14287
:10165000F8D110BD2C000000480000004EF6885163
:10166000CEF20001086840F470000860BFF34F8FAD
:10167000BFF36F8F4FF00070E1EE100A704700006B
:101680007DFFFFFF4C000000F8000020000000007C
:101690006FF3FFFF2802000046000000000000205A
:1016A00000F00DF8002801D0FFF7C4FFAFF3008071
:1016B0000020AFF30080FFF729FE00F002F80120C0
:1016C000704700F001B800000746384600F002F805
:1016D000FBE7000080B5AFF30080024A110018203C
:1016E000ABBEFBE7260002000548014603B468468E
:1016F00080F30988AFF30080FFF7B0FFFFF7D0FF5A
:10170000A5EDF5FE01488047014800473515000862
:10171000E9160008FFF7FEBFFFF7FEBFFFF7FEBFA9
:10172000FFF7FEBFFFF7FEBFFFF7FEBFFFF7FEBFED
:10173000FFF7FEBFFFF7FEBFFFF7FEBFFFF7FEBFDD
:10174000FFF7FEBFFFF7FEBFFFF7FEBFFFF7FEBFCD
:10175000FFF7FEBFFFF7FEBFFFF7FEBFFFF7FEBFBD
:10176000FFF7FEBFFFF7FEBFFFF7FEBFFFF7FEBFAD
:10177000FFF7FEBFFFF7FEBFFFF7FEBFFFF7FEBF9D
:10178000FFF7FEBFFFF7FEBFFFF7FEBFFFF7FEBF8D
:10179000FFF7FEBFFFF7FEBFFFF7FEBFFFF7FEBF7D
:1017A000FFF7FEBFFFF7FEBFFFF7FEBFFFF7FEBF6D
:1017B000FFF7FEBFFFF7FEBFFFF7FEBFFFF7FEBF5D
:1017C000FFF7FEBFFFF7FEBFFFF7FEBFFFF7FEBF4D
:1017D000FFF7FEBFFFF7FEBFFFF7FEBFFFF7FEBF3D
:1017E000FFF7FEBFFFF7FEBFFFF7FEBFFFF7FEBF2D
:1017F000FFF7FEBFFFF7FEBFFFF7FEBFFFF7FEBF1D
:10180000FFF7FEBFFFF7FEBFFFF7FEBFFFF7FEBF0C
:10181000FFF7FEBFFFF7FEBFFFF7FEBFFFF7FEBFFC
:10182000FFF7FEBFFFF7FEBFFFF7FEBFFFF7FEBFEC
:10183000FFF7FEBFFFF7FEBFFFF7FEBFFFF7FEBFDC
:10184000FFF7FEBFFFF7FEBFFFF7FEBFFFF7FEBFCC
:10185000FFF7FEBFFFF7FEBFFFF7FEBFFFF7FEBFBC
:10186000FFF7FEBFFFF7FEBFFFF7FEBFFFF7FEBFAC
:10187000FFF7FEBFFFF7FEBFFFF7FEBFFFF7FEBF9C
:10188000FFF7FEBFFFF7FEBFFFF7FEBFFFF7FEBF8C
:10189000FFF7FEBFFFF7FEBFFFF7FEBFFFF7FEBF7C
:1018A000FFF7FEBFFFF7FEBFFFF7FEBFFFF7FEBF6C
:1018B000FFF7FEBFFFF7FEBFFFF7FEBF8100AF00DF
:1018C0000F53616C757443413153616C75744341BE
:0F18D00033F8000001F9000010FC000224F400BE
:04000005080016E9F0
:00000001FF
