:020000040800F2
:100000005005002061170008C1150008C31500083D
:10001000C5150008C7150008C91500080000000034
:10002000000000000000000000000000CB150008E8
:10003000CD15000800000000CF150008D1150008FC
:100040008117000885170008891700088D17000818
:100050009117000895170008991700089D170008C8
:10006000A1170008A5170008A9170008AD17000878
:10007000B1170008B5170008B9170008BD17000828
:10008000C1170008C5170008C9170008CD170008D8
:10009000D5150008D1170008D5170008D917000892
:1000A000DD170008E1170008E5170008E917000848
:1000B000ED170008F1170008F5170008F9170008F8
:1000C000FD170008011800080518000809180008A5
:1000D0000D18000811180008151800081918000854
:1000E0001D18000821180008251800082918000804
:1000F0002D180008311800083518000839180008B4
:100100003D18000841180008451800084918000863
:100110004D18000851180008551800085918000813
:100120005D180008611800086518000869180008C3
:100130006D18000871180008751800087918000873
:100140007D18000881180008851800088918000823
:100150008D180008911800089518000899180008D3
:100160009D180008A1180008A5180008A918000883
:10017000AD180008B1180008B5180008000000000C
:10018000B9180008BD180008C1180008C5180008F3
:10019000C9180008CD180008D1180008D5180008A3
:1001A000D9180008DD180008E1180008E518000853
:1001B000E9180008ED180008F1180008F518000803
:1001C000F9180008FD1800080000000001190008D7
:1001D00005190008091900080D190008111900086F
:1001E00015190008E7150008191900081D1900085D
:1001F000211900082519000838B5040029D094F801
:10020000200010B9204600F05BFB2068016821F057
:100210000201016000F0D6FB0546206841688A07AC
:1002200005D500F0CFFB401B0B28F6D30FE002688A
:1002300042F00102026000F0C5FB054620684268FA
:10024000D10708D400F0BEFB401B0B28F6D300F00A
:1002500014F9012032BD207E012805D121680A68E9
:1002600042F080020A6004E02368196821F08001EE
:100270001960607E0128206804D1016841F04001C6
:10028000016003E0026822F040020260A07E0128C3
:10029000206804D1016841F02001016003E0026898
:1002A00022F020020260E07E0128206804D101686B
:1002B00021F01001016003E0026842F010020260C8
:1002C000207F0128206804D1016841F00801016005
:1002D00003E0026822F008020260607F01282068C3
:1002E00004D1016841F00401016003E0026822F0DA
:1002F00004020260A368E2682169606913436268CE
:100300000B43216803430020521E1343CB6101229B
:10031000606284F8202032BDF0B5036890F8204078
:10032000012C18BF022C1A466ED1584C5848A342D3
:1003300018BF0246D2F80032824243F00103C2F8ED
:1003400000320CD1D0F8004224F47C54C0F80042B2
:10035000D0F800324C6A43EA0423C0F800320B7D27
:100360000120D2F81C5203F01F0300FA03F3DC4310
:100370002540C2F81C52C86960B9D2F80C5202F587
:1003800010702540C2F80C52CD6800F048F80F6894
:1003900000F03DF8C86901280CD1D2F80C5202F5E2
:1003A00010701D43C2F80C520D6800F038F8CF6889
:1003B00000F02DF8886928B9D2F804522540C2F817
:1003C000045204E0D2F804621E43C2F804620869D1
:1003D00028B9D2F814522C40C2F8144204E0D2F8E2
:1003E00014021843C2F81402096A012904D1D2F890
:1003F0001C020343C2F81C32D2F800120020490844
:100400004900C2F80012F0BD00F0AFF8AAE04D6953
:1004100002F51170C7EA064C40F835C070474F68C6
:100420004E69C7EA054C40F836C08E68704738B54B
:10043000044694F82000012819D1022184F82010E4
:100440002068026852085200026000F0BBFA0546BC
:1004500020684168CA0707D500F0B4FA401B0B2892
:10046000F6D300F00AF806E00020606232BD616A4F
:1004700041F400216162012032BD606A052140F42F
:100480000030606284F820107047000000340040A3
:1004900000640040F0B590F820400568012C18BFBA
:1004A000022CAD685CD115F0E05F55D0C5F3016456
:1004B000032C03D3416A41F4000153E00125A54018
:1004C0001D608B682401CD68066833B90B6806F59A
:1004D000C07645EA4355355106E04F6843EAC70305
:1004E0001D4306F5C0731D5106680D6906F5C277F8
:1004F0003D51097D012908D1016801F5C27301F55B
:10050000C2711D5945F480750D519579D3791179D2
:1005100006682D0445EA03655379264445EA032518
:100520000D43C6F88C519578D37811782D0445EA9F
:1005300003655378026845EA03250D432244C2F857
:100540008851006800F5C07300F5C0701D5945F072
:10055000010505510020F0BD416A41F4001101E0A0
:1005600000F003F841620120F0BD416A41F48021AE
:100570007047F0B590F82040012C18BF022C77D1BD
:100580000029046801D1E56800E0256915F0030F32
:1005900003D1416A41F400116CE00D0104F5D876F5
:1005A000745914F004049460066805D106F5D874F3
:1005B0006659760D166004E006F5D8777C59E40894
:1005C0005460046804F5D876775907F00207D760BD
:1005D000D0F800C0AC44DCF8B44104F00F0414615E
:1005E00006682E44D6F8B441C4F307249461076822
:1005F0002F44D7F8B461360C566102682A44D2F809
:10060000B8411C7006682E44D6F8B8713F0A5F7076
:1006100002682A44D2F8B841240C9C7006682E4423
:10062000D6F8B821120EDA7004682C44D4F8BC61F4
:100630001E7102682A44D2F8BC41240A5C71066823
:100640002E44D6F8BC21120C9A7104682C44D4F8BC
:10065000BC512D0EDD71006821B9C16841F0200147
:10066000C16003E0026942F0200202610020F0BD97
:10067000FFF77BFF76E790F82020012A18BF022AB7
:1006800003D100684269114305E0416A41F48021C9
:100690004162012070474161002070472DE9F84F09
:1006A00005464FF0000828684669D0F804B0846811
:1006B000D0F80C90D0F810A08769F10745D5E20773
:1006C00013D501238360A00703D5284600F080F9E5
:1006D0000BE0610748BF4FF4006806D420074EBF07
:1006E0004FF48058284600F074F9E00515D52A68C3
:1006F0004FF48071A005916003D5284600F06AF997
:100700000BE0610548BF48F4005806D420054EBFF1
:1007100048F48048284600F05EF9E00315D52A68C1
:100720004FF48031A003916003D5284600F054F9BE
:100730000BE0610348BF48F4004806D420034EBFD5
:1007400048F48038284600F048F9300748BF5FEA8F
:10075000C96104D52A68102048F40078D060710778
:1007600048BF5FEA097005D5296808222846CA6093
:1007700000F034F9B00707D52968CA6812F0030FF2
:100780001CBF284600F02BF9700648BF5FEACA611B
:1007900004D52A68102048F480681061B10648BF6B
:1007A0005FEA0A7005D52968082228460A6100F028
:1007B00017F9F00607D529680A6912F0030F1CBF64
:1007C000284600F00EF9B00348BF5FEACB6105D5BB
:1007D000286810224260284600F004F9F10348BF5F
:1007E0005FEA0B7005D52968082228464A6000F0A8
:1007F000FAF8300440D55FEA4B713AD5F00503D5DD
:10080000F90748BF48F00108B00503D5B90748BF4C
:1008100048F00208700503D5790748BF48F004087E
:10082000300526D517F0700F23D007F07007102F72
:100830000CD0202F0DD0302F0ED0402F0FD0502FA6
:1008400010D0602F08BF48F480780DE048F0080809
:100850000AE048F0100807E048F0200804E048F0FB
:10086000400801E048F080082868816921F07001A3
:1008700081612A6804205060B8F1000F08D0686ACE
:1008800048EA000068622846BDE8F24F00F0ACB8C4
:10089000BDE8F18F81B04448016841F080510160AA
:1008A000026802F0805200920099426842F480424D
:1008B0004260406800F480400090009901B07047A9
:1008C00038B586B0044614220021684600F08DF841
:1008D000364923680A68364C3648521CA34217D161
:1008E000012A00F054F844F00204046005684FF453
:1008F0004074314805F0020500F040F8092300F08B
:1009000037F800220021142000F0A8F814202BE072
:100910002A4CA3422AD10369012A43F400530361FC
:10092000046904F400540594059B046944F0806450
:100930000461036903F080630593059C00F027F8C8
:1009400044F00104046005684FF401441C4805F0BC
:10095000010500F013F80B2300F00AF80022002133
:10096000692000F07BF8692000F095F807B030BDF1
:10097000019503946946049300F0B8B80595059B6A
:100980000094022500230A6002930324704708D1D3
:10099000036943F000730361046904F00074059473
:1009A000059B046870470000403802404801002061
:1009B000006400403038024000040240003400402F
:1009C0000000024001484068704700BF000000205E
:1009D000704770477047704770477047704770475F
:1009E0007047704770477047704710B5044610460F
:1009F0000A460146204600F073F9204610BD0EE07D
:100A000002684368024408305FEAC37C44BF4B4439
:100A10005B1E52F804CB43F804CB091FF9D150F800
:100A2000041B0029ECD170470901020002D42948B7
:100A300081547047284B02F00F021A4402F8041C3C
:100A40007047264B4FF6FF021968000200F4E06081
:100A500011400843224908431860704770B51F4B86
:100A60001C68C4F302230124C3F10705052D2EBF22
:100A70000F2504FA05F56D1E1E1D072E34BF002339
:100A8000DB1E2940994004FA03F35B1E1A40114310
:100A9000BDE87040C8E7010007D4012200F01F0143
:100AA0008A40104B400943F820207047401EB0F1A7
:100AB000807F10B501D3012010BD0B4C0F21606069
:100AC0004FF0FF30FFF7B0FF00220721A2600020A7
:100AD000216010BD00E400E018ED00E00CED00E046
:100AE0000000FA0500E100E010E000E02DE9F84F19
:100AF0000D4600266D496E4A0F2304462F680120DB
:100B0000B04000EA0708804540F0C9804FEA460C33
:100B1000032707FA0CF76FEA070E6F68012F18BF5B
:100B2000022F03D0112F18BF122F12D1A768D5F8AA
:100B30000C900EEA070709FA0CF949EA0707A760C3
:100B4000676827EA00006F68C7F30017B7403843AB
:100B50006060E068AF680EEA000007FA0CF73843FF
:100B6000E0606F68B000022F18BF122F12D1F70893
:100B700000F01C0904EB870703FA09FBD7F820A053
:100B80002AEA0B0AD5F810B00BFA09F949EA0A0962
:100B9000C7F8209027680EEA070E2F7907F00307A1
:100BA00007FA0CF747EA0E0727606F68FF0076D553
:100BB00017684FEA960C00F00C0003FA00FE47F4A9
:100BC00080471760176807F480470097009F394FE8
:100BD00057F82C7027EA0E0E374FBC4208BF00278B
:100BE0002CD0364FBC4208BF012727D0344FBC421F
:100BF00008BF022722D0334FBC4208BF03271DD0B5
:100C0000314FBC4208BF042718D0304FBC4208BF48
:100C1000052713D02E4FBC4208BF06270ED02D4FFC
:100C2000BC4208BF072709D02B4FBC4208BF08278A
:100C300004D02A4FBC420CBF09270A2707FA00F04C
:100C400040EA0E001B4F47F82C000F686FEA0800BF
:100C500000EA070C6F68FF0348BF48EA0C0CC1F8B4
:100C600000C04F6800EA070C6F68BF0348BF48EA3E
:100C70000C0CC1F804C08F6800EA070C6F68FF0213
:100C800048BF48EA0C0CC1F808C0CF6800EA070C5E
:100C90006868800248BF48EA0C0CC1F80CC0761C9A
:100CA0000F2E7FF62BAFBDE8F18F0000003C014016
:100CB000443802400838014000000240000402406D
:100CC00000080240000C02400010024000140240E4
:100CD00000180240001C0240002002400024024094
:100CE00062F30F2262F31F42401810F0030308D092
:100CF000C91A1FD3DB0748BF00F8012D28BF20F811
:100D0000022D130030B414461546103928BF20E9CF
:100D10003C00FAD8490728BF20E90C0048BF40F83A
:100D2000042D890028BF20F8022D48BF00F8012DAE
:100D300030BC7047C91818BF00F8012DCB0728BF79
:100D400000F8012D704700002DE9FC410446002504
:100D5000002C16D02078DFF88064C10713D5B26864
:100D600002F00C02042A07D0B06800F00C0008283A
:100D70003DD1716848023AD53268910303D5606865
:100D8000002800F0768121788A0719D5B06810F024
:100D90000C0F07D0B16801F00C01082962D170680E
:100DA00041025FD43268900703D5E168012940F021
:100DB00060813068216920F0F80040EAC1003060AD
:100DC0002278130779D5606900286DD0716F41F0E2
:100DD00001017167FFF7F6FD0746706F810773D455
:100DE000FFF7F0FDC01B0228F7D9032044E160683B
:100DF000B0F5803F0FD038B9316821F480313160CF
:100E0000306820F4802009E0B0F5A02F08D13168C7
:100E100041F480213160306840F48030306007E078
:100E2000326822F480323260316821F480213160EE
:100E3000606858B1FFF7C6FD074631688803A2D441
:100E4000FFF7C0FDC01B6528F7D3CEE7FFF7BAFD5B
:100E500007463068810396D5FFF7B4FDC01B6528AF
:100E6000F7D3C2E7E06878B1316841F00101316041
:100E7000FFF7A8FD0746306881079AD4FFF7A2FD67
:100E8000C01B0228F7D9B0E7306840084000306046
:100E9000FFF798FD07463168880791D5FFF792FD67
:100EA000C01B0228F7D9A0E7706F400840007067A8
:100EB000FFF788FD0746706F810705D5FFF782FDB4
:100EC000C01B0228F7D990E72078410761D5326C22
:100ED000D00009D4316C012541F080513164306C6F
:100EE00000F0805000900099DFF8FC723868C1056E
:100EF00010D43A6842F480723A60FFF763FD80468E
:100F00003868C10506D4FFF75DFDA0EB0800652831
:100F1000F6D36AE7A068012804D1306F40F00100E1
:100F2000306713E008B9306F09E00528306F06D14B
:100F300040F004003067316F41F0010105E04008E6
:100F400040003067316F21F004013167A06841F241
:100F5000893760B1FFF736FD8046306F810713D4C3
:100F6000FFF730FDA0EB0800B842F6D33DE7FFF7EE
:100F700029FD8046306F810706D5FFF723FDA0EBE2
:100F80000800B842F6D330E71DB1306C20F0805035
:100F90003064A06900286ED0B16801F00C01082906
:100FA0003FD00228306820F0807030602DD1FFF7EC
:100FB00009FD05463168880105D5FFF703FD401B93
:100FC0000228F7D911E7E069216AA36A626A084337
:100FD000E16A40EA8210226B5B085B1E40EA034034
:100FE00040EA016040EA02707060306840F0807052
:100FF0003060FFF7E7FC0446316888013BD4FFF717
:10100000E1FC001B0228F7D9EFE6FFF7DBFC044602
:10101000316888012FD5FFF7D5FC001B0228F7D9CE
:10102000E3E60128716824D0E26901F4800090426F
:1010300002BF01F03F03206A834201BF47F6C0723E
:101040000A40636AB2EB831F13D1A26A01F44030F5
:101050005208521EB0EB024F02BF01F07060E26A0C
:10106000B0EB026F02BF01F0E041206BB1EB007FFB
:1010700001D0012000E00020BDE8F681F8B50400B1
:101080000E4652D0544DD5F8000400F00F00B04287
:1010900002D200F06FF848D12068810712D54007CE
:1010A00003D5A96841F4E051A9602078010703D570
:1010B000AA6842F46042AA60A968A06821F0F00121
:1010C0000143A9602178CA0726D56068012802D1AA
:1010D00029688A0303E0022803D129688A0103D41E
:1010E00023E02B68990720D5AA68920840EA82007D
:1010F000A860FFF767FC0746A868616800F00C006D
:10110000B0EB810F08D0FFF75DFCC01B41F28932C4
:101110009042F1D30320F2BDD5F8000400F00F0097
:10112000864204D200F026F801D00120F2BD2178D9
:10113000480705D5AA68E06822F4E0520243AA6095
:1011400021780A0706D5A868216920F4604040EAA2
:10115000C100A86000F01BF8AA6824491F4BC2F325
:101160000312895CC84018601D48006800F042F80E
:101170000020F2BDD5F80014090946EA0111C5F8AE
:101180000014D5F8000400F00F00B04270472DE9BC
:101190005041174C606800F00C00082819D100235A
:1011A000226820680F4E410202F03F0247BF2068CC
:1011B000C0F388182168C1F38818A6FB080100F065
:1011C00039F82168C1F30141491C4900B0FBF1F035
:1011D00000E00448BDE85081003802400C000020C7
:1011E000080000200024F400007000407C16000875
:1011F0000438024038B50D4D04462A780C4B186867
:101200004FF47A71B1FBF2F2B0FBF2F0FFF74EFC53
:1012100050B9102C08D2002221464FF0FF30FFF7C2
:101220001DFCAC60002032BD012032BD000000205A
:101230000C000020D3BBD9B1B2F5803F5BD2022AAB
:101240001ED98C46B1FBF2F102FB11C31B0443EA29
:101250001043B3FBF2FC02FB1C3380B240EA0343B1
:10126000B3FBF2F002FB103240EA0C40002370475F
:10127000022A05D98446B0FBF2F002FB10C2704787
:101280004AB105D100F0010249085FEA3000704719
:1012900000220023704700F051B80B00020000212B
:1012A00000207047F7D3002200237047904271EB73
:1012B000030CF2D370B5B1FA81F4B3FA83F52C1BA9
:1012C000A340C4F1200532FA05F63343A2405FF093
:1012D0000046E64002E05B085FEA3202841A71EBE6
:1012E000030524BF204629467641F4D302000B00B3
:1012F0003000002170BD70B5B1FA81F4B2FA82F508
:10130000C4F120046419B4F12006DAD3B2405FF0CE
:101310000044F440002502E052085FEA3303C61A95
:1013200071EB020E24BF3046714664416D41F3D328
:1013300002000B002000290070BD00007047000073
:101340007CB500F01DF900F0CAF88648864C0168AB
:101350004FF440254FF4801641F08001016002688F
:1013600002F0800200920099036843F001030360D9
:10137000026802F00102009200990368022243F021
:1013800002030360006800F00200009000997748B3
:10139000626500212065A16504F15000E1652566C4
:1013A0006666A16684F86C1084F86D10FEF724FF61
:1013B00008B100F0E3F86E480022A0670221E1675F
:1013C00004F17800C4F88020C4F88420C4F8885060
:1013D000C4F88C6084F8902084F8912084F89220DE
:1013E00084F8932084F8942084F89520FEF704FF75
:1013F00008B100F0C3F808200021C4F8B0004FF491
:101400001170C4F8A8100122C4F8AC10C4F8A000F0
:1014100004F15000216121606160A1602146E26118
:101420002262FEF779FF04F15000FFF700F8022175
:1014300004F15000FFF71FF908200021C4F8C8008C
:1014400040F24720C4F8B8000120C4F8C010C4F826
:10145000C410A163A162E162216304F12801606408
:10146000A06404F17800FEF757FF04F17800FEF75E
:10147000DEFF022104F17800FFF7FDF800202118BB
:10148000221891F8D010231893F8D8502618491C28
:1014900082F8D010211891F8E020401C6D1C86F8CD
:1014A000D850521C082883F8E020E8DB4FF47A700B
:1014B00000F072F804F1E80304F1D00204F1A00195
:1014C00004F15000FEF7E6FF04F1EC0304F1D8024A
:1014D00004F1B80104F17800FEF7DCFFCEE700B5B7
:1014E00093B03422002106A8FFF77FFA14220021CE
:1014F00001A8FFF77AFA1F480123016841F08051E3
:101500000160006800F08050009000991A4802685D
:1015100022F4404242F4804202600068022200F459
:1015200040400090009906920022102109930A91F0
:1015300006A80C92FFF708FC08B172B6FEE70F216F
:10154000002201914FF4805104910021029201A8E0
:1015500003920592FFF792FD08B172B6FEE713B051
:1015600000BD000030380240100000200064004040
:1015700000340040403802400070004072B6FEE780
:1015800080B50320FFF75DFA0020FFF733FEFFF779
:1015900081F9002002BD000038B50446FFF712FAB9
:1015A00014F1010F054602D0044801786418FFF7D2
:1015B00009FA401BA042FAD331BD00BF0000002051
:1015C000FEE7FEE7FEE7FEE7FEE77047704770477D
:1015D00000F022B810B50A4C2046FFF75FF820460D
:1015E000084B094A07E010B5084C2046FFF756F8AB
:1015F0002046074B074A0021BDE81040FEF7B9BF5F
:101600006000002038010020000100208800002038
:10161000400100201C0100200248416802788A181D
:10162000426070470000002030B4002512E050F8FE
:10163000042BD30744BF4A44521E091F042942F811
:10164000045BFAD213468C0744BF15809B1CC90764
:1016500048BF1D7050F8041B0029E8D130BC70470A
:1016600005484FF00062D0F8801041F47001C0F8D6
:10167000801002607047000008ED00E000000000EC
:1016800000000000010203040607080910B507491D
:1016900079441831064C7C44163404E00A68081D6D
:1016A000114488470146A142F8D110BD2C0000002A
:1016B0004C0000004EF68851CEF20001086840F45C
:1016C00070000860BFF34F8FBFF36F8F4FF0007053
:1016D000E1EE100A7047000051FFFFFF3C010000DF
:1016E000100000200000000017F3FFFF10000000B2
:1016F00080000000000000200000000000F00DF855
:10170000002801D0FFF7C2FFAFF300800020AFF345
:101710000080FFF715FE00F002F80120704700F08E
:1017200001B800000746384600F002F8FBE7000069
:1017300080B5AFF30080024A11001820ABBEFBE772
:10174000260002000548014603B4684680F3098874
:10175000AFF30080FFF7AEFFFFF7D0FFA5EDF5FE7A
:1017600001488047014800476116000845170008F6
:101770000100000000000000100000000024F40040
:10178000FFF7FEBFFFF7FEBFFFF7FEBFFFF7FEBF8D
:10179000FFF7FEBFFFF7FEBFFFF7FEBFFFF7FEBF7D
:1017A000FFF7FEBFFFF7FEBFFFF7FEBFFFF7FEBF6D
:1017B000FFF7FEBFFFF7FEBFFFF7FEBFFFF7FEBF5D
:1017C000FFF7FEBFFFF7FEBFFFF7FEBFFFF7FEBF4D
:1017D000FFF7FEBFFFF7FEBFFFF7FEBFFFF7FEBF3D
:1017E000FFF7FEBFFFF7FEBFFFF7FEBFFFF7FEBF2D
:1017F000FFF7FEBFFFF7FEBFFFF7FEBFFFF7FEBF1D
:10180000FFF7FEBFFFF7FEBFFFF7FEBFFFF7FEBF0C
:10181000FFF7FEBFFFF7FEBFFFF7FEBFFFF7FEBFFC
:10182000FFF7FEBFFFF7FEBFFFF7FEBFFFF7FEBFEC
:10183000FFF7FEBFFFF7FEBFFFF7FEBFFFF7FEBFDC
:10184000FFF7FEBFFFF7FEBFFFF7FEBFFFF7FEBFCC
:10185000FFF7FEBFFFF7FEBFFFF7FEBFFFF7FEBFBC
:10186000FFF7FEBFFFF7FEBFFFF7FEBFFFF7FEBFAC
:10187000FFF7FEBFFFF7FEBFFFF7FEBFFFF7FEBF9C
:10188000FFF7FEBFFFF7FEBFFFF7FEBFFFF7FEBF8C
:10189000FFF7FEBFFFF7FEBFFFF7FEBFFFF7FEBF7C
:1018A000FFF7FEBFFFF7FEBFFFF7FEBFFFF7FEBF6C
:1018B000FFF7FEBFFFF7FEBFFFF7FEBFFFF7FEBF5C
:1018C000FFF7FEBFFFF7FEBFFFF7FEBFFFF7FEBF4C
:1018D000FFF7FEBFFFF7FEBFFFF7FEBFFFF7FEBF3C
:1018E000FFF7FEBFFFF7FEBFFFF7FEBFFFF7FEBF2C
:1018F000FFF7FEBFFFF7FEBFFFF7FEBFFFF7FEBF1C
:10190000FFF7FEBFFFF7FEBFFFF7FEBFFFF7FEBF0B
:10191000FFF7FEBFFFF7FEBFFFF7FEBFFFF7FEBFFB
:08192000FFF7FEBFFFF7FEBF59
:040000050800174593
:00000001FF
