:020000040800F2
:1000000068040020990E0008750E0008770E00089D
:10001000790E00087B0E00087D0E0008000000002D
:100020000000000000000000000000007F0E00083B
:10003000810E000800000000830E0008850E0008F5
:10004000A90E0008AD0E0008B10E0008B50E00089C
:10005000B90E0008BD0E0008C10E0008C50E00084C
:10006000C90E0008CD0E0008D10E0008D50E0008FC
:10007000D90E0008DD0E0008E10E0008E50E0008AC
:10008000E90E0008ED0E0008F10E0008F50E00085C
:10009000F90E0008FD0E0008010F0008050F00080A
:1000A000090F00080D0F0008110F0008150F0008B8
:1000B000190F00081D0F0008210F0008250F000868
:1000C000290F00082D0F0008310F0008350F000818
:1000D000390F00083D0F0008410F0008450F0008C8
:1000E000490F00084D0F0008510F0008550F000878
:1000F000590F00085D0F0008610F0008650F000828
:10010000690F00086D0F0008710F0008750F0008D7
:10011000790F00087D0F0008810F0008850F000887
:10012000890F00088D0F0008910F0008950F000837
:10013000990F00089D0F0008A10F0008A50F0008E7
:10014000A90F0008AD0F0008B10F0008B50F000897
:10015000B90F0008BD0F0008C10F0008C50F000847
:10016000C90F0008CD0F0008D10F0008D50F0008F7
:10017000D90F0008DD0F0008E10F000800000000A3
:10018000E50F0008E90F0008ED0F0008F10F000867
:10019000F50F0008F90F0008FD0F00080110000816
:1001A00005100008091000080D10000811100008C3
:1001B00015100008191000081D1000082110000873
:1001C0002510000829100008000000002D1000086C
:1001D0003110000835100008391000083D100008E3
:1001E0004110000845100008491000084D10000893
:1001F00051100008551000082DE9FC410446002567
:10020000BCB12078DFF83C64C10750D5B26802F079
:100210000C02042A07D0B06800F00C0008280AD1AC
:100220007168480207D53268910340D5606800289C
:100230003DD1012056E16068B0F5803F0FD038B95C
:10024000316821F480313160306820F4802009E089
:10025000B0F5A02F08D1316841F4802131603068B9
:1002600040F48030306007E0326822F4803232603F
:10027000316821F480213160606860B100F0EEF9EE
:1002800007463168880312D400F0E8F9C01B6528DE
:10029000F7D3032026E100F0E1F907463068810337
:1002A00005D500F0DBF9C01B6528F7D3F1E720780E
:1002B000810718D5B26812F00C0F07D0B06800F0B3
:1002C0000C00082825D17168480222D432689107B1
:1002D00002D5E0680128ACD13168206921F0F8012D
:1002E00041EAC001316021780A074CD560690028D5
:1002F00039D0716F41F00101716700F0AFF9074625
:10030000706F81073FD400F0A9F9C01B0228F7D90C
:10031000BFE7E068B8B1316841F00101316000F039
:100320009DF907463068810705D400F097F9C01B96
:100330000228F7D9ADE73068216920F0F80040EADB
:10034000C1003060CFE7306840084000306000F006
:1003500085F9074631688807C5D500F07FF9C01BCD
:100360000228F7D995E7706F40084000706700F0E9
:1003700075F90746706F810705D500F06FF9C01B4E
:100380000228F7D985E72078410761D5326CD00083
:1003900009D4316C012541F080513164306C00F09A
:1003A000805000900099DFF8A8723868C10510D419
:1003B0003A6842F480723A6000F050F9804638683A
:1003C000C10506D400F04AF9A0EB08006528F6D371
:1003D0005FE7A068012804D1306F40F0010030676A
:1003E00013E008B9306F09E00528306F06D140F0FE
:1003F00004003067316F41F0010105E04008400022
:100400003067316F21F004013167A06841F289370C
:1004100060B100F023F98046306F810713D400F0FB
:100420001DF9A0EB0800B842F6D332E700F016F948
:100430008046306F810706D500F010F9A0EB080068
:10044000B842F6D325E71DB1306C20F080503064FF
:10045000A069002845D0B16801F00C0108293FF4DB
:10046000E8AE0228306820F0807030602DD100F0B6
:10047000F5F805463168880105D500F0EFF8401B16
:100480000228F7D905E7E069216AA36A626A08438E
:10049000E16A40EA8210226B5B085B1E40EA03407F
:1004A00040EA016040EA02707060306840F080709D
:1004B000306000F0D3F804463168880111D400F0B0
:1004C000CDF8001B0228F7D9E3E600F0C7F8044690
:1004D0003168880105D500F0C1F8001B0228F7D962
:1004E000D7E60020BDE8F681F8B504000E4652D0EC
:1004F000544DD5F8000400F00F00B04202D200F0D5
:100500006EF848D12068810712D5400703D5A96845
:1005100041F4E051A9602078010703D5AA6842F4AC
:100520006042AA60A968A06821F0F0010143A960B7
:100530002178CA0726D56068012802D129688A0374
:1005400003E0022803D129688A0103D423E02B6841
:10055000990720D5AA68920840EA8200A86000F0B6
:100560007DF80746A868616800F00C00B0EB810FC9
:1005700008D000F073F8C01B41F289329042F1D3E9
:100580000320F2BDD5F8000400F00F00864204D22B
:1005900000F025F801D00120F2BD2178480705D5EB
:1005A000AA68E06822F4E0520243AA6021780A07B0
:1005B00006D5A868216920F4604040EAC100A8601F
:1005C00000F01AF8AA6823491F4BC2F30312895C92
:1005D000C8401860002000F047F80020F2BDD5F8B0
:1005E0000014090946EA0111C5F80014D5F8000401
:1005F00000F00F00B04270472DE95041164C606882
:1006000000F00C00082819D10023226820680F4E42
:10061000410202F03F0247BF2068C0F388182168FA
:10062000C1F38818A6FB080100F03EF82168C1F369
:100630000141491C4900B0FBF1F000E00348BDE86E
:1006400050810000003802405C0000200024F400CB
:1006500000700040A40D00080438024001484068C2
:10066000704700BF5000002038B50D4D04462A7871
:100670000C4B18684FF47A71B1FBF2F2B0FBF2F058
:1006800000F0E9F850B9102C08D2002221464FF0B2
:10069000FF3000F0C3F8AC60002032BD012032BD55
:1006A000500000205C000020D3BBD9B1B2F5803FE0
:1006B0005BD2022A1ED98C46B1FBF2F102FB11C3B8
:1006C0001B0443EA1043B3FBF2FC02FB1C3380B271
:1006D00040EA0343B3FBF2F002FB103240EA0C4065
:1006E00000237047022A05D98446B0FBF2F002FBD2
:1006F00010C270474AB105D100F0010249085FEA13
:100700003000704700220023704700F0C3B80B0090
:100710000200002100207047F7D300220023704719
:10072000904271EB030CF2D370B5B1FA81F4B3FAD5
:1007300083F52C1BA340C4F1200532FA05F63343A0
:10074000A2405FF00046E64002E05B085FEA32024A
:10075000841A71EB030524BF204629467641F4D361
:1007600002000B003000002170BD70B5B1FA81F4B9
:10077000B2FA82F5C4F120046419B4F12006DAD388
:10078000B2405FF00044F440002502E052085FEA06
:100790003303C61A71EB020E24BF30467146644122
:1007A0006D41F3D302000B002000290070BD30B56D
:1007B000016884684218416802EB5103C90703D5F8
:1007C0004C4401E0491C08D19A4218BF12F9011BA0
:1007D00001D10C3030BD12F8015B002904F8015B37
:1007E000F0D4491EF7D5EFE70901020002D42448EE
:1007F00081547047234B02F00F021A4402F8041C84
:100800007047214B4FF6FF021968000200F4E060C8
:10081000114008431D4908431860704770B51A4BD2
:100820001C68C4F302230124C3F10705052D2EBF64
:100830000F2504FA05F56D1E1E1D072E34BF00237B
:10084000DB1E2940994004FA03F35B1E1A40114352
:10085000BDE87040C8E7401EB0F1807F10B501D3FD
:10086000012010BD0A4C0F2160604FF0FF30FFF7F0
:10087000BBFF00220721A2600020216010BD000004
:1008800000E400E018ED00E00CED00E00000FA05E7
:1008900010E000E0704700002DE9F84F4FF0000E27
:1008A000734A744BDFF8D0814FF00F0906468A4631
:1008B000DAF80040012101FA0EF10C408C4240F0C0
:1008C000C580DAF804504FEA8E00022D18BF122DB1
:1008D00012D14FEADE0506EB850C00F01C0509FA83
:1008E00005FBDCF8207027EA0B07DAF810B00BFAEA
:1008F00005F53D43CCF8205037689AF804B04FEA2C
:100900004E0C032505FA0CF5ED432F400BF0030BBD
:100910000BFA0CFB4BEA07073760DAF80470012F7B
:1009200018BF022F03D0112F18BF122F13D1B76891
:10093000DAF80CB02F400BFA0CFB4BEA0707B76054
:10094000776827EA0101DAF80470C7F3001707FA9D
:100950000EF739437160F1680D40DAF8081001FABA
:100960000CF12943F160DAF80410CD006ED5D8F807
:10097000001000F00C0041F48041C8F80010D8F8D5
:10098000007007F480470097009909FA00F74FEAD2
:100990009E0153F8215025EA070C384DAE4208BF9E
:1009A00000252CD0364FBE4208BF012527D0354D3B
:1009B000AE4208BF022522D0334FBE4208BF0325F6
:1009C0001DD0324DAE4208BF042518D0304FBE4274
:1009D00008BF052513D02F4DAE4208BF06250ED007
:1009E0002D4FBE4208BF072509D02C4DAE4208BF8F
:1009F000082504D02A4FBE420CBF09250A2505FA56
:100A000000F040EA0C0043F821001168DAF80450C5
:100A1000E0430140ED0348BF214311605168DAF81B
:100A200004500140AD0348BF214351609168DAF89A
:100A300004500140ED0248BF21439160D16801405C
:100A4000DAF80400800248BF2143D1600EF1010EA4
:100A5000BEF10F0F7FF62CAFBDE8F18F00690840A3
:100A600018BF0120C0B2704702B909048161704704
:100A7000003C014008380140443802400000024078
:100A80000004024000080240000C02400010024036
:100A90000014024000180240001C024000200240E6
:100AA0000024024010B586B0454C00F099F800F0E3
:100AB00050F800F08FF84348016841F08001016070
:100AC000026802F08002009200990368002243F05D
:100AD00004030360006800F00400009000992046C1
:100AE0004FF48071FFF7C0FF4FF480710122019134
:100AF0000023029201A9039320460493FFF7CCFE42
:100B00004FF400710022019101A902922046039244
:100B10002D4CFFF7C1FE4FF411702081002004EB33
:100B2000800104EB4003401C0828CA695A81F6DBA7
:100B300004F1080004F13C01206061604FF0FF31D6
:100B4000204600F073F84FF0FF31204600F093F894
:100B5000F4E700B593B03422002106A800F0A4F811
:100B600000F038F81948016841F0805101600068D0
:100B700000F08050009000991548026822F440422D
:100B800042F4804202600368022206A803F4404354
:100B900000930099069201231021002209930A91E3
:100BA0000C92FFF729FB0F210022019100210292F4
:100BB00001A8039204910592FFF796FC13B000BDC3
:100BC0000008024030380240000000204038024057
:100BD000007000401422002101A800F065B8000058
:100BE00080B50320FFF70DFE0020FFF73DFD00F06C
:100BF00065F8002002BD000010B5294B90B1012816
:100C000012D101224FF480711846FFF72DFF254CB9
:100C1000FFF724FD2060FFF721FD2168401AFAD07C
:100C2000002010BD0022EDE7012010BDF8B50646FA
:100C30000C461C4D0027FFF711FD2860306800EBC3
:100C400047014888C0B2FFF7D7FF012812D03068AB
:100C500000EB47017F1C4888C0B2FFF7CDFF082F8B
:100C6000ECDBFFF7FBFC2968401A844201D202202A
:100C7000F2BD0020F2BD38B504460025FFF7EEFCBA
:100C8000084908604FF400710548FFF7E7FE616806
:100C900001EB45026D1C082D5080F3DB002032BDB6
:100CA000000802406000002010B5044610460A46C5
:100CB0000146204600F01AF8204610BD81B00A48CF
:100CC000016841F080510160026802F08052009298
:100CD0000099426842F480424260406800F48040DB
:100CE0000090009901B070474038024062F30F2233
:100CF00062F31F42401810F0030308D0C91A1FD333
:100D0000DB0748BF00F8012D28BF20F8022D130093
:100D100030B414461546103928BF20E93C00FAD8F3
:100D2000490728BF20E90C0048BF40F8042D89007E
:100D300028BF20F8022D48BF00F8012D30BC7047B5
:100D4000C91818BF00F8012DCB0728BF00F8012DE6
:100D50007047000030B50F490F4AD1F880000024D9
:100D600040F47000C1F8800013680C4843F00103A0
:100D700013600B4B9460156805404FF000601560E0
:100D800000255360146824F480241460D560086042
:100D900030BD000008ED00E000380240FFFFF6FE25
:100DA00010300024000000000000000001020304D5
:100DB0000607080910B5074979441831064C7C44E8
:100DC000163404E00A68081D114488470146A14210
:100DD000F8D110BD2C000000380000004EF68851FC
:100DE000CEF20001086840F470000860BFF34F8F36
:100DF000BFF36F8F4FF00070E1EE100A70470000F4
:100E0000AFF9FFFF54020000460000000000002080
:100E100000F00DF8002801D0FFF7CCFFAFF3008001
:100E20000020AFF30080FFF73DFE00F002F8012044
:100E3000704700F001B800000746384600F002F89D
:100E4000FBE7000080B5AFF30080024A11001820D4
:100E5000ABBEFBE7260002000548014603B4684626
:100E600080F30988AFF30080FFF7B8FFFFF7D0FFEA
:100E7000A5EDF5FE7047FEE7FEE7FEE7FEE77047EB
:100E80007047704700F000B80248416802788A183D
:100E900042607047500000200148804701480047E9
:100EA000550D0008590E0008FFF7FEBFFFF7FEBF03
:100EB000FFF7FEBFFFF7FEBFFFF7FEBFFFF7FEBF66
:100EC000FFF7FEBFFFF7FEBFFFF7FEBFFFF7FEBF56
:100ED000FFF7FEBFFFF7FEBFFFF7FEBFFFF7FEBF46
:100EE000FFF7FEBFFFF7FEBFFFF7FEBFFFF7FEBF36
:100EF000FFF7FEBFFFF7FEBFFFF7FEBFFFF7FEBF26
:100F0000FFF7FEBFFFF7FEBFFFF7FEBFFFF7FEBF15
:100F1000FFF7FEBFFFF7FEBFFFF7FEBFFFF7FEBF05
:100F2000FFF7FEBFFFF7FEBFFFF7FEBFFFF7FEBFF5
:100F3000FFF7FEBFFFF7FEBFFFF7FEBFFFF7FEBFE5
:100F4000FFF7FEBFFFF7FEBFFFF7FEBFFFF7FEBFD5
:100F5000FFF7FEBFFFF7FEBFFFF7FEBFFFF7FEBFC5
:100F6000FFF7FEBFFFF7FEBFFFF7FEBFFFF7FEBFB5
:100F7000FFF7FEBFFFF7FEBFFFF7FEBFFFF7FEBFA5
:100F8000FFF7FEBFFFF7FEBFFFF7FEBFFFF7FEBF95
:100F9000FFF7FEBFFFF7FEBFFFF7FEBFFFF7FEBF85
:100FA000FFF7FEBFFFF7FEBFFFF7FEBFFFF7FEBF75
:100FB000FFF7FEBFFFF7FEBFFFF7FEBFFFF7FEBF65
:100FC000FFF7FEBFFFF7FEBFFFF7FEBFFFF7FEBF55
:100FD000FFF7FEBFFFF7FEBFFFF7FEBFFFF7FEBF45
:100FE000FFF7FEBFFFF7FEBFFFF7FEBFFFF7FEBF35
:100FF000FFF7FEBFFFF7FEBFFFF7FEBFFFF7FEBF25
:10100000FFF7FEBFFFF7FEBFFFF7FEBFFFF7FEBF14
:10101000FFF7FEBFFFF7FEBFFFF7FEBFFFF7FEBF04
:10102000FFF7FEBFFFF7FEBFFFF7FEBFFFF7FEBFF4
:10103000FFF7FEBFFFF7FEBFFFF7FEBFFFF7FEBFE4
:10104000FFF7FEBFFFF7FEBFFFF7FEBFFFF7FEBFD4
:10105000FFF7FEBFFFF7FEBFE4000001F90000014B
:10106000F5000001FD000001FD000001E9000001A4
:0B107000F9000010FC000124F4FB005C
:0400000508000E5988
:00000001FF
